{"src/SofiaFeeProxy.sol":{"SofiaFeeProxy":{"abi":[{"inputs":[{"internalType":"address","name":"_ethMultiVault","type":"address"},{"internalType":"address","name":"_feeRecipient","type":"address"},{"internalType":"uint256","name":"_creationFixedFee","type":"uint256"},{"internalType":"uint256","name":"_depositFixedFee","type":"uint256"},{"internalType":"uint256","name":"_depositPercentageFee","type":"uint256"},{"internalType":"address[]","name":"_initialAdmins","type":"address[]"}],"stateMutability":"nonpayable","type":"constructor"},{"inputs":[],"name":"SofiaFeeProxy_FeePercentageTooHigh","type":"error"},{"inputs":[],"name":"SofiaFeeProxy_InsufficientValue","type":"error"},{"inputs":[],"name":"SofiaFeeProxy_InvalidMultiVaultAddress","type":"error"},{"inputs":[],"name":"SofiaFeeProxy_InvalidMultisigAddress","type":"error"},{"inputs":[],"name":"SofiaFeeProxy_NotWhitelistedAdmin","type":"error"},{"inputs":[],"name":"SofiaFeeProxy_TransferFailed","type":"error"},{"inputs":[],"name":"SofiaFeeProxy_WrongArrayLengths","type":"error"},{"inputs":[],"name":"SofiaFeeProxy_ZeroAddress","type":"error"},{"anonymous":false,"inputs":[{"indexed":true,"internalType":"address","name":"admin","type":"address"},{"indexed":false,"internalType":"bool","name":"status","type":"bool"}],"name":"AdminWhitelistUpdated","type":"event"},{"anonymous":false,"inputs":[{"indexed":false,"internalType":"uint256","name":"oldFee","type":"uint256"},{"indexed":false,"internalType":"uint256","name":"newFee","type":"uint256"}],"name":"CreationFixedFeeUpdated","type":"event"},{"anonymous":false,"inputs":[{"indexed":false,"internalType":"uint256","name":"oldFee","type":"uint256"},{"indexed":false,"internalType":"uint256","name":"newFee","type":"uint256"}],"name":"DepositFixedFeeUpdated","type":"event"},{"anonymous":false,"inputs":[{"indexed":false,"internalType":"uint256","name":"oldFee","type":"uint256"},{"indexed":false,"internalType":"uint256","name":"newFee","type":"uint256"}],"name":"DepositPercentageFeeUpdated","type":"event"},{"anonymous":false,"inputs":[{"indexed":true,"internalType":"address","name":"oldRecipient","type":"address"},{"indexed":true,"internalType":"address","name":"newRecipient","type":"address"}],"name":"FeeRecipientUpdated","type":"event"},{"anonymous":false,"inputs":[{"indexed":true,"internalType":"address","name":"user","type":"address"},{"indexed":false,"internalType":"uint256","name":"amount","type":"uint256"},{"indexed":false,"internalType":"string","name":"operation","type":"string"}],"name":"FeesCollected","type":"event"},{"anonymous":false,"inputs":[{"indexed":false,"internalType":"string","name":"operation","type":"string"},{"indexed":false,"internalType":"uint256","name":"resultCount","type":"uint256"}],"name":"MultiVaultSuccess","type":"event"},{"anonymous":false,"inputs":[{"indexed":false,"internalType":"string","name":"operation","type":"string"},{"indexed":true,"internalType":"address","name":"user","type":"address"},{"indexed":false,"internalType":"uint256","name":"sofiaFee","type":"uint256"},{"indexed":false,"internalType":"uint256","name":"multiVaultValue","type":"uint256"},{"indexed":false,"internalType":"uint256","name":"totalReceived","type":"uint256"}],"name":"TransactionForwarded","type":"event"},{"inputs":[],"name":"FEE_DENOMINATOR","outputs":[{"internalType":"uint256","name":"","type":"uint256"}],"stateMutability":"view","type":"function"},{"inputs":[],"name":"MAX_FEE_PERCENTAGE","outputs":[{"internalType":"uint256","name":"","type":"uint256"}],"stateMutability":"view","type":"function"},{"inputs":[{"internalType":"bytes","name":"data","type":"bytes"}],"name":"calculateAtomId","outputs":[{"internalType":"bytes32","name":"","type":"bytes32"}],"stateMutability":"pure","type":"function"},{"inputs":[{"internalType":"uint256","name":"count","type":"uint256"}],"name":"calculateCreationFee","outputs":[{"internalType":"uint256","name":"","type":"uint256"}],"stateMutability":"view","type":"function"},{"inputs":[{"internalType":"uint256","name":"depositAmount","type":"uint256"}],"name":"calculateDepositFee","outputs":[{"internalType":"uint256","name":"","type":"uint256"}],"stateMutability":"view","type":"function"},{"inputs":[{"internalType":"bytes32","name":"subjectId","type":"bytes32"},{"internalType":"bytes32","name":"predicateId","type":"bytes32"},{"internalType":"bytes32","name":"objectId","type":"bytes32"}],"name":"calculateTripleId","outputs":[{"internalType":"bytes32","name":"","type":"bytes32"}],"stateMutability":"view","type":"function"},{"inputs":[{"internalType":"bytes[]","name":"data","type":"bytes[]"},{"internalType":"uint256[]","name":"assets","type":"uint256[]"}],"name":"createAtoms","outputs":[{"internalType":"bytes32[]","name":"","type":"bytes32[]"}],"stateMutability":"payable","type":"function"},{"inputs":[{"internalType":"bytes32[]","name":"subjectIds","type":"bytes32[]"},{"internalType":"bytes32[]","name":"predicateIds","type":"bytes32[]"},{"internalType":"bytes32[]","name":"objectIds","type":"bytes32[]"},{"internalType":"uint256[]","name":"assets","type":"uint256[]"}],"name":"createTriples","outputs":[{"internalType":"bytes32[]","name":"","type":"bytes32[]"}],"stateMutability":"payable","type":"function"},{"inputs":[],"name":"creationFixedFee","outputs":[{"internalType":"uint256","name":"","type":"uint256"}],"stateMutability":"view","type":"function"},{"inputs":[{"internalType":"address","name":"receiver","type":"address"},{"internalType":"bytes32","name":"termId","type":"bytes32"},{"internalType":"uint256","name":"curveId","type":"uint256"},{"internalType":"uint256","name":"minShares","type":"uint256"}],"name":"deposit","outputs":[{"internalType":"uint256","name":"shares","type":"uint256"}],"stateMutability":"payable","type":"function"},{"inputs":[{"internalType":"address","name":"receiver","type":"address"},{"internalType":"bytes32[]","name":"termIds","type":"bytes32[]"},{"internalType":"uint256[]","name":"curveIds","type":"uint256[]"},{"internalType":"uint256[]","name":"assets","type":"uint256[]"},{"internalType":"uint256[]","name":"minShares","type":"uint256[]"}],"name":"depositBatch","outputs":[{"internalType":"uint256[]","name":"shares","type":"uint256[]"}],"stateMutability":"payable","type":"function"},{"inputs":[],"name":"depositFixedFee","outputs":[{"internalType":"uint256","name":"","type":"uint256"}],"stateMutability":"view","type":"function"},{"inputs":[],"name":"depositPercentageFee","outputs":[{"internalType":"uint256","name":"","type":"uint256"}],"stateMutability":"view","type":"function"},{"inputs":[],"name":"ethMultiVault","outputs":[{"internalType":"contract IEthMultiVault","name":"","type":"address"}],"stateMutability":"view","type":"function"},{"inputs":[],"name":"feeRecipient","outputs":[{"internalType":"address","name":"","type":"address"}],"stateMutability":"view","type":"function"},{"inputs":[],"name":"getAtomCost","outputs":[{"internalType":"uint256","name":"","type":"uint256"}],"stateMutability":"view","type":"function"},{"inputs":[{"internalType":"uint256","name":"msgValue","type":"uint256"}],"name":"getMultiVaultAmountFromValue","outputs":[{"internalType":"uint256","name":"","type":"uint256"}],"stateMutability":"view","type":"function"},{"inputs":[{"internalType":"address","name":"account","type":"address"},{"internalType":"bytes32","name":"termId","type":"bytes32"},{"internalType":"uint256","name":"curveId","type":"uint256"}],"name":"getShares","outputs":[{"internalType":"uint256","name":"","type":"uint256"}],"stateMutability":"view","type":"function"},{"inputs":[{"internalType":"uint256","name":"count","type":"uint256"},{"internalType":"uint256","name":"multiVaultCost","type":"uint256"}],"name":"getTotalCreationCost","outputs":[{"internalType":"uint256","name":"","type":"uint256"}],"stateMutability":"view","type":"function"},{"inputs":[{"internalType":"uint256","name":"depositAmount","type":"uint256"}],"name":"getTotalDepositCost","outputs":[{"internalType":"uint256","name":"","type":"uint256"}],"stateMutability":"view","type":"function"},{"inputs":[{"internalType":"bytes32","name":"tripleId","type":"bytes32"}],"name":"getTriple","outputs":[{"internalType":"bytes32","name":"","type":"bytes32"},{"internalType":"bytes32","name":"","type":"bytes32"},{"internalType":"bytes32","name":"","type":"bytes32"}],"stateMutability":"view","type":"function"},{"inputs":[],"name":"getTripleCost","outputs":[{"internalType":"uint256","name":"","type":"uint256"}],"stateMutability":"view","type":"function"},{"inputs":[{"internalType":"bytes32","name":"id","type":"bytes32"}],"name":"isTermCreated","outputs":[{"internalType":"bool","name":"","type":"bool"}],"stateMutability":"view","type":"function"},{"inputs":[{"internalType":"bytes32","name":"termId","type":"bytes32"},{"internalType":"uint256","name":"curveId","type":"uint256"},{"internalType":"uint256","name":"assets","type":"uint256"}],"name":"previewDeposit","outputs":[{"internalType":"uint256","name":"","type":"uint256"},{"internalType":"uint256","name":"","type":"uint256"}],"stateMutability":"view","type":"function"},{"inputs":[{"internalType":"uint256","name":"newFee","type":"uint256"}],"name":"setCreationFixedFee","outputs":[],"stateMutability":"nonpayable","type":"function"},{"inputs":[{"internalType":"uint256","name":"newFee","type":"uint256"}],"name":"setDepositFixedFee","outputs":[],"stateMutability":"nonpayable","type":"function"},{"inputs":[{"internalType":"uint256","name":"newFee","type":"uint256"}],"name":"setDepositPercentageFee","outputs":[],"stateMutability":"nonpayable","type":"function"},{"inputs":[{"internalType":"address","name":"newRecipient","type":"address"}],"name":"setFeeRecipient","outputs":[],"stateMutability":"nonpayable","type":"function"},{"inputs":[{"internalType":"address","name":"admin","type":"address"},{"internalType":"bool","name":"status","type":"bool"}],"name":"setWhitelistedAdmin","outputs":[],"stateMutability":"nonpayable","type":"function"},{"inputs":[{"internalType":"address","name":"","type":"address"}],"name":"whitelistedAdmins","outputs":[{"internalType":"bool","name":"","type":"bool"}],"stateMutability":"view","type":"function"},{"stateMutability":"payable","type":"receive"}],"evm":{"bytecode":{"linkReferences":{},"object":"604060a0815234620002735762001cb7803803806200001e816200028e565b92833981019060c08183031262000273576200003a81620002b4565b602062000049818401620002b4565b91858401519360608101519560808201519060a083015160018060401b039384821162000273570181601f820112156200027357805193841162000278578360051b9086806200009b8185016200028e565b809781520192820101928311620002735786809101915b83831062000258575050506001600160a01b0393841695905085156200024757831694851562000236576127108211620002255760809897985260009460018060a01b03198654161785556001978896875560025560035583965b62000178575b85516119c29081620002f5823960805181818161018f015281816101f40152818161034b015281816106510152818161084c015281816109d701528181610ccc0152818161108501528181611196015281816113140152818161143301526115120152f35b80518710156200021f57816200018f8883620002c9565b5116620001c0575b6000198714620001ac5795840195846200010d565b634e487b7160e01b84526011600452602484fd5b81620001cd8883620002c9565b5116845260048352858420805460ff19168617905581620001ef8883620002c9565b51167fdb8e93bc198e2b2eea2f3ebbfdbc11d697156217479ac1f45564eb70891e3d05848851888152a262000197565b62000113565b8851635dfb18eb60e01b8152600490fd5b8851631023f93d60e01b8152600490fd5b8851634a787e9b60e11b8152600490fd5b81906200026584620002b4565b8152019101908690620000b2565b600080fd5b634e487b7160e01b600052604160045260246000fd5b6040519190601f01601f191682016001600160401b038111838210176200027857604052565b51906001600160a01b03821682036200027357565b8051821015620002de5760209160051b010190565b634e487b7160e01b600052603260045260246000fdfe6080604081815260049182361015610022575b505050361561002057600080fd5b005b600092833560e01c91826302ef36c71461160157508163082e709f146115535781630d65c91c146114ea5781630f060799146114cb5781630ff2663c1461149e578163247d284b146114745781632e1aa0f2146113ea5781632fb1d270146111d757816333332d391461116e5781633c6bbf4514610ebc5781634690484014610e94578163558e44d3146107ec5781635ce33d4f14610e1a5781636140330914610b5757816363173be714610b385781636828caa614610abb57816370b9add014610a9b578163717ba4d914610a5f5781637d4eaa9114610997578163ad934c1814610934578163b3ec372e146108f7578163c12f79471461081b578163c1757e36146107f1578163d73792a9146107ec578163dea9423a1461044f578163e74b981b146103c6578163ee3abe38146102f6578163f48371c014610285578163f5719008146101c2575063f8073c761461017c5780610012565b346101be57816003193601126101be57517f00000000000000000000000000000000000000000000000000000000000000006001600160a01b03168152602090f35b5080fd5b91905034610281576020928360031936011261026b578151631eae320160e31b815283359381019390935283836024817f00000000000000000000000000000000000000000000000000000000000000006001600160a01b03165afa928315610275578193610236575b5050519015158152f35b909192508381813d831161026e575b61024f8183611717565b810103126101be575190811515820361026b575090388061022c565b80fd5b503d610245565b509051903d90823e3d90fd5b8280fd5b905034610281576020366003190112610281578035903384528060205260ff8385205416156102e85750907f71bc2d9c4b3b5472e9afa8b00d83565c247798dbe5402735f27d074e8c8fdbd391600254908060025582519182526020820152a180f35b82516390c7c07160e01b8152fd5b9190503461028157606036600319011261028157602061031461161d565b8251631dc757c760e31b81526001600160a01b039182169481019490945260248035908501526044803590850152839060649082907f0000000000000000000000000000000000000000000000000000000000000000165afa9182156103bc578392610385575b6020838351908152f35b9091506020813d82116103b4575b816103a060209383611717565b81010312610281576020925051903861037b565b3d9150610393565b81513d85823e3d90fd5b905034610281576020366003190112610281576103e161161d565b903384528060205260ff8385205416156102e8576001600160a01b0391821692831561044257505082546001600160a01b0319811683178455167faaebcf1bfa00580e41d966056b48521fa9f202645c86d4ddf28113e617c1b1d38380a380f35b5163e4799d2b60e01b8152fd5b91905060a03660031901126102815761046661161d565b67ffffffffffffffff92602435848111610796576104879036908301611638565b926044358681116107e85761049f9036908501611638565b91906064358881116107e4576104b89036908701611638565b906084358a81116107e0576104d09036908901611638565b929093868a148015906107d6575b80156107cc575b6107bc576104f382846118d8565b966105196105038c6002546116c1565b6127106105126003548c6116c1565b049061170a565b610523818a61170a565b34106107ac57918c979593918f9b9a9997959361053f81611875565b89518181528a60208201523390808c810161057490604090600c81526b0c8cae0dee6d2e884c2e8c6d60a31b60208201520190565b0360008051602061192d83398151915291a289516080808252600c908201526b0c8cae0dee6d2e884c2e8c6d60a31b60a082015260c08101916020820152898b8201523460608201528033920360008051602061194d83398151915291a2600160a01b60019003998a99519d8e9c8d9b8c9a636f54a11d60e11b8c5216908a01526024890160a0905260a489019061060b926117e1565b90600319888303016044890152610621926117e1565b90600319868303016064870152610637926117e1565b9060031984830301608485015261064d926117e1565b03927f0000000000000000000000000000000000000000000000000000000000000000165af19283156107a257849361070b575b50509060008051602061196d8339815191528151835180918582526106c2868301604090600c81526b0c8cae0dee6d2e884c2e8c6d60a31b60208201520190565b9060208301520390a18151928392602080850191818652845180935285019301915b8181106106f2575050500390f35b82518452859450602093840193909201916001016106e4565b909192503d8085843e61071e8184611717565b82019160208184031261079e57805191821161079e57019080601f8301121561079a57815161074c8161174f565b9261075985519485611717565b81845260208085019260051b82010192831161079657602001905b82821061078657505050903880610681565b8151815260209182019101610774565b8580fd5b8380fd5b8480fd5b82513d86823e3d90fd5b8c516339e5774360e01b81528b90fd5b8a5163a9087e4b60e01b81528990fd5b50838214156104e5565b50818714156104de565b8b80fd5b8980fd5b8780fd5b6116a4565b82843461026b57602036600319011261026b5750610814602092356001546116c1565b9051908152f35b9190503461028157602036600319011261028157805163c12f794760e01b81528235928101929092526060826024817f00000000000000000000000000000000000000000000000000000000000000006001600160a01b03165afa9081156108ee5783928480936108a6575b50505191825260208201929092526040810191909152606090f35b0390f35b9250925092506060823d82116108e6575b816108c460609383611717565b8101031261026b57506108a28151928060208401519301519392939138610887565b3d91506108b7565b513d84823e3d90fd5b9050346102815760203660031901126102815760209260ff918391906001600160a01b0361092361161d565b168252855220541690519015158152f35b905034610281576020366003190112610281578035903384528060205260ff8385205416156102e85750907f05fcb23afb0fb7986c3f826699011cf4d5126fd38c3105ad6f16690b2bd16d2891600154908060015582519182526020820152a180f35b839150346101be5760603660031901126101be578251637d4eaa9160e01b81528135918101919091526024803590820152604480359082015282816064817f00000000000000000000000000000000000000000000000000000000000000006001600160a01b03165afa908115610a5557828092610a1e575b505082519182526020820152f35b915091508282813d8311610a4e575b610a378183611717565b8101031261026b5750602081519101518380610a10565b503d610a2d565b83513d84823e3d90fd5b82843461026b57602036600319011261026b575061081460209235610a95612710610a8c600354846116c1565b0460025461170a565b9061170a565b82843461026b57602036600319011261026b575061081460209235611812565b9050346102815760203660031901126102815780359067ffffffffffffffff9081831161079e573660238401121561079e5782013590811161079a57366024828401011161079a5760209384610b1083611859565b92610b1d86519485611717565b80845280602483860196018637830101525190209051908152f35b5050346101be57816003193601126101be576020906003549051908152f35b9050600319828136011261079a5767ffffffffffffffff823581811161079657610b849036908501611638565b90926024358381116107e857610b9d9036908701611638565b939092600191610bae8284546116c1565b97610bb987876118d8565b98610bc48a8261170a565b3410610e0b57918a99959196929485610be18e9a969d9b97611875565b60008051602061194d8339815191528b51918083528960209d848f95868391015260008051602061192d833981519152339180610c39858201604090600b81526a63726561746541746f6d7360a81b60208201520190565b0390a280516080808252600b908201526a63726561746541746f6d7360a81b60a08201529485019290925290830152346060830152339160c090a28b8b519c8d99636140330960e01b8b528d60448c01918c015252606489019660648260051b8b01019781948c925b848410610d90575050505050505092859392610cc89285948584030160248601526117e1565b03917f00000000000000000000000000000000000000000000000000000000000000006001600160a01b03165af19283156107a257846108a29594610d5a575b505060008051602061196d8339815191529083518351918291858352610d49868401604090600b81526a63726561746541746f6d7360a81b60208201520190565b918301520390a15191829182611669565b60008051602061196d83398151915292945090610d88913d8091833e610d808183611717565b810190611767565b929038610d08565b92959b60639d919497999b9d9a9295989a199083030185528b3590601e198436030182121561026b57838f920191823592018583116101be5782360381136101be578f92938484938185948e98855285850137838284010152601f801991011601019c019401940190938f9b999795928f9b99979495610ca2565b5089516339e5774360e01b8152fd5b905034610281576020366003190112610281578035903384528060205260ff8385205416156102e8576127108211610e865750907f941228a4ace352cb2d85f4fc40701585a9ba154072a8794bff7db2bb6127773491600354908060035582519182526020820152a180f35b8251635dfb18eb60e01b8152fd5b5050346101be57816003193601126101be57905490516001600160a01b039091168152602090f35b600319928492506080368501126102815767ffffffffffffffff823581811161079e57610eec9036908501611638565b60249291923582811161116a57610f069036908701611638565b95909260443581811161116657610f209036908401611638565b9990916064359081116107e457610f3a9036908501611638565b909289861480159061115c575b8015611152575b61114257610f5e866001546116c1565b9b8c97610f75610f6e85886118d8565b809a61170a565b3410611132578d610f8a8e9f9e9c9d9e611875565b8c80518281528160208201528033928101610fc090604090600d81526c637265617465547269706c657360981b60208201520190565b0360008051602061192d83398151915291a28c516080808252600d908201526c637265617465547269706c657360981b60a08201528a8e60c083019360208401528201523460608201528033920360008051602061194d83398151915291a28b519c8d9a8b998a99633c6bbf4560e01b8b528a016080905260848a0190611046926117e1565b90868983030160248a015261105a926117e1565b908487830301604488015261106e926117e1565b91848303016064850152611081926117e1565b03917f00000000000000000000000000000000000000000000000000000000000000006001600160a01b03165af19182156103bc57836108a29493611115575b505060008051602061196d833981519152825182518091848252611102858301604090600d81526c637265617465547269706c657360981b60208201520190565b9060208301520390a15191829182611669565b61112a9293503d8091833e610d808183611717565b9083806110c1565b8a516339e5774360e01b81528790fd5b885163a9087e4b60e01b81528590fd5b50818c1415610f4e565b508b8a1415610f47565b8880fd5b8680fd5b9190503461028157826003193601126102815780516333332d3960e01b8152916020908390817f00000000000000000000000000000000000000000000000000000000000000006001600160a01b03165afa9182156103bc578392610385576020838351908152f35b838360803660031901126101be576111ed61161d565b92600254803411156113db576112039034611805565b61271090818102908082048314901517156113c85760035482018092116113c8579061122e916116ea565b936112398534611805565b9461124386611875565b608484519287845260209784878a8097015260008051602061192d8339815191523391806112888b8201604090600781526619195c1bdcda5d60ca1b60208201520190565b0390a260008051602061194d8339815191528751608081526112c260808201604090600781526619195c1bdcda5d60ca1b60208201520190565b928782015285898201523460608201528033930390a285516302fb1d2760e41b81526001600160a01b0391821695810195909552602480359086015260448035908601526064803590860152849283917f0000000000000000000000000000000000000000000000000000000000000000165af19283156113bd57809361138b575b505060008051602061196d83398151915281518281528061137c848201604090600781526619195c1bdcda5d60ca1b60208201520190565b6001878301520390a151908152f35b909192508382813d83116113b6575b6113a48183611717565b8101031261026b575051908380611344565b503d61139a565b8251903d90823e3d90fd5b634e487b7160e01b855260118352602485fd5b5090516339e5774360e01b8152fd5b9190503461028157606036600319011261028157805163170d507960e11b81528235928101928352602435602084810191909152604435604085015290928390819060600103817f00000000000000000000000000000000000000000000000000000000000000006001600160a01b03165afa9182156103bc578392610385576020838351908152f35b82843461026b57602036600319011261026b5750610814612710610a8c60209460035490356116c1565b82843461026b578160031936011261026b57506108146114c3602093356001546116c1565b60243561170a565b5050346101be57816003193601126101be576020906001549051908152f35b919050346102815782600319360112610281578051630359724760e21b8152916020908390817f00000000000000000000000000000000000000000000000000000000000000006001600160a01b03165afa9182156103bc578392610385576020838351908152f35b9190503461028157806003193601126102815761156e61161d565b906024359182151580930361079e573385528360205260ff8286205416156115f1576001600160a01b03169283156115e357916020917fdb8e93bc198e2b2eea2f3ebbfdbc11d697156217479ac1f45564eb70891e3d0593858752835280862060ff1981541660ff841617905551908152a280f35b905163e4799d2b60e01b8152fd5b81516390c7c07160e01b81528490fd5b8490346101be57816003193601126101be576020906002548152f35b600435906001600160a01b038216820361163357565b600080fd5b9181601f840112156116335782359167ffffffffffffffff8311611633576020808501948460051b01011161163357565b6020908160408183019282815285518094520193019160005b828110611690575050505090565b835185529381019392810192600101611682565b346116335760003660031901126116335760206040516127108152f35b818102929181159184041417156116d457565b634e487b7160e01b600052601160045260246000fd5b81156116f4570490565b634e487b7160e01b600052601260045260246000fd5b919082018092116116d457565b90601f8019910116810190811067ffffffffffffffff82111761173957604052565b634e487b7160e01b600052604160045260246000fd5b67ffffffffffffffff81116117395760051b60200190565b60209081818403126116335780519067ffffffffffffffff821161163357019180601f8401121561163357825161179d8161174f565b936117ab6040519586611717565b818552838086019260051b820101928311611633578301905b8282106117d2575050505090565b815181529083019083016117c4565b81835290916001600160fb1b0383116116335760209260051b809284830137010190565b919082039182116116d457565b600254808211156118525761182691611805565b612710808202918083048214901517156116d45760035481018091116116d45761184f916116ea565b90565b5050600090565b67ffffffffffffffff811161173957601f01601f191660200190565b8061187d5750565b6000808080809460018060a01b038254165af1903d156118d2573d906118a282611859565b916118b06040519384611717565b825260203d92013e5b156118c057565b604051630291be7b60e31b8152600490fd5b506118b9565b60009291839182905b8284106118ee5750505050565b90919294611903908660051b8301359061170a565b946000198114611918576001019291906118e1565b634e487b7160e01b83526011600452602483fdfedb23cba216bfaed89070d2734596f2ee2a163099cfc4f5ef32036debc97922266ebd237946549f7dd8c5b01156cfe92d39b298a153adb4c9911a5008ab7768626a35bcb4a51611dbcd01a735cefa7e3801d75be5a8a7ef08e5eae650fdbc9796a264697066735822122037120c5ce0f908734e57c80ebfcf3cfb1d3f9aa6d4425c097577b7f919547d9964736f6c63430008150033","opcodes":"PUSH1 0x40 PUSH1 0xA0 DUP2 MSTORE CALLVALUE PUSH3 0x273 JUMPI PUSH3 0x1CB7 DUP1 CODESIZE SUB DUP1 PUSH3 0x1E DUP2 PUSH3 0x28E JUMP JUMPDEST SWAP3 DUP4 CODECOPY DUP2 ADD SWAP1 PUSH1 0xC0 DUP2 DUP4 SUB SLT PUSH3 0x273 JUMPI PUSH3 0x3A DUP2 PUSH3 0x2B4 JUMP JUMPDEST PUSH1 0x20 PUSH3 0x49 DUP2 DUP5 ADD PUSH3 0x2B4 JUMP JUMPDEST SWAP2 DUP6 DUP5 ADD MLOAD SWAP4 PUSH1 0x60 DUP2 ADD MLOAD SWAP6 PUSH1 0x80 DUP3 ADD MLOAD SWAP1 PUSH1 0xA0 DUP4 ADD MLOAD PUSH1 0x1 DUP1 PUSH1 0x40 SHL SUB SWAP4 DUP5 DUP3 GT PUSH3 0x273 JUMPI ADD DUP2 PUSH1 0x1F DUP3 ADD SLT ISZERO PUSH3 0x273 JUMPI DUP1 MLOAD SWAP4 DUP5 GT PUSH3 0x278 JUMPI DUP4 PUSH1 0x5 SHL SWAP1 DUP7 DUP1 PUSH3 0x9B DUP2 DUP6 ADD PUSH3 0x28E JUMP JUMPDEST DUP1 SWAP8 DUP2 MSTORE ADD SWAP3 DUP3 ADD ADD SWAP3 DUP4 GT PUSH3 0x273 JUMPI DUP7 DUP1 SWAP2 ADD SWAP2 JUMPDEST DUP4 DUP4 LT PUSH3 0x258 JUMPI POP POP POP PUSH1 0x1 PUSH1 0x1 PUSH1 0xA0 SHL SUB SWAP4 DUP5 AND SWAP6 SWAP1 POP DUP6 ISZERO PUSH3 0x247 JUMPI DUP4 AND SWAP5 DUP6 ISZERO PUSH3 0x236 JUMPI PUSH2 0x2710 DUP3 GT PUSH3 0x225 JUMPI PUSH1 0x80 SWAP9 SWAP8 SWAP9 MSTORE PUSH1 0x0 SWAP5 PUSH1 0x1 DUP1 PUSH1 0xA0 SHL SUB NOT DUP7 SLOAD AND OR DUP6 SSTORE PUSH1 0x1 SWAP8 DUP9 SWAP7 DUP8 SSTORE PUSH1 0x2 SSTORE PUSH1 0x3 SSTORE DUP4 SWAP7 JUMPDEST PUSH3 0x178 JUMPI JUMPDEST DUP6 MLOAD PUSH2 0x19C2 SWAP1 DUP2 PUSH3 0x2F5 DUP3 CODECOPY PUSH1 0x80 MLOAD DUP2 DUP2 DUP2 PUSH2 0x18F ADD MSTORE DUP2 DUP2 PUSH2 0x1F4 ADD MSTORE DUP2 DUP2 PUSH2 0x34B ADD MSTORE DUP2 DUP2 PUSH2 0x651 ADD MSTORE DUP2 DUP2 PUSH2 0x84C ADD MSTORE DUP2 DUP2 PUSH2 0x9D7 ADD MSTORE DUP2 DUP2 PUSH2 0xCCC ADD MSTORE DUP2 DUP2 PUSH2 0x1085 ADD MSTORE DUP2 DUP2 PUSH2 0x1196 ADD MSTORE DUP2 DUP2 PUSH2 0x1314 ADD MSTORE DUP2 DUP2 PUSH2 0x1433 ADD MSTORE PUSH2 0x1512 ADD MSTORE RETURN JUMPDEST DUP1 MLOAD DUP8 LT ISZERO PUSH3 0x21F JUMPI DUP2 PUSH3 0x18F DUP9 DUP4 PUSH3 0x2C9 JUMP JUMPDEST MLOAD AND PUSH3 0x1C0 JUMPI JUMPDEST PUSH1 0x0 NOT DUP8 EQ PUSH3 0x1AC JUMPI SWAP6 DUP5 ADD SWAP6 DUP5 PUSH3 0x10D JUMP JUMPDEST PUSH4 0x4E487B71 PUSH1 0xE0 SHL DUP5 MSTORE PUSH1 0x11 PUSH1 0x4 MSTORE PUSH1 0x24 DUP5 REVERT JUMPDEST DUP2 PUSH3 0x1CD DUP9 DUP4 PUSH3 0x2C9 JUMP JUMPDEST MLOAD AND DUP5 MSTORE PUSH1 0x4 DUP4 MSTORE DUP6 DUP5 KECCAK256 DUP1 SLOAD PUSH1 0xFF NOT AND DUP7 OR SWAP1 SSTORE DUP2 PUSH3 0x1EF DUP9 DUP4 PUSH3 0x2C9 JUMP JUMPDEST MLOAD AND PUSH32 0xDB8E93BC198E2B2EEA2F3EBBFDBC11D697156217479AC1F45564EB70891E3D05 DUP5 DUP9 MLOAD DUP9 DUP2 MSTORE LOG2 PUSH3 0x197 JUMP JUMPDEST PUSH3 0x113 JUMP JUMPDEST DUP9 MLOAD PUSH4 0x5DFB18EB PUSH1 0xE0 SHL DUP2 MSTORE PUSH1 0x4 SWAP1 REVERT JUMPDEST DUP9 MLOAD PUSH4 0x1023F93D PUSH1 0xE0 SHL DUP2 MSTORE PUSH1 0x4 SWAP1 REVERT JUMPDEST DUP9 MLOAD PUSH4 0x4A787E9B PUSH1 0xE1 SHL DUP2 MSTORE PUSH1 0x4 SWAP1 REVERT JUMPDEST DUP2 SWAP1 PUSH3 0x265 DUP5 PUSH3 0x2B4 JUMP JUMPDEST DUP2 MSTORE ADD SWAP2 ADD SWAP1 DUP7 SWAP1 PUSH3 0xB2 JUMP JUMPDEST PUSH1 0x0 DUP1 REVERT JUMPDEST PUSH4 0x4E487B71 PUSH1 0xE0 SHL PUSH1 0x0 MSTORE PUSH1 0x41 PUSH1 0x4 MSTORE PUSH1 0x24 PUSH1 0x0 REVERT JUMPDEST PUSH1 0x40 MLOAD SWAP2 SWAP1 PUSH1 0x1F ADD PUSH1 0x1F NOT AND DUP3 ADD PUSH1 0x1 PUSH1 0x1 PUSH1 0x40 SHL SUB DUP2 GT DUP4 DUP3 LT OR PUSH3 0x278 JUMPI PUSH1 0x40 MSTORE JUMP JUMPDEST MLOAD SWAP1 PUSH1 0x1 PUSH1 0x1 PUSH1 0xA0 SHL SUB DUP3 AND DUP3 SUB PUSH3 0x273 JUMPI JUMP JUMPDEST DUP1 MLOAD DUP3 LT ISZERO PUSH3 0x2DE JUMPI PUSH1 0x20 SWAP2 PUSH1 0x5 SHL ADD ADD SWAP1 JUMP JUMPDEST PUSH4 0x4E487B71 PUSH1 0xE0 SHL PUSH1 0x0 MSTORE PUSH1 0x32 PUSH1 0x4 MSTORE PUSH1 0x24 PUSH1 0x0 REVERT INVALID PUSH1 0x80 PUSH1 0x40 DUP2 DUP2 MSTORE PUSH1 0x4 SWAP2 DUP3 CALLDATASIZE LT ISZERO PUSH2 0x22 JUMPI JUMPDEST POP POP POP CALLDATASIZE ISZERO PUSH2 0x20 JUMPI PUSH1 0x0 DUP1 REVERT JUMPDEST STOP JUMPDEST PUSH1 0x0 SWAP3 DUP4 CALLDATALOAD PUSH1 0xE0 SHR SWAP2 DUP3 PUSH4 0x2EF36C7 EQ PUSH2 0x1601 JUMPI POP DUP2 PUSH4 0x82E709F EQ PUSH2 0x1553 JUMPI DUP2 PUSH4 0xD65C91C EQ PUSH2 0x14EA JUMPI DUP2 PUSH4 0xF060799 EQ PUSH2 0x14CB JUMPI DUP2 PUSH4 0xFF2663C EQ PUSH2 0x149E JUMPI DUP2 PUSH4 0x247D284B EQ PUSH2 0x1474 JUMPI DUP2 PUSH4 0x2E1AA0F2 EQ PUSH2 0x13EA JUMPI DUP2 PUSH4 0x2FB1D270 EQ PUSH2 0x11D7 JUMPI DUP2 PUSH4 0x33332D39 EQ PUSH2 0x116E JUMPI DUP2 PUSH4 0x3C6BBF45 EQ PUSH2 0xEBC JUMPI DUP2 PUSH4 0x46904840 EQ PUSH2 0xE94 JUMPI DUP2 PUSH4 0x558E44D3 EQ PUSH2 0x7EC JUMPI DUP2 PUSH4 0x5CE33D4F EQ PUSH2 0xE1A JUMPI DUP2 PUSH4 0x61403309 EQ PUSH2 0xB57 JUMPI DUP2 PUSH4 0x63173BE7 EQ PUSH2 0xB38 JUMPI DUP2 PUSH4 0x6828CAA6 EQ PUSH2 0xABB JUMPI DUP2 PUSH4 0x70B9ADD0 EQ PUSH2 0xA9B JUMPI DUP2 PUSH4 0x717BA4D9 EQ PUSH2 0xA5F JUMPI DUP2 PUSH4 0x7D4EAA91 EQ PUSH2 0x997 JUMPI DUP2 PUSH4 0xAD934C18 EQ PUSH2 0x934 JUMPI DUP2 PUSH4 0xB3EC372E EQ PUSH2 0x8F7 JUMPI DUP2 PUSH4 0xC12F7947 EQ PUSH2 0x81B JUMPI DUP2 PUSH4 0xC1757E36 EQ PUSH2 0x7F1 JUMPI DUP2 PUSH4 0xD73792A9 EQ PUSH2 0x7EC JUMPI DUP2 PUSH4 0xDEA9423A EQ PUSH2 0x44F JUMPI DUP2 PUSH4 0xE74B981B EQ PUSH2 0x3C6 JUMPI DUP2 PUSH4 0xEE3ABE38 EQ PUSH2 0x2F6 JUMPI DUP2 PUSH4 0xF48371C0 EQ PUSH2 0x285 JUMPI DUP2 PUSH4 0xF5719008 EQ PUSH2 0x1C2 JUMPI POP PUSH4 0xF8073C76 EQ PUSH2 0x17C JUMPI DUP1 PUSH2 0x12 JUMP JUMPDEST CALLVALUE PUSH2 0x1BE JUMPI DUP2 PUSH1 0x3 NOT CALLDATASIZE ADD SLT PUSH2 0x1BE JUMPI MLOAD PUSH32 0x0 PUSH1 0x1 PUSH1 0x1 PUSH1 0xA0 SHL SUB AND DUP2 MSTORE PUSH1 0x20 SWAP1 RETURN JUMPDEST POP DUP1 REVERT JUMPDEST SWAP2 SWAP1 POP CALLVALUE PUSH2 0x281 JUMPI PUSH1 0x20 SWAP3 DUP4 PUSH1 0x3 NOT CALLDATASIZE ADD SLT PUSH2 0x26B JUMPI DUP2 MLOAD PUSH4 0x1EAE3201 PUSH1 0xE3 SHL DUP2 MSTORE DUP4 CALLDATALOAD SWAP4 DUP2 ADD SWAP4 SWAP1 SWAP4 MSTORE DUP4 DUP4 PUSH1 0x24 DUP2 PUSH32 0x0 PUSH1 0x1 PUSH1 0x1 PUSH1 0xA0 SHL SUB AND GAS STATICCALL SWAP3 DUP4 ISZERO PUSH2 0x275 JUMPI DUP2 SWAP4 PUSH2 0x236 JUMPI JUMPDEST POP POP MLOAD SWAP1 ISZERO ISZERO DUP2 MSTORE RETURN JUMPDEST SWAP1 SWAP2 SWAP3 POP DUP4 DUP2 DUP2 RETURNDATASIZE DUP4 GT PUSH2 0x26E JUMPI JUMPDEST PUSH2 0x24F DUP2 DUP4 PUSH2 0x1717 JUMP JUMPDEST DUP2 ADD SUB SLT PUSH2 0x1BE JUMPI MLOAD SWAP1 DUP2 ISZERO ISZERO DUP3 SUB PUSH2 0x26B JUMPI POP SWAP1 CODESIZE DUP1 PUSH2 0x22C JUMP JUMPDEST DUP1 REVERT JUMPDEST POP RETURNDATASIZE PUSH2 0x245 JUMP JUMPDEST POP SWAP1 MLOAD SWAP1 RETURNDATASIZE SWAP1 DUP3 RETURNDATACOPY RETURNDATASIZE SWAP1 REVERT JUMPDEST DUP3 DUP1 REVERT JUMPDEST SWAP1 POP CALLVALUE PUSH2 0x281 JUMPI PUSH1 0x20 CALLDATASIZE PUSH1 0x3 NOT ADD SLT PUSH2 0x281 JUMPI DUP1 CALLDATALOAD SWAP1 CALLER DUP5 MSTORE DUP1 PUSH1 0x20 MSTORE PUSH1 0xFF DUP4 DUP6 KECCAK256 SLOAD AND ISZERO PUSH2 0x2E8 JUMPI POP SWAP1 PUSH32 0x71BC2D9C4B3B5472E9AFA8B00D83565C247798DBE5402735F27D074E8C8FDBD3 SWAP2 PUSH1 0x2 SLOAD SWAP1 DUP1 PUSH1 0x2 SSTORE DUP3 MLOAD SWAP2 DUP3 MSTORE PUSH1 0x20 DUP3 ADD MSTORE LOG1 DUP1 RETURN JUMPDEST DUP3 MLOAD PUSH4 0x90C7C071 PUSH1 0xE0 SHL DUP2 MSTORE REVERT JUMPDEST SWAP2 SWAP1 POP CALLVALUE PUSH2 0x281 JUMPI PUSH1 0x60 CALLDATASIZE PUSH1 0x3 NOT ADD SLT PUSH2 0x281 JUMPI PUSH1 0x20 PUSH2 0x314 PUSH2 0x161D JUMP JUMPDEST DUP3 MLOAD PUSH4 0x1DC757C7 PUSH1 0xE3 SHL DUP2 MSTORE PUSH1 0x1 PUSH1 0x1 PUSH1 0xA0 SHL SUB SWAP2 DUP3 AND SWAP5 DUP2 ADD SWAP5 SWAP1 SWAP5 MSTORE PUSH1 0x24 DUP1 CALLDATALOAD SWAP1 DUP6 ADD MSTORE PUSH1 0x44 DUP1 CALLDATALOAD SWAP1 DUP6 ADD MSTORE DUP4 SWAP1 PUSH1 0x64 SWAP1 DUP3 SWAP1 PUSH32 0x0 AND GAS STATICCALL SWAP2 DUP3 ISZERO PUSH2 0x3BC JUMPI DUP4 SWAP3 PUSH2 0x385 JUMPI JUMPDEST PUSH1 0x20 DUP4 DUP4 MLOAD SWAP1 DUP2 MSTORE RETURN JUMPDEST SWAP1 SWAP2 POP PUSH1 0x20 DUP2 RETURNDATASIZE DUP3 GT PUSH2 0x3B4 JUMPI JUMPDEST DUP2 PUSH2 0x3A0 PUSH1 0x20 SWAP4 DUP4 PUSH2 0x1717 JUMP JUMPDEST DUP2 ADD SUB SLT PUSH2 0x281 JUMPI PUSH1 0x20 SWAP3 POP MLOAD SWAP1 CODESIZE PUSH2 0x37B JUMP JUMPDEST RETURNDATASIZE SWAP2 POP PUSH2 0x393 JUMP JUMPDEST DUP2 MLOAD RETURNDATASIZE DUP6 DUP3 RETURNDATACOPY RETURNDATASIZE SWAP1 REVERT JUMPDEST SWAP1 POP CALLVALUE PUSH2 0x281 JUMPI PUSH1 0x20 CALLDATASIZE PUSH1 0x3 NOT ADD SLT PUSH2 0x281 JUMPI PUSH2 0x3E1 PUSH2 0x161D JUMP JUMPDEST SWAP1 CALLER DUP5 MSTORE DUP1 PUSH1 0x20 MSTORE PUSH1 0xFF DUP4 DUP6 KECCAK256 SLOAD AND ISZERO PUSH2 0x2E8 JUMPI PUSH1 0x1 PUSH1 0x1 PUSH1 0xA0 SHL SUB SWAP2 DUP3 AND SWAP3 DUP4 ISZERO PUSH2 0x442 JUMPI POP POP DUP3 SLOAD PUSH1 0x1 PUSH1 0x1 PUSH1 0xA0 SHL SUB NOT DUP2 AND DUP4 OR DUP5 SSTORE AND PUSH32 0xAAEBCF1BFA00580E41D966056B48521FA9F202645C86D4DDF28113E617C1B1D3 DUP4 DUP1 LOG3 DUP1 RETURN JUMPDEST MLOAD PUSH4 0xE4799D2B PUSH1 0xE0 SHL DUP2 MSTORE REVERT JUMPDEST SWAP2 SWAP1 POP PUSH1 0xA0 CALLDATASIZE PUSH1 0x3 NOT ADD SLT PUSH2 0x281 JUMPI PUSH2 0x466 PUSH2 0x161D JUMP JUMPDEST PUSH8 0xFFFFFFFFFFFFFFFF SWAP3 PUSH1 0x24 CALLDATALOAD DUP5 DUP2 GT PUSH2 0x796 JUMPI PUSH2 0x487 SWAP1 CALLDATASIZE SWAP1 DUP4 ADD PUSH2 0x1638 JUMP JUMPDEST SWAP3 PUSH1 0x44 CALLDATALOAD DUP7 DUP2 GT PUSH2 0x7E8 JUMPI PUSH2 0x49F SWAP1 CALLDATASIZE SWAP1 DUP6 ADD PUSH2 0x1638 JUMP JUMPDEST SWAP2 SWAP1 PUSH1 0x64 CALLDATALOAD DUP9 DUP2 GT PUSH2 0x7E4 JUMPI PUSH2 0x4B8 SWAP1 CALLDATASIZE SWAP1 DUP8 ADD PUSH2 0x1638 JUMP JUMPDEST SWAP1 PUSH1 0x84 CALLDATALOAD DUP11 DUP2 GT PUSH2 0x7E0 JUMPI PUSH2 0x4D0 SWAP1 CALLDATASIZE SWAP1 DUP10 ADD PUSH2 0x1638 JUMP JUMPDEST SWAP3 SWAP1 SWAP4 DUP7 DUP11 EQ DUP1 ISZERO SWAP1 PUSH2 0x7D6 JUMPI JUMPDEST DUP1 ISZERO PUSH2 0x7CC JUMPI JUMPDEST PUSH2 0x7BC JUMPI PUSH2 0x4F3 DUP3 DUP5 PUSH2 0x18D8 JUMP JUMPDEST SWAP7 PUSH2 0x519 PUSH2 0x503 DUP13 PUSH1 0x2 SLOAD PUSH2 0x16C1 JUMP JUMPDEST PUSH2 0x2710 PUSH2 0x512 PUSH1 0x3 SLOAD DUP13 PUSH2 0x16C1 JUMP JUMPDEST DIV SWAP1 PUSH2 0x170A JUMP JUMPDEST PUSH2 0x523 DUP2 DUP11 PUSH2 0x170A JUMP JUMPDEST CALLVALUE LT PUSH2 0x7AC JUMPI SWAP2 DUP13 SWAP8 SWAP6 SWAP4 SWAP2 DUP16 SWAP12 SWAP11 SWAP10 SWAP8 SWAP6 SWAP4 PUSH2 0x53F DUP2 PUSH2 0x1875 JUMP JUMPDEST DUP10 MLOAD DUP2 DUP2 MSTORE DUP11 PUSH1 0x20 DUP3 ADD MSTORE CALLER SWAP1 DUP1 DUP13 DUP2 ADD PUSH2 0x574 SWAP1 PUSH1 0x40 SWAP1 PUSH1 0xC DUP2 MSTORE PUSH12 0xC8CAE0DEE6D2E884C2E8C6D PUSH1 0xA3 SHL PUSH1 0x20 DUP3 ADD MSTORE ADD SWAP1 JUMP JUMPDEST SUB PUSH1 0x0 DUP1 MLOAD PUSH1 0x20 PUSH2 0x192D DUP4 CODECOPY DUP2 MLOAD SWAP2 MSTORE SWAP2 LOG2 DUP10 MLOAD PUSH1 0x80 DUP1 DUP3 MSTORE PUSH1 0xC SWAP1 DUP3 ADD MSTORE PUSH12 0xC8CAE0DEE6D2E884C2E8C6D PUSH1 0xA3 SHL PUSH1 0xA0 DUP3 ADD MSTORE PUSH1 0xC0 DUP2 ADD SWAP2 PUSH1 0x20 DUP3 ADD MSTORE DUP10 DUP12 DUP3 ADD MSTORE CALLVALUE PUSH1 0x60 DUP3 ADD MSTORE DUP1 CALLER SWAP3 SUB PUSH1 0x0 DUP1 MLOAD PUSH1 0x20 PUSH2 0x194D DUP4 CODECOPY DUP2 MLOAD SWAP2 MSTORE SWAP2 LOG2 PUSH1 0x1 PUSH1 0xA0 SHL PUSH1 0x1 SWAP1 SUB SWAP10 DUP11 SWAP10 MLOAD SWAP14 DUP15 SWAP13 DUP14 SWAP12 DUP13 SWAP11 PUSH4 0x6F54A11D PUSH1 0xE1 SHL DUP13 MSTORE AND SWAP1 DUP11 ADD MSTORE PUSH1 0x24 DUP10 ADD PUSH1 0xA0 SWAP1 MSTORE PUSH1 0xA4 DUP10 ADD SWAP1 PUSH2 0x60B SWAP3 PUSH2 0x17E1 JUMP JUMPDEST SWAP1 PUSH1 0x3 NOT DUP9 DUP4 SUB ADD PUSH1 0x44 DUP10 ADD MSTORE PUSH2 0x621 SWAP3 PUSH2 0x17E1 JUMP JUMPDEST SWAP1 PUSH1 0x3 NOT DUP7 DUP4 SUB ADD PUSH1 0x64 DUP8 ADD MSTORE PUSH2 0x637 SWAP3 PUSH2 0x17E1 JUMP JUMPDEST SWAP1 PUSH1 0x3 NOT DUP5 DUP4 SUB ADD PUSH1 0x84 DUP6 ADD MSTORE PUSH2 0x64D SWAP3 PUSH2 0x17E1 JUMP JUMPDEST SUB SWAP3 PUSH32 0x0 AND GAS CALL SWAP3 DUP4 ISZERO PUSH2 0x7A2 JUMPI DUP5 SWAP4 PUSH2 0x70B JUMPI JUMPDEST POP POP SWAP1 PUSH1 0x0 DUP1 MLOAD PUSH1 0x20 PUSH2 0x196D DUP4 CODECOPY DUP2 MLOAD SWAP2 MSTORE DUP2 MLOAD DUP4 MLOAD DUP1 SWAP2 DUP6 DUP3 MSTORE PUSH2 0x6C2 DUP7 DUP4 ADD PUSH1 0x40 SWAP1 PUSH1 0xC DUP2 MSTORE PUSH12 0xC8CAE0DEE6D2E884C2E8C6D PUSH1 0xA3 SHL PUSH1 0x20 DUP3 ADD MSTORE ADD SWAP1 JUMP JUMPDEST SWAP1 PUSH1 0x20 DUP4 ADD MSTORE SUB SWAP1 LOG1 DUP2 MLOAD SWAP3 DUP4 SWAP3 PUSH1 0x20 DUP1 DUP6 ADD SWAP2 DUP2 DUP7 MSTORE DUP5 MLOAD DUP1 SWAP4 MSTORE DUP6 ADD SWAP4 ADD SWAP2 JUMPDEST DUP2 DUP2 LT PUSH2 0x6F2 JUMPI POP POP POP SUB SWAP1 RETURN JUMPDEST DUP3 MLOAD DUP5 MSTORE DUP6 SWAP5 POP PUSH1 0x20 SWAP4 DUP5 ADD SWAP4 SWAP1 SWAP3 ADD SWAP2 PUSH1 0x1 ADD PUSH2 0x6E4 JUMP JUMPDEST SWAP1 SWAP2 SWAP3 POP RETURNDATASIZE DUP1 DUP6 DUP5 RETURNDATACOPY PUSH2 0x71E DUP2 DUP5 PUSH2 0x1717 JUMP JUMPDEST DUP3 ADD SWAP2 PUSH1 0x20 DUP2 DUP5 SUB SLT PUSH2 0x79E JUMPI DUP1 MLOAD SWAP2 DUP3 GT PUSH2 0x79E JUMPI ADD SWAP1 DUP1 PUSH1 0x1F DUP4 ADD SLT ISZERO PUSH2 0x79A JUMPI DUP2 MLOAD PUSH2 0x74C DUP2 PUSH2 0x174F JUMP JUMPDEST SWAP3 PUSH2 0x759 DUP6 MLOAD SWAP5 DUP6 PUSH2 0x1717 JUMP JUMPDEST DUP2 DUP5 MSTORE PUSH1 0x20 DUP1 DUP6 ADD SWAP3 PUSH1 0x5 SHL DUP3 ADD ADD SWAP3 DUP4 GT PUSH2 0x796 JUMPI PUSH1 0x20 ADD SWAP1 JUMPDEST DUP3 DUP3 LT PUSH2 0x786 JUMPI POP POP POP SWAP1 CODESIZE DUP1 PUSH2 0x681 JUMP JUMPDEST DUP2 MLOAD DUP2 MSTORE PUSH1 0x20 SWAP2 DUP3 ADD SWAP2 ADD PUSH2 0x774 JUMP JUMPDEST DUP6 DUP1 REVERT JUMPDEST DUP4 DUP1 REVERT JUMPDEST DUP5 DUP1 REVERT JUMPDEST DUP3 MLOAD RETURNDATASIZE DUP7 DUP3 RETURNDATACOPY RETURNDATASIZE SWAP1 REVERT JUMPDEST DUP13 MLOAD PUSH4 0x39E57743 PUSH1 0xE0 SHL DUP2 MSTORE DUP12 SWAP1 REVERT JUMPDEST DUP11 MLOAD PUSH4 0xA9087E4B PUSH1 0xE0 SHL DUP2 MSTORE DUP10 SWAP1 REVERT JUMPDEST POP DUP4 DUP3 EQ ISZERO PUSH2 0x4E5 JUMP JUMPDEST POP DUP2 DUP8 EQ ISZERO PUSH2 0x4DE JUMP JUMPDEST DUP12 DUP1 REVERT JUMPDEST DUP10 DUP1 REVERT JUMPDEST DUP8 DUP1 REVERT JUMPDEST PUSH2 0x16A4 JUMP JUMPDEST DUP3 DUP5 CALLVALUE PUSH2 0x26B JUMPI PUSH1 0x20 CALLDATASIZE PUSH1 0x3 NOT ADD SLT PUSH2 0x26B JUMPI POP PUSH2 0x814 PUSH1 0x20 SWAP3 CALLDATALOAD PUSH1 0x1 SLOAD PUSH2 0x16C1 JUMP JUMPDEST SWAP1 MLOAD SWAP1 DUP2 MSTORE RETURN JUMPDEST SWAP2 SWAP1 POP CALLVALUE PUSH2 0x281 JUMPI PUSH1 0x20 CALLDATASIZE PUSH1 0x3 NOT ADD SLT PUSH2 0x281 JUMPI DUP1 MLOAD PUSH4 0xC12F7947 PUSH1 0xE0 SHL DUP2 MSTORE DUP3 CALLDATALOAD SWAP3 DUP2 ADD SWAP3 SWAP1 SWAP3 MSTORE PUSH1 0x60 DUP3 PUSH1 0x24 DUP2 PUSH32 0x0 PUSH1 0x1 PUSH1 0x1 PUSH1 0xA0 SHL SUB AND GAS STATICCALL SWAP1 DUP2 ISZERO PUSH2 0x8EE JUMPI DUP4 SWAP3 DUP5 DUP1 SWAP4 PUSH2 0x8A6 JUMPI JUMPDEST POP POP MLOAD SWAP2 DUP3 MSTORE PUSH1 0x20 DUP3 ADD SWAP3 SWAP1 SWAP3 MSTORE PUSH1 0x40 DUP2 ADD SWAP2 SWAP1 SWAP2 MSTORE PUSH1 0x60 SWAP1 RETURN JUMPDEST SUB SWAP1 RETURN JUMPDEST SWAP3 POP SWAP3 POP SWAP3 POP PUSH1 0x60 DUP3 RETURNDATASIZE DUP3 GT PUSH2 0x8E6 JUMPI JUMPDEST DUP2 PUSH2 0x8C4 PUSH1 0x60 SWAP4 DUP4 PUSH2 0x1717 JUMP JUMPDEST DUP2 ADD SUB SLT PUSH2 0x26B JUMPI POP PUSH2 0x8A2 DUP2 MLOAD SWAP3 DUP1 PUSH1 0x20 DUP5 ADD MLOAD SWAP4 ADD MLOAD SWAP4 SWAP3 SWAP4 SWAP2 CODESIZE PUSH2 0x887 JUMP JUMPDEST RETURNDATASIZE SWAP2 POP PUSH2 0x8B7 JUMP JUMPDEST MLOAD RETURNDATASIZE DUP5 DUP3 RETURNDATACOPY RETURNDATASIZE SWAP1 REVERT JUMPDEST SWAP1 POP CALLVALUE PUSH2 0x281 JUMPI PUSH1 0x20 CALLDATASIZE PUSH1 0x3 NOT ADD SLT PUSH2 0x281 JUMPI PUSH1 0x20 SWAP3 PUSH1 0xFF SWAP2 DUP4 SWAP2 SWAP1 PUSH1 0x1 PUSH1 0x1 PUSH1 0xA0 SHL SUB PUSH2 0x923 PUSH2 0x161D JUMP JUMPDEST AND DUP3 MSTORE DUP6 MSTORE KECCAK256 SLOAD AND SWAP1 MLOAD SWAP1 ISZERO ISZERO DUP2 MSTORE RETURN JUMPDEST SWAP1 POP CALLVALUE PUSH2 0x281 JUMPI PUSH1 0x20 CALLDATASIZE PUSH1 0x3 NOT ADD SLT PUSH2 0x281 JUMPI DUP1 CALLDATALOAD SWAP1 CALLER DUP5 MSTORE DUP1 PUSH1 0x20 MSTORE PUSH1 0xFF DUP4 DUP6 KECCAK256 SLOAD AND ISZERO PUSH2 0x2E8 JUMPI POP SWAP1 PUSH32 0x5FCB23AFB0FB7986C3F826699011CF4D5126FD38C3105AD6F16690B2BD16D28 SWAP2 PUSH1 0x1 SLOAD SWAP1 DUP1 PUSH1 0x1 SSTORE DUP3 MLOAD SWAP2 DUP3 MSTORE PUSH1 0x20 DUP3 ADD MSTORE LOG1 DUP1 RETURN JUMPDEST DUP4 SWAP2 POP CALLVALUE PUSH2 0x1BE JUMPI PUSH1 0x60 CALLDATASIZE PUSH1 0x3 NOT ADD SLT PUSH2 0x1BE JUMPI DUP3 MLOAD PUSH4 0x7D4EAA91 PUSH1 0xE0 SHL DUP2 MSTORE DUP2 CALLDATALOAD SWAP2 DUP2 ADD SWAP2 SWAP1 SWAP2 MSTORE PUSH1 0x24 DUP1 CALLDATALOAD SWAP1 DUP3 ADD MSTORE PUSH1 0x44 DUP1 CALLDATALOAD SWAP1 DUP3 ADD MSTORE DUP3 DUP2 PUSH1 0x64 DUP2 PUSH32 0x0 PUSH1 0x1 PUSH1 0x1 PUSH1 0xA0 SHL SUB AND GAS STATICCALL SWAP1 DUP2 ISZERO PUSH2 0xA55 JUMPI DUP3 DUP1 SWAP3 PUSH2 0xA1E JUMPI JUMPDEST POP POP DUP3 MLOAD SWAP2 DUP3 MSTORE PUSH1 0x20 DUP3 ADD MSTORE RETURN JUMPDEST SWAP2 POP SWAP2 POP DUP3 DUP3 DUP2 RETURNDATASIZE DUP4 GT PUSH2 0xA4E JUMPI JUMPDEST PUSH2 0xA37 DUP2 DUP4 PUSH2 0x1717 JUMP JUMPDEST DUP2 ADD SUB SLT PUSH2 0x26B JUMPI POP PUSH1 0x20 DUP2 MLOAD SWAP2 ADD MLOAD DUP4 DUP1 PUSH2 0xA10 JUMP JUMPDEST POP RETURNDATASIZE PUSH2 0xA2D JUMP JUMPDEST DUP4 MLOAD RETURNDATASIZE DUP5 DUP3 RETURNDATACOPY RETURNDATASIZE SWAP1 REVERT JUMPDEST DUP3 DUP5 CALLVALUE PUSH2 0x26B JUMPI PUSH1 0x20 CALLDATASIZE PUSH1 0x3 NOT ADD SLT PUSH2 0x26B JUMPI POP PUSH2 0x814 PUSH1 0x20 SWAP3 CALLDATALOAD PUSH2 0xA95 PUSH2 0x2710 PUSH2 0xA8C PUSH1 0x3 SLOAD DUP5 PUSH2 0x16C1 JUMP JUMPDEST DIV PUSH1 0x2 SLOAD PUSH2 0x170A JUMP JUMPDEST SWAP1 PUSH2 0x170A JUMP JUMPDEST DUP3 DUP5 CALLVALUE PUSH2 0x26B JUMPI PUSH1 0x20 CALLDATASIZE PUSH1 0x3 NOT ADD SLT PUSH2 0x26B JUMPI POP PUSH2 0x814 PUSH1 0x20 SWAP3 CALLDATALOAD PUSH2 0x1812 JUMP JUMPDEST SWAP1 POP CALLVALUE PUSH2 0x281 JUMPI PUSH1 0x20 CALLDATASIZE PUSH1 0x3 NOT ADD SLT PUSH2 0x281 JUMPI DUP1 CALLDATALOAD SWAP1 PUSH8 0xFFFFFFFFFFFFFFFF SWAP1 DUP2 DUP4 GT PUSH2 0x79E JUMPI CALLDATASIZE PUSH1 0x23 DUP5 ADD SLT ISZERO PUSH2 0x79E JUMPI DUP3 ADD CALLDATALOAD SWAP1 DUP2 GT PUSH2 0x79A JUMPI CALLDATASIZE PUSH1 0x24 DUP3 DUP5 ADD ADD GT PUSH2 0x79A JUMPI PUSH1 0x20 SWAP4 DUP5 PUSH2 0xB10 DUP4 PUSH2 0x1859 JUMP JUMPDEST SWAP3 PUSH2 0xB1D DUP7 MLOAD SWAP5 DUP6 PUSH2 0x1717 JUMP JUMPDEST DUP1 DUP5 MSTORE DUP1 PUSH1 0x24 DUP4 DUP7 ADD SWAP7 ADD DUP7 CALLDATACOPY DUP4 ADD ADD MSTORE MLOAD SWAP1 KECCAK256 SWAP1 MLOAD SWAP1 DUP2 MSTORE RETURN JUMPDEST POP POP CALLVALUE PUSH2 0x1BE JUMPI DUP2 PUSH1 0x3 NOT CALLDATASIZE ADD SLT PUSH2 0x1BE JUMPI PUSH1 0x20 SWAP1 PUSH1 0x3 SLOAD SWAP1 MLOAD SWAP1 DUP2 MSTORE RETURN JUMPDEST SWAP1 POP PUSH1 0x3 NOT DUP3 DUP2 CALLDATASIZE ADD SLT PUSH2 0x79A JUMPI PUSH8 0xFFFFFFFFFFFFFFFF DUP3 CALLDATALOAD DUP2 DUP2 GT PUSH2 0x796 JUMPI PUSH2 0xB84 SWAP1 CALLDATASIZE SWAP1 DUP6 ADD PUSH2 0x1638 JUMP JUMPDEST SWAP1 SWAP3 PUSH1 0x24 CALLDATALOAD DUP4 DUP2 GT PUSH2 0x7E8 JUMPI PUSH2 0xB9D SWAP1 CALLDATASIZE SWAP1 DUP8 ADD PUSH2 0x1638 JUMP JUMPDEST SWAP4 SWAP1 SWAP3 PUSH1 0x1 SWAP2 PUSH2 0xBAE DUP3 DUP5 SLOAD PUSH2 0x16C1 JUMP JUMPDEST SWAP8 PUSH2 0xBB9 DUP8 DUP8 PUSH2 0x18D8 JUMP JUMPDEST SWAP9 PUSH2 0xBC4 DUP11 DUP3 PUSH2 0x170A JUMP JUMPDEST CALLVALUE LT PUSH2 0xE0B JUMPI SWAP2 DUP11 SWAP10 SWAP6 SWAP2 SWAP7 SWAP3 SWAP5 DUP6 PUSH2 0xBE1 DUP15 SWAP11 SWAP7 SWAP14 SWAP12 SWAP8 PUSH2 0x1875 JUMP JUMPDEST PUSH1 0x0 DUP1 MLOAD PUSH1 0x20 PUSH2 0x194D DUP4 CODECOPY DUP2 MLOAD SWAP2 MSTORE DUP12 MLOAD SWAP2 DUP1 DUP4 MSTORE DUP10 PUSH1 0x20 SWAP14 DUP5 DUP16 SWAP6 DUP7 DUP4 SWAP2 ADD MSTORE PUSH1 0x0 DUP1 MLOAD PUSH1 0x20 PUSH2 0x192D DUP4 CODECOPY DUP2 MLOAD SWAP2 MSTORE CALLER SWAP2 DUP1 PUSH2 0xC39 DUP6 DUP3 ADD PUSH1 0x40 SWAP1 PUSH1 0xB DUP2 MSTORE PUSH11 0x63726561746541746F6D73 PUSH1 0xA8 SHL PUSH1 0x20 DUP3 ADD MSTORE ADD SWAP1 JUMP JUMPDEST SUB SWAP1 LOG2 DUP1 MLOAD PUSH1 0x80 DUP1 DUP3 MSTORE PUSH1 0xB SWAP1 DUP3 ADD MSTORE PUSH11 0x63726561746541746F6D73 PUSH1 0xA8 SHL PUSH1 0xA0 DUP3 ADD MSTORE SWAP5 DUP6 ADD SWAP3 SWAP1 SWAP3 MSTORE SWAP1 DUP4 ADD MSTORE CALLVALUE PUSH1 0x60 DUP4 ADD MSTORE CALLER SWAP2 PUSH1 0xC0 SWAP1 LOG2 DUP12 DUP12 MLOAD SWAP13 DUP14 SWAP10 PUSH4 0x61403309 PUSH1 0xE0 SHL DUP12 MSTORE DUP14 PUSH1 0x44 DUP13 ADD SWAP2 DUP13 ADD MSTORE MSTORE PUSH1 0x64 DUP10 ADD SWAP7 PUSH1 0x64 DUP3 PUSH1 0x5 SHL DUP12 ADD ADD SWAP8 DUP2 SWAP5 DUP13 SWAP3 JUMPDEST DUP5 DUP5 LT PUSH2 0xD90 JUMPI POP POP POP POP POP POP POP SWAP3 DUP6 SWAP4 SWAP3 PUSH2 0xCC8 SWAP3 DUP6 SWAP5 DUP6 DUP5 SUB ADD PUSH1 0x24 DUP7 ADD MSTORE PUSH2 0x17E1 JUMP JUMPDEST SUB SWAP2 PUSH32 0x0 PUSH1 0x1 PUSH1 0x1 PUSH1 0xA0 SHL SUB AND GAS CALL SWAP3 DUP4 ISZERO PUSH2 0x7A2 JUMPI DUP5 PUSH2 0x8A2 SWAP6 SWAP5 PUSH2 0xD5A JUMPI JUMPDEST POP POP PUSH1 0x0 DUP1 MLOAD PUSH1 0x20 PUSH2 0x196D DUP4 CODECOPY DUP2 MLOAD SWAP2 MSTORE SWAP1 DUP4 MLOAD DUP4 MLOAD SWAP2 DUP3 SWAP2 DUP6 DUP4 MSTORE PUSH2 0xD49 DUP7 DUP5 ADD PUSH1 0x40 SWAP1 PUSH1 0xB DUP2 MSTORE PUSH11 0x63726561746541746F6D73 PUSH1 0xA8 SHL PUSH1 0x20 DUP3 ADD MSTORE ADD SWAP1 JUMP JUMPDEST SWAP2 DUP4 ADD MSTORE SUB SWAP1 LOG1 MLOAD SWAP2 DUP3 SWAP2 DUP3 PUSH2 0x1669 JUMP JUMPDEST PUSH1 0x0 DUP1 MLOAD PUSH1 0x20 PUSH2 0x196D DUP4 CODECOPY DUP2 MLOAD SWAP2 MSTORE SWAP3 SWAP5 POP SWAP1 PUSH2 0xD88 SWAP2 RETURNDATASIZE DUP1 SWAP2 DUP4 RETURNDATACOPY PUSH2 0xD80 DUP2 DUP4 PUSH2 0x1717 JUMP JUMPDEST DUP2 ADD SWAP1 PUSH2 0x1767 JUMP JUMPDEST SWAP3 SWAP1 CODESIZE PUSH2 0xD08 JUMP JUMPDEST SWAP3 SWAP6 SWAP12 PUSH1 0x63 SWAP14 SWAP2 SWAP5 SWAP8 SWAP10 SWAP12 SWAP14 SWAP11 SWAP3 SWAP6 SWAP9 SWAP11 NOT SWAP1 DUP4 SUB ADD DUP6 MSTORE DUP12 CALLDATALOAD SWAP1 PUSH1 0x1E NOT DUP5 CALLDATASIZE SUB ADD DUP3 SLT ISZERO PUSH2 0x26B JUMPI DUP4 DUP16 SWAP3 ADD SWAP2 DUP3 CALLDATALOAD SWAP3 ADD DUP6 DUP4 GT PUSH2 0x1BE JUMPI DUP3 CALLDATASIZE SUB DUP2 SGT PUSH2 0x1BE JUMPI DUP16 SWAP3 SWAP4 DUP5 DUP5 SWAP4 DUP2 DUP6 SWAP5 DUP15 SWAP9 DUP6 MSTORE DUP6 DUP6 ADD CALLDATACOPY DUP4 DUP3 DUP5 ADD ADD MSTORE PUSH1 0x1F DUP1 NOT SWAP2 ADD AND ADD ADD SWAP13 ADD SWAP5 ADD SWAP5 ADD SWAP1 SWAP4 DUP16 SWAP12 SWAP10 SWAP8 SWAP6 SWAP3 DUP16 SWAP12 SWAP10 SWAP8 SWAP5 SWAP6 PUSH2 0xCA2 JUMP JUMPDEST POP DUP10 MLOAD PUSH4 0x39E57743 PUSH1 0xE0 SHL DUP2 MSTORE REVERT JUMPDEST SWAP1 POP CALLVALUE PUSH2 0x281 JUMPI PUSH1 0x20 CALLDATASIZE PUSH1 0x3 NOT ADD SLT PUSH2 0x281 JUMPI DUP1 CALLDATALOAD SWAP1 CALLER DUP5 MSTORE DUP1 PUSH1 0x20 MSTORE PUSH1 0xFF DUP4 DUP6 KECCAK256 SLOAD AND ISZERO PUSH2 0x2E8 JUMPI PUSH2 0x2710 DUP3 GT PUSH2 0xE86 JUMPI POP SWAP1 PUSH32 0x941228A4ACE352CB2D85F4FC40701585A9BA154072A8794BFF7DB2BB61277734 SWAP2 PUSH1 0x3 SLOAD SWAP1 DUP1 PUSH1 0x3 SSTORE DUP3 MLOAD SWAP2 DUP3 MSTORE PUSH1 0x20 DUP3 ADD MSTORE LOG1 DUP1 RETURN JUMPDEST DUP3 MLOAD PUSH4 0x5DFB18EB PUSH1 0xE0 SHL DUP2 MSTORE REVERT JUMPDEST POP POP CALLVALUE PUSH2 0x1BE JUMPI DUP2 PUSH1 0x3 NOT CALLDATASIZE ADD SLT PUSH2 0x1BE JUMPI SWAP1 SLOAD SWAP1 MLOAD PUSH1 0x1 PUSH1 0x1 PUSH1 0xA0 SHL SUB SWAP1 SWAP2 AND DUP2 MSTORE PUSH1 0x20 SWAP1 RETURN JUMPDEST PUSH1 0x3 NOT SWAP3 DUP5 SWAP3 POP PUSH1 0x80 CALLDATASIZE DUP6 ADD SLT PUSH2 0x281 JUMPI PUSH8 0xFFFFFFFFFFFFFFFF DUP3 CALLDATALOAD DUP2 DUP2 GT PUSH2 0x79E JUMPI PUSH2 0xEEC SWAP1 CALLDATASIZE SWAP1 DUP6 ADD PUSH2 0x1638 JUMP JUMPDEST PUSH1 0x24 SWAP3 SWAP2 SWAP3 CALLDATALOAD DUP3 DUP2 GT PUSH2 0x116A JUMPI PUSH2 0xF06 SWAP1 CALLDATASIZE SWAP1 DUP8 ADD PUSH2 0x1638 JUMP JUMPDEST SWAP6 SWAP1 SWAP3 PUSH1 0x44 CALLDATALOAD DUP2 DUP2 GT PUSH2 0x1166 JUMPI PUSH2 0xF20 SWAP1 CALLDATASIZE SWAP1 DUP5 ADD PUSH2 0x1638 JUMP JUMPDEST SWAP10 SWAP1 SWAP2 PUSH1 0x64 CALLDATALOAD SWAP1 DUP2 GT PUSH2 0x7E4 JUMPI PUSH2 0xF3A SWAP1 CALLDATASIZE SWAP1 DUP6 ADD PUSH2 0x1638 JUMP JUMPDEST SWAP1 SWAP3 DUP10 DUP7 EQ DUP1 ISZERO SWAP1 PUSH2 0x115C JUMPI JUMPDEST DUP1 ISZERO PUSH2 0x1152 JUMPI JUMPDEST PUSH2 0x1142 JUMPI PUSH2 0xF5E DUP7 PUSH1 0x1 SLOAD PUSH2 0x16C1 JUMP JUMPDEST SWAP12 DUP13 SWAP8 PUSH2 0xF75 PUSH2 0xF6E DUP6 DUP9 PUSH2 0x18D8 JUMP JUMPDEST DUP1 SWAP11 PUSH2 0x170A JUMP JUMPDEST CALLVALUE LT PUSH2 0x1132 JUMPI DUP14 PUSH2 0xF8A DUP15 SWAP16 SWAP15 SWAP13 SWAP14 SWAP15 PUSH2 0x1875 JUMP JUMPDEST DUP13 DUP1 MLOAD DUP3 DUP2 MSTORE DUP2 PUSH1 0x20 DUP3 ADD MSTORE DUP1 CALLER SWAP3 DUP2 ADD PUSH2 0xFC0 SWAP1 PUSH1 0x40 SWAP1 PUSH1 0xD DUP2 MSTORE PUSH13 0x637265617465547269706C6573 PUSH1 0x98 SHL PUSH1 0x20 DUP3 ADD MSTORE ADD SWAP1 JUMP JUMPDEST SUB PUSH1 0x0 DUP1 MLOAD PUSH1 0x20 PUSH2 0x192D DUP4 CODECOPY DUP2 MLOAD SWAP2 MSTORE SWAP2 LOG2 DUP13 MLOAD PUSH1 0x80 DUP1 DUP3 MSTORE PUSH1 0xD SWAP1 DUP3 ADD MSTORE PUSH13 0x637265617465547269706C6573 PUSH1 0x98 SHL PUSH1 0xA0 DUP3 ADD MSTORE DUP11 DUP15 PUSH1 0xC0 DUP4 ADD SWAP4 PUSH1 0x20 DUP5 ADD MSTORE DUP3 ADD MSTORE CALLVALUE PUSH1 0x60 DUP3 ADD MSTORE DUP1 CALLER SWAP3 SUB PUSH1 0x0 DUP1 MLOAD PUSH1 0x20 PUSH2 0x194D DUP4 CODECOPY DUP2 MLOAD SWAP2 MSTORE SWAP2 LOG2 DUP12 MLOAD SWAP13 DUP14 SWAP11 DUP12 SWAP10 DUP11 SWAP10 PUSH4 0x3C6BBF45 PUSH1 0xE0 SHL DUP12 MSTORE DUP11 ADD PUSH1 0x80 SWAP1 MSTORE PUSH1 0x84 DUP11 ADD SWAP1 PUSH2 0x1046 SWAP3 PUSH2 0x17E1 JUMP JUMPDEST SWAP1 DUP7 DUP10 DUP4 SUB ADD PUSH1 0x24 DUP11 ADD MSTORE PUSH2 0x105A SWAP3 PUSH2 0x17E1 JUMP JUMPDEST SWAP1 DUP5 DUP8 DUP4 SUB ADD PUSH1 0x44 DUP9 ADD MSTORE PUSH2 0x106E SWAP3 PUSH2 0x17E1 JUMP JUMPDEST SWAP2 DUP5 DUP4 SUB ADD PUSH1 0x64 DUP6 ADD MSTORE PUSH2 0x1081 SWAP3 PUSH2 0x17E1 JUMP JUMPDEST SUB SWAP2 PUSH32 0x0 PUSH1 0x1 PUSH1 0x1 PUSH1 0xA0 SHL SUB AND GAS CALL SWAP2 DUP3 ISZERO PUSH2 0x3BC JUMPI DUP4 PUSH2 0x8A2 SWAP5 SWAP4 PUSH2 0x1115 JUMPI JUMPDEST POP POP PUSH1 0x0 DUP1 MLOAD PUSH1 0x20 PUSH2 0x196D DUP4 CODECOPY DUP2 MLOAD SWAP2 MSTORE DUP3 MLOAD DUP3 MLOAD DUP1 SWAP2 DUP5 DUP3 MSTORE PUSH2 0x1102 DUP6 DUP4 ADD PUSH1 0x40 SWAP1 PUSH1 0xD DUP2 MSTORE PUSH13 0x637265617465547269706C6573 PUSH1 0x98 SHL PUSH1 0x20 DUP3 ADD MSTORE ADD SWAP1 JUMP JUMPDEST SWAP1 PUSH1 0x20 DUP4 ADD MSTORE SUB SWAP1 LOG1 MLOAD SWAP2 DUP3 SWAP2 DUP3 PUSH2 0x1669 JUMP JUMPDEST PUSH2 0x112A SWAP3 SWAP4 POP RETURNDATASIZE DUP1 SWAP2 DUP4 RETURNDATACOPY PUSH2 0xD80 DUP2 DUP4 PUSH2 0x1717 JUMP JUMPDEST SWAP1 DUP4 DUP1 PUSH2 0x10C1 JUMP JUMPDEST DUP11 MLOAD PUSH4 0x39E57743 PUSH1 0xE0 SHL DUP2 MSTORE DUP8 SWAP1 REVERT JUMPDEST DUP9 MLOAD PUSH4 0xA9087E4B PUSH1 0xE0 SHL DUP2 MSTORE DUP6 SWAP1 REVERT JUMPDEST POP DUP2 DUP13 EQ ISZERO PUSH2 0xF4E JUMP JUMPDEST POP DUP12 DUP11 EQ ISZERO PUSH2 0xF47 JUMP JUMPDEST DUP9 DUP1 REVERT JUMPDEST DUP7 DUP1 REVERT JUMPDEST SWAP2 SWAP1 POP CALLVALUE PUSH2 0x281 JUMPI DUP3 PUSH1 0x3 NOT CALLDATASIZE ADD SLT PUSH2 0x281 JUMPI DUP1 MLOAD PUSH4 0x33332D39 PUSH1 0xE0 SHL DUP2 MSTORE SWAP2 PUSH1 0x20 SWAP1 DUP4 SWAP1 DUP2 PUSH32 0x0 PUSH1 0x1 PUSH1 0x1 PUSH1 0xA0 SHL SUB AND GAS STATICCALL SWAP2 DUP3 ISZERO PUSH2 0x3BC JUMPI DUP4 SWAP3 PUSH2 0x385 JUMPI PUSH1 0x20 DUP4 DUP4 MLOAD SWAP1 DUP2 MSTORE RETURN JUMPDEST DUP4 DUP4 PUSH1 0x80 CALLDATASIZE PUSH1 0x3 NOT ADD SLT PUSH2 0x1BE JUMPI PUSH2 0x11ED PUSH2 0x161D JUMP JUMPDEST SWAP3 PUSH1 0x2 SLOAD DUP1 CALLVALUE GT ISZERO PUSH2 0x13DB JUMPI PUSH2 0x1203 SWAP1 CALLVALUE PUSH2 0x1805 JUMP JUMPDEST PUSH2 0x2710 SWAP1 DUP2 DUP2 MUL SWAP1 DUP1 DUP3 DIV DUP4 EQ SWAP1 ISZERO OR ISZERO PUSH2 0x13C8 JUMPI PUSH1 0x3 SLOAD DUP3 ADD DUP1 SWAP3 GT PUSH2 0x13C8 JUMPI SWAP1 PUSH2 0x122E SWAP2 PUSH2 0x16EA JUMP JUMPDEST SWAP4 PUSH2 0x1239 DUP6 CALLVALUE PUSH2 0x1805 JUMP JUMPDEST SWAP5 PUSH2 0x1243 DUP7 PUSH2 0x1875 JUMP JUMPDEST PUSH1 0x84 DUP5 MLOAD SWAP3 DUP8 DUP5 MSTORE PUSH1 0x20 SWAP8 DUP5 DUP8 DUP11 DUP1 SWAP8 ADD MSTORE PUSH1 0x0 DUP1 MLOAD PUSH1 0x20 PUSH2 0x192D DUP4 CODECOPY DUP2 MLOAD SWAP2 MSTORE CALLER SWAP2 DUP1 PUSH2 0x1288 DUP12 DUP3 ADD PUSH1 0x40 SWAP1 PUSH1 0x7 DUP2 MSTORE PUSH7 0x19195C1BDCDA5D PUSH1 0xCA SHL PUSH1 0x20 DUP3 ADD MSTORE ADD SWAP1 JUMP JUMPDEST SUB SWAP1 LOG2 PUSH1 0x0 DUP1 MLOAD PUSH1 0x20 PUSH2 0x194D DUP4 CODECOPY DUP2 MLOAD SWAP2 MSTORE DUP8 MLOAD PUSH1 0x80 DUP2 MSTORE PUSH2 0x12C2 PUSH1 0x80 DUP3 ADD PUSH1 0x40 SWAP1 PUSH1 0x7 DUP2 MSTORE PUSH7 0x19195C1BDCDA5D PUSH1 0xCA SHL PUSH1 0x20 DUP3 ADD MSTORE ADD SWAP1 JUMP JUMPDEST SWAP3 DUP8 DUP3 ADD MSTORE DUP6 DUP10 DUP3 ADD MSTORE CALLVALUE PUSH1 0x60 DUP3 ADD MSTORE DUP1 CALLER SWAP4 SUB SWAP1 LOG2 DUP6 MLOAD PUSH4 0x2FB1D27 PUSH1 0xE4 SHL DUP2 MSTORE PUSH1 0x1 PUSH1 0x1 PUSH1 0xA0 SHL SUB SWAP2 DUP3 AND SWAP6 DUP2 ADD SWAP6 SWAP1 SWAP6 MSTORE PUSH1 0x24 DUP1 CALLDATALOAD SWAP1 DUP7 ADD MSTORE PUSH1 0x44 DUP1 CALLDATALOAD SWAP1 DUP7 ADD MSTORE PUSH1 0x64 DUP1 CALLDATALOAD SWAP1 DUP7 ADD MSTORE DUP5 SWAP3 DUP4 SWAP2 PUSH32 0x0 AND GAS CALL SWAP3 DUP4 ISZERO PUSH2 0x13BD JUMPI DUP1 SWAP4 PUSH2 0x138B JUMPI JUMPDEST POP POP PUSH1 0x0 DUP1 MLOAD PUSH1 0x20 PUSH2 0x196D DUP4 CODECOPY DUP2 MLOAD SWAP2 MSTORE DUP2 MLOAD DUP3 DUP2 MSTORE DUP1 PUSH2 0x137C DUP5 DUP3 ADD PUSH1 0x40 SWAP1 PUSH1 0x7 DUP2 MSTORE PUSH7 0x19195C1BDCDA5D PUSH1 0xCA SHL PUSH1 0x20 DUP3 ADD MSTORE ADD SWAP1 JUMP JUMPDEST PUSH1 0x1 DUP8 DUP4 ADD MSTORE SUB SWAP1 LOG1 MLOAD SWAP1 DUP2 MSTORE RETURN JUMPDEST SWAP1 SWAP2 SWAP3 POP DUP4 DUP3 DUP2 RETURNDATASIZE DUP4 GT PUSH2 0x13B6 JUMPI JUMPDEST PUSH2 0x13A4 DUP2 DUP4 PUSH2 0x1717 JUMP JUMPDEST DUP2 ADD SUB SLT PUSH2 0x26B JUMPI POP MLOAD SWAP1 DUP4 DUP1 PUSH2 0x1344 JUMP JUMPDEST POP RETURNDATASIZE PUSH2 0x139A JUMP JUMPDEST DUP3 MLOAD SWAP1 RETURNDATASIZE SWAP1 DUP3 RETURNDATACOPY RETURNDATASIZE SWAP1 REVERT JUMPDEST PUSH4 0x4E487B71 PUSH1 0xE0 SHL DUP6 MSTORE PUSH1 0x11 DUP4 MSTORE PUSH1 0x24 DUP6 REVERT JUMPDEST POP SWAP1 MLOAD PUSH4 0x39E57743 PUSH1 0xE0 SHL DUP2 MSTORE REVERT JUMPDEST SWAP2 SWAP1 POP CALLVALUE PUSH2 0x281 JUMPI PUSH1 0x60 CALLDATASIZE PUSH1 0x3 NOT ADD SLT PUSH2 0x281 JUMPI DUP1 MLOAD PUSH4 0x170D5079 PUSH1 0xE1 SHL DUP2 MSTORE DUP3 CALLDATALOAD SWAP3 DUP2 ADD SWAP3 DUP4 MSTORE PUSH1 0x24 CALLDATALOAD PUSH1 0x20 DUP5 DUP2 ADD SWAP2 SWAP1 SWAP2 MSTORE PUSH1 0x44 CALLDATALOAD PUSH1 0x40 DUP6 ADD MSTORE SWAP1 SWAP3 DUP4 SWAP1 DUP2 SWAP1 PUSH1 0x60 ADD SUB DUP2 PUSH32 0x0 PUSH1 0x1 PUSH1 0x1 PUSH1 0xA0 SHL SUB AND GAS STATICCALL SWAP2 DUP3 ISZERO PUSH2 0x3BC JUMPI DUP4 SWAP3 PUSH2 0x385 JUMPI PUSH1 0x20 DUP4 DUP4 MLOAD SWAP1 DUP2 MSTORE RETURN JUMPDEST DUP3 DUP5 CALLVALUE PUSH2 0x26B JUMPI PUSH1 0x20 CALLDATASIZE PUSH1 0x3 NOT ADD SLT PUSH2 0x26B JUMPI POP PUSH2 0x814 PUSH2 0x2710 PUSH2 0xA8C PUSH1 0x20 SWAP5 PUSH1 0x3 SLOAD SWAP1 CALLDATALOAD PUSH2 0x16C1 JUMP JUMPDEST DUP3 DUP5 CALLVALUE PUSH2 0x26B JUMPI DUP2 PUSH1 0x3 NOT CALLDATASIZE ADD SLT PUSH2 0x26B JUMPI POP PUSH2 0x814 PUSH2 0x14C3 PUSH1 0x20 SWAP4 CALLDATALOAD PUSH1 0x1 SLOAD PUSH2 0x16C1 JUMP JUMPDEST PUSH1 0x24 CALLDATALOAD PUSH2 0x170A JUMP JUMPDEST POP POP CALLVALUE PUSH2 0x1BE JUMPI DUP2 PUSH1 0x3 NOT CALLDATASIZE ADD SLT PUSH2 0x1BE JUMPI PUSH1 0x20 SWAP1 PUSH1 0x1 SLOAD SWAP1 MLOAD SWAP1 DUP2 MSTORE RETURN JUMPDEST SWAP2 SWAP1 POP CALLVALUE PUSH2 0x281 JUMPI DUP3 PUSH1 0x3 NOT CALLDATASIZE ADD SLT PUSH2 0x281 JUMPI DUP1 MLOAD PUSH4 0x3597247 PUSH1 0xE2 SHL DUP2 MSTORE SWAP2 PUSH1 0x20 SWAP1 DUP4 SWAP1 DUP2 PUSH32 0x0 PUSH1 0x1 PUSH1 0x1 PUSH1 0xA0 SHL SUB AND GAS STATICCALL SWAP2 DUP3 ISZERO PUSH2 0x3BC JUMPI DUP4 SWAP3 PUSH2 0x385 JUMPI PUSH1 0x20 DUP4 DUP4 MLOAD SWAP1 DUP2 MSTORE RETURN JUMPDEST SWAP2 SWAP1 POP CALLVALUE PUSH2 0x281 JUMPI DUP1 PUSH1 0x3 NOT CALLDATASIZE ADD SLT PUSH2 0x281 JUMPI PUSH2 0x156E PUSH2 0x161D JUMP JUMPDEST SWAP1 PUSH1 0x24 CALLDATALOAD SWAP2 DUP3 ISZERO ISZERO DUP1 SWAP4 SUB PUSH2 0x79E JUMPI CALLER DUP6 MSTORE DUP4 PUSH1 0x20 MSTORE PUSH1 0xFF DUP3 DUP7 KECCAK256 SLOAD AND ISZERO PUSH2 0x15F1 JUMPI PUSH1 0x1 PUSH1 0x1 PUSH1 0xA0 SHL SUB AND SWAP3 DUP4 ISZERO PUSH2 0x15E3 JUMPI SWAP2 PUSH1 0x20 SWAP2 PUSH32 0xDB8E93BC198E2B2EEA2F3EBBFDBC11D697156217479AC1F45564EB70891E3D05 SWAP4 DUP6 DUP8 MSTORE DUP4 MSTORE DUP1 DUP7 KECCAK256 PUSH1 0xFF NOT DUP2 SLOAD AND PUSH1 0xFF DUP5 AND OR SWAP1 SSTORE MLOAD SWAP1 DUP2 MSTORE LOG2 DUP1 RETURN JUMPDEST SWAP1 MLOAD PUSH4 0xE4799D2B PUSH1 0xE0 SHL DUP2 MSTORE REVERT JUMPDEST DUP2 MLOAD PUSH4 0x90C7C071 PUSH1 0xE0 SHL DUP2 MSTORE DUP5 SWAP1 REVERT JUMPDEST DUP5 SWAP1 CALLVALUE PUSH2 0x1BE JUMPI DUP2 PUSH1 0x3 NOT CALLDATASIZE ADD SLT PUSH2 0x1BE JUMPI PUSH1 0x20 SWAP1 PUSH1 0x2 SLOAD DUP2 MSTORE RETURN JUMPDEST PUSH1 0x4 CALLDATALOAD SWAP1 PUSH1 0x1 PUSH1 0x1 PUSH1 0xA0 SHL SUB DUP3 AND DUP3 SUB PUSH2 0x1633 JUMPI JUMP JUMPDEST PUSH1 0x0 DUP1 REVERT JUMPDEST SWAP2 DUP2 PUSH1 0x1F DUP5 ADD SLT ISZERO PUSH2 0x1633 JUMPI DUP3 CALLDATALOAD SWAP2 PUSH8 0xFFFFFFFFFFFFFFFF DUP4 GT PUSH2 0x1633 JUMPI PUSH1 0x20 DUP1 DUP6 ADD SWAP5 DUP5 PUSH1 0x5 SHL ADD ADD GT PUSH2 0x1633 JUMPI JUMP JUMPDEST PUSH1 0x20 SWAP1 DUP2 PUSH1 0x40 DUP2 DUP4 ADD SWAP3 DUP3 DUP2 MSTORE DUP6 MLOAD DUP1 SWAP5 MSTORE ADD SWAP4 ADD SWAP2 PUSH1 0x0 JUMPDEST DUP3 DUP2 LT PUSH2 0x1690 JUMPI POP POP POP POP SWAP1 JUMP JUMPDEST DUP4 MLOAD DUP6 MSTORE SWAP4 DUP2 ADD SWAP4 SWAP3 DUP2 ADD SWAP3 PUSH1 0x1 ADD PUSH2 0x1682 JUMP JUMPDEST CALLVALUE PUSH2 0x1633 JUMPI PUSH1 0x0 CALLDATASIZE PUSH1 0x3 NOT ADD SLT PUSH2 0x1633 JUMPI PUSH1 0x20 PUSH1 0x40 MLOAD PUSH2 0x2710 DUP2 MSTORE RETURN JUMPDEST DUP2 DUP2 MUL SWAP3 SWAP2 DUP2 ISZERO SWAP2 DUP5 DIV EQ OR ISZERO PUSH2 0x16D4 JUMPI JUMP JUMPDEST PUSH4 0x4E487B71 PUSH1 0xE0 SHL PUSH1 0x0 MSTORE PUSH1 0x11 PUSH1 0x4 MSTORE PUSH1 0x24 PUSH1 0x0 REVERT JUMPDEST DUP2 ISZERO PUSH2 0x16F4 JUMPI DIV SWAP1 JUMP JUMPDEST PUSH4 0x4E487B71 PUSH1 0xE0 SHL PUSH1 0x0 MSTORE PUSH1 0x12 PUSH1 0x4 MSTORE PUSH1 0x24 PUSH1 0x0 REVERT JUMPDEST SWAP2 SWAP1 DUP3 ADD DUP1 SWAP3 GT PUSH2 0x16D4 JUMPI JUMP JUMPDEST SWAP1 PUSH1 0x1F DUP1 NOT SWAP2 ADD AND DUP2 ADD SWAP1 DUP2 LT PUSH8 0xFFFFFFFFFFFFFFFF DUP3 GT OR PUSH2 0x1739 JUMPI PUSH1 0x40 MSTORE JUMP JUMPDEST PUSH4 0x4E487B71 PUSH1 0xE0 SHL PUSH1 0x0 MSTORE PUSH1 0x41 PUSH1 0x4 MSTORE PUSH1 0x24 PUSH1 0x0 REVERT JUMPDEST PUSH8 0xFFFFFFFFFFFFFFFF DUP2 GT PUSH2 0x1739 JUMPI PUSH1 0x5 SHL PUSH1 0x20 ADD SWAP1 JUMP JUMPDEST PUSH1 0x20 SWAP1 DUP2 DUP2 DUP5 SUB SLT PUSH2 0x1633 JUMPI DUP1 MLOAD SWAP1 PUSH8 0xFFFFFFFFFFFFFFFF DUP3 GT PUSH2 0x1633 JUMPI ADD SWAP2 DUP1 PUSH1 0x1F DUP5 ADD SLT ISZERO PUSH2 0x1633 JUMPI DUP3 MLOAD PUSH2 0x179D DUP2 PUSH2 0x174F JUMP JUMPDEST SWAP4 PUSH2 0x17AB PUSH1 0x40 MLOAD SWAP6 DUP7 PUSH2 0x1717 JUMP JUMPDEST DUP2 DUP6 MSTORE DUP4 DUP1 DUP7 ADD SWAP3 PUSH1 0x5 SHL DUP3 ADD ADD SWAP3 DUP4 GT PUSH2 0x1633 JUMPI DUP4 ADD SWAP1 JUMPDEST DUP3 DUP3 LT PUSH2 0x17D2 JUMPI POP POP POP POP SWAP1 JUMP JUMPDEST DUP2 MLOAD DUP2 MSTORE SWAP1 DUP4 ADD SWAP1 DUP4 ADD PUSH2 0x17C4 JUMP JUMPDEST DUP2 DUP4 MSTORE SWAP1 SWAP2 PUSH1 0x1 PUSH1 0x1 PUSH1 0xFB SHL SUB DUP4 GT PUSH2 0x1633 JUMPI PUSH1 0x20 SWAP3 PUSH1 0x5 SHL DUP1 SWAP3 DUP5 DUP4 ADD CALLDATACOPY ADD ADD SWAP1 JUMP JUMPDEST SWAP2 SWAP1 DUP3 SUB SWAP2 DUP3 GT PUSH2 0x16D4 JUMPI JUMP JUMPDEST PUSH1 0x2 SLOAD DUP1 DUP3 GT ISZERO PUSH2 0x1852 JUMPI PUSH2 0x1826 SWAP2 PUSH2 0x1805 JUMP JUMPDEST PUSH2 0x2710 DUP1 DUP3 MUL SWAP2 DUP1 DUP4 DIV DUP3 EQ SWAP1 ISZERO OR ISZERO PUSH2 0x16D4 JUMPI PUSH1 0x3 SLOAD DUP2 ADD DUP1 SWAP2 GT PUSH2 0x16D4 JUMPI PUSH2 0x184F SWAP2 PUSH2 0x16EA JUMP JUMPDEST SWAP1 JUMP JUMPDEST POP POP PUSH1 0x0 SWAP1 JUMP JUMPDEST PUSH8 0xFFFFFFFFFFFFFFFF DUP2 GT PUSH2 0x1739 JUMPI PUSH1 0x1F ADD PUSH1 0x1F NOT AND PUSH1 0x20 ADD SWAP1 JUMP JUMPDEST DUP1 PUSH2 0x187D JUMPI POP JUMP JUMPDEST PUSH1 0x0 DUP1 DUP1 DUP1 DUP1 SWAP5 PUSH1 0x1 DUP1 PUSH1 0xA0 SHL SUB DUP3 SLOAD AND GAS CALL SWAP1 RETURNDATASIZE ISZERO PUSH2 0x18D2 JUMPI RETURNDATASIZE SWAP1 PUSH2 0x18A2 DUP3 PUSH2 0x1859 JUMP JUMPDEST SWAP2 PUSH2 0x18B0 PUSH1 0x40 MLOAD SWAP4 DUP5 PUSH2 0x1717 JUMP JUMPDEST DUP3 MSTORE PUSH1 0x20 RETURNDATASIZE SWAP3 ADD RETURNDATACOPY JUMPDEST ISZERO PUSH2 0x18C0 JUMPI JUMP JUMPDEST PUSH1 0x40 MLOAD PUSH4 0x291BE7B PUSH1 0xE3 SHL DUP2 MSTORE PUSH1 0x4 SWAP1 REVERT JUMPDEST POP PUSH2 0x18B9 JUMP JUMPDEST PUSH1 0x0 SWAP3 SWAP2 DUP4 SWAP2 DUP3 SWAP1 JUMPDEST DUP3 DUP5 LT PUSH2 0x18EE JUMPI POP POP POP POP JUMP JUMPDEST SWAP1 SWAP2 SWAP3 SWAP5 PUSH2 0x1903 SWAP1 DUP7 PUSH1 0x5 SHL DUP4 ADD CALLDATALOAD SWAP1 PUSH2 0x170A JUMP JUMPDEST SWAP5 PUSH1 0x0 NOT DUP2 EQ PUSH2 0x1918 JUMPI PUSH1 0x1 ADD SWAP3 SWAP2 SWAP1 PUSH2 0x18E1 JUMP JUMPDEST PUSH4 0x4E487B71 PUSH1 0xE0 SHL DUP4 MSTORE PUSH1 0x11 PUSH1 0x4 MSTORE PUSH1 0x24 DUP4 REVERT INVALID 0xDB 0x23 0xCB LOG2 AND 0xBF 0xAE 0xD8 SWAP1 PUSH17 0xD2734596F2EE2A163099CFC4F5EF32036D 0xEB 0xC9 PUSH26 0x22266EBD237946549F7DD8C5B01156CFE92D39B298A153ADB4C9 SWAP2 BYTE POP ADDMOD 0xAB PUSH24 0x68626A35BCB4A51611DBCD01A735CEFA7E3801D75BE5A8A7 0xEF ADDMOD 0xE5 0xEA 0xE6 POP REVERT 0xBC SWAP8 SWAP7 LOG2 PUSH5 0x6970667358 0x22 SLT KECCAK256 CALLDATACOPY SLT 0xC 0x5C 0xE0 0xF9 ADDMOD PUSH20 0x4E57C80EBFCF3CFB1D3F9AA6D4425C097577B7F9 NOT SLOAD PUSH30 0x9964736F6C63430008150033000000000000000000000000000000000000 "},"methodIdentifiers":{"FEE_DENOMINATOR()":"d73792a9","MAX_FEE_PERCENTAGE()":"558e44d3","calculateAtomId(bytes)":"6828caa6","calculateCreationFee(uint256)":"c1757e36","calculateDepositFee(uint256)":"247d284b","calculateTripleId(bytes32,bytes32,bytes32)":"2e1aa0f2","createAtoms(bytes[],uint256[])":"61403309","createTriples(bytes32[],bytes32[],bytes32[],uint256[])":"3c6bbf45","creationFixedFee()":"0f060799","deposit(address,bytes32,uint256,uint256)":"2fb1d270","depositBatch(address,bytes32[],uint256[],uint256[],uint256[])":"dea9423a","depositFixedFee()":"02ef36c7","depositPercentageFee()":"63173be7","ethMultiVault()":"f8073c76","feeRecipient()":"46904840","getAtomCost()":"33332d39","getMultiVaultAmountFromValue(uint256)":"70b9add0","getShares(address,bytes32,uint256)":"ee3abe38","getTotalCreationCost(uint256,uint256)":"0ff2663c","getTotalDepositCost(uint256)":"717ba4d9","getTriple(bytes32)":"c12f7947","getTripleCost()":"0d65c91c","isTermCreated(bytes32)":"f5719008","previewDeposit(bytes32,uint256,uint256)":"7d4eaa91","setCreationFixedFee(uint256)":"ad934c18","setDepositFixedFee(uint256)":"f48371c0","setDepositPercentageFee(uint256)":"5ce33d4f","setFeeRecipient(address)":"e74b981b","setWhitelistedAdmin(address,bool)":"082e709f","whitelistedAdmins(address)":"b3ec372e"}}}}}