{"src/SofiaFeeProxy.sol":{"SofiaFeeProxy":{"abi":[{"inputs":[{"internalType":"address","name":"_ethMultiVault","type":"address"},{"internalType":"address","name":"_feeRecipient","type":"address"},{"internalType":"uint256","name":"_creationFixedFee","type":"uint256"},{"internalType":"uint256","name":"_depositFixedFee","type":"uint256"},{"internalType":"uint256","name":"_depositPercentageFee","type":"uint256"},{"internalType":"address[]","name":"_initialAdmins","type":"address[]"}],"stateMutability":"nonpayable","type":"constructor"},{"inputs":[],"name":"SofiaFeeProxy_FeePercentageTooHigh","type":"error"},{"inputs":[],"name":"SofiaFeeProxy_InsufficientValue","type":"error"},{"inputs":[],"name":"SofiaFeeProxy_InvalidMultiVaultAddress","type":"error"},{"inputs":[],"name":"SofiaFeeProxy_InvalidMultisigAddress","type":"error"},{"inputs":[],"name":"SofiaFeeProxy_NotWhitelistedAdmin","type":"error"},{"inputs":[],"name":"SofiaFeeProxy_TransferFailed","type":"error"},{"inputs":[],"name":"SofiaFeeProxy_WrongArrayLengths","type":"error"},{"inputs":[],"name":"SofiaFeeProxy_ZeroAddress","type":"error"},{"anonymous":false,"inputs":[{"indexed":true,"internalType":"address","name":"admin","type":"address"},{"indexed":false,"internalType":"bool","name":"status","type":"bool"}],"name":"AdminWhitelistUpdated","type":"event"},{"anonymous":false,"inputs":[{"indexed":false,"internalType":"uint256","name":"oldFee","type":"uint256"},{"indexed":false,"internalType":"uint256","name":"newFee","type":"uint256"}],"name":"CreationFixedFeeUpdated","type":"event"},{"anonymous":false,"inputs":[{"indexed":false,"internalType":"uint256","name":"oldFee","type":"uint256"},{"indexed":false,"internalType":"uint256","name":"newFee","type":"uint256"}],"name":"DepositFixedFeeUpdated","type":"event"},{"anonymous":false,"inputs":[{"indexed":false,"internalType":"uint256","name":"oldFee","type":"uint256"},{"indexed":false,"internalType":"uint256","name":"newFee","type":"uint256"}],"name":"DepositPercentageFeeUpdated","type":"event"},{"anonymous":false,"inputs":[{"indexed":true,"internalType":"address","name":"oldRecipient","type":"address"},{"indexed":true,"internalType":"address","name":"newRecipient","type":"address"}],"name":"FeeRecipientUpdated","type":"event"},{"anonymous":false,"inputs":[{"indexed":true,"internalType":"address","name":"user","type":"address"},{"indexed":false,"internalType":"uint256","name":"amount","type":"uint256"},{"indexed":false,"internalType":"string","name":"operation","type":"string"}],"name":"FeesCollected","type":"event"},{"anonymous":false,"inputs":[{"indexed":false,"internalType":"string","name":"operation","type":"string"},{"indexed":false,"internalType":"uint256","name":"resultCount","type":"uint256"}],"name":"MultiVaultSuccess","type":"event"},{"anonymous":false,"inputs":[{"indexed":false,"internalType":"string","name":"operation","type":"string"},{"indexed":true,"internalType":"address","name":"user","type":"address"},{"indexed":false,"internalType":"uint256","name":"sofiaFee","type":"uint256"},{"indexed":false,"internalType":"uint256","name":"multiVaultValue","type":"uint256"},{"indexed":false,"internalType":"uint256","name":"totalReceived","type":"uint256"}],"name":"TransactionForwarded","type":"event"},{"inputs":[],"name":"FEE_DENOMINATOR","outputs":[{"internalType":"uint256","name":"","type":"uint256"}],"stateMutability":"view","type":"function"},{"inputs":[],"name":"MAX_FEE_PERCENTAGE","outputs":[{"internalType":"uint256","name":"","type":"uint256"}],"stateMutability":"view","type":"function"},{"inputs":[{"internalType":"bytes","name":"data","type":"bytes"}],"name":"calculateAtomId","outputs":[{"internalType":"bytes32","name":"","type":"bytes32"}],"stateMutability":"pure","type":"function"},{"inputs":[{"internalType":"uint256","name":"count","type":"uint256"}],"name":"calculateCreationFee","outputs":[{"internalType":"uint256","name":"","type":"uint256"}],"stateMutability":"view","type":"function"},{"inputs":[{"internalType":"uint256","name":"depositAmount","type":"uint256"}],"name":"calculateDepositFee","outputs":[{"internalType":"uint256","name":"","type":"uint256"}],"stateMutability":"view","type":"function"},{"inputs":[{"internalType":"bytes32","name":"subjectId","type":"bytes32"},{"internalType":"bytes32","name":"predicateId","type":"bytes32"},{"internalType":"bytes32","name":"objectId","type":"bytes32"}],"name":"calculateTripleId","outputs":[{"internalType":"bytes32","name":"","type":"bytes32"}],"stateMutability":"view","type":"function"},{"inputs":[{"internalType":"bytes[]","name":"data","type":"bytes[]"},{"internalType":"uint256[]","name":"assets","type":"uint256[]"}],"name":"createAtoms","outputs":[{"internalType":"bytes32[]","name":"","type":"bytes32[]"}],"stateMutability":"payable","type":"function"},{"inputs":[{"internalType":"bytes32[]","name":"subjectIds","type":"bytes32[]"},{"internalType":"bytes32[]","name":"predicateIds","type":"bytes32[]"},{"internalType":"bytes32[]","name":"objectIds","type":"bytes32[]"},{"internalType":"uint256[]","name":"assets","type":"uint256[]"}],"name":"createTriples","outputs":[{"internalType":"bytes32[]","name":"","type":"bytes32[]"}],"stateMutability":"payable","type":"function"},{"inputs":[],"name":"creationFixedFee","outputs":[{"internalType":"uint256","name":"","type":"uint256"}],"stateMutability":"view","type":"function"},{"inputs":[{"internalType":"address","name":"receiver","type":"address"},{"internalType":"bytes32","name":"termId","type":"bytes32"},{"internalType":"uint256","name":"curveId","type":"uint256"},{"internalType":"uint256","name":"minShares","type":"uint256"},{"internalType":"uint256","name":"depositAmount","type":"uint256"}],"name":"deposit","outputs":[{"internalType":"uint256","name":"shares","type":"uint256"}],"stateMutability":"payable","type":"function"},{"inputs":[{"internalType":"address","name":"receiver","type":"address"},{"internalType":"bytes32[]","name":"termIds","type":"bytes32[]"},{"internalType":"uint256[]","name":"curveIds","type":"uint256[]"},{"internalType":"uint256[]","name":"assets","type":"uint256[]"},{"internalType":"uint256[]","name":"minShares","type":"uint256[]"}],"name":"depositBatch","outputs":[{"internalType":"uint256[]","name":"shares","type":"uint256[]"}],"stateMutability":"payable","type":"function"},{"inputs":[],"name":"depositFixedFee","outputs":[{"internalType":"uint256","name":"","type":"uint256"}],"stateMutability":"view","type":"function"},{"inputs":[],"name":"depositPercentageFee","outputs":[{"internalType":"uint256","name":"","type":"uint256"}],"stateMutability":"view","type":"function"},{"inputs":[],"name":"ethMultiVault","outputs":[{"internalType":"contract IEthMultiVault","name":"","type":"address"}],"stateMutability":"view","type":"function"},{"inputs":[],"name":"feeRecipient","outputs":[{"internalType":"address","name":"","type":"address"}],"stateMutability":"view","type":"function"},{"inputs":[],"name":"getAtomCost","outputs":[{"internalType":"uint256","name":"","type":"uint256"}],"stateMutability":"view","type":"function"},{"inputs":[{"internalType":"address","name":"account","type":"address"},{"internalType":"bytes32","name":"termId","type":"bytes32"},{"internalType":"uint256","name":"curveId","type":"uint256"}],"name":"getShares","outputs":[{"internalType":"uint256","name":"","type":"uint256"}],"stateMutability":"view","type":"function"},{"inputs":[{"internalType":"uint256","name":"count","type":"uint256"},{"internalType":"uint256","name":"multiVaultCost","type":"uint256"}],"name":"getTotalCreationCost","outputs":[{"internalType":"uint256","name":"","type":"uint256"}],"stateMutability":"view","type":"function"},{"inputs":[{"internalType":"uint256","name":"depositAmount","type":"uint256"}],"name":"getTotalDepositCost","outputs":[{"internalType":"uint256","name":"","type":"uint256"}],"stateMutability":"view","type":"function"},{"inputs":[{"internalType":"bytes32","name":"tripleId","type":"bytes32"}],"name":"getTriple","outputs":[{"internalType":"bytes32","name":"","type":"bytes32"},{"internalType":"bytes32","name":"","type":"bytes32"},{"internalType":"bytes32","name":"","type":"bytes32"}],"stateMutability":"view","type":"function"},{"inputs":[],"name":"getTripleCost","outputs":[{"internalType":"uint256","name":"","type":"uint256"}],"stateMutability":"view","type":"function"},{"inputs":[{"internalType":"bytes32","name":"id","type":"bytes32"}],"name":"isTermCreated","outputs":[{"internalType":"bool","name":"","type":"bool"}],"stateMutability":"view","type":"function"},{"inputs":[{"internalType":"bytes32","name":"termId","type":"bytes32"},{"internalType":"uint256","name":"curveId","type":"uint256"},{"internalType":"uint256","name":"assets","type":"uint256"}],"name":"previewDeposit","outputs":[{"internalType":"uint256","name":"","type":"uint256"},{"internalType":"uint256","name":"","type":"uint256"}],"stateMutability":"view","type":"function"},{"inputs":[{"internalType":"uint256","name":"newFee","type":"uint256"}],"name":"setCreationFixedFee","outputs":[],"stateMutability":"nonpayable","type":"function"},{"inputs":[{"internalType":"uint256","name":"newFee","type":"uint256"}],"name":"setDepositFixedFee","outputs":[],"stateMutability":"nonpayable","type":"function"},{"inputs":[{"internalType":"uint256","name":"newFee","type":"uint256"}],"name":"setDepositPercentageFee","outputs":[],"stateMutability":"nonpayable","type":"function"},{"inputs":[{"internalType":"address","name":"newRecipient","type":"address"}],"name":"setFeeRecipient","outputs":[],"stateMutability":"nonpayable","type":"function"},{"inputs":[{"internalType":"address","name":"admin","type":"address"},{"internalType":"bool","name":"status","type":"bool"}],"name":"setWhitelistedAdmin","outputs":[],"stateMutability":"nonpayable","type":"function"},{"inputs":[{"internalType":"address","name":"","type":"address"}],"name":"whitelistedAdmins","outputs":[{"internalType":"bool","name":"","type":"bool"}],"stateMutability":"view","type":"function"},{"stateMutability":"payable","type":"receive"}],"evm":{"bytecode":{"linkReferences":{},"object":"604060a0815234620002735762001be1803803806200001e816200028e565b92833981019060c08183031262000273576200003a81620002b4565b602062000049818401620002b4565b91858401519360608101519560808201519060a083015160018060401b039384821162000273570181601f820112156200027357805193841162000278578360051b9086806200009b8185016200028e565b809781520192820101928311620002735786809101915b83831062000258575050506001600160a01b0393841695905085156200024757831694851562000236576127108211620002255760809897985260009460018060a01b03198654161785556001978896875560025560035583965b62000178575b85516118ec9081620002f58239608051818181610184015281816101e9015281816103400152818161064601528181610841015281816109cc01528181610ca101528181610f810152818161123601528181611347015281816113d101526114b00152f35b80518710156200021f57816200018f8883620002c9565b5116620001c0575b6000198714620001ac5795840195846200010d565b634e487b7160e01b84526011600452602484fd5b81620001cd8883620002c9565b5116845260048352858420805460ff19168617905581620001ef8883620002c9565b51167fdb8e93bc198e2b2eea2f3ebbfdbc11d697156217479ac1f45564eb70891e3d05848851888152a262000197565b62000113565b8851635dfb18eb60e01b8152600490fd5b8851631023f93d60e01b8152600490fd5b8851634a787e9b60e11b8152600490fd5b81906200026584620002b4565b8152019101908690620000b2565b600080fd5b634e487b7160e01b600052604160045260246000fd5b6040519190601f01601f191682016001600160401b038111838210176200027857604052565b51906001600160a01b03821682036200027357565b8051821015620002de5760209160051b010190565b634e487b7160e01b600052603260045260246000fdfe6080604081815260049182361015610022575b505050361561002057600080fd5b005b600092833560e01c91826302ef36c71461159f57508163082e709f146114f15781630d65c91c146114885781630f060799146114695781630ff2663c1461143c578163247d284b146114125781632e1aa0f21461138857816333332d391461131f5781633c6bbf451461106d5781634690484014611045578163558e44d3146107e157816358a19d5e14610e695781635ce33d4f14610def5781636140330914610b2c57816363173be714610b0d5781636828caa614610a90578163717ba4d914610a545781637d4eaa911461098c578163ad934c1814610929578163b3ec372e146108ec578163c12f794714610810578163c1757e36146107e6578163d73792a9146107e1578163dea9423a14610444578163e74b981b146103bb578163ee3abe38146102eb578163f48371c01461027a578163f5719008146101b7575063f8073c76146101715780610012565b346101b357816003193601126101b357517f00000000000000000000000000000000000000000000000000000000000000006001600160a01b03168152602090f35b5080fd5b919050346102765760209283600319360112610260578151631eae320160e31b815283359381019390935283836024817f00000000000000000000000000000000000000000000000000000000000000006001600160a01b03165afa92831561026a57819361022b575b5050519015158152f35b909192508381813d8311610263575b6102448183611695565b810103126101b357519081151582036102605750903880610221565b80fd5b503d61023a565b509051903d90823e3d90fd5b8280fd5b905034610276576020366003190112610276578035903384528060205260ff8385205416156102dd5750907f71bc2d9c4b3b5472e9afa8b00d83565c247798dbe5402735f27d074e8c8fdbd391600254908060025582519182526020820152a180f35b82516390c7c07160e01b8152fd5b919050346102765760603660031901126102765760206103096115bb565b8251631dc757c760e31b81526001600160a01b039182169481019490945260248035908501526044803590850152839060649082907f0000000000000000000000000000000000000000000000000000000000000000165afa9182156103b157839261037a575b6020838351908152f35b9091506020813d82116103a9575b8161039560209383611695565b810103126102765760209250519038610370565b3d9150610388565b81513d85823e3d90fd5b905034610276576020366003190112610276576103d66115bb565b903384528060205260ff8385205416156102dd576001600160a01b0391821692831561043757505082546001600160a01b0319811683178455167faaebcf1bfa00580e41d966056b48521fa9f202645c86d4ddf28113e617c1b1d38380a380f35b5163e4799d2b60e01b8152fd5b91905060a03660031901126102765761045b6115bb565b67ffffffffffffffff9260243584811161078b5761047c90369083016115d6565b926044358681116107dd5761049490369085016115d6565b91906064358881116107d9576104ad90369087016115d6565b906084358a81116107d5576104c590369089016115d6565b929093868a148015906107cb575b80156107c1575b6107b1576104e88284611802565b9661050e6104f88c60025461165f565b6127106105076003548c61165f565b0490611688565b610518818a611688565b34106107a157918c979593918f9b9a999795936105348161179f565b89518181528a60208201523390808c810161056990604090600c81526b0c8cae0dee6d2e884c2e8c6d60a31b60208201520190565b0360008051602061185783398151915291a289516080808252600c908201526b0c8cae0dee6d2e884c2e8c6d60a31b60a082015260c08101916020820152898b8201523460608201528033920360008051602061187783398151915291a2600160a01b60019003998a99519d8e9c8d9b8c9a636f54a11d60e11b8c5216908a01526024890160a0905260a48901906106009261175f565b906003198883030160448901526106169261175f565b9060031986830301606487015261062c9261175f565b906003198483030160848501526106429261175f565b03927f0000000000000000000000000000000000000000000000000000000000000000165af1928315610797578493610700575b5050906000805160206118978339815191528151835180918582526106b7868301604090600c81526b0c8cae0dee6d2e884c2e8c6d60a31b60208201520190565b9060208301520390a18151928392602080850191818652845180935285019301915b8181106106e7575050500390f35b82518452859450602093840193909201916001016106d9565b909192503d8085843e6107138184611695565b82019160208184031261079357805191821161079357019080601f8301121561078f578151610741816116cd565b9261074e85519485611695565b81845260208085019260051b82010192831161078b57602001905b82821061077b57505050903880610676565b8151815260209182019101610769565b8580fd5b8380fd5b8480fd5b82513d86823e3d90fd5b8c516339e5774360e01b81528b90fd5b8a5163a9087e4b60e01b81528990fd5b50838214156104da565b50818714156104d3565b8b80fd5b8980fd5b8780fd5b611642565b82843461026057602036600319011261026057506108096020923560015461165f565b9051908152f35b9190503461027657602036600319011261027657805163c12f794760e01b81528235928101929092526060826024817f00000000000000000000000000000000000000000000000000000000000000006001600160a01b03165afa9081156108e357839284809361089b575b50505191825260208201929092526040810191909152606090f35b0390f35b9250925092506060823d82116108db575b816108b960609383611695565b810103126102605750610897815192806020840151930151939293913861087c565b3d91506108ac565b513d84823e3d90fd5b9050346102765760203660031901126102765760209260ff918391906001600160a01b036109186115bb565b168252855220541690519015158152f35b905034610276576020366003190112610276578035903384528060205260ff8385205416156102dd5750907f05fcb23afb0fb7986c3f826699011cf4d5126fd38c3105ad6f16690b2bd16d2891600154908060015582519182526020820152a180f35b839150346101b35760603660031901126101b3578251637d4eaa9160e01b81528135918101919091526024803590820152604480359082015282816064817f00000000000000000000000000000000000000000000000000000000000000006001600160a01b03165afa908115610a4a57828092610a13575b505082519182526020820152f35b915091508282813d8311610a43575b610a2c8183611695565b810103126102605750602081519101518380610a05565b503d610a22565b83513d84823e3d90fd5b828434610260576020366003190112610260575061080960209235610a8a612710610a816003548461165f565b04600254611688565b90611688565b9050346102765760203660031901126102765780359067ffffffffffffffff9081831161079357366023840112156107935782013590811161078f57366024828401011161078f5760209384610ae583611783565b92610af286519485611695565b80845280602483860196018637830101525190209051908152f35b5050346101b357816003193601126101b3576020906003549051908152f35b9050600319828136011261078f5767ffffffffffffffff823581811161078b57610b5990369085016115d6565b90926024358381116107dd57610b7290369087016115d6565b939092600191610b8382845461165f565b97610b8e8787611802565b98610b998a82611688565b3410610de057918a99959196929485610bb68e9a969d9b9761179f565b6000805160206118778339815191528b51918083528960209d848f958683910152600080516020611857833981519152339180610c0e858201604090600b81526a63726561746541746f6d7360a81b60208201520190565b0390a280516080808252600b908201526a63726561746541746f6d7360a81b60a08201529485019290925290830152346060830152339160c090a28b8b519c8d99636140330960e01b8b528d60448c01918c015252606489019660648260051b8b01019781948c925b848410610d65575050505050505092859392610c9d92859485840301602486015261175f565b03917f00000000000000000000000000000000000000000000000000000000000000006001600160a01b03165af192831561079757846108979594610d2f575b50506000805160206118978339815191529083518351918291858352610d1e868401604090600b81526a63726561746541746f6d7360a81b60208201520190565b918301520390a15191829182611607565b60008051602061189783398151915292945090610d5d913d8091833e610d558183611695565b8101906116e5565b929038610cdd565b92959b60639d919497999b9d9a9295989a199083030185528b3590601e198436030182121561026057838f920191823592018583116101b35782360381136101b3578f92938484938185948e98855285850137838284010152601f801991011601019c019401940190938f9b999795928f9b99979495610c77565b5089516339e5774360e01b8152fd5b905034610276576020366003190112610276578035903384528060205260ff8385205416156102dd576127108211610e5b5750907f941228a4ace352cb2d85f4fc40701585a9ba154072a8794bff7db2bb6127773491600354908060035582519182526020820152a180f35b8251635dfb18eb60e01b8152fd5b838360a03660031901126101b357610e7f6115bb565b9260843593610e96612710610a816003548861165f565b94610ea18682611688565b341061103557610eb08661179f565b608484519287845260209784878a80970152600080516020611857833981519152339180610ef58b8201604090600781526619195c1bdcda5d60ca1b60208201520190565b0390a2600080516020611877833981519152875160808152610f2f60808201604090600781526619195c1bdcda5d60ca1b60208201520190565b928782015285898201523460608201528033930390a285516302fb1d2760e41b81526001600160a01b0391821695810195909552602480359086015260448035908601526064803590860152849283917f0000000000000000000000000000000000000000000000000000000000000000165af192831561102a578093610ff8575b5050600080516020611897833981519152815182815280610fe9848201604090600781526619195c1bdcda5d60ca1b60208201520190565b6001878301520390a151908152f35b909192508382813d8311611023575b6110118183611695565b81010312610260575051908380610fb1565b503d611007565b8251903d90823e3d90fd5b83516339e5774360e01b81528390fd5b5050346101b357816003193601126101b357905490516001600160a01b039091168152602090f35b600319928492506080368501126102765767ffffffffffffffff82358181116107935761109d90369085016115d6565b60249291923582811161131b576110b790369087016115d6565b959092604435818111611317576110d190369084016115d6565b9990916064359081116107d9576110eb90369085016115d6565b909289861480159061130d575b8015611303575b6112f35761110f8660015461165f565b9b8c9761112661111f8588611802565b809a611688565b34106112e3578d61113b8e9f9e9c9d9e61179f565b8c8051828152816020820152803392810161117190604090600d81526c637265617465547269706c657360981b60208201520190565b0360008051602061185783398151915291a28c516080808252600d908201526c637265617465547269706c657360981b60a08201528a8e60c083019360208401528201523460608201528033920360008051602061187783398151915291a28b519c8d9a8b998a99633c6bbf4560e01b8b528a016080905260848a01906111f79261175f565b90868983030160248a015261120b9261175f565b908487830301604488015261121f9261175f565b918483030160648501526112329261175f565b03917f00000000000000000000000000000000000000000000000000000000000000006001600160a01b03165af19182156103b1578361089794936112c6575b50506000805160206118978339815191528251825180918482526112b3858301604090600d81526c637265617465547269706c657360981b60208201520190565b9060208301520390a15191829182611607565b6112db9293503d8091833e610d558183611695565b908380611272565b8a516339e5774360e01b81528790fd5b885163a9087e4b60e01b81528590fd5b50818c14156110ff565b508b8a14156110f8565b8880fd5b8680fd5b9190503461027657826003193601126102765780516333332d3960e01b8152916020908390817f00000000000000000000000000000000000000000000000000000000000000006001600160a01b03165afa9182156103b157839261037a576020838351908152f35b9190503461027657606036600319011261027657805163170d507960e11b81528235928101928352602435602084810191909152604435604085015290928390819060600103817f00000000000000000000000000000000000000000000000000000000000000006001600160a01b03165afa9182156103b157839261037a576020838351908152f35b8284346102605760203660031901126102605750610809612710610a81602094600354903561165f565b828434610260578160031936011261026057506108096114616020933560015461165f565b602435611688565b5050346101b357816003193601126101b3576020906001549051908152f35b919050346102765782600319360112610276578051630359724760e21b8152916020908390817f00000000000000000000000000000000000000000000000000000000000000006001600160a01b03165afa9182156103b157839261037a576020838351908152f35b9190503461027657806003193601126102765761150c6115bb565b9060243591821515809303610793573385528360205260ff82862054161561158f576001600160a01b031692831561158157916020917fdb8e93bc198e2b2eea2f3ebbfdbc11d697156217479ac1f45564eb70891e3d0593858752835280862060ff1981541660ff841617905551908152a280f35b905163e4799d2b60e01b8152fd5b81516390c7c07160e01b81528490fd5b8490346101b357816003193601126101b3576020906002548152f35b600435906001600160a01b03821682036115d157565b600080fd5b9181601f840112156115d15782359167ffffffffffffffff83116115d1576020808501948460051b0101116115d157565b6020908160408183019282815285518094520193019160005b82811061162e575050505090565b835185529381019392810192600101611620565b346115d15760003660031901126115d15760206040516127108152f35b8181029291811591840414171561167257565b634e487b7160e01b600052601160045260246000fd5b9190820180921161167257565b90601f8019910116810190811067ffffffffffffffff8211176116b757604052565b634e487b7160e01b600052604160045260246000fd5b67ffffffffffffffff81116116b75760051b60200190565b60209081818403126115d15780519067ffffffffffffffff82116115d157019180601f840112156115d157825161171b816116cd565b936117296040519586611695565b818552838086019260051b8201019283116115d1578301905b828210611750575050505090565b81518152908301908301611742565b81835290916001600160fb1b0383116115d15760209260051b809284830137010190565b67ffffffffffffffff81116116b757601f01601f191660200190565b806117a75750565b6000808080809460018060a01b038254165af1903d156117fc573d906117cc82611783565b916117da6040519384611695565b825260203d92013e5b156117ea57565b604051630291be7b60e31b8152600490fd5b506117e3565b60009291839182905b8284106118185750505050565b9091929461182d908660051b83013590611688565b9460001981146118425760010192919061180b565b634e487b7160e01b83526011600452602483fdfedb23cba216bfaed89070d2734596f2ee2a163099cfc4f5ef32036debc97922266ebd237946549f7dd8c5b01156cfe92d39b298a153adb4c9911a5008ab7768626a35bcb4a51611dbcd01a735cefa7e3801d75be5a8a7ef08e5eae650fdbc9796a26469706673582212205df96270187695351737f541e907ba8aa64894db439d533c17d18854e631d8f164736f6c63430008150033","opcodes":"PUSH1 0x40 PUSH1 0xA0 DUP2 MSTORE CALLVALUE PUSH3 0x273 JUMPI PUSH3 0x1BE1 DUP1 CODESIZE SUB DUP1 PUSH3 0x1E DUP2 PUSH3 0x28E JUMP JUMPDEST SWAP3 DUP4 CODECOPY DUP2 ADD SWAP1 PUSH1 0xC0 DUP2 DUP4 SUB SLT PUSH3 0x273 JUMPI PUSH3 0x3A DUP2 PUSH3 0x2B4 JUMP JUMPDEST PUSH1 0x20 PUSH3 0x49 DUP2 DUP5 ADD PUSH3 0x2B4 JUMP JUMPDEST SWAP2 DUP6 DUP5 ADD MLOAD SWAP4 PUSH1 0x60 DUP2 ADD MLOAD SWAP6 PUSH1 0x80 DUP3 ADD MLOAD SWAP1 PUSH1 0xA0 DUP4 ADD MLOAD PUSH1 0x1 DUP1 PUSH1 0x40 SHL SUB SWAP4 DUP5 DUP3 GT PUSH3 0x273 JUMPI ADD DUP2 PUSH1 0x1F DUP3 ADD SLT ISZERO PUSH3 0x273 JUMPI DUP1 MLOAD SWAP4 DUP5 GT PUSH3 0x278 JUMPI DUP4 PUSH1 0x5 SHL SWAP1 DUP7 DUP1 PUSH3 0x9B DUP2 DUP6 ADD PUSH3 0x28E JUMP JUMPDEST DUP1 SWAP8 DUP2 MSTORE ADD SWAP3 DUP3 ADD ADD SWAP3 DUP4 GT PUSH3 0x273 JUMPI DUP7 DUP1 SWAP2 ADD SWAP2 JUMPDEST DUP4 DUP4 LT PUSH3 0x258 JUMPI POP POP POP PUSH1 0x1 PUSH1 0x1 PUSH1 0xA0 SHL SUB SWAP4 DUP5 AND SWAP6 SWAP1 POP DUP6 ISZERO PUSH3 0x247 JUMPI DUP4 AND SWAP5 DUP6 ISZERO PUSH3 0x236 JUMPI PUSH2 0x2710 DUP3 GT PUSH3 0x225 JUMPI PUSH1 0x80 SWAP9 SWAP8 SWAP9 MSTORE PUSH1 0x0 SWAP5 PUSH1 0x1 DUP1 PUSH1 0xA0 SHL SUB NOT DUP7 SLOAD AND OR DUP6 SSTORE PUSH1 0x1 SWAP8 DUP9 SWAP7 DUP8 SSTORE PUSH1 0x2 SSTORE PUSH1 0x3 SSTORE DUP4 SWAP7 JUMPDEST PUSH3 0x178 JUMPI JUMPDEST DUP6 MLOAD PUSH2 0x18EC SWAP1 DUP2 PUSH3 0x2F5 DUP3 CODECOPY PUSH1 0x80 MLOAD DUP2 DUP2 DUP2 PUSH2 0x184 ADD MSTORE DUP2 DUP2 PUSH2 0x1E9 ADD MSTORE DUP2 DUP2 PUSH2 0x340 ADD MSTORE DUP2 DUP2 PUSH2 0x646 ADD MSTORE DUP2 DUP2 PUSH2 0x841 ADD MSTORE DUP2 DUP2 PUSH2 0x9CC ADD MSTORE DUP2 DUP2 PUSH2 0xCA1 ADD MSTORE DUP2 DUP2 PUSH2 0xF81 ADD MSTORE DUP2 DUP2 PUSH2 0x1236 ADD MSTORE DUP2 DUP2 PUSH2 0x1347 ADD MSTORE DUP2 DUP2 PUSH2 0x13D1 ADD MSTORE PUSH2 0x14B0 ADD MSTORE RETURN JUMPDEST DUP1 MLOAD DUP8 LT ISZERO PUSH3 0x21F JUMPI DUP2 PUSH3 0x18F DUP9 DUP4 PUSH3 0x2C9 JUMP JUMPDEST MLOAD AND PUSH3 0x1C0 JUMPI JUMPDEST PUSH1 0x0 NOT DUP8 EQ PUSH3 0x1AC JUMPI SWAP6 DUP5 ADD SWAP6 DUP5 PUSH3 0x10D JUMP JUMPDEST PUSH4 0x4E487B71 PUSH1 0xE0 SHL DUP5 MSTORE PUSH1 0x11 PUSH1 0x4 MSTORE PUSH1 0x24 DUP5 REVERT JUMPDEST DUP2 PUSH3 0x1CD DUP9 DUP4 PUSH3 0x2C9 JUMP JUMPDEST MLOAD AND DUP5 MSTORE PUSH1 0x4 DUP4 MSTORE DUP6 DUP5 KECCAK256 DUP1 SLOAD PUSH1 0xFF NOT AND DUP7 OR SWAP1 SSTORE DUP2 PUSH3 0x1EF DUP9 DUP4 PUSH3 0x2C9 JUMP JUMPDEST MLOAD AND PUSH32 0xDB8E93BC198E2B2EEA2F3EBBFDBC11D697156217479AC1F45564EB70891E3D05 DUP5 DUP9 MLOAD DUP9 DUP2 MSTORE LOG2 PUSH3 0x197 JUMP JUMPDEST PUSH3 0x113 JUMP JUMPDEST DUP9 MLOAD PUSH4 0x5DFB18EB PUSH1 0xE0 SHL DUP2 MSTORE PUSH1 0x4 SWAP1 REVERT JUMPDEST DUP9 MLOAD PUSH4 0x1023F93D PUSH1 0xE0 SHL DUP2 MSTORE PUSH1 0x4 SWAP1 REVERT JUMPDEST DUP9 MLOAD PUSH4 0x4A787E9B PUSH1 0xE1 SHL DUP2 MSTORE PUSH1 0x4 SWAP1 REVERT JUMPDEST DUP2 SWAP1 PUSH3 0x265 DUP5 PUSH3 0x2B4 JUMP JUMPDEST DUP2 MSTORE ADD SWAP2 ADD SWAP1 DUP7 SWAP1 PUSH3 0xB2 JUMP JUMPDEST PUSH1 0x0 DUP1 REVERT JUMPDEST PUSH4 0x4E487B71 PUSH1 0xE0 SHL PUSH1 0x0 MSTORE PUSH1 0x41 PUSH1 0x4 MSTORE PUSH1 0x24 PUSH1 0x0 REVERT JUMPDEST PUSH1 0x40 MLOAD SWAP2 SWAP1 PUSH1 0x1F ADD PUSH1 0x1F NOT AND DUP3 ADD PUSH1 0x1 PUSH1 0x1 PUSH1 0x40 SHL SUB DUP2 GT DUP4 DUP3 LT OR PUSH3 0x278 JUMPI PUSH1 0x40 MSTORE JUMP JUMPDEST MLOAD SWAP1 PUSH1 0x1 PUSH1 0x1 PUSH1 0xA0 SHL SUB DUP3 AND DUP3 SUB PUSH3 0x273 JUMPI JUMP JUMPDEST DUP1 MLOAD DUP3 LT ISZERO PUSH3 0x2DE JUMPI PUSH1 0x20 SWAP2 PUSH1 0x5 SHL ADD ADD SWAP1 JUMP JUMPDEST PUSH4 0x4E487B71 PUSH1 0xE0 SHL PUSH1 0x0 MSTORE PUSH1 0x32 PUSH1 0x4 MSTORE PUSH1 0x24 PUSH1 0x0 REVERT INVALID PUSH1 0x80 PUSH1 0x40 DUP2 DUP2 MSTORE PUSH1 0x4 SWAP2 DUP3 CALLDATASIZE LT ISZERO PUSH2 0x22 JUMPI JUMPDEST POP POP POP CALLDATASIZE ISZERO PUSH2 0x20 JUMPI PUSH1 0x0 DUP1 REVERT JUMPDEST STOP JUMPDEST PUSH1 0x0 SWAP3 DUP4 CALLDATALOAD PUSH1 0xE0 SHR SWAP2 DUP3 PUSH4 0x2EF36C7 EQ PUSH2 0x159F JUMPI POP DUP2 PUSH4 0x82E709F EQ PUSH2 0x14F1 JUMPI DUP2 PUSH4 0xD65C91C EQ PUSH2 0x1488 JUMPI DUP2 PUSH4 0xF060799 EQ PUSH2 0x1469 JUMPI DUP2 PUSH4 0xFF2663C EQ PUSH2 0x143C JUMPI DUP2 PUSH4 0x247D284B EQ PUSH2 0x1412 JUMPI DUP2 PUSH4 0x2E1AA0F2 EQ PUSH2 0x1388 JUMPI DUP2 PUSH4 0x33332D39 EQ PUSH2 0x131F JUMPI DUP2 PUSH4 0x3C6BBF45 EQ PUSH2 0x106D JUMPI DUP2 PUSH4 0x46904840 EQ PUSH2 0x1045 JUMPI DUP2 PUSH4 0x558E44D3 EQ PUSH2 0x7E1 JUMPI DUP2 PUSH4 0x58A19D5E EQ PUSH2 0xE69 JUMPI DUP2 PUSH4 0x5CE33D4F EQ PUSH2 0xDEF JUMPI DUP2 PUSH4 0x61403309 EQ PUSH2 0xB2C JUMPI DUP2 PUSH4 0x63173BE7 EQ PUSH2 0xB0D JUMPI DUP2 PUSH4 0x6828CAA6 EQ PUSH2 0xA90 JUMPI DUP2 PUSH4 0x717BA4D9 EQ PUSH2 0xA54 JUMPI DUP2 PUSH4 0x7D4EAA91 EQ PUSH2 0x98C JUMPI DUP2 PUSH4 0xAD934C18 EQ PUSH2 0x929 JUMPI DUP2 PUSH4 0xB3EC372E EQ PUSH2 0x8EC JUMPI DUP2 PUSH4 0xC12F7947 EQ PUSH2 0x810 JUMPI DUP2 PUSH4 0xC1757E36 EQ PUSH2 0x7E6 JUMPI DUP2 PUSH4 0xD73792A9 EQ PUSH2 0x7E1 JUMPI DUP2 PUSH4 0xDEA9423A EQ PUSH2 0x444 JUMPI DUP2 PUSH4 0xE74B981B EQ PUSH2 0x3BB JUMPI DUP2 PUSH4 0xEE3ABE38 EQ PUSH2 0x2EB JUMPI DUP2 PUSH4 0xF48371C0 EQ PUSH2 0x27A JUMPI DUP2 PUSH4 0xF5719008 EQ PUSH2 0x1B7 JUMPI POP PUSH4 0xF8073C76 EQ PUSH2 0x171 JUMPI DUP1 PUSH2 0x12 JUMP JUMPDEST CALLVALUE PUSH2 0x1B3 JUMPI DUP2 PUSH1 0x3 NOT CALLDATASIZE ADD SLT PUSH2 0x1B3 JUMPI MLOAD PUSH32 0x0 PUSH1 0x1 PUSH1 0x1 PUSH1 0xA0 SHL SUB AND DUP2 MSTORE PUSH1 0x20 SWAP1 RETURN JUMPDEST POP DUP1 REVERT JUMPDEST SWAP2 SWAP1 POP CALLVALUE PUSH2 0x276 JUMPI PUSH1 0x20 SWAP3 DUP4 PUSH1 0x3 NOT CALLDATASIZE ADD SLT PUSH2 0x260 JUMPI DUP2 MLOAD PUSH4 0x1EAE3201 PUSH1 0xE3 SHL DUP2 MSTORE DUP4 CALLDATALOAD SWAP4 DUP2 ADD SWAP4 SWAP1 SWAP4 MSTORE DUP4 DUP4 PUSH1 0x24 DUP2 PUSH32 0x0 PUSH1 0x1 PUSH1 0x1 PUSH1 0xA0 SHL SUB AND GAS STATICCALL SWAP3 DUP4 ISZERO PUSH2 0x26A JUMPI DUP2 SWAP4 PUSH2 0x22B JUMPI JUMPDEST POP POP MLOAD SWAP1 ISZERO ISZERO DUP2 MSTORE RETURN JUMPDEST SWAP1 SWAP2 SWAP3 POP DUP4 DUP2 DUP2 RETURNDATASIZE DUP4 GT PUSH2 0x263 JUMPI JUMPDEST PUSH2 0x244 DUP2 DUP4 PUSH2 0x1695 JUMP JUMPDEST DUP2 ADD SUB SLT PUSH2 0x1B3 JUMPI MLOAD SWAP1 DUP2 ISZERO ISZERO DUP3 SUB PUSH2 0x260 JUMPI POP SWAP1 CODESIZE DUP1 PUSH2 0x221 JUMP JUMPDEST DUP1 REVERT JUMPDEST POP RETURNDATASIZE PUSH2 0x23A JUMP JUMPDEST POP SWAP1 MLOAD SWAP1 RETURNDATASIZE SWAP1 DUP3 RETURNDATACOPY RETURNDATASIZE SWAP1 REVERT JUMPDEST DUP3 DUP1 REVERT JUMPDEST SWAP1 POP CALLVALUE PUSH2 0x276 JUMPI PUSH1 0x20 CALLDATASIZE PUSH1 0x3 NOT ADD SLT PUSH2 0x276 JUMPI DUP1 CALLDATALOAD SWAP1 CALLER DUP5 MSTORE DUP1 PUSH1 0x20 MSTORE PUSH1 0xFF DUP4 DUP6 KECCAK256 SLOAD AND ISZERO PUSH2 0x2DD JUMPI POP SWAP1 PUSH32 0x71BC2D9C4B3B5472E9AFA8B00D83565C247798DBE5402735F27D074E8C8FDBD3 SWAP2 PUSH1 0x2 SLOAD SWAP1 DUP1 PUSH1 0x2 SSTORE DUP3 MLOAD SWAP2 DUP3 MSTORE PUSH1 0x20 DUP3 ADD MSTORE LOG1 DUP1 RETURN JUMPDEST DUP3 MLOAD PUSH4 0x90C7C071 PUSH1 0xE0 SHL DUP2 MSTORE REVERT JUMPDEST SWAP2 SWAP1 POP CALLVALUE PUSH2 0x276 JUMPI PUSH1 0x60 CALLDATASIZE PUSH1 0x3 NOT ADD SLT PUSH2 0x276 JUMPI PUSH1 0x20 PUSH2 0x309 PUSH2 0x15BB JUMP JUMPDEST DUP3 MLOAD PUSH4 0x1DC757C7 PUSH1 0xE3 SHL DUP2 MSTORE PUSH1 0x1 PUSH1 0x1 PUSH1 0xA0 SHL SUB SWAP2 DUP3 AND SWAP5 DUP2 ADD SWAP5 SWAP1 SWAP5 MSTORE PUSH1 0x24 DUP1 CALLDATALOAD SWAP1 DUP6 ADD MSTORE PUSH1 0x44 DUP1 CALLDATALOAD SWAP1 DUP6 ADD MSTORE DUP4 SWAP1 PUSH1 0x64 SWAP1 DUP3 SWAP1 PUSH32 0x0 AND GAS STATICCALL SWAP2 DUP3 ISZERO PUSH2 0x3B1 JUMPI DUP4 SWAP3 PUSH2 0x37A JUMPI JUMPDEST PUSH1 0x20 DUP4 DUP4 MLOAD SWAP1 DUP2 MSTORE RETURN JUMPDEST SWAP1 SWAP2 POP PUSH1 0x20 DUP2 RETURNDATASIZE DUP3 GT PUSH2 0x3A9 JUMPI JUMPDEST DUP2 PUSH2 0x395 PUSH1 0x20 SWAP4 DUP4 PUSH2 0x1695 JUMP JUMPDEST DUP2 ADD SUB SLT PUSH2 0x276 JUMPI PUSH1 0x20 SWAP3 POP MLOAD SWAP1 CODESIZE PUSH2 0x370 JUMP JUMPDEST RETURNDATASIZE SWAP2 POP PUSH2 0x388 JUMP JUMPDEST DUP2 MLOAD RETURNDATASIZE DUP6 DUP3 RETURNDATACOPY RETURNDATASIZE SWAP1 REVERT JUMPDEST SWAP1 POP CALLVALUE PUSH2 0x276 JUMPI PUSH1 0x20 CALLDATASIZE PUSH1 0x3 NOT ADD SLT PUSH2 0x276 JUMPI PUSH2 0x3D6 PUSH2 0x15BB JUMP JUMPDEST SWAP1 CALLER DUP5 MSTORE DUP1 PUSH1 0x20 MSTORE PUSH1 0xFF DUP4 DUP6 KECCAK256 SLOAD AND ISZERO PUSH2 0x2DD JUMPI PUSH1 0x1 PUSH1 0x1 PUSH1 0xA0 SHL SUB SWAP2 DUP3 AND SWAP3 DUP4 ISZERO PUSH2 0x437 JUMPI POP POP DUP3 SLOAD PUSH1 0x1 PUSH1 0x1 PUSH1 0xA0 SHL SUB NOT DUP2 AND DUP4 OR DUP5 SSTORE AND PUSH32 0xAAEBCF1BFA00580E41D966056B48521FA9F202645C86D4DDF28113E617C1B1D3 DUP4 DUP1 LOG3 DUP1 RETURN JUMPDEST MLOAD PUSH4 0xE4799D2B PUSH1 0xE0 SHL DUP2 MSTORE REVERT JUMPDEST SWAP2 SWAP1 POP PUSH1 0xA0 CALLDATASIZE PUSH1 0x3 NOT ADD SLT PUSH2 0x276 JUMPI PUSH2 0x45B PUSH2 0x15BB JUMP JUMPDEST PUSH8 0xFFFFFFFFFFFFFFFF SWAP3 PUSH1 0x24 CALLDATALOAD DUP5 DUP2 GT PUSH2 0x78B JUMPI PUSH2 0x47C SWAP1 CALLDATASIZE SWAP1 DUP4 ADD PUSH2 0x15D6 JUMP JUMPDEST SWAP3 PUSH1 0x44 CALLDATALOAD DUP7 DUP2 GT PUSH2 0x7DD JUMPI PUSH2 0x494 SWAP1 CALLDATASIZE SWAP1 DUP6 ADD PUSH2 0x15D6 JUMP JUMPDEST SWAP2 SWAP1 PUSH1 0x64 CALLDATALOAD DUP9 DUP2 GT PUSH2 0x7D9 JUMPI PUSH2 0x4AD SWAP1 CALLDATASIZE SWAP1 DUP8 ADD PUSH2 0x15D6 JUMP JUMPDEST SWAP1 PUSH1 0x84 CALLDATALOAD DUP11 DUP2 GT PUSH2 0x7D5 JUMPI PUSH2 0x4C5 SWAP1 CALLDATASIZE SWAP1 DUP10 ADD PUSH2 0x15D6 JUMP JUMPDEST SWAP3 SWAP1 SWAP4 DUP7 DUP11 EQ DUP1 ISZERO SWAP1 PUSH2 0x7CB JUMPI JUMPDEST DUP1 ISZERO PUSH2 0x7C1 JUMPI JUMPDEST PUSH2 0x7B1 JUMPI PUSH2 0x4E8 DUP3 DUP5 PUSH2 0x1802 JUMP JUMPDEST SWAP7 PUSH2 0x50E PUSH2 0x4F8 DUP13 PUSH1 0x2 SLOAD PUSH2 0x165F JUMP JUMPDEST PUSH2 0x2710 PUSH2 0x507 PUSH1 0x3 SLOAD DUP13 PUSH2 0x165F JUMP JUMPDEST DIV SWAP1 PUSH2 0x1688 JUMP JUMPDEST PUSH2 0x518 DUP2 DUP11 PUSH2 0x1688 JUMP JUMPDEST CALLVALUE LT PUSH2 0x7A1 JUMPI SWAP2 DUP13 SWAP8 SWAP6 SWAP4 SWAP2 DUP16 SWAP12 SWAP11 SWAP10 SWAP8 SWAP6 SWAP4 PUSH2 0x534 DUP2 PUSH2 0x179F JUMP JUMPDEST DUP10 MLOAD DUP2 DUP2 MSTORE DUP11 PUSH1 0x20 DUP3 ADD MSTORE CALLER SWAP1 DUP1 DUP13 DUP2 ADD PUSH2 0x569 SWAP1 PUSH1 0x40 SWAP1 PUSH1 0xC DUP2 MSTORE PUSH12 0xC8CAE0DEE6D2E884C2E8C6D PUSH1 0xA3 SHL PUSH1 0x20 DUP3 ADD MSTORE ADD SWAP1 JUMP JUMPDEST SUB PUSH1 0x0 DUP1 MLOAD PUSH1 0x20 PUSH2 0x1857 DUP4 CODECOPY DUP2 MLOAD SWAP2 MSTORE SWAP2 LOG2 DUP10 MLOAD PUSH1 0x80 DUP1 DUP3 MSTORE PUSH1 0xC SWAP1 DUP3 ADD MSTORE PUSH12 0xC8CAE0DEE6D2E884C2E8C6D PUSH1 0xA3 SHL PUSH1 0xA0 DUP3 ADD MSTORE PUSH1 0xC0 DUP2 ADD SWAP2 PUSH1 0x20 DUP3 ADD MSTORE DUP10 DUP12 DUP3 ADD MSTORE CALLVALUE PUSH1 0x60 DUP3 ADD MSTORE DUP1 CALLER SWAP3 SUB PUSH1 0x0 DUP1 MLOAD PUSH1 0x20 PUSH2 0x1877 DUP4 CODECOPY DUP2 MLOAD SWAP2 MSTORE SWAP2 LOG2 PUSH1 0x1 PUSH1 0xA0 SHL PUSH1 0x1 SWAP1 SUB SWAP10 DUP11 SWAP10 MLOAD SWAP14 DUP15 SWAP13 DUP14 SWAP12 DUP13 SWAP11 PUSH4 0x6F54A11D PUSH1 0xE1 SHL DUP13 MSTORE AND SWAP1 DUP11 ADD MSTORE PUSH1 0x24 DUP10 ADD PUSH1 0xA0 SWAP1 MSTORE PUSH1 0xA4 DUP10 ADD SWAP1 PUSH2 0x600 SWAP3 PUSH2 0x175F JUMP JUMPDEST SWAP1 PUSH1 0x3 NOT DUP9 DUP4 SUB ADD PUSH1 0x44 DUP10 ADD MSTORE PUSH2 0x616 SWAP3 PUSH2 0x175F JUMP JUMPDEST SWAP1 PUSH1 0x3 NOT DUP7 DUP4 SUB ADD PUSH1 0x64 DUP8 ADD MSTORE PUSH2 0x62C SWAP3 PUSH2 0x175F JUMP JUMPDEST SWAP1 PUSH1 0x3 NOT DUP5 DUP4 SUB ADD PUSH1 0x84 DUP6 ADD MSTORE PUSH2 0x642 SWAP3 PUSH2 0x175F JUMP JUMPDEST SUB SWAP3 PUSH32 0x0 AND GAS CALL SWAP3 DUP4 ISZERO PUSH2 0x797 JUMPI DUP5 SWAP4 PUSH2 0x700 JUMPI JUMPDEST POP POP SWAP1 PUSH1 0x0 DUP1 MLOAD PUSH1 0x20 PUSH2 0x1897 DUP4 CODECOPY DUP2 MLOAD SWAP2 MSTORE DUP2 MLOAD DUP4 MLOAD DUP1 SWAP2 DUP6 DUP3 MSTORE PUSH2 0x6B7 DUP7 DUP4 ADD PUSH1 0x40 SWAP1 PUSH1 0xC DUP2 MSTORE PUSH12 0xC8CAE0DEE6D2E884C2E8C6D PUSH1 0xA3 SHL PUSH1 0x20 DUP3 ADD MSTORE ADD SWAP1 JUMP JUMPDEST SWAP1 PUSH1 0x20 DUP4 ADD MSTORE SUB SWAP1 LOG1 DUP2 MLOAD SWAP3 DUP4 SWAP3 PUSH1 0x20 DUP1 DUP6 ADD SWAP2 DUP2 DUP7 MSTORE DUP5 MLOAD DUP1 SWAP4 MSTORE DUP6 ADD SWAP4 ADD SWAP2 JUMPDEST DUP2 DUP2 LT PUSH2 0x6E7 JUMPI POP POP POP SUB SWAP1 RETURN JUMPDEST DUP3 MLOAD DUP5 MSTORE DUP6 SWAP5 POP PUSH1 0x20 SWAP4 DUP5 ADD SWAP4 SWAP1 SWAP3 ADD SWAP2 PUSH1 0x1 ADD PUSH2 0x6D9 JUMP JUMPDEST SWAP1 SWAP2 SWAP3 POP RETURNDATASIZE DUP1 DUP6 DUP5 RETURNDATACOPY PUSH2 0x713 DUP2 DUP5 PUSH2 0x1695 JUMP JUMPDEST DUP3 ADD SWAP2 PUSH1 0x20 DUP2 DUP5 SUB SLT PUSH2 0x793 JUMPI DUP1 MLOAD SWAP2 DUP3 GT PUSH2 0x793 JUMPI ADD SWAP1 DUP1 PUSH1 0x1F DUP4 ADD SLT ISZERO PUSH2 0x78F JUMPI DUP2 MLOAD PUSH2 0x741 DUP2 PUSH2 0x16CD JUMP JUMPDEST SWAP3 PUSH2 0x74E DUP6 MLOAD SWAP5 DUP6 PUSH2 0x1695 JUMP JUMPDEST DUP2 DUP5 MSTORE PUSH1 0x20 DUP1 DUP6 ADD SWAP3 PUSH1 0x5 SHL DUP3 ADD ADD SWAP3 DUP4 GT PUSH2 0x78B JUMPI PUSH1 0x20 ADD SWAP1 JUMPDEST DUP3 DUP3 LT PUSH2 0x77B JUMPI POP POP POP SWAP1 CODESIZE DUP1 PUSH2 0x676 JUMP JUMPDEST DUP2 MLOAD DUP2 MSTORE PUSH1 0x20 SWAP2 DUP3 ADD SWAP2 ADD PUSH2 0x769 JUMP JUMPDEST DUP6 DUP1 REVERT JUMPDEST DUP4 DUP1 REVERT JUMPDEST DUP5 DUP1 REVERT JUMPDEST DUP3 MLOAD RETURNDATASIZE DUP7 DUP3 RETURNDATACOPY RETURNDATASIZE SWAP1 REVERT JUMPDEST DUP13 MLOAD PUSH4 0x39E57743 PUSH1 0xE0 SHL DUP2 MSTORE DUP12 SWAP1 REVERT JUMPDEST DUP11 MLOAD PUSH4 0xA9087E4B PUSH1 0xE0 SHL DUP2 MSTORE DUP10 SWAP1 REVERT JUMPDEST POP DUP4 DUP3 EQ ISZERO PUSH2 0x4DA JUMP JUMPDEST POP DUP2 DUP8 EQ ISZERO PUSH2 0x4D3 JUMP JUMPDEST DUP12 DUP1 REVERT JUMPDEST DUP10 DUP1 REVERT JUMPDEST DUP8 DUP1 REVERT JUMPDEST PUSH2 0x1642 JUMP JUMPDEST DUP3 DUP5 CALLVALUE PUSH2 0x260 JUMPI PUSH1 0x20 CALLDATASIZE PUSH1 0x3 NOT ADD SLT PUSH2 0x260 JUMPI POP PUSH2 0x809 PUSH1 0x20 SWAP3 CALLDATALOAD PUSH1 0x1 SLOAD PUSH2 0x165F JUMP JUMPDEST SWAP1 MLOAD SWAP1 DUP2 MSTORE RETURN JUMPDEST SWAP2 SWAP1 POP CALLVALUE PUSH2 0x276 JUMPI PUSH1 0x20 CALLDATASIZE PUSH1 0x3 NOT ADD SLT PUSH2 0x276 JUMPI DUP1 MLOAD PUSH4 0xC12F7947 PUSH1 0xE0 SHL DUP2 MSTORE DUP3 CALLDATALOAD SWAP3 DUP2 ADD SWAP3 SWAP1 SWAP3 MSTORE PUSH1 0x60 DUP3 PUSH1 0x24 DUP2 PUSH32 0x0 PUSH1 0x1 PUSH1 0x1 PUSH1 0xA0 SHL SUB AND GAS STATICCALL SWAP1 DUP2 ISZERO PUSH2 0x8E3 JUMPI DUP4 SWAP3 DUP5 DUP1 SWAP4 PUSH2 0x89B JUMPI JUMPDEST POP POP MLOAD SWAP2 DUP3 MSTORE PUSH1 0x20 DUP3 ADD SWAP3 SWAP1 SWAP3 MSTORE PUSH1 0x40 DUP2 ADD SWAP2 SWAP1 SWAP2 MSTORE PUSH1 0x60 SWAP1 RETURN JUMPDEST SUB SWAP1 RETURN JUMPDEST SWAP3 POP SWAP3 POP SWAP3 POP PUSH1 0x60 DUP3 RETURNDATASIZE DUP3 GT PUSH2 0x8DB JUMPI JUMPDEST DUP2 PUSH2 0x8B9 PUSH1 0x60 SWAP4 DUP4 PUSH2 0x1695 JUMP JUMPDEST DUP2 ADD SUB SLT PUSH2 0x260 JUMPI POP PUSH2 0x897 DUP2 MLOAD SWAP3 DUP1 PUSH1 0x20 DUP5 ADD MLOAD SWAP4 ADD MLOAD SWAP4 SWAP3 SWAP4 SWAP2 CODESIZE PUSH2 0x87C JUMP JUMPDEST RETURNDATASIZE SWAP2 POP PUSH2 0x8AC JUMP JUMPDEST MLOAD RETURNDATASIZE DUP5 DUP3 RETURNDATACOPY RETURNDATASIZE SWAP1 REVERT JUMPDEST SWAP1 POP CALLVALUE PUSH2 0x276 JUMPI PUSH1 0x20 CALLDATASIZE PUSH1 0x3 NOT ADD SLT PUSH2 0x276 JUMPI PUSH1 0x20 SWAP3 PUSH1 0xFF SWAP2 DUP4 SWAP2 SWAP1 PUSH1 0x1 PUSH1 0x1 PUSH1 0xA0 SHL SUB PUSH2 0x918 PUSH2 0x15BB JUMP JUMPDEST AND DUP3 MSTORE DUP6 MSTORE KECCAK256 SLOAD AND SWAP1 MLOAD SWAP1 ISZERO ISZERO DUP2 MSTORE RETURN JUMPDEST SWAP1 POP CALLVALUE PUSH2 0x276 JUMPI PUSH1 0x20 CALLDATASIZE PUSH1 0x3 NOT ADD SLT PUSH2 0x276 JUMPI DUP1 CALLDATALOAD SWAP1 CALLER DUP5 MSTORE DUP1 PUSH1 0x20 MSTORE PUSH1 0xFF DUP4 DUP6 KECCAK256 SLOAD AND ISZERO PUSH2 0x2DD JUMPI POP SWAP1 PUSH32 0x5FCB23AFB0FB7986C3F826699011CF4D5126FD38C3105AD6F16690B2BD16D28 SWAP2 PUSH1 0x1 SLOAD SWAP1 DUP1 PUSH1 0x1 SSTORE DUP3 MLOAD SWAP2 DUP3 MSTORE PUSH1 0x20 DUP3 ADD MSTORE LOG1 DUP1 RETURN JUMPDEST DUP4 SWAP2 POP CALLVALUE PUSH2 0x1B3 JUMPI PUSH1 0x60 CALLDATASIZE PUSH1 0x3 NOT ADD SLT PUSH2 0x1B3 JUMPI DUP3 MLOAD PUSH4 0x7D4EAA91 PUSH1 0xE0 SHL DUP2 MSTORE DUP2 CALLDATALOAD SWAP2 DUP2 ADD SWAP2 SWAP1 SWAP2 MSTORE PUSH1 0x24 DUP1 CALLDATALOAD SWAP1 DUP3 ADD MSTORE PUSH1 0x44 DUP1 CALLDATALOAD SWAP1 DUP3 ADD MSTORE DUP3 DUP2 PUSH1 0x64 DUP2 PUSH32 0x0 PUSH1 0x1 PUSH1 0x1 PUSH1 0xA0 SHL SUB AND GAS STATICCALL SWAP1 DUP2 ISZERO PUSH2 0xA4A JUMPI DUP3 DUP1 SWAP3 PUSH2 0xA13 JUMPI JUMPDEST POP POP DUP3 MLOAD SWAP2 DUP3 MSTORE PUSH1 0x20 DUP3 ADD MSTORE RETURN JUMPDEST SWAP2 POP SWAP2 POP DUP3 DUP3 DUP2 RETURNDATASIZE DUP4 GT PUSH2 0xA43 JUMPI JUMPDEST PUSH2 0xA2C DUP2 DUP4 PUSH2 0x1695 JUMP JUMPDEST DUP2 ADD SUB SLT PUSH2 0x260 JUMPI POP PUSH1 0x20 DUP2 MLOAD SWAP2 ADD MLOAD DUP4 DUP1 PUSH2 0xA05 JUMP JUMPDEST POP RETURNDATASIZE PUSH2 0xA22 JUMP JUMPDEST DUP4 MLOAD RETURNDATASIZE DUP5 DUP3 RETURNDATACOPY RETURNDATASIZE SWAP1 REVERT JUMPDEST DUP3 DUP5 CALLVALUE PUSH2 0x260 JUMPI PUSH1 0x20 CALLDATASIZE PUSH1 0x3 NOT ADD SLT PUSH2 0x260 JUMPI POP PUSH2 0x809 PUSH1 0x20 SWAP3 CALLDATALOAD PUSH2 0xA8A PUSH2 0x2710 PUSH2 0xA81 PUSH1 0x3 SLOAD DUP5 PUSH2 0x165F JUMP JUMPDEST DIV PUSH1 0x2 SLOAD PUSH2 0x1688 JUMP JUMPDEST SWAP1 PUSH2 0x1688 JUMP JUMPDEST SWAP1 POP CALLVALUE PUSH2 0x276 JUMPI PUSH1 0x20 CALLDATASIZE PUSH1 0x3 NOT ADD SLT PUSH2 0x276 JUMPI DUP1 CALLDATALOAD SWAP1 PUSH8 0xFFFFFFFFFFFFFFFF SWAP1 DUP2 DUP4 GT PUSH2 0x793 JUMPI CALLDATASIZE PUSH1 0x23 DUP5 ADD SLT ISZERO PUSH2 0x793 JUMPI DUP3 ADD CALLDATALOAD SWAP1 DUP2 GT PUSH2 0x78F JUMPI CALLDATASIZE PUSH1 0x24 DUP3 DUP5 ADD ADD GT PUSH2 0x78F JUMPI PUSH1 0x20 SWAP4 DUP5 PUSH2 0xAE5 DUP4 PUSH2 0x1783 JUMP JUMPDEST SWAP3 PUSH2 0xAF2 DUP7 MLOAD SWAP5 DUP6 PUSH2 0x1695 JUMP JUMPDEST DUP1 DUP5 MSTORE DUP1 PUSH1 0x24 DUP4 DUP7 ADD SWAP7 ADD DUP7 CALLDATACOPY DUP4 ADD ADD MSTORE MLOAD SWAP1 KECCAK256 SWAP1 MLOAD SWAP1 DUP2 MSTORE RETURN JUMPDEST POP POP CALLVALUE PUSH2 0x1B3 JUMPI DUP2 PUSH1 0x3 NOT CALLDATASIZE ADD SLT PUSH2 0x1B3 JUMPI PUSH1 0x20 SWAP1 PUSH1 0x3 SLOAD SWAP1 MLOAD SWAP1 DUP2 MSTORE RETURN JUMPDEST SWAP1 POP PUSH1 0x3 NOT DUP3 DUP2 CALLDATASIZE ADD SLT PUSH2 0x78F JUMPI PUSH8 0xFFFFFFFFFFFFFFFF DUP3 CALLDATALOAD DUP2 DUP2 GT PUSH2 0x78B JUMPI PUSH2 0xB59 SWAP1 CALLDATASIZE SWAP1 DUP6 ADD PUSH2 0x15D6 JUMP JUMPDEST SWAP1 SWAP3 PUSH1 0x24 CALLDATALOAD DUP4 DUP2 GT PUSH2 0x7DD JUMPI PUSH2 0xB72 SWAP1 CALLDATASIZE SWAP1 DUP8 ADD PUSH2 0x15D6 JUMP JUMPDEST SWAP4 SWAP1 SWAP3 PUSH1 0x1 SWAP2 PUSH2 0xB83 DUP3 DUP5 SLOAD PUSH2 0x165F JUMP JUMPDEST SWAP8 PUSH2 0xB8E DUP8 DUP8 PUSH2 0x1802 JUMP JUMPDEST SWAP9 PUSH2 0xB99 DUP11 DUP3 PUSH2 0x1688 JUMP JUMPDEST CALLVALUE LT PUSH2 0xDE0 JUMPI SWAP2 DUP11 SWAP10 SWAP6 SWAP2 SWAP7 SWAP3 SWAP5 DUP6 PUSH2 0xBB6 DUP15 SWAP11 SWAP7 SWAP14 SWAP12 SWAP8 PUSH2 0x179F JUMP JUMPDEST PUSH1 0x0 DUP1 MLOAD PUSH1 0x20 PUSH2 0x1877 DUP4 CODECOPY DUP2 MLOAD SWAP2 MSTORE DUP12 MLOAD SWAP2 DUP1 DUP4 MSTORE DUP10 PUSH1 0x20 SWAP14 DUP5 DUP16 SWAP6 DUP7 DUP4 SWAP2 ADD MSTORE PUSH1 0x0 DUP1 MLOAD PUSH1 0x20 PUSH2 0x1857 DUP4 CODECOPY DUP2 MLOAD SWAP2 MSTORE CALLER SWAP2 DUP1 PUSH2 0xC0E DUP6 DUP3 ADD PUSH1 0x40 SWAP1 PUSH1 0xB DUP2 MSTORE PUSH11 0x63726561746541746F6D73 PUSH1 0xA8 SHL PUSH1 0x20 DUP3 ADD MSTORE ADD SWAP1 JUMP JUMPDEST SUB SWAP1 LOG2 DUP1 MLOAD PUSH1 0x80 DUP1 DUP3 MSTORE PUSH1 0xB SWAP1 DUP3 ADD MSTORE PUSH11 0x63726561746541746F6D73 PUSH1 0xA8 SHL PUSH1 0xA0 DUP3 ADD MSTORE SWAP5 DUP6 ADD SWAP3 SWAP1 SWAP3 MSTORE SWAP1 DUP4 ADD MSTORE CALLVALUE PUSH1 0x60 DUP4 ADD MSTORE CALLER SWAP2 PUSH1 0xC0 SWAP1 LOG2 DUP12 DUP12 MLOAD SWAP13 DUP14 SWAP10 PUSH4 0x61403309 PUSH1 0xE0 SHL DUP12 MSTORE DUP14 PUSH1 0x44 DUP13 ADD SWAP2 DUP13 ADD MSTORE MSTORE PUSH1 0x64 DUP10 ADD SWAP7 PUSH1 0x64 DUP3 PUSH1 0x5 SHL DUP12 ADD ADD SWAP8 DUP2 SWAP5 DUP13 SWAP3 JUMPDEST DUP5 DUP5 LT PUSH2 0xD65 JUMPI POP POP POP POP POP POP POP SWAP3 DUP6 SWAP4 SWAP3 PUSH2 0xC9D SWAP3 DUP6 SWAP5 DUP6 DUP5 SUB ADD PUSH1 0x24 DUP7 ADD MSTORE PUSH2 0x175F JUMP JUMPDEST SUB SWAP2 PUSH32 0x0 PUSH1 0x1 PUSH1 0x1 PUSH1 0xA0 SHL SUB AND GAS CALL SWAP3 DUP4 ISZERO PUSH2 0x797 JUMPI DUP5 PUSH2 0x897 SWAP6 SWAP5 PUSH2 0xD2F JUMPI JUMPDEST POP POP PUSH1 0x0 DUP1 MLOAD PUSH1 0x20 PUSH2 0x1897 DUP4 CODECOPY DUP2 MLOAD SWAP2 MSTORE SWAP1 DUP4 MLOAD DUP4 MLOAD SWAP2 DUP3 SWAP2 DUP6 DUP4 MSTORE PUSH2 0xD1E DUP7 DUP5 ADD PUSH1 0x40 SWAP1 PUSH1 0xB DUP2 MSTORE PUSH11 0x63726561746541746F6D73 PUSH1 0xA8 SHL PUSH1 0x20 DUP3 ADD MSTORE ADD SWAP1 JUMP JUMPDEST SWAP2 DUP4 ADD MSTORE SUB SWAP1 LOG1 MLOAD SWAP2 DUP3 SWAP2 DUP3 PUSH2 0x1607 JUMP JUMPDEST PUSH1 0x0 DUP1 MLOAD PUSH1 0x20 PUSH2 0x1897 DUP4 CODECOPY DUP2 MLOAD SWAP2 MSTORE SWAP3 SWAP5 POP SWAP1 PUSH2 0xD5D SWAP2 RETURNDATASIZE DUP1 SWAP2 DUP4 RETURNDATACOPY PUSH2 0xD55 DUP2 DUP4 PUSH2 0x1695 JUMP JUMPDEST DUP2 ADD SWAP1 PUSH2 0x16E5 JUMP JUMPDEST SWAP3 SWAP1 CODESIZE PUSH2 0xCDD JUMP JUMPDEST SWAP3 SWAP6 SWAP12 PUSH1 0x63 SWAP14 SWAP2 SWAP5 SWAP8 SWAP10 SWAP12 SWAP14 SWAP11 SWAP3 SWAP6 SWAP9 SWAP11 NOT SWAP1 DUP4 SUB ADD DUP6 MSTORE DUP12 CALLDATALOAD SWAP1 PUSH1 0x1E NOT DUP5 CALLDATASIZE SUB ADD DUP3 SLT ISZERO PUSH2 0x260 JUMPI DUP4 DUP16 SWAP3 ADD SWAP2 DUP3 CALLDATALOAD SWAP3 ADD DUP6 DUP4 GT PUSH2 0x1B3 JUMPI DUP3 CALLDATASIZE SUB DUP2 SGT PUSH2 0x1B3 JUMPI DUP16 SWAP3 SWAP4 DUP5 DUP5 SWAP4 DUP2 DUP6 SWAP5 DUP15 SWAP9 DUP6 MSTORE DUP6 DUP6 ADD CALLDATACOPY DUP4 DUP3 DUP5 ADD ADD MSTORE PUSH1 0x1F DUP1 NOT SWAP2 ADD AND ADD ADD SWAP13 ADD SWAP5 ADD SWAP5 ADD SWAP1 SWAP4 DUP16 SWAP12 SWAP10 SWAP8 SWAP6 SWAP3 DUP16 SWAP12 SWAP10 SWAP8 SWAP5 SWAP6 PUSH2 0xC77 JUMP JUMPDEST POP DUP10 MLOAD PUSH4 0x39E57743 PUSH1 0xE0 SHL DUP2 MSTORE REVERT JUMPDEST SWAP1 POP CALLVALUE PUSH2 0x276 JUMPI PUSH1 0x20 CALLDATASIZE PUSH1 0x3 NOT ADD SLT PUSH2 0x276 JUMPI DUP1 CALLDATALOAD SWAP1 CALLER DUP5 MSTORE DUP1 PUSH1 0x20 MSTORE PUSH1 0xFF DUP4 DUP6 KECCAK256 SLOAD AND ISZERO PUSH2 0x2DD JUMPI PUSH2 0x2710 DUP3 GT PUSH2 0xE5B JUMPI POP SWAP1 PUSH32 0x941228A4ACE352CB2D85F4FC40701585A9BA154072A8794BFF7DB2BB61277734 SWAP2 PUSH1 0x3 SLOAD SWAP1 DUP1 PUSH1 0x3 SSTORE DUP3 MLOAD SWAP2 DUP3 MSTORE PUSH1 0x20 DUP3 ADD MSTORE LOG1 DUP1 RETURN JUMPDEST DUP3 MLOAD PUSH4 0x5DFB18EB PUSH1 0xE0 SHL DUP2 MSTORE REVERT JUMPDEST DUP4 DUP4 PUSH1 0xA0 CALLDATASIZE PUSH1 0x3 NOT ADD SLT PUSH2 0x1B3 JUMPI PUSH2 0xE7F PUSH2 0x15BB JUMP JUMPDEST SWAP3 PUSH1 0x84 CALLDATALOAD SWAP4 PUSH2 0xE96 PUSH2 0x2710 PUSH2 0xA81 PUSH1 0x3 SLOAD DUP9 PUSH2 0x165F JUMP JUMPDEST SWAP5 PUSH2 0xEA1 DUP7 DUP3 PUSH2 0x1688 JUMP JUMPDEST CALLVALUE LT PUSH2 0x1035 JUMPI PUSH2 0xEB0 DUP7 PUSH2 0x179F JUMP JUMPDEST PUSH1 0x84 DUP5 MLOAD SWAP3 DUP8 DUP5 MSTORE PUSH1 0x20 SWAP8 DUP5 DUP8 DUP11 DUP1 SWAP8 ADD MSTORE PUSH1 0x0 DUP1 MLOAD PUSH1 0x20 PUSH2 0x1857 DUP4 CODECOPY DUP2 MLOAD SWAP2 MSTORE CALLER SWAP2 DUP1 PUSH2 0xEF5 DUP12 DUP3 ADD PUSH1 0x40 SWAP1 PUSH1 0x7 DUP2 MSTORE PUSH7 0x19195C1BDCDA5D PUSH1 0xCA SHL PUSH1 0x20 DUP3 ADD MSTORE ADD SWAP1 JUMP JUMPDEST SUB SWAP1 LOG2 PUSH1 0x0 DUP1 MLOAD PUSH1 0x20 PUSH2 0x1877 DUP4 CODECOPY DUP2 MLOAD SWAP2 MSTORE DUP8 MLOAD PUSH1 0x80 DUP2 MSTORE PUSH2 0xF2F PUSH1 0x80 DUP3 ADD PUSH1 0x40 SWAP1 PUSH1 0x7 DUP2 MSTORE PUSH7 0x19195C1BDCDA5D PUSH1 0xCA SHL PUSH1 0x20 DUP3 ADD MSTORE ADD SWAP1 JUMP JUMPDEST SWAP3 DUP8 DUP3 ADD MSTORE DUP6 DUP10 DUP3 ADD MSTORE CALLVALUE PUSH1 0x60 DUP3 ADD MSTORE DUP1 CALLER SWAP4 SUB SWAP1 LOG2 DUP6 MLOAD PUSH4 0x2FB1D27 PUSH1 0xE4 SHL DUP2 MSTORE PUSH1 0x1 PUSH1 0x1 PUSH1 0xA0 SHL SUB SWAP2 DUP3 AND SWAP6 DUP2 ADD SWAP6 SWAP1 SWAP6 MSTORE PUSH1 0x24 DUP1 CALLDATALOAD SWAP1 DUP7 ADD MSTORE PUSH1 0x44 DUP1 CALLDATALOAD SWAP1 DUP7 ADD MSTORE PUSH1 0x64 DUP1 CALLDATALOAD SWAP1 DUP7 ADD MSTORE DUP5 SWAP3 DUP4 SWAP2 PUSH32 0x0 AND GAS CALL SWAP3 DUP4 ISZERO PUSH2 0x102A JUMPI DUP1 SWAP4 PUSH2 0xFF8 JUMPI JUMPDEST POP POP PUSH1 0x0 DUP1 MLOAD PUSH1 0x20 PUSH2 0x1897 DUP4 CODECOPY DUP2 MLOAD SWAP2 MSTORE DUP2 MLOAD DUP3 DUP2 MSTORE DUP1 PUSH2 0xFE9 DUP5 DUP3 ADD PUSH1 0x40 SWAP1 PUSH1 0x7 DUP2 MSTORE PUSH7 0x19195C1BDCDA5D PUSH1 0xCA SHL PUSH1 0x20 DUP3 ADD MSTORE ADD SWAP1 JUMP JUMPDEST PUSH1 0x1 DUP8 DUP4 ADD MSTORE SUB SWAP1 LOG1 MLOAD SWAP1 DUP2 MSTORE RETURN JUMPDEST SWAP1 SWAP2 SWAP3 POP DUP4 DUP3 DUP2 RETURNDATASIZE DUP4 GT PUSH2 0x1023 JUMPI JUMPDEST PUSH2 0x1011 DUP2 DUP4 PUSH2 0x1695 JUMP JUMPDEST DUP2 ADD SUB SLT PUSH2 0x260 JUMPI POP MLOAD SWAP1 DUP4 DUP1 PUSH2 0xFB1 JUMP JUMPDEST POP RETURNDATASIZE PUSH2 0x1007 JUMP JUMPDEST DUP3 MLOAD SWAP1 RETURNDATASIZE SWAP1 DUP3 RETURNDATACOPY RETURNDATASIZE SWAP1 REVERT JUMPDEST DUP4 MLOAD PUSH4 0x39E57743 PUSH1 0xE0 SHL DUP2 MSTORE DUP4 SWAP1 REVERT JUMPDEST POP POP CALLVALUE PUSH2 0x1B3 JUMPI DUP2 PUSH1 0x3 NOT CALLDATASIZE ADD SLT PUSH2 0x1B3 JUMPI SWAP1 SLOAD SWAP1 MLOAD PUSH1 0x1 PUSH1 0x1 PUSH1 0xA0 SHL SUB SWAP1 SWAP2 AND DUP2 MSTORE PUSH1 0x20 SWAP1 RETURN JUMPDEST PUSH1 0x3 NOT SWAP3 DUP5 SWAP3 POP PUSH1 0x80 CALLDATASIZE DUP6 ADD SLT PUSH2 0x276 JUMPI PUSH8 0xFFFFFFFFFFFFFFFF DUP3 CALLDATALOAD DUP2 DUP2 GT PUSH2 0x793 JUMPI PUSH2 0x109D SWAP1 CALLDATASIZE SWAP1 DUP6 ADD PUSH2 0x15D6 JUMP JUMPDEST PUSH1 0x24 SWAP3 SWAP2 SWAP3 CALLDATALOAD DUP3 DUP2 GT PUSH2 0x131B JUMPI PUSH2 0x10B7 SWAP1 CALLDATASIZE SWAP1 DUP8 ADD PUSH2 0x15D6 JUMP JUMPDEST SWAP6 SWAP1 SWAP3 PUSH1 0x44 CALLDATALOAD DUP2 DUP2 GT PUSH2 0x1317 JUMPI PUSH2 0x10D1 SWAP1 CALLDATASIZE SWAP1 DUP5 ADD PUSH2 0x15D6 JUMP JUMPDEST SWAP10 SWAP1 SWAP2 PUSH1 0x64 CALLDATALOAD SWAP1 DUP2 GT PUSH2 0x7D9 JUMPI PUSH2 0x10EB SWAP1 CALLDATASIZE SWAP1 DUP6 ADD PUSH2 0x15D6 JUMP JUMPDEST SWAP1 SWAP3 DUP10 DUP7 EQ DUP1 ISZERO SWAP1 PUSH2 0x130D JUMPI JUMPDEST DUP1 ISZERO PUSH2 0x1303 JUMPI JUMPDEST PUSH2 0x12F3 JUMPI PUSH2 0x110F DUP7 PUSH1 0x1 SLOAD PUSH2 0x165F JUMP JUMPDEST SWAP12 DUP13 SWAP8 PUSH2 0x1126 PUSH2 0x111F DUP6 DUP9 PUSH2 0x1802 JUMP JUMPDEST DUP1 SWAP11 PUSH2 0x1688 JUMP JUMPDEST CALLVALUE LT PUSH2 0x12E3 JUMPI DUP14 PUSH2 0x113B DUP15 SWAP16 SWAP15 SWAP13 SWAP14 SWAP15 PUSH2 0x179F JUMP JUMPDEST DUP13 DUP1 MLOAD DUP3 DUP2 MSTORE DUP2 PUSH1 0x20 DUP3 ADD MSTORE DUP1 CALLER SWAP3 DUP2 ADD PUSH2 0x1171 SWAP1 PUSH1 0x40 SWAP1 PUSH1 0xD DUP2 MSTORE PUSH13 0x637265617465547269706C6573 PUSH1 0x98 SHL PUSH1 0x20 DUP3 ADD MSTORE ADD SWAP1 JUMP JUMPDEST SUB PUSH1 0x0 DUP1 MLOAD PUSH1 0x20 PUSH2 0x1857 DUP4 CODECOPY DUP2 MLOAD SWAP2 MSTORE SWAP2 LOG2 DUP13 MLOAD PUSH1 0x80 DUP1 DUP3 MSTORE PUSH1 0xD SWAP1 DUP3 ADD MSTORE PUSH13 0x637265617465547269706C6573 PUSH1 0x98 SHL PUSH1 0xA0 DUP3 ADD MSTORE DUP11 DUP15 PUSH1 0xC0 DUP4 ADD SWAP4 PUSH1 0x20 DUP5 ADD MSTORE DUP3 ADD MSTORE CALLVALUE PUSH1 0x60 DUP3 ADD MSTORE DUP1 CALLER SWAP3 SUB PUSH1 0x0 DUP1 MLOAD PUSH1 0x20 PUSH2 0x1877 DUP4 CODECOPY DUP2 MLOAD SWAP2 MSTORE SWAP2 LOG2 DUP12 MLOAD SWAP13 DUP14 SWAP11 DUP12 SWAP10 DUP11 SWAP10 PUSH4 0x3C6BBF45 PUSH1 0xE0 SHL DUP12 MSTORE DUP11 ADD PUSH1 0x80 SWAP1 MSTORE PUSH1 0x84 DUP11 ADD SWAP1 PUSH2 0x11F7 SWAP3 PUSH2 0x175F JUMP JUMPDEST SWAP1 DUP7 DUP10 DUP4 SUB ADD PUSH1 0x24 DUP11 ADD MSTORE PUSH2 0x120B SWAP3 PUSH2 0x175F JUMP JUMPDEST SWAP1 DUP5 DUP8 DUP4 SUB ADD PUSH1 0x44 DUP9 ADD MSTORE PUSH2 0x121F SWAP3 PUSH2 0x175F JUMP JUMPDEST SWAP2 DUP5 DUP4 SUB ADD PUSH1 0x64 DUP6 ADD MSTORE PUSH2 0x1232 SWAP3 PUSH2 0x175F JUMP JUMPDEST SUB SWAP2 PUSH32 0x0 PUSH1 0x1 PUSH1 0x1 PUSH1 0xA0 SHL SUB AND GAS CALL SWAP2 DUP3 ISZERO PUSH2 0x3B1 JUMPI DUP4 PUSH2 0x897 SWAP5 SWAP4 PUSH2 0x12C6 JUMPI JUMPDEST POP POP PUSH1 0x0 DUP1 MLOAD PUSH1 0x20 PUSH2 0x1897 DUP4 CODECOPY DUP2 MLOAD SWAP2 MSTORE DUP3 MLOAD DUP3 MLOAD DUP1 SWAP2 DUP5 DUP3 MSTORE PUSH2 0x12B3 DUP6 DUP4 ADD PUSH1 0x40 SWAP1 PUSH1 0xD DUP2 MSTORE PUSH13 0x637265617465547269706C6573 PUSH1 0x98 SHL PUSH1 0x20 DUP3 ADD MSTORE ADD SWAP1 JUMP JUMPDEST SWAP1 PUSH1 0x20 DUP4 ADD MSTORE SUB SWAP1 LOG1 MLOAD SWAP2 DUP3 SWAP2 DUP3 PUSH2 0x1607 JUMP JUMPDEST PUSH2 0x12DB SWAP3 SWAP4 POP RETURNDATASIZE DUP1 SWAP2 DUP4 RETURNDATACOPY PUSH2 0xD55 DUP2 DUP4 PUSH2 0x1695 JUMP JUMPDEST SWAP1 DUP4 DUP1 PUSH2 0x1272 JUMP JUMPDEST DUP11 MLOAD PUSH4 0x39E57743 PUSH1 0xE0 SHL DUP2 MSTORE DUP8 SWAP1 REVERT JUMPDEST DUP9 MLOAD PUSH4 0xA9087E4B PUSH1 0xE0 SHL DUP2 MSTORE DUP6 SWAP1 REVERT JUMPDEST POP DUP2 DUP13 EQ ISZERO PUSH2 0x10FF JUMP JUMPDEST POP DUP12 DUP11 EQ ISZERO PUSH2 0x10F8 JUMP JUMPDEST DUP9 DUP1 REVERT JUMPDEST DUP7 DUP1 REVERT JUMPDEST SWAP2 SWAP1 POP CALLVALUE PUSH2 0x276 JUMPI DUP3 PUSH1 0x3 NOT CALLDATASIZE ADD SLT PUSH2 0x276 JUMPI DUP1 MLOAD PUSH4 0x33332D39 PUSH1 0xE0 SHL DUP2 MSTORE SWAP2 PUSH1 0x20 SWAP1 DUP4 SWAP1 DUP2 PUSH32 0x0 PUSH1 0x1 PUSH1 0x1 PUSH1 0xA0 SHL SUB AND GAS STATICCALL SWAP2 DUP3 ISZERO PUSH2 0x3B1 JUMPI DUP4 SWAP3 PUSH2 0x37A JUMPI PUSH1 0x20 DUP4 DUP4 MLOAD SWAP1 DUP2 MSTORE RETURN JUMPDEST SWAP2 SWAP1 POP CALLVALUE PUSH2 0x276 JUMPI PUSH1 0x60 CALLDATASIZE PUSH1 0x3 NOT ADD SLT PUSH2 0x276 JUMPI DUP1 MLOAD PUSH4 0x170D5079 PUSH1 0xE1 SHL DUP2 MSTORE DUP3 CALLDATALOAD SWAP3 DUP2 ADD SWAP3 DUP4 MSTORE PUSH1 0x24 CALLDATALOAD PUSH1 0x20 DUP5 DUP2 ADD SWAP2 SWAP1 SWAP2 MSTORE PUSH1 0x44 CALLDATALOAD PUSH1 0x40 DUP6 ADD MSTORE SWAP1 SWAP3 DUP4 SWAP1 DUP2 SWAP1 PUSH1 0x60 ADD SUB DUP2 PUSH32 0x0 PUSH1 0x1 PUSH1 0x1 PUSH1 0xA0 SHL SUB AND GAS STATICCALL SWAP2 DUP3 ISZERO PUSH2 0x3B1 JUMPI DUP4 SWAP3 PUSH2 0x37A JUMPI PUSH1 0x20 DUP4 DUP4 MLOAD SWAP1 DUP2 MSTORE RETURN JUMPDEST DUP3 DUP5 CALLVALUE PUSH2 0x260 JUMPI PUSH1 0x20 CALLDATASIZE PUSH1 0x3 NOT ADD SLT PUSH2 0x260 JUMPI POP PUSH2 0x809 PUSH2 0x2710 PUSH2 0xA81 PUSH1 0x20 SWAP5 PUSH1 0x3 SLOAD SWAP1 CALLDATALOAD PUSH2 0x165F JUMP JUMPDEST DUP3 DUP5 CALLVALUE PUSH2 0x260 JUMPI DUP2 PUSH1 0x3 NOT CALLDATASIZE ADD SLT PUSH2 0x260 JUMPI POP PUSH2 0x809 PUSH2 0x1461 PUSH1 0x20 SWAP4 CALLDATALOAD PUSH1 0x1 SLOAD PUSH2 0x165F JUMP JUMPDEST PUSH1 0x24 CALLDATALOAD PUSH2 0x1688 JUMP JUMPDEST POP POP CALLVALUE PUSH2 0x1B3 JUMPI DUP2 PUSH1 0x3 NOT CALLDATASIZE ADD SLT PUSH2 0x1B3 JUMPI PUSH1 0x20 SWAP1 PUSH1 0x1 SLOAD SWAP1 MLOAD SWAP1 DUP2 MSTORE RETURN JUMPDEST SWAP2 SWAP1 POP CALLVALUE PUSH2 0x276 JUMPI DUP3 PUSH1 0x3 NOT CALLDATASIZE ADD SLT PUSH2 0x276 JUMPI DUP1 MLOAD PUSH4 0x3597247 PUSH1 0xE2 SHL DUP2 MSTORE SWAP2 PUSH1 0x20 SWAP1 DUP4 SWAP1 DUP2 PUSH32 0x0 PUSH1 0x1 PUSH1 0x1 PUSH1 0xA0 SHL SUB AND GAS STATICCALL SWAP2 DUP3 ISZERO PUSH2 0x3B1 JUMPI DUP4 SWAP3 PUSH2 0x37A JUMPI PUSH1 0x20 DUP4 DUP4 MLOAD SWAP1 DUP2 MSTORE RETURN JUMPDEST SWAP2 SWAP1 POP CALLVALUE PUSH2 0x276 JUMPI DUP1 PUSH1 0x3 NOT CALLDATASIZE ADD SLT PUSH2 0x276 JUMPI PUSH2 0x150C PUSH2 0x15BB JUMP JUMPDEST SWAP1 PUSH1 0x24 CALLDATALOAD SWAP2 DUP3 ISZERO ISZERO DUP1 SWAP4 SUB PUSH2 0x793 JUMPI CALLER DUP6 MSTORE DUP4 PUSH1 0x20 MSTORE PUSH1 0xFF DUP3 DUP7 KECCAK256 SLOAD AND ISZERO PUSH2 0x158F JUMPI PUSH1 0x1 PUSH1 0x1 PUSH1 0xA0 SHL SUB AND SWAP3 DUP4 ISZERO PUSH2 0x1581 JUMPI SWAP2 PUSH1 0x20 SWAP2 PUSH32 0xDB8E93BC198E2B2EEA2F3EBBFDBC11D697156217479AC1F45564EB70891E3D05 SWAP4 DUP6 DUP8 MSTORE DUP4 MSTORE DUP1 DUP7 KECCAK256 PUSH1 0xFF NOT DUP2 SLOAD AND PUSH1 0xFF DUP5 AND OR SWAP1 SSTORE MLOAD SWAP1 DUP2 MSTORE LOG2 DUP1 RETURN JUMPDEST SWAP1 MLOAD PUSH4 0xE4799D2B PUSH1 0xE0 SHL DUP2 MSTORE REVERT JUMPDEST DUP2 MLOAD PUSH4 0x90C7C071 PUSH1 0xE0 SHL DUP2 MSTORE DUP5 SWAP1 REVERT JUMPDEST DUP5 SWAP1 CALLVALUE PUSH2 0x1B3 JUMPI DUP2 PUSH1 0x3 NOT CALLDATASIZE ADD SLT PUSH2 0x1B3 JUMPI PUSH1 0x20 SWAP1 PUSH1 0x2 SLOAD DUP2 MSTORE RETURN JUMPDEST PUSH1 0x4 CALLDATALOAD SWAP1 PUSH1 0x1 PUSH1 0x1 PUSH1 0xA0 SHL SUB DUP3 AND DUP3 SUB PUSH2 0x15D1 JUMPI JUMP JUMPDEST PUSH1 0x0 DUP1 REVERT JUMPDEST SWAP2 DUP2 PUSH1 0x1F DUP5 ADD SLT ISZERO PUSH2 0x15D1 JUMPI DUP3 CALLDATALOAD SWAP2 PUSH8 0xFFFFFFFFFFFFFFFF DUP4 GT PUSH2 0x15D1 JUMPI PUSH1 0x20 DUP1 DUP6 ADD SWAP5 DUP5 PUSH1 0x5 SHL ADD ADD GT PUSH2 0x15D1 JUMPI JUMP JUMPDEST PUSH1 0x20 SWAP1 DUP2 PUSH1 0x40 DUP2 DUP4 ADD SWAP3 DUP3 DUP2 MSTORE DUP6 MLOAD DUP1 SWAP5 MSTORE ADD SWAP4 ADD SWAP2 PUSH1 0x0 JUMPDEST DUP3 DUP2 LT PUSH2 0x162E JUMPI POP POP POP POP SWAP1 JUMP JUMPDEST DUP4 MLOAD DUP6 MSTORE SWAP4 DUP2 ADD SWAP4 SWAP3 DUP2 ADD SWAP3 PUSH1 0x1 ADD PUSH2 0x1620 JUMP JUMPDEST CALLVALUE PUSH2 0x15D1 JUMPI PUSH1 0x0 CALLDATASIZE PUSH1 0x3 NOT ADD SLT PUSH2 0x15D1 JUMPI PUSH1 0x20 PUSH1 0x40 MLOAD PUSH2 0x2710 DUP2 MSTORE RETURN JUMPDEST DUP2 DUP2 MUL SWAP3 SWAP2 DUP2 ISZERO SWAP2 DUP5 DIV EQ OR ISZERO PUSH2 0x1672 JUMPI JUMP JUMPDEST PUSH4 0x4E487B71 PUSH1 0xE0 SHL PUSH1 0x0 MSTORE PUSH1 0x11 PUSH1 0x4 MSTORE PUSH1 0x24 PUSH1 0x0 REVERT JUMPDEST SWAP2 SWAP1 DUP3 ADD DUP1 SWAP3 GT PUSH2 0x1672 JUMPI JUMP JUMPDEST SWAP1 PUSH1 0x1F DUP1 NOT SWAP2 ADD AND DUP2 ADD SWAP1 DUP2 LT PUSH8 0xFFFFFFFFFFFFFFFF DUP3 GT OR PUSH2 0x16B7 JUMPI PUSH1 0x40 MSTORE JUMP JUMPDEST PUSH4 0x4E487B71 PUSH1 0xE0 SHL PUSH1 0x0 MSTORE PUSH1 0x41 PUSH1 0x4 MSTORE PUSH1 0x24 PUSH1 0x0 REVERT JUMPDEST PUSH8 0xFFFFFFFFFFFFFFFF DUP2 GT PUSH2 0x16B7 JUMPI PUSH1 0x5 SHL PUSH1 0x20 ADD SWAP1 JUMP JUMPDEST PUSH1 0x20 SWAP1 DUP2 DUP2 DUP5 SUB SLT PUSH2 0x15D1 JUMPI DUP1 MLOAD SWAP1 PUSH8 0xFFFFFFFFFFFFFFFF DUP3 GT PUSH2 0x15D1 JUMPI ADD SWAP2 DUP1 PUSH1 0x1F DUP5 ADD SLT ISZERO PUSH2 0x15D1 JUMPI DUP3 MLOAD PUSH2 0x171B DUP2 PUSH2 0x16CD JUMP JUMPDEST SWAP4 PUSH2 0x1729 PUSH1 0x40 MLOAD SWAP6 DUP7 PUSH2 0x1695 JUMP JUMPDEST DUP2 DUP6 MSTORE DUP4 DUP1 DUP7 ADD SWAP3 PUSH1 0x5 SHL DUP3 ADD ADD SWAP3 DUP4 GT PUSH2 0x15D1 JUMPI DUP4 ADD SWAP1 JUMPDEST DUP3 DUP3 LT PUSH2 0x1750 JUMPI POP POP POP POP SWAP1 JUMP JUMPDEST DUP2 MLOAD DUP2 MSTORE SWAP1 DUP4 ADD SWAP1 DUP4 ADD PUSH2 0x1742 JUMP JUMPDEST DUP2 DUP4 MSTORE SWAP1 SWAP2 PUSH1 0x1 PUSH1 0x1 PUSH1 0xFB SHL SUB DUP4 GT PUSH2 0x15D1 JUMPI PUSH1 0x20 SWAP3 PUSH1 0x5 SHL DUP1 SWAP3 DUP5 DUP4 ADD CALLDATACOPY ADD ADD SWAP1 JUMP JUMPDEST PUSH8 0xFFFFFFFFFFFFFFFF DUP2 GT PUSH2 0x16B7 JUMPI PUSH1 0x1F ADD PUSH1 0x1F NOT AND PUSH1 0x20 ADD SWAP1 JUMP JUMPDEST DUP1 PUSH2 0x17A7 JUMPI POP JUMP JUMPDEST PUSH1 0x0 DUP1 DUP1 DUP1 DUP1 SWAP5 PUSH1 0x1 DUP1 PUSH1 0xA0 SHL SUB DUP3 SLOAD AND GAS CALL SWAP1 RETURNDATASIZE ISZERO PUSH2 0x17FC JUMPI RETURNDATASIZE SWAP1 PUSH2 0x17CC DUP3 PUSH2 0x1783 JUMP JUMPDEST SWAP2 PUSH2 0x17DA PUSH1 0x40 MLOAD SWAP4 DUP5 PUSH2 0x1695 JUMP JUMPDEST DUP3 MSTORE PUSH1 0x20 RETURNDATASIZE SWAP3 ADD RETURNDATACOPY JUMPDEST ISZERO PUSH2 0x17EA JUMPI JUMP JUMPDEST PUSH1 0x40 MLOAD PUSH4 0x291BE7B PUSH1 0xE3 SHL DUP2 MSTORE PUSH1 0x4 SWAP1 REVERT JUMPDEST POP PUSH2 0x17E3 JUMP JUMPDEST PUSH1 0x0 SWAP3 SWAP2 DUP4 SWAP2 DUP3 SWAP1 JUMPDEST DUP3 DUP5 LT PUSH2 0x1818 JUMPI POP POP POP POP JUMP JUMPDEST SWAP1 SWAP2 SWAP3 SWAP5 PUSH2 0x182D SWAP1 DUP7 PUSH1 0x5 SHL DUP4 ADD CALLDATALOAD SWAP1 PUSH2 0x1688 JUMP JUMPDEST SWAP5 PUSH1 0x0 NOT DUP2 EQ PUSH2 0x1842 JUMPI PUSH1 0x1 ADD SWAP3 SWAP2 SWAP1 PUSH2 0x180B JUMP JUMPDEST PUSH4 0x4E487B71 PUSH1 0xE0 SHL DUP4 MSTORE PUSH1 0x11 PUSH1 0x4 MSTORE PUSH1 0x24 DUP4 REVERT INVALID 0xDB 0x23 0xCB LOG2 AND 0xBF 0xAE 0xD8 SWAP1 PUSH17 0xD2734596F2EE2A163099CFC4F5EF32036D 0xEB 0xC9 PUSH26 0x22266EBD237946549F7DD8C5B01156CFE92D39B298A153ADB4C9 SWAP2 BYTE POP ADDMOD 0xAB PUSH24 0x68626A35BCB4A51611DBCD01A735CEFA7E3801D75BE5A8A7 0xEF ADDMOD 0xE5 0xEA 0xE6 POP REVERT 0xBC SWAP8 SWAP7 LOG2 PUSH5 0x6970667358 0x22 SLT KECCAK256 0x5D 0xF9 PUSH3 0x701876 SWAP6 CALLDATALOAD OR CALLDATACOPY CREATE2 COINBASE 0xE9 SMOD 0xBA DUP11 0xA6 BASEFEE SWAP5 0xDB NUMBER SWAP14 MSTORE8 EXTCODECOPY OR 0xD1 DUP9 SLOAD 0xE6 BALANCE 0xD8 CALL PUSH5 0x736F6C6343 STOP ADDMOD ISZERO STOP CALLER "},"methodIdentifiers":{"FEE_DENOMINATOR()":"d73792a9","MAX_FEE_PERCENTAGE()":"558e44d3","calculateAtomId(bytes)":"6828caa6","calculateCreationFee(uint256)":"c1757e36","calculateDepositFee(uint256)":"247d284b","calculateTripleId(bytes32,bytes32,bytes32)":"2e1aa0f2","createAtoms(bytes[],uint256[])":"61403309","createTriples(bytes32[],bytes32[],bytes32[],uint256[])":"3c6bbf45","creationFixedFee()":"0f060799","deposit(address,bytes32,uint256,uint256,uint256)":"58a19d5e","depositBatch(address,bytes32[],uint256[],uint256[],uint256[])":"dea9423a","depositFixedFee()":"02ef36c7","depositPercentageFee()":"63173be7","ethMultiVault()":"f8073c76","feeRecipient()":"46904840","getAtomCost()":"33332d39","getShares(address,bytes32,uint256)":"ee3abe38","getTotalCreationCost(uint256,uint256)":"0ff2663c","getTotalDepositCost(uint256)":"717ba4d9","getTriple(bytes32)":"c12f7947","getTripleCost()":"0d65c91c","isTermCreated(bytes32)":"f5719008","previewDeposit(bytes32,uint256,uint256)":"7d4eaa91","setCreationFixedFee(uint256)":"ad934c18","setDepositFixedFee(uint256)":"f48371c0","setDepositPercentageFee(uint256)":"5ce33d4f","setFeeRecipient(address)":"e74b981b","setWhitelistedAdmin(address,bool)":"082e709f","whitelistedAdmins(address)":"b3ec372e"}}}}}