{"src/test/MockMultiVault.sol":{"MockMultiVault":{"abi":[{"inputs":[],"name":"atomCost","outputs":[{"internalType":"uint256","name":"","type":"uint256"}],"stateMutability":"view","type":"function"},{"inputs":[{"internalType":"bytes","name":"data","type":"bytes"}],"name":"calculateAtomId","outputs":[{"internalType":"bytes32","name":"","type":"bytes32"}],"stateMutability":"pure","type":"function"},{"inputs":[{"internalType":"bytes32","name":"subjectId","type":"bytes32"},{"internalType":"bytes32","name":"predicateId","type":"bytes32"},{"internalType":"bytes32","name":"objectId","type":"bytes32"}],"name":"calculateTripleId","outputs":[{"internalType":"bytes32","name":"","type":"bytes32"}],"stateMutability":"pure","type":"function"},{"inputs":[{"internalType":"bytes[]","name":"data","type":"bytes[]"},{"internalType":"uint256[]","name":"assets","type":"uint256[]"}],"name":"createAtoms","outputs":[{"internalType":"bytes32[]","name":"atomIds","type":"bytes32[]"}],"stateMutability":"payable","type":"function"},{"inputs":[],"name":"createAtomsCallCount","outputs":[{"internalType":"uint256","name":"","type":"uint256"}],"stateMutability":"view","type":"function"},{"inputs":[{"internalType":"bytes32[]","name":"subjectIds","type":"bytes32[]"},{"internalType":"bytes32[]","name":"predicateIds","type":"bytes32[]"},{"internalType":"bytes32[]","name":"objectIds","type":"bytes32[]"},{"internalType":"uint256[]","name":"assets","type":"uint256[]"}],"name":"createTriples","outputs":[{"internalType":"bytes32[]","name":"tripleIds","type":"bytes32[]"}],"stateMutability":"payable","type":"function"},{"inputs":[],"name":"createTriplesCallCount","outputs":[{"internalType":"uint256","name":"","type":"uint256"}],"stateMutability":"view","type":"function"},{"inputs":[{"internalType":"address","name":"receiver","type":"address"},{"internalType":"bytes32","name":"termId","type":"bytes32"},{"internalType":"uint256","name":"curveId","type":"uint256"},{"internalType":"uint256","name":"minShares","type":"uint256"}],"name":"deposit","outputs":[{"internalType":"uint256","name":"sharesOut","type":"uint256"}],"stateMutability":"payable","type":"function"},{"inputs":[{"internalType":"address","name":"receiver","type":"address"},{"internalType":"bytes32[]","name":"termIds","type":"bytes32[]"},{"internalType":"uint256[]","name":"curveIds","type":"uint256[]"},{"internalType":"uint256[]","name":"assets","type":"uint256[]"},{"internalType":"uint256[]","name":"minShares","type":"uint256[]"}],"name":"depositBatch","outputs":[{"internalType":"uint256[]","name":"sharesOut","type":"uint256[]"}],"stateMutability":"payable","type":"function"},{"inputs":[],"name":"depositBatchCallCount","outputs":[{"internalType":"uint256","name":"","type":"uint256"}],"stateMutability":"view","type":"function"},{"inputs":[],"name":"depositCallCount","outputs":[{"internalType":"uint256","name":"","type":"uint256"}],"stateMutability":"view","type":"function"},{"inputs":[],"name":"getAtomCost","outputs":[{"internalType":"uint256","name":"","type":"uint256"}],"stateMutability":"view","type":"function"},{"inputs":[{"internalType":"address","name":"account","type":"address"},{"internalType":"bytes32","name":"termId","type":"bytes32"},{"internalType":"uint256","name":"curveId","type":"uint256"}],"name":"getShares","outputs":[{"internalType":"uint256","name":"","type":"uint256"}],"stateMutability":"view","type":"function"},{"inputs":[{"internalType":"bytes32","name":"tripleId","type":"bytes32"}],"name":"getTriple","outputs":[{"internalType":"bytes32","name":"subjectId","type":"bytes32"},{"internalType":"bytes32","name":"predicateId","type":"bytes32"},{"internalType":"bytes32","name":"objectId","type":"bytes32"}],"stateMutability":"view","type":"function"},{"inputs":[],"name":"getTripleCost","outputs":[{"internalType":"uint256","name":"","type":"uint256"}],"stateMutability":"view","type":"function"},{"inputs":[{"internalType":"bytes32","name":"id","type":"bytes32"}],"name":"isTermCreated","outputs":[{"internalType":"bool","name":"","type":"bool"}],"stateMutability":"view","type":"function"},{"inputs":[],"name":"lastDepositAmount","outputs":[{"internalType":"uint256","name":"","type":"uint256"}],"stateMutability":"view","type":"function"},{"inputs":[],"name":"lastDepositCurveId","outputs":[{"internalType":"uint256","name":"","type":"uint256"}],"stateMutability":"view","type":"function"},{"inputs":[],"name":"lastDepositReceiver","outputs":[{"internalType":"address","name":"","type":"address"}],"stateMutability":"view","type":"function"},{"inputs":[],"name":"lastDepositTermId","outputs":[{"internalType":"bytes32","name":"","type":"bytes32"}],"stateMutability":"view","type":"function"},{"inputs":[{"internalType":"bytes32","name":"termId","type":"bytes32"},{"internalType":"uint256","name":"curveId","type":"uint256"},{"internalType":"uint256","name":"assets","type":"uint256"}],"name":"previewDeposit","outputs":[{"internalType":"uint256","name":"","type":"uint256"},{"internalType":"uint256","name":"","type":"uint256"}],"stateMutability":"pure","type":"function"},{"inputs":[{"internalType":"uint256","name":"_cost","type":"uint256"}],"name":"setAtomCost","outputs":[],"stateMutability":"nonpayable","type":"function"},{"inputs":[{"internalType":"address","name":"account","type":"address"},{"internalType":"bytes32","name":"termId","type":"bytes32"},{"internalType":"uint256","name":"curveId","type":"uint256"},{"internalType":"uint256","name":"amount","type":"uint256"}],"name":"setShares","outputs":[],"stateMutability":"nonpayable","type":"function"},{"inputs":[{"internalType":"bytes32","name":"termId","type":"bytes32"},{"internalType":"bool","name":"created","type":"bool"}],"name":"setTermCreated","outputs":[],"stateMutability":"nonpayable","type":"function"},{"inputs":[{"internalType":"uint256","name":"_cost","type":"uint256"}],"name":"setTripleCost","outputs":[],"stateMutability":"nonpayable","type":"function"},{"inputs":[{"internalType":"address","name":"","type":"address"},{"internalType":"bytes32","name":"","type":"bytes32"},{"internalType":"uint256","name":"","type":"uint256"}],"name":"shares","outputs":[{"internalType":"uint256","name":"","type":"uint256"}],"stateMutability":"view","type":"function"},{"inputs":[{"internalType":"bytes32","name":"","type":"bytes32"}],"name":"termCreated","outputs":[{"internalType":"bool","name":"","type":"bool"}],"stateMutability":"view","type":"function"},{"inputs":[],"name":"tripleCost","outputs":[{"internalType":"uint256","name":"","type":"uint256"}],"stateMutability":"view","type":"function"},{"inputs":[{"internalType":"bytes32","name":"","type":"bytes32"}],"name":"tripleObjects","outputs":[{"internalType":"bytes32","name":"","type":"bytes32"}],"stateMutability":"view","type":"function"},{"inputs":[{"internalType":"bytes32","name":"","type":"bytes32"}],"name":"triplePredicates","outputs":[{"internalType":"bytes32","name":"","type":"bytes32"}],"stateMutability":"view","type":"function"},{"inputs":[{"internalType":"bytes32","name":"","type":"bytes32"}],"name":"tripleSubjects","outputs":[{"internalType":"bytes32","name":"","type":"bytes32"}],"stateMutability":"view","type":"function"},{"stateMutability":"payable","type":"receive"}],"evm":{"bytecode":{"linkReferences":{},"object":"6080806040523461002a57655af3107a400060005565b5e620f48000600155610c8a90816100308239f35b600080fdfe60806040818152600480361015610021575b505050361561001f57600080fd5b005b600092833560e01c9081630d65c91c14610a815750806313b0b7a114610a5a578063179e7a0a14610a4157806318b0054c14610942578063239563e014610a225780632e1aa0f2146109d65780632fb1d2701461095f57806333332d39146109425780633bac8dcf146101ae5780633c6bbf45146107ab57806355b153e01461078c578063614033091461067057806365007486146106515780636828caa6146105d15780637d4eaa91146105ab5780638680f6eb1461057157806387d69ff9146105455780638907e4621461051e5780638b36c975146104ff57806395d9809b146104d65780639ae36a21146104b7578063affe102c14610498578063b03eafcb1461045c578063b7c1fd5014610442578063c12f7947146103fd578063c17e1da3146103e0578063cfe3e83a146103b9578063dea9423a1461020f578063e5c65eaf146101f0578063ee3abe38146101ae5763f57190080361001157346101aa5760203660031901126101aa578160209360ff92358152600a855220541690519015158152f35b8280fd5b5050346101ec57806020926101c236610ad0565b6001600160a01b039092168352600e86528383209083528552828220908252845220549051908152f35b5080fd5b5050346101ec57816003193601126101ec576020906001549051908152f35b50829060a03660031901126101ec5780356001600160a01b03811691908290036101aa5767ffffffffffffffff926024358481116101ec576102549036908401610afa565b9490936044358281116103b55761026e9036908601610afa565b6064358481116103b1576102859036908801610afa565b9690946084359081116103ad579699989795966102a491369101610afa565b50506102b1600954610b66565b6009556102bd87610bc3565b946102ca89519687610b8b565b8786526102d688610bc3565b60209a878c019991601f1901368b37885b82811061032e578c8c8c8c8c83519485948186019282875251809352850193925b82811061031757505050500390f35b835185528695509381019392810192600101610308565b808a61039b8e9f9c9b9d9e898f8f90868f916103516103a29a8c61036295610c37565b3561035c8383610c0d565b52610c0d565b51948d8152600e82528a61037a888c87852093610c37565b358252825261038d878d86842095610c37565b359052528c20918254610c47565b9055610b66565b9b9a9997989b6102e7565b8680fd5b8580fd5b8380fd5b50346101aa5760203660031901126101aa576020928291358152600c845220549051908152f35b50346101aa57826003193601126101aa5760209250549051908152f35b50346101aa5760203660031901126101aa5791606092358152600b6020528181205491600c602052808083205492600d60205220549181519384526020840152820152f35b8382346101ec5760203660031901126101ec573560015580f35b5050346101ec5761046c36610a9d565b6001600160a01b039093168552600e602090815284862092865291825283852090855290529082205580f35b5050346101ec57816003193601126101ec576020906007549051908152f35b5050346101ec57816003193601126101ec576020906008549051908152f35b5050346101ec57816003193601126101ec5760035490516001600160a01b039091168152602090f35b5050346101ec57816003193601126101ec576020906006549051908152f35b50346101aa5760203660031901126101aa576020928291358152600d845220549051908152f35b50346101aa5760203660031901126101aa578160209360ff92358152600a855220541690519015158152f35b5090346101aa57806003193601126101aa57602435918215158093036103b557358352600a60205282209060ff8019835416911617905580f35b8284346105ce5760603660031901126105ce575080516044358082526020820152f35b80fd5b50346101aa5760203660031901126101aa5780359067ffffffffffffffff9081831161064d573660238401121561064d578201359081116103b55736602482840101116103b5576020938484519261063282601f19601f8401160185610b8b565b80845280602483860196018637830101525190209051908152f35b8480fd5b5050346101ec57816003193601126101ec576020906009549051908152f35b5090806003193601126101aa5767ffffffffffffffff823581811161064d5761069c9036908501610afa565b919093602435908282116103ad576106b691369101610afa565b50506106c3600654610b66565b6006556106cf82610bdb565b93855b8381106106ea578451806106e68882610b2b565b0390f35b8060051b820135601e19833603018112156107885782019081358481116107845760208093019281360384136107805761077b938361074c6060600a958c8051948286938985019889378301914289840152820152038c810184520182610b8b565b519020610759848b610c0d565b52610764838a610c0d565b518a5252858820805460ff19166001179055610b66565b6106d2565b8980fd5b8880fd5b8780fd5b5050346101ec57816003193601126101ec576020906002549051908152f35b509060803660031901126101aa5767ffffffffffffffff9282358481116101ec576107d99036908501610afa565b9490936024358281116103b5576107f39036908301610afa565b6044358481116103b15761080a9036908501610afa565b9390946064359081116103ad5761082391369101610afa565b5050610830600754610b66565b60075561083c88610bdb565b96855b898110610853578751806106e68b82610b2b565b61085e818b84610c37565b3561086a828587610c37565b3561087683888a610c37565b8a5160208082019485526040820193909352903560608083019190915281529091906108a3608082610b8b565b5190206108b0838c610c0d565b526108bb828b610c0d565b518852600a815288882060ff1981541660011790556108db828c85610c37565b356108e6838c610c0d565b518952600b8252898920556108fc828587610c37565b35610907838c610c0d565b518952600c82528989205561091d828789610c37565b3590610929838c610c0d565b518952600d90528888205561093d90610b66565b61083f565b5050346101ec57816003193601126101ec57602091549051908152f35b50602092829161096e36610a9d565b509290809261097e600854610b66565b6008553460025560018060a01b031691826bffffffffffffffffffffffff60a01b600354161760035555826005558352600e865283832090835285528282209082528452206109ce348254610c47565b905551348152f35b50346101aa5760603660031901126101aa5781519035602080830191825260243560408401526044356060808501919091528352935090610a18608082610b8b565b5190209051908152f35b5050346101ec57816003193601126101ec576020906005549051908152f35b8382346101ec5760203660031901126101ec5735815580f35b50346101aa5760203660031901126101aa576020928291358152600b845220549051908152f35b8490346101ec57816003193601126101ec576020906001548152f35b6080906003190112610acb576004356001600160a01b0381168103610acb5790602435906044359060643590565b600080fd5b6060906003190112610acb576004356001600160a01b0381168103610acb57906024359060443590565b9181601f84011215610acb5782359167ffffffffffffffff8311610acb576020808501948460051b010111610acb57565b6020908160408183019282815285518094520193019160005b828110610b52575050505090565b835185529381019392810192600101610b44565b6000198114610b755760010190565b634e487b7160e01b600052601160045260246000fd5b90601f8019910116810190811067ffffffffffffffff821117610bad57604052565b634e487b7160e01b600052604160045260246000fd5b67ffffffffffffffff8111610bad5760051b60200190565b90610be582610bc3565b610bf26040519182610b8b565b8281528092610c03601f1991610bc3565b0190602036910137565b8051821015610c215760209160051b010190565b634e487b7160e01b600052603260045260246000fd5b9190811015610c215760051b0190565b91908201809211610b755756fea2646970667358221220ea525dfcb5484e19cb15ee1e7163c33c392504965e7632eca7e7eea3b8bd419664736f6c63430008150033","opcodes":"PUSH1 0x80 DUP1 PUSH1 0x40 MSTORE CALLVALUE PUSH2 0x2A JUMPI PUSH6 0x5AF3107A4000 PUSH1 0x0 SSTORE PUSH6 0xB5E620F48000 PUSH1 0x1 SSTORE PUSH2 0xC8A SWAP1 DUP2 PUSH2 0x30 DUP3 CODECOPY RETURN JUMPDEST PUSH1 0x0 DUP1 REVERT INVALID PUSH1 0x80 PUSH1 0x40 DUP2 DUP2 MSTORE PUSH1 0x4 DUP1 CALLDATASIZE LT ISZERO PUSH2 0x21 JUMPI JUMPDEST POP POP POP CALLDATASIZE ISZERO PUSH2 0x1F JUMPI PUSH1 0x0 DUP1 REVERT JUMPDEST STOP JUMPDEST PUSH1 0x0 SWAP3 DUP4 CALLDATALOAD PUSH1 0xE0 SHR SWAP1 DUP2 PUSH4 0xD65C91C EQ PUSH2 0xA81 JUMPI POP DUP1 PUSH4 0x13B0B7A1 EQ PUSH2 0xA5A JUMPI DUP1 PUSH4 0x179E7A0A EQ PUSH2 0xA41 JUMPI DUP1 PUSH4 0x18B0054C EQ PUSH2 0x942 JUMPI DUP1 PUSH4 0x239563E0 EQ PUSH2 0xA22 JUMPI DUP1 PUSH4 0x2E1AA0F2 EQ PUSH2 0x9D6 JUMPI DUP1 PUSH4 0x2FB1D270 EQ PUSH2 0x95F JUMPI DUP1 PUSH4 0x33332D39 EQ PUSH2 0x942 JUMPI DUP1 PUSH4 0x3BAC8DCF EQ PUSH2 0x1AE JUMPI DUP1 PUSH4 0x3C6BBF45 EQ PUSH2 0x7AB JUMPI DUP1 PUSH4 0x55B153E0 EQ PUSH2 0x78C JUMPI DUP1 PUSH4 0x61403309 EQ PUSH2 0x670 JUMPI DUP1 PUSH4 0x65007486 EQ PUSH2 0x651 JUMPI DUP1 PUSH4 0x6828CAA6 EQ PUSH2 0x5D1 JUMPI DUP1 PUSH4 0x7D4EAA91 EQ PUSH2 0x5AB JUMPI DUP1 PUSH4 0x8680F6EB EQ PUSH2 0x571 JUMPI DUP1 PUSH4 0x87D69FF9 EQ PUSH2 0x545 JUMPI DUP1 PUSH4 0x8907E462 EQ PUSH2 0x51E JUMPI DUP1 PUSH4 0x8B36C975 EQ PUSH2 0x4FF JUMPI DUP1 PUSH4 0x95D9809B EQ PUSH2 0x4D6 JUMPI DUP1 PUSH4 0x9AE36A21 EQ PUSH2 0x4B7 JUMPI DUP1 PUSH4 0xAFFE102C EQ PUSH2 0x498 JUMPI DUP1 PUSH4 0xB03EAFCB EQ PUSH2 0x45C JUMPI DUP1 PUSH4 0xB7C1FD50 EQ PUSH2 0x442 JUMPI DUP1 PUSH4 0xC12F7947 EQ PUSH2 0x3FD JUMPI DUP1 PUSH4 0xC17E1DA3 EQ PUSH2 0x3E0 JUMPI DUP1 PUSH4 0xCFE3E83A EQ PUSH2 0x3B9 JUMPI DUP1 PUSH4 0xDEA9423A EQ PUSH2 0x20F JUMPI DUP1 PUSH4 0xE5C65EAF EQ PUSH2 0x1F0 JUMPI DUP1 PUSH4 0xEE3ABE38 EQ PUSH2 0x1AE JUMPI PUSH4 0xF5719008 SUB PUSH2 0x11 JUMPI CALLVALUE PUSH2 0x1AA JUMPI PUSH1 0x20 CALLDATASIZE PUSH1 0x3 NOT ADD SLT PUSH2 0x1AA JUMPI DUP2 PUSH1 0x20 SWAP4 PUSH1 0xFF SWAP3 CALLDATALOAD DUP2 MSTORE PUSH1 0xA DUP6 MSTORE KECCAK256 SLOAD AND SWAP1 MLOAD SWAP1 ISZERO ISZERO DUP2 MSTORE RETURN JUMPDEST DUP3 DUP1 REVERT JUMPDEST POP POP CALLVALUE PUSH2 0x1EC JUMPI DUP1 PUSH1 0x20 SWAP3 PUSH2 0x1C2 CALLDATASIZE PUSH2 0xAD0 JUMP JUMPDEST PUSH1 0x1 PUSH1 0x1 PUSH1 0xA0 SHL SUB SWAP1 SWAP3 AND DUP4 MSTORE PUSH1 0xE DUP7 MSTORE DUP4 DUP4 KECCAK256 SWAP1 DUP4 MSTORE DUP6 MSTORE DUP3 DUP3 KECCAK256 SWAP1 DUP3 MSTORE DUP5 MSTORE KECCAK256 SLOAD SWAP1 MLOAD SWAP1 DUP2 MSTORE RETURN JUMPDEST POP DUP1 REVERT JUMPDEST POP POP CALLVALUE PUSH2 0x1EC JUMPI DUP2 PUSH1 0x3 NOT CALLDATASIZE ADD SLT PUSH2 0x1EC JUMPI PUSH1 0x20 SWAP1 PUSH1 0x1 SLOAD SWAP1 MLOAD SWAP1 DUP2 MSTORE RETURN JUMPDEST POP DUP3 SWAP1 PUSH1 0xA0 CALLDATASIZE PUSH1 0x3 NOT ADD SLT PUSH2 0x1EC JUMPI DUP1 CALLDATALOAD PUSH1 0x1 PUSH1 0x1 PUSH1 0xA0 SHL SUB DUP2 AND SWAP2 SWAP1 DUP3 SWAP1 SUB PUSH2 0x1AA JUMPI PUSH8 0xFFFFFFFFFFFFFFFF SWAP3 PUSH1 0x24 CALLDATALOAD DUP5 DUP2 GT PUSH2 0x1EC JUMPI PUSH2 0x254 SWAP1 CALLDATASIZE SWAP1 DUP5 ADD PUSH2 0xAFA JUMP JUMPDEST SWAP5 SWAP1 SWAP4 PUSH1 0x44 CALLDATALOAD DUP3 DUP2 GT PUSH2 0x3B5 JUMPI PUSH2 0x26E SWAP1 CALLDATASIZE SWAP1 DUP7 ADD PUSH2 0xAFA JUMP JUMPDEST PUSH1 0x64 CALLDATALOAD DUP5 DUP2 GT PUSH2 0x3B1 JUMPI PUSH2 0x285 SWAP1 CALLDATASIZE SWAP1 DUP9 ADD PUSH2 0xAFA JUMP JUMPDEST SWAP7 SWAP1 SWAP5 PUSH1 0x84 CALLDATALOAD SWAP1 DUP2 GT PUSH2 0x3AD JUMPI SWAP7 SWAP10 SWAP9 SWAP8 SWAP6 SWAP7 PUSH2 0x2A4 SWAP2 CALLDATASIZE SWAP2 ADD PUSH2 0xAFA JUMP JUMPDEST POP POP PUSH2 0x2B1 PUSH1 0x9 SLOAD PUSH2 0xB66 JUMP JUMPDEST PUSH1 0x9 SSTORE PUSH2 0x2BD DUP8 PUSH2 0xBC3 JUMP JUMPDEST SWAP5 PUSH2 0x2CA DUP10 MLOAD SWAP7 DUP8 PUSH2 0xB8B JUMP JUMPDEST DUP8 DUP7 MSTORE PUSH2 0x2D6 DUP9 PUSH2 0xBC3 JUMP JUMPDEST PUSH1 0x20 SWAP11 DUP8 DUP13 ADD SWAP10 SWAP2 PUSH1 0x1F NOT ADD CALLDATASIZE DUP12 CALLDATACOPY DUP9 JUMPDEST DUP3 DUP2 LT PUSH2 0x32E JUMPI DUP13 DUP13 DUP13 DUP13 DUP13 DUP4 MLOAD SWAP5 DUP6 SWAP5 DUP2 DUP7 ADD SWAP3 DUP3 DUP8 MSTORE MLOAD DUP1 SWAP4 MSTORE DUP6 ADD SWAP4 SWAP3 JUMPDEST DUP3 DUP2 LT PUSH2 0x317 JUMPI POP POP POP POP SUB SWAP1 RETURN JUMPDEST DUP4 MLOAD DUP6 MSTORE DUP7 SWAP6 POP SWAP4 DUP2 ADD SWAP4 SWAP3 DUP2 ADD SWAP3 PUSH1 0x1 ADD PUSH2 0x308 JUMP JUMPDEST DUP1 DUP11 PUSH2 0x39B DUP15 SWAP16 SWAP13 SWAP12 SWAP14 SWAP15 DUP10 DUP16 DUP16 SWAP1 DUP7 DUP16 SWAP2 PUSH2 0x351 PUSH2 0x3A2 SWAP11 DUP13 PUSH2 0x362 SWAP6 PUSH2 0xC37 JUMP JUMPDEST CALLDATALOAD PUSH2 0x35C DUP4 DUP4 PUSH2 0xC0D JUMP JUMPDEST MSTORE PUSH2 0xC0D JUMP JUMPDEST MLOAD SWAP5 DUP14 DUP2 MSTORE PUSH1 0xE DUP3 MSTORE DUP11 PUSH2 0x37A DUP9 DUP13 DUP8 DUP6 KECCAK256 SWAP4 PUSH2 0xC37 JUMP JUMPDEST CALLDATALOAD DUP3 MSTORE DUP3 MSTORE PUSH2 0x38D DUP8 DUP14 DUP7 DUP5 KECCAK256 SWAP6 PUSH2 0xC37 JUMP JUMPDEST CALLDATALOAD SWAP1 MSTORE MSTORE DUP13 KECCAK256 SWAP2 DUP3 SLOAD PUSH2 0xC47 JUMP JUMPDEST SWAP1 SSTORE PUSH2 0xB66 JUMP JUMPDEST SWAP12 SWAP11 SWAP10 SWAP8 SWAP9 SWAP12 PUSH2 0x2E7 JUMP JUMPDEST DUP7 DUP1 REVERT JUMPDEST DUP6 DUP1 REVERT JUMPDEST DUP4 DUP1 REVERT JUMPDEST POP CALLVALUE PUSH2 0x1AA JUMPI PUSH1 0x20 CALLDATASIZE PUSH1 0x3 NOT ADD SLT PUSH2 0x1AA JUMPI PUSH1 0x20 SWAP3 DUP3 SWAP2 CALLDATALOAD DUP2 MSTORE PUSH1 0xC DUP5 MSTORE KECCAK256 SLOAD SWAP1 MLOAD SWAP1 DUP2 MSTORE RETURN JUMPDEST POP CALLVALUE PUSH2 0x1AA JUMPI DUP3 PUSH1 0x3 NOT CALLDATASIZE ADD SLT PUSH2 0x1AA JUMPI PUSH1 0x20 SWAP3 POP SLOAD SWAP1 MLOAD SWAP1 DUP2 MSTORE RETURN JUMPDEST POP CALLVALUE PUSH2 0x1AA JUMPI PUSH1 0x20 CALLDATASIZE PUSH1 0x3 NOT ADD SLT PUSH2 0x1AA JUMPI SWAP2 PUSH1 0x60 SWAP3 CALLDATALOAD DUP2 MSTORE PUSH1 0xB PUSH1 0x20 MSTORE DUP2 DUP2 KECCAK256 SLOAD SWAP2 PUSH1 0xC PUSH1 0x20 MSTORE DUP1 DUP1 DUP4 KECCAK256 SLOAD SWAP3 PUSH1 0xD PUSH1 0x20 MSTORE KECCAK256 SLOAD SWAP2 DUP2 MLOAD SWAP4 DUP5 MSTORE PUSH1 0x20 DUP5 ADD MSTORE DUP3 ADD MSTORE RETURN JUMPDEST DUP4 DUP3 CALLVALUE PUSH2 0x1EC JUMPI PUSH1 0x20 CALLDATASIZE PUSH1 0x3 NOT ADD SLT PUSH2 0x1EC JUMPI CALLDATALOAD PUSH1 0x1 SSTORE DUP1 RETURN JUMPDEST POP POP CALLVALUE PUSH2 0x1EC JUMPI PUSH2 0x46C CALLDATASIZE PUSH2 0xA9D JUMP JUMPDEST PUSH1 0x1 PUSH1 0x1 PUSH1 0xA0 SHL SUB SWAP1 SWAP4 AND DUP6 MSTORE PUSH1 0xE PUSH1 0x20 SWAP1 DUP2 MSTORE DUP5 DUP7 KECCAK256 SWAP3 DUP7 MSTORE SWAP2 DUP3 MSTORE DUP4 DUP6 KECCAK256 SWAP1 DUP6 MSTORE SWAP1 MSTORE SWAP1 DUP3 KECCAK256 SSTORE DUP1 RETURN JUMPDEST POP POP CALLVALUE PUSH2 0x1EC JUMPI DUP2 PUSH1 0x3 NOT CALLDATASIZE ADD SLT PUSH2 0x1EC JUMPI PUSH1 0x20 SWAP1 PUSH1 0x7 SLOAD SWAP1 MLOAD SWAP1 DUP2 MSTORE RETURN JUMPDEST POP POP CALLVALUE PUSH2 0x1EC JUMPI DUP2 PUSH1 0x3 NOT CALLDATASIZE ADD SLT PUSH2 0x1EC JUMPI PUSH1 0x20 SWAP1 PUSH1 0x8 SLOAD SWAP1 MLOAD SWAP1 DUP2 MSTORE RETURN JUMPDEST POP POP CALLVALUE PUSH2 0x1EC JUMPI DUP2 PUSH1 0x3 NOT CALLDATASIZE ADD SLT PUSH2 0x1EC JUMPI PUSH1 0x3 SLOAD SWAP1 MLOAD PUSH1 0x1 PUSH1 0x1 PUSH1 0xA0 SHL SUB SWAP1 SWAP2 AND DUP2 MSTORE PUSH1 0x20 SWAP1 RETURN JUMPDEST POP POP CALLVALUE PUSH2 0x1EC JUMPI DUP2 PUSH1 0x3 NOT CALLDATASIZE ADD SLT PUSH2 0x1EC JUMPI PUSH1 0x20 SWAP1 PUSH1 0x6 SLOAD SWAP1 MLOAD SWAP1 DUP2 MSTORE RETURN JUMPDEST POP CALLVALUE PUSH2 0x1AA JUMPI PUSH1 0x20 CALLDATASIZE PUSH1 0x3 NOT ADD SLT PUSH2 0x1AA JUMPI PUSH1 0x20 SWAP3 DUP3 SWAP2 CALLDATALOAD DUP2 MSTORE PUSH1 0xD DUP5 MSTORE KECCAK256 SLOAD SWAP1 MLOAD SWAP1 DUP2 MSTORE RETURN JUMPDEST POP CALLVALUE PUSH2 0x1AA JUMPI PUSH1 0x20 CALLDATASIZE PUSH1 0x3 NOT ADD SLT PUSH2 0x1AA JUMPI DUP2 PUSH1 0x20 SWAP4 PUSH1 0xFF SWAP3 CALLDATALOAD DUP2 MSTORE PUSH1 0xA DUP6 MSTORE KECCAK256 SLOAD AND SWAP1 MLOAD SWAP1 ISZERO ISZERO DUP2 MSTORE RETURN JUMPDEST POP SWAP1 CALLVALUE PUSH2 0x1AA JUMPI DUP1 PUSH1 0x3 NOT CALLDATASIZE ADD SLT PUSH2 0x1AA JUMPI PUSH1 0x24 CALLDATALOAD SWAP2 DUP3 ISZERO ISZERO DUP1 SWAP4 SUB PUSH2 0x3B5 JUMPI CALLDATALOAD DUP4 MSTORE PUSH1 0xA PUSH1 0x20 MSTORE DUP3 KECCAK256 SWAP1 PUSH1 0xFF DUP1 NOT DUP4 SLOAD AND SWAP2 AND OR SWAP1 SSTORE DUP1 RETURN JUMPDEST DUP3 DUP5 CALLVALUE PUSH2 0x5CE JUMPI PUSH1 0x60 CALLDATASIZE PUSH1 0x3 NOT ADD SLT PUSH2 0x5CE JUMPI POP DUP1 MLOAD PUSH1 0x44 CALLDATALOAD DUP1 DUP3 MSTORE PUSH1 0x20 DUP3 ADD MSTORE RETURN JUMPDEST DUP1 REVERT JUMPDEST POP CALLVALUE PUSH2 0x1AA JUMPI PUSH1 0x20 CALLDATASIZE PUSH1 0x3 NOT ADD SLT PUSH2 0x1AA JUMPI DUP1 CALLDATALOAD SWAP1 PUSH8 0xFFFFFFFFFFFFFFFF SWAP1 DUP2 DUP4 GT PUSH2 0x64D JUMPI CALLDATASIZE PUSH1 0x23 DUP5 ADD SLT ISZERO PUSH2 0x64D JUMPI DUP3 ADD CALLDATALOAD SWAP1 DUP2 GT PUSH2 0x3B5 JUMPI CALLDATASIZE PUSH1 0x24 DUP3 DUP5 ADD ADD GT PUSH2 0x3B5 JUMPI PUSH1 0x20 SWAP4 DUP5 DUP5 MLOAD SWAP3 PUSH2 0x632 DUP3 PUSH1 0x1F NOT PUSH1 0x1F DUP5 ADD AND ADD DUP6 PUSH2 0xB8B JUMP JUMPDEST DUP1 DUP5 MSTORE DUP1 PUSH1 0x24 DUP4 DUP7 ADD SWAP7 ADD DUP7 CALLDATACOPY DUP4 ADD ADD MSTORE MLOAD SWAP1 KECCAK256 SWAP1 MLOAD SWAP1 DUP2 MSTORE RETURN JUMPDEST DUP5 DUP1 REVERT JUMPDEST POP POP CALLVALUE PUSH2 0x1EC JUMPI DUP2 PUSH1 0x3 NOT CALLDATASIZE ADD SLT PUSH2 0x1EC JUMPI PUSH1 0x20 SWAP1 PUSH1 0x9 SLOAD SWAP1 MLOAD SWAP1 DUP2 MSTORE RETURN JUMPDEST POP SWAP1 DUP1 PUSH1 0x3 NOT CALLDATASIZE ADD SLT PUSH2 0x1AA JUMPI PUSH8 0xFFFFFFFFFFFFFFFF DUP3 CALLDATALOAD DUP2 DUP2 GT PUSH2 0x64D JUMPI PUSH2 0x69C SWAP1 CALLDATASIZE SWAP1 DUP6 ADD PUSH2 0xAFA JUMP JUMPDEST SWAP2 SWAP1 SWAP4 PUSH1 0x24 CALLDATALOAD SWAP1 DUP3 DUP3 GT PUSH2 0x3AD JUMPI PUSH2 0x6B6 SWAP2 CALLDATASIZE SWAP2 ADD PUSH2 0xAFA JUMP JUMPDEST POP POP PUSH2 0x6C3 PUSH1 0x6 SLOAD PUSH2 0xB66 JUMP JUMPDEST PUSH1 0x6 SSTORE PUSH2 0x6CF DUP3 PUSH2 0xBDB JUMP JUMPDEST SWAP4 DUP6 JUMPDEST DUP4 DUP2 LT PUSH2 0x6EA JUMPI DUP5 MLOAD DUP1 PUSH2 0x6E6 DUP9 DUP3 PUSH2 0xB2B JUMP JUMPDEST SUB SWAP1 RETURN JUMPDEST DUP1 PUSH1 0x5 SHL DUP3 ADD CALLDATALOAD PUSH1 0x1E NOT DUP4 CALLDATASIZE SUB ADD DUP2 SLT ISZERO PUSH2 0x788 JUMPI DUP3 ADD SWAP1 DUP2 CALLDATALOAD DUP5 DUP2 GT PUSH2 0x784 JUMPI PUSH1 0x20 DUP1 SWAP4 ADD SWAP3 DUP2 CALLDATASIZE SUB DUP5 SGT PUSH2 0x780 JUMPI PUSH2 0x77B SWAP4 DUP4 PUSH2 0x74C PUSH1 0x60 PUSH1 0xA SWAP6 DUP13 DUP1 MLOAD SWAP5 DUP3 DUP7 SWAP4 DUP10 DUP6 ADD SWAP9 DUP10 CALLDATACOPY DUP4 ADD SWAP2 TIMESTAMP DUP10 DUP5 ADD MSTORE DUP3 ADD MSTORE SUB DUP13 DUP2 ADD DUP5 MSTORE ADD DUP3 PUSH2 0xB8B JUMP JUMPDEST MLOAD SWAP1 KECCAK256 PUSH2 0x759 DUP5 DUP12 PUSH2 0xC0D JUMP JUMPDEST MSTORE PUSH2 0x764 DUP4 DUP11 PUSH2 0xC0D JUMP JUMPDEST MLOAD DUP11 MSTORE MSTORE DUP6 DUP9 KECCAK256 DUP1 SLOAD PUSH1 0xFF NOT AND PUSH1 0x1 OR SWAP1 SSTORE PUSH2 0xB66 JUMP JUMPDEST PUSH2 0x6D2 JUMP JUMPDEST DUP10 DUP1 REVERT JUMPDEST DUP9 DUP1 REVERT JUMPDEST DUP8 DUP1 REVERT JUMPDEST POP POP CALLVALUE PUSH2 0x1EC JUMPI DUP2 PUSH1 0x3 NOT CALLDATASIZE ADD SLT PUSH2 0x1EC JUMPI PUSH1 0x20 SWAP1 PUSH1 0x2 SLOAD SWAP1 MLOAD SWAP1 DUP2 MSTORE RETURN JUMPDEST POP SWAP1 PUSH1 0x80 CALLDATASIZE PUSH1 0x3 NOT ADD SLT PUSH2 0x1AA JUMPI PUSH8 0xFFFFFFFFFFFFFFFF SWAP3 DUP3 CALLDATALOAD DUP5 DUP2 GT PUSH2 0x1EC JUMPI PUSH2 0x7D9 SWAP1 CALLDATASIZE SWAP1 DUP6 ADD PUSH2 0xAFA JUMP JUMPDEST SWAP5 SWAP1 SWAP4 PUSH1 0x24 CALLDATALOAD DUP3 DUP2 GT PUSH2 0x3B5 JUMPI PUSH2 0x7F3 SWAP1 CALLDATASIZE SWAP1 DUP4 ADD PUSH2 0xAFA JUMP JUMPDEST PUSH1 0x44 CALLDATALOAD DUP5 DUP2 GT PUSH2 0x3B1 JUMPI PUSH2 0x80A SWAP1 CALLDATASIZE SWAP1 DUP6 ADD PUSH2 0xAFA JUMP JUMPDEST SWAP4 SWAP1 SWAP5 PUSH1 0x64 CALLDATALOAD SWAP1 DUP2 GT PUSH2 0x3AD JUMPI PUSH2 0x823 SWAP2 CALLDATASIZE SWAP2 ADD PUSH2 0xAFA JUMP JUMPDEST POP POP PUSH2 0x830 PUSH1 0x7 SLOAD PUSH2 0xB66 JUMP JUMPDEST PUSH1 0x7 SSTORE PUSH2 0x83C DUP9 PUSH2 0xBDB JUMP JUMPDEST SWAP7 DUP6 JUMPDEST DUP10 DUP2 LT PUSH2 0x853 JUMPI DUP8 MLOAD DUP1 PUSH2 0x6E6 DUP12 DUP3 PUSH2 0xB2B JUMP JUMPDEST PUSH2 0x85E DUP2 DUP12 DUP5 PUSH2 0xC37 JUMP JUMPDEST CALLDATALOAD PUSH2 0x86A DUP3 DUP6 DUP8 PUSH2 0xC37 JUMP JUMPDEST CALLDATALOAD PUSH2 0x876 DUP4 DUP9 DUP11 PUSH2 0xC37 JUMP JUMPDEST DUP11 MLOAD PUSH1 0x20 DUP1 DUP3 ADD SWAP5 DUP6 MSTORE PUSH1 0x40 DUP3 ADD SWAP4 SWAP1 SWAP4 MSTORE SWAP1 CALLDATALOAD PUSH1 0x60 DUP1 DUP4 ADD SWAP2 SWAP1 SWAP2 MSTORE DUP2 MSTORE SWAP1 SWAP2 SWAP1 PUSH2 0x8A3 PUSH1 0x80 DUP3 PUSH2 0xB8B JUMP JUMPDEST MLOAD SWAP1 KECCAK256 PUSH2 0x8B0 DUP4 DUP13 PUSH2 0xC0D JUMP JUMPDEST MSTORE PUSH2 0x8BB DUP3 DUP12 PUSH2 0xC0D JUMP JUMPDEST MLOAD DUP9 MSTORE PUSH1 0xA DUP2 MSTORE DUP9 DUP9 KECCAK256 PUSH1 0xFF NOT DUP2 SLOAD AND PUSH1 0x1 OR SWAP1 SSTORE PUSH2 0x8DB DUP3 DUP13 DUP6 PUSH2 0xC37 JUMP JUMPDEST CALLDATALOAD PUSH2 0x8E6 DUP4 DUP13 PUSH2 0xC0D JUMP JUMPDEST MLOAD DUP10 MSTORE PUSH1 0xB DUP3 MSTORE DUP10 DUP10 KECCAK256 SSTORE PUSH2 0x8FC DUP3 DUP6 DUP8 PUSH2 0xC37 JUMP JUMPDEST CALLDATALOAD PUSH2 0x907 DUP4 DUP13 PUSH2 0xC0D JUMP JUMPDEST MLOAD DUP10 MSTORE PUSH1 0xC DUP3 MSTORE DUP10 DUP10 KECCAK256 SSTORE PUSH2 0x91D DUP3 DUP8 DUP10 PUSH2 0xC37 JUMP JUMPDEST CALLDATALOAD SWAP1 PUSH2 0x929 DUP4 DUP13 PUSH2 0xC0D JUMP JUMPDEST MLOAD DUP10 MSTORE PUSH1 0xD SWAP1 MSTORE DUP9 DUP9 KECCAK256 SSTORE PUSH2 0x93D SWAP1 PUSH2 0xB66 JUMP JUMPDEST PUSH2 0x83F JUMP JUMPDEST POP POP CALLVALUE PUSH2 0x1EC JUMPI DUP2 PUSH1 0x3 NOT CALLDATASIZE ADD SLT PUSH2 0x1EC JUMPI PUSH1 0x20 SWAP2 SLOAD SWAP1 MLOAD SWAP1 DUP2 MSTORE RETURN JUMPDEST POP PUSH1 0x20 SWAP3 DUP3 SWAP2 PUSH2 0x96E CALLDATASIZE PUSH2 0xA9D JUMP JUMPDEST POP SWAP3 SWAP1 DUP1 SWAP3 PUSH2 0x97E PUSH1 0x8 SLOAD PUSH2 0xB66 JUMP JUMPDEST PUSH1 0x8 SSTORE CALLVALUE PUSH1 0x2 SSTORE PUSH1 0x1 DUP1 PUSH1 0xA0 SHL SUB AND SWAP2 DUP3 PUSH12 0xFFFFFFFFFFFFFFFFFFFFFFFF PUSH1 0xA0 SHL PUSH1 0x3 SLOAD AND OR PUSH1 0x3 SSTORE SSTORE DUP3 PUSH1 0x5 SSTORE DUP4 MSTORE PUSH1 0xE DUP7 MSTORE DUP4 DUP4 KECCAK256 SWAP1 DUP4 MSTORE DUP6 MSTORE DUP3 DUP3 KECCAK256 SWAP1 DUP3 MSTORE DUP5 MSTORE KECCAK256 PUSH2 0x9CE CALLVALUE DUP3 SLOAD PUSH2 0xC47 JUMP JUMPDEST SWAP1 SSTORE MLOAD CALLVALUE DUP2 MSTORE RETURN JUMPDEST POP CALLVALUE PUSH2 0x1AA JUMPI PUSH1 0x60 CALLDATASIZE PUSH1 0x3 NOT ADD SLT PUSH2 0x1AA JUMPI DUP2 MLOAD SWAP1 CALLDATALOAD PUSH1 0x20 DUP1 DUP4 ADD SWAP2 DUP3 MSTORE PUSH1 0x24 CALLDATALOAD PUSH1 0x40 DUP5 ADD MSTORE PUSH1 0x44 CALLDATALOAD PUSH1 0x60 DUP1 DUP6 ADD SWAP2 SWAP1 SWAP2 MSTORE DUP4 MSTORE SWAP4 POP SWAP1 PUSH2 0xA18 PUSH1 0x80 DUP3 PUSH2 0xB8B JUMP JUMPDEST MLOAD SWAP1 KECCAK256 SWAP1 MLOAD SWAP1 DUP2 MSTORE RETURN JUMPDEST POP POP CALLVALUE PUSH2 0x1EC JUMPI DUP2 PUSH1 0x3 NOT CALLDATASIZE ADD SLT PUSH2 0x1EC JUMPI PUSH1 0x20 SWAP1 PUSH1 0x5 SLOAD SWAP1 MLOAD SWAP1 DUP2 MSTORE RETURN JUMPDEST DUP4 DUP3 CALLVALUE PUSH2 0x1EC JUMPI PUSH1 0x20 CALLDATASIZE PUSH1 0x3 NOT ADD SLT PUSH2 0x1EC JUMPI CALLDATALOAD DUP2 SSTORE DUP1 RETURN JUMPDEST POP CALLVALUE PUSH2 0x1AA JUMPI PUSH1 0x20 CALLDATASIZE PUSH1 0x3 NOT ADD SLT PUSH2 0x1AA JUMPI PUSH1 0x20 SWAP3 DUP3 SWAP2 CALLDATALOAD DUP2 MSTORE PUSH1 0xB DUP5 MSTORE KECCAK256 SLOAD SWAP1 MLOAD SWAP1 DUP2 MSTORE RETURN JUMPDEST DUP5 SWAP1 CALLVALUE PUSH2 0x1EC JUMPI DUP2 PUSH1 0x3 NOT CALLDATASIZE ADD SLT PUSH2 0x1EC JUMPI PUSH1 0x20 SWAP1 PUSH1 0x1 SLOAD DUP2 MSTORE RETURN JUMPDEST PUSH1 0x80 SWAP1 PUSH1 0x3 NOT ADD SLT PUSH2 0xACB JUMPI PUSH1 0x4 CALLDATALOAD PUSH1 0x1 PUSH1 0x1 PUSH1 0xA0 SHL SUB DUP2 AND DUP2 SUB PUSH2 0xACB JUMPI SWAP1 PUSH1 0x24 CALLDATALOAD SWAP1 PUSH1 0x44 CALLDATALOAD SWAP1 PUSH1 0x64 CALLDATALOAD SWAP1 JUMP JUMPDEST PUSH1 0x0 DUP1 REVERT JUMPDEST PUSH1 0x60 SWAP1 PUSH1 0x3 NOT ADD SLT PUSH2 0xACB JUMPI PUSH1 0x4 CALLDATALOAD PUSH1 0x1 PUSH1 0x1 PUSH1 0xA0 SHL SUB DUP2 AND DUP2 SUB PUSH2 0xACB JUMPI SWAP1 PUSH1 0x24 CALLDATALOAD SWAP1 PUSH1 0x44 CALLDATALOAD SWAP1 JUMP JUMPDEST SWAP2 DUP2 PUSH1 0x1F DUP5 ADD SLT ISZERO PUSH2 0xACB JUMPI DUP3 CALLDATALOAD SWAP2 PUSH8 0xFFFFFFFFFFFFFFFF DUP4 GT PUSH2 0xACB JUMPI PUSH1 0x20 DUP1 DUP6 ADD SWAP5 DUP5 PUSH1 0x5 SHL ADD ADD GT PUSH2 0xACB JUMPI JUMP JUMPDEST PUSH1 0x20 SWAP1 DUP2 PUSH1 0x40 DUP2 DUP4 ADD SWAP3 DUP3 DUP2 MSTORE DUP6 MLOAD DUP1 SWAP5 MSTORE ADD SWAP4 ADD SWAP2 PUSH1 0x0 JUMPDEST DUP3 DUP2 LT PUSH2 0xB52 JUMPI POP POP POP POP SWAP1 JUMP JUMPDEST DUP4 MLOAD DUP6 MSTORE SWAP4 DUP2 ADD SWAP4 SWAP3 DUP2 ADD SWAP3 PUSH1 0x1 ADD PUSH2 0xB44 JUMP JUMPDEST PUSH1 0x0 NOT DUP2 EQ PUSH2 0xB75 JUMPI PUSH1 0x1 ADD SWAP1 JUMP JUMPDEST PUSH4 0x4E487B71 PUSH1 0xE0 SHL PUSH1 0x0 MSTORE PUSH1 0x11 PUSH1 0x4 MSTORE PUSH1 0x24 PUSH1 0x0 REVERT JUMPDEST SWAP1 PUSH1 0x1F DUP1 NOT SWAP2 ADD AND DUP2 ADD SWAP1 DUP2 LT PUSH8 0xFFFFFFFFFFFFFFFF DUP3 GT OR PUSH2 0xBAD JUMPI PUSH1 0x40 MSTORE JUMP JUMPDEST PUSH4 0x4E487B71 PUSH1 0xE0 SHL PUSH1 0x0 MSTORE PUSH1 0x41 PUSH1 0x4 MSTORE PUSH1 0x24 PUSH1 0x0 REVERT JUMPDEST PUSH8 0xFFFFFFFFFFFFFFFF DUP2 GT PUSH2 0xBAD JUMPI PUSH1 0x5 SHL PUSH1 0x20 ADD SWAP1 JUMP JUMPDEST SWAP1 PUSH2 0xBE5 DUP3 PUSH2 0xBC3 JUMP JUMPDEST PUSH2 0xBF2 PUSH1 0x40 MLOAD SWAP2 DUP3 PUSH2 0xB8B JUMP JUMPDEST DUP3 DUP2 MSTORE DUP1 SWAP3 PUSH2 0xC03 PUSH1 0x1F NOT SWAP2 PUSH2 0xBC3 JUMP JUMPDEST ADD SWAP1 PUSH1 0x20 CALLDATASIZE SWAP2 ADD CALLDATACOPY JUMP JUMPDEST DUP1 MLOAD DUP3 LT ISZERO PUSH2 0xC21 JUMPI PUSH1 0x20 SWAP2 PUSH1 0x5 SHL ADD ADD SWAP1 JUMP JUMPDEST PUSH4 0x4E487B71 PUSH1 0xE0 SHL PUSH1 0x0 MSTORE PUSH1 0x32 PUSH1 0x4 MSTORE PUSH1 0x24 PUSH1 0x0 REVERT JUMPDEST SWAP2 SWAP1 DUP2 LT ISZERO PUSH2 0xC21 JUMPI PUSH1 0x5 SHL ADD SWAP1 JUMP JUMPDEST SWAP2 SWAP1 DUP3 ADD DUP1 SWAP3 GT PUSH2 0xB75 JUMPI JUMP INVALID LOG2 PUSH5 0x6970667358 0x22 SLT KECCAK256 0xEA MSTORE 0x5D 0xFC 0xB5 BASEFEE 0x4E NOT 0xCB ISZERO 0xEE 0x1E PUSH18 0x63C33C392504965E7632ECA7E7EEA3B8BD41 SWAP7 PUSH5 0x736F6C6343 STOP ADDMOD ISZERO STOP CALLER "},"methodIdentifiers":{"atomCost()":"18b0054c","calculateAtomId(bytes)":"6828caa6","calculateTripleId(bytes32,bytes32,bytes32)":"2e1aa0f2","createAtoms(bytes[],uint256[])":"61403309","createAtomsCallCount()":"8b36c975","createTriples(bytes32[],bytes32[],bytes32[],uint256[])":"3c6bbf45","createTriplesCallCount()":"affe102c","deposit(address,bytes32,uint256,uint256)":"2fb1d270","depositBatch(address,bytes32[],uint256[],uint256[],uint256[])":"dea9423a","depositBatchCallCount()":"65007486","depositCallCount()":"9ae36a21","getAtomCost()":"33332d39","getShares(address,bytes32,uint256)":"ee3abe38","getTriple(bytes32)":"c12f7947","getTripleCost()":"0d65c91c","isTermCreated(bytes32)":"f5719008","lastDepositAmount()":"55b153e0","lastDepositCurveId()":"239563e0","lastDepositReceiver()":"95d9809b","lastDepositTermId()":"c17e1da3","previewDeposit(bytes32,uint256,uint256)":"7d4eaa91","setAtomCost(uint256)":"179e7a0a","setShares(address,bytes32,uint256,uint256)":"b03eafcb","setTermCreated(bytes32,bool)":"8680f6eb","setTripleCost(uint256)":"b7c1fd50","shares(address,bytes32,uint256)":"3bac8dcf","termCreated(bytes32)":"87d69ff9","tripleCost()":"e5c65eaf","tripleObjects(bytes32)":"8907e462","triplePredicates(bytes32)":"cfe3e83a","tripleSubjects(bytes32)":"13b0b7a1"}}}}}