{"src/test/MockMultiVault.sol":{"MockMultiVault":{"abi":[{"inputs":[{"internalType":"address","name":"","type":"address"},{"internalType":"address","name":"","type":"address"}],"name":"approvals","outputs":[{"internalType":"enum IEthMultiVault.ApprovalTypes","name":"","type":"uint8"}],"stateMutability":"view","type":"function"},{"inputs":[{"internalType":"address","name":"sender","type":"address"},{"internalType":"enum IEthMultiVault.ApprovalTypes","name":"approvalType","type":"uint8"}],"name":"approve","outputs":[],"stateMutability":"nonpayable","type":"function"},{"inputs":[],"name":"atomCost","outputs":[{"internalType":"uint256","name":"","type":"uint256"}],"stateMutability":"view","type":"function"},{"inputs":[{"internalType":"bytes","name":"data","type":"bytes"}],"name":"calculateAtomId","outputs":[{"internalType":"bytes32","name":"","type":"bytes32"}],"stateMutability":"pure","type":"function"},{"inputs":[{"internalType":"bytes32","name":"subjectId","type":"bytes32"},{"internalType":"bytes32","name":"predicateId","type":"bytes32"},{"internalType":"bytes32","name":"objectId","type":"bytes32"}],"name":"calculateTripleId","outputs":[{"internalType":"bytes32","name":"","type":"bytes32"}],"stateMutability":"pure","type":"function"},{"inputs":[{"internalType":"bytes[]","name":"data","type":"bytes[]"},{"internalType":"uint256[]","name":"assets","type":"uint256[]"}],"name":"createAtoms","outputs":[{"internalType":"bytes32[]","name":"atomIds","type":"bytes32[]"}],"stateMutability":"payable","type":"function"},{"inputs":[],"name":"createAtomsCallCount","outputs":[{"internalType":"uint256","name":"","type":"uint256"}],"stateMutability":"view","type":"function"},{"inputs":[{"internalType":"bytes32[]","name":"subjectIds","type":"bytes32[]"},{"internalType":"bytes32[]","name":"predicateIds","type":"bytes32[]"},{"internalType":"bytes32[]","name":"objectIds","type":"bytes32[]"},{"internalType":"uint256[]","name":"assets","type":"uint256[]"}],"name":"createTriples","outputs":[{"internalType":"bytes32[]","name":"tripleIds","type":"bytes32[]"}],"stateMutability":"payable","type":"function"},{"inputs":[],"name":"createTriplesCallCount","outputs":[{"internalType":"uint256","name":"","type":"uint256"}],"stateMutability":"view","type":"function"},{"inputs":[{"internalType":"address","name":"receiver","type":"address"},{"internalType":"bytes32","name":"termId","type":"bytes32"},{"internalType":"uint256","name":"curveId","type":"uint256"},{"internalType":"uint256","name":"minShares","type":"uint256"}],"name":"deposit","outputs":[{"internalType":"uint256","name":"sharesOut","type":"uint256"}],"stateMutability":"payable","type":"function"},{"inputs":[{"internalType":"address","name":"receiver","type":"address"},{"internalType":"bytes32[]","name":"termIds","type":"bytes32[]"},{"internalType":"uint256[]","name":"curveIds","type":"uint256[]"},{"internalType":"uint256[]","name":"assets","type":"uint256[]"},{"internalType":"uint256[]","name":"minShares","type":"uint256[]"}],"name":"depositBatch","outputs":[{"internalType":"uint256[]","name":"sharesOut","type":"uint256[]"}],"stateMutability":"payable","type":"function"},{"inputs":[],"name":"depositBatchCallCount","outputs":[{"internalType":"uint256","name":"","type":"uint256"}],"stateMutability":"view","type":"function"},{"inputs":[],"name":"depositCallCount","outputs":[{"internalType":"uint256","name":"","type":"uint256"}],"stateMutability":"view","type":"function"},{"inputs":[],"name":"getAtomCost","outputs":[{"internalType":"uint256","name":"","type":"uint256"}],"stateMutability":"view","type":"function"},{"inputs":[{"internalType":"address","name":"account","type":"address"},{"internalType":"bytes32","name":"termId","type":"bytes32"},{"internalType":"uint256","name":"curveId","type":"uint256"}],"name":"getShares","outputs":[{"internalType":"uint256","name":"","type":"uint256"}],"stateMutability":"view","type":"function"},{"inputs":[{"internalType":"bytes32","name":"tripleId","type":"bytes32"}],"name":"getTriple","outputs":[{"internalType":"bytes32","name":"subjectId","type":"bytes32"},{"internalType":"bytes32","name":"predicateId","type":"bytes32"},{"internalType":"bytes32","name":"objectId","type":"bytes32"}],"stateMutability":"view","type":"function"},{"inputs":[],"name":"getTripleCost","outputs":[{"internalType":"uint256","name":"","type":"uint256"}],"stateMutability":"view","type":"function"},{"inputs":[{"internalType":"bytes32","name":"id","type":"bytes32"}],"name":"isTermCreated","outputs":[{"internalType":"bool","name":"","type":"bool"}],"stateMutability":"view","type":"function"},{"inputs":[],"name":"lastDepositAmount","outputs":[{"internalType":"uint256","name":"","type":"uint256"}],"stateMutability":"view","type":"function"},{"inputs":[],"name":"lastDepositCurveId","outputs":[{"internalType":"uint256","name":"","type":"uint256"}],"stateMutability":"view","type":"function"},{"inputs":[],"name":"lastDepositReceiver","outputs":[{"internalType":"address","name":"","type":"address"}],"stateMutability":"view","type":"function"},{"inputs":[],"name":"lastDepositTermId","outputs":[{"internalType":"bytes32","name":"","type":"bytes32"}],"stateMutability":"view","type":"function"},{"inputs":[{"internalType":"bytes32","name":"termId","type":"bytes32"},{"internalType":"uint256","name":"curveId","type":"uint256"},{"internalType":"uint256","name":"assets","type":"uint256"}],"name":"previewDeposit","outputs":[{"internalType":"uint256","name":"","type":"uint256"},{"internalType":"uint256","name":"","type":"uint256"}],"stateMutability":"pure","type":"function"},{"inputs":[{"internalType":"uint256","name":"_cost","type":"uint256"}],"name":"setAtomCost","outputs":[],"stateMutability":"nonpayable","type":"function"},{"inputs":[{"internalType":"address","name":"account","type":"address"},{"internalType":"bytes32","name":"termId","type":"bytes32"},{"internalType":"uint256","name":"curveId","type":"uint256"},{"internalType":"uint256","name":"amount","type":"uint256"}],"name":"setShares","outputs":[],"stateMutability":"nonpayable","type":"function"},{"inputs":[{"internalType":"bytes32","name":"termId","type":"bytes32"},{"internalType":"bool","name":"created","type":"bool"}],"name":"setTermCreated","outputs":[],"stateMutability":"nonpayable","type":"function"},{"inputs":[{"internalType":"uint256","name":"_cost","type":"uint256"}],"name":"setTripleCost","outputs":[],"stateMutability":"nonpayable","type":"function"},{"inputs":[{"internalType":"address","name":"","type":"address"},{"internalType":"bytes32","name":"","type":"bytes32"},{"internalType":"uint256","name":"","type":"uint256"}],"name":"shares","outputs":[{"internalType":"uint256","name":"","type":"uint256"}],"stateMutability":"view","type":"function"},{"inputs":[{"internalType":"bytes32","name":"","type":"bytes32"}],"name":"termCreated","outputs":[{"internalType":"bool","name":"","type":"bool"}],"stateMutability":"view","type":"function"},{"inputs":[],"name":"tripleCost","outputs":[{"internalType":"uint256","name":"","type":"uint256"}],"stateMutability":"view","type":"function"},{"inputs":[{"internalType":"bytes32","name":"","type":"bytes32"}],"name":"tripleObjects","outputs":[{"internalType":"bytes32","name":"","type":"bytes32"}],"stateMutability":"view","type":"function"},{"inputs":[{"internalType":"bytes32","name":"","type":"bytes32"}],"name":"triplePredicates","outputs":[{"internalType":"bytes32","name":"","type":"bytes32"}],"stateMutability":"view","type":"function"},{"inputs":[{"internalType":"bytes32","name":"","type":"bytes32"}],"name":"tripleSubjects","outputs":[{"internalType":"bytes32","name":"","type":"bytes32"}],"stateMutability":"view","type":"function"},{"stateMutability":"payable","type":"receive"}],"evm":{"bytecode":{"linkReferences":{},"object":"6080806040523461002a57655af3107a400060005565b5e620f48000600155610d7890816100308239f35b600080fdfe60806040818152600480361015610021575b505050361561001f57600080fd5b005b600092833560e01c9081630d65c91c14610b595750806313b0b7a114610b32578063179e7a0a14610b1957806318b0054c14610a1a578063239563e014610afa5780632e1aa0f214610aae5780632fb1d27014610a3757806333332d3914610a1a5780633bac8dcf146101c45780633c6bbf45146108835780634342e9661461083357806355b153e01461081457806361403309146106f857806365007486146106d95780636828caa61461065d5780637d4eaa911461063a5780638680f6eb1461060057806387d69ff9146105d45780638907e462146105ad5780638b36c9751461058e57806395d9809b146105655780639ae36a2114610546578063a32ce11e146104d2578063affe102c146104b3578063b03eafcb14610477578063b7c1fd501461045d578063c12f794714610418578063c17e1da3146103fb578063cfe3e83a146103d4578063dea9423a14610225578063e5c65eaf14610206578063ee3abe38146101c45763f57190080361001157346101c05760203660031901126101c0578160209360ff92358152600a855220541690519015158152f35b8280fd5b50503461020257806020926101d836610bbe565b6001600160a01b039092168352600e86528383209083528552828220908252845220549051908152f35b5080fd5b5050346102025781600319360112610202576020906001549051908152f35b508260a03660031901126103d15761023b610b75565b9167ffffffffffffffff916024358381116102025761025d9036908401610be8565b9490936044358181116103cd576102779036908601610be8565b6064358381116103c95761028e9036908801610be8565b9690936084359081116103c5578a98959392916102b0919a989a369101610be8565b50506102bd600954610c54565b6009556102c987610cb1565b946102d689519687610c79565b8786526102e288610cb1565b60209a878c019991601f1901368b376001600160a01b0390951694885b828110610346578c8c8c8c8c83519485948186019282875251809352850193925b82811061032f57505050500390f35b835185528695509381019392810192600101610320565b808a6103b38e9f9c9b9d9e898f8f90868f916103696103ba9a8c61037a95610d25565b356103748383610cfb565b52610cfb565b51948d8152600e82528a610392888c87852093610d25565b35825282526103a5878d86842095610d25565b359052528c20918254610d35565b9055610c54565b9b9a9997989b6102ff565b8680fd5b8580fd5b8380fd5b80fd5b50346101c05760203660031901126101c0576020928291358152600c845220549051908152f35b50346101c057826003193601126101c05760209250549051908152f35b50346101c05760203660031901126101c05791606092358152600b6020528181205491600c602052808083205492600d60205220549181519384526020840152820152f35b838234610202576020366003190112610202573560015580f35b5050346102025761048736610b90565b6001600160a01b039093168552600e602090815284862092865291825283852090855290529082205580f35b5050346102025781600319360112610202576020906007549051908152f35b509190346102025780600319360112610202576104ed610b75565b6001600160a01b03602435818116929083900361054257168352600f60205281832090835260205260ff81832054169051918382101561052f57602083838152f35b634e487b7160e01b815260218452602490fd5b8480fd5b5050346102025781600319360112610202576020906008549051908152f35b50503461020257816003193601126102025760035490516001600160a01b039091168152602090f35b5050346102025781600319360112610202576020906006549051908152f35b50346101c05760203660031901126101c0576020928291358152600d845220549051908152f35b50346101c05760203660031901126101c0578160209360ff92358152600a855220541690519015158152f35b5090346101c057806003193601126101c057602435918215158093036103cd57358352600a60205282209060ff8019835416911617905580f35b8284346103d15760603660031901126103d1575080516044358082526020820152f35b50346101c05760203660031901126101c05780359067ffffffffffffffff908183116105425736602384011215610542578201359081116103cd5736602482840101116103cd57602093848451926106be82601f19601f8401160185610c79565b80845280602483860196018637830101525190209051908152f35b5050346102025781600319360112610202576020906009549051908152f35b5090806003193601126101c05767ffffffffffffffff8235818111610542576107249036908501610be8565b919093602435908282116103c55761073e91369101610be8565b505061074b600654610c54565b60065561075782610cc9565b93855b8381106107725784518061076e8882610c19565b0390f35b8060051b820135601e198336030181121561081057820190813584811161080c5760208093019281360384136108085761080393836107d46060600a958c8051948286938985019889378301914289840152820152038c810184520182610c79565b5190206107e1848b610cfb565b526107ec838a610cfb565b518a5252858820805460ff19166001179055610c54565b61075a565b8980fd5b8880fd5b8780fd5b5050346102025781600319360112610202576020906002549051908152f35b5090346101c057806003193601126101c05761084d610b75565b602435928310156103cd57338452600f6020528184209060018060a01b0316845260205282209060ff8019835416911617905580f35b509060803660031901126101c05767ffffffffffffffff928235848111610202576108b19036908501610be8565b9490936024358281116103cd576108cb9036908301610be8565b6044358481116103c9576108e29036908501610be8565b9390946064359081116103c5576108fb91369101610be8565b5050610908600754610c54565b60075561091488610cc9565b96855b89811061092b5787518061076e8b82610c19565b610936818b84610d25565b35610942828587610d25565b3561094e83888a610d25565b8a51602080820194855260408201939093529035606080830191909152815290919061097b608082610c79565b519020610988838c610cfb565b52610993828b610cfb565b518852600a815288882060ff1981541660011790556109b3828c85610d25565b356109be838c610cfb565b518952600b8252898920556109d4828587610d25565b356109df838c610cfb565b518952600c8252898920556109f5828789610d25565b3590610a01838c610cfb565b518952600d905288882055610a1590610c54565b610917565b505034610202578160031936011261020257602091549051908152f35b506020928291610a4636610b90565b5092908092610a56600854610c54565b6008553460025560018060a01b031691826bffffffffffffffffffffffff60a01b600354161760035555826005558352600e86528383209083528552828220908252845220610aa6348254610d35565b905551348152f35b50346101c05760603660031901126101c05781519035602080830191825260243560408401526044356060808501919091528352935090610af0608082610c79565b5190209051908152f35b5050346102025781600319360112610202576020906005549051908152f35b8382346102025760203660031901126102025735815580f35b50346101c05760203660031901126101c0576020928291358152600b845220549051908152f35b8490346102025781600319360112610202576020906001548152f35b600435906001600160a01b0382168203610b8b57565b600080fd5b6080906003190112610b8b576004356001600160a01b0381168103610b8b5790602435906044359060643590565b6060906003190112610b8b576004356001600160a01b0381168103610b8b57906024359060443590565b9181601f84011215610b8b5782359167ffffffffffffffff8311610b8b576020808501948460051b010111610b8b57565b6020908160408183019282815285518094520193019160005b828110610c40575050505090565b835185529381019392810192600101610c32565b6000198114610c635760010190565b634e487b7160e01b600052601160045260246000fd5b90601f8019910116810190811067ffffffffffffffff821117610c9b57604052565b634e487b7160e01b600052604160045260246000fd5b67ffffffffffffffff8111610c9b5760051b60200190565b90610cd382610cb1565b610ce06040519182610c79565b8281528092610cf1601f1991610cb1565b0190602036910137565b8051821015610d0f5760209160051b010190565b634e487b7160e01b600052603260045260246000fd5b9190811015610d0f5760051b0190565b91908201809211610c635756fea26469706673582212209b050a709c3a226a71043718aa4d988ba9bbaefdc5415d6bde724770a344ea6664736f6c63430008150033","opcodes":"PUSH1 0x80 DUP1 PUSH1 0x40 MSTORE CALLVALUE PUSH2 0x2A JUMPI PUSH6 0x5AF3107A4000 PUSH1 0x0 SSTORE PUSH6 0xB5E620F48000 PUSH1 0x1 SSTORE PUSH2 0xD78 SWAP1 DUP2 PUSH2 0x30 DUP3 CODECOPY RETURN JUMPDEST PUSH1 0x0 DUP1 REVERT INVALID PUSH1 0x80 PUSH1 0x40 DUP2 DUP2 MSTORE PUSH1 0x4 DUP1 CALLDATASIZE LT ISZERO PUSH2 0x21 JUMPI JUMPDEST POP POP POP CALLDATASIZE ISZERO PUSH2 0x1F JUMPI PUSH1 0x0 DUP1 REVERT JUMPDEST STOP JUMPDEST PUSH1 0x0 SWAP3 DUP4 CALLDATALOAD PUSH1 0xE0 SHR SWAP1 DUP2 PUSH4 0xD65C91C EQ PUSH2 0xB59 JUMPI POP DUP1 PUSH4 0x13B0B7A1 EQ PUSH2 0xB32 JUMPI DUP1 PUSH4 0x179E7A0A EQ PUSH2 0xB19 JUMPI DUP1 PUSH4 0x18B0054C EQ PUSH2 0xA1A JUMPI DUP1 PUSH4 0x239563E0 EQ PUSH2 0xAFA JUMPI DUP1 PUSH4 0x2E1AA0F2 EQ PUSH2 0xAAE JUMPI DUP1 PUSH4 0x2FB1D270 EQ PUSH2 0xA37 JUMPI DUP1 PUSH4 0x33332D39 EQ PUSH2 0xA1A JUMPI DUP1 PUSH4 0x3BAC8DCF EQ PUSH2 0x1C4 JUMPI DUP1 PUSH4 0x3C6BBF45 EQ PUSH2 0x883 JUMPI DUP1 PUSH4 0x4342E966 EQ PUSH2 0x833 JUMPI DUP1 PUSH4 0x55B153E0 EQ PUSH2 0x814 JUMPI DUP1 PUSH4 0x61403309 EQ PUSH2 0x6F8 JUMPI DUP1 PUSH4 0x65007486 EQ PUSH2 0x6D9 JUMPI DUP1 PUSH4 0x6828CAA6 EQ PUSH2 0x65D JUMPI DUP1 PUSH4 0x7D4EAA91 EQ PUSH2 0x63A JUMPI DUP1 PUSH4 0x8680F6EB EQ PUSH2 0x600 JUMPI DUP1 PUSH4 0x87D69FF9 EQ PUSH2 0x5D4 JUMPI DUP1 PUSH4 0x8907E462 EQ PUSH2 0x5AD JUMPI DUP1 PUSH4 0x8B36C975 EQ PUSH2 0x58E JUMPI DUP1 PUSH4 0x95D9809B EQ PUSH2 0x565 JUMPI DUP1 PUSH4 0x9AE36A21 EQ PUSH2 0x546 JUMPI DUP1 PUSH4 0xA32CE11E EQ PUSH2 0x4D2 JUMPI DUP1 PUSH4 0xAFFE102C EQ PUSH2 0x4B3 JUMPI DUP1 PUSH4 0xB03EAFCB EQ PUSH2 0x477 JUMPI DUP1 PUSH4 0xB7C1FD50 EQ PUSH2 0x45D JUMPI DUP1 PUSH4 0xC12F7947 EQ PUSH2 0x418 JUMPI DUP1 PUSH4 0xC17E1DA3 EQ PUSH2 0x3FB JUMPI DUP1 PUSH4 0xCFE3E83A EQ PUSH2 0x3D4 JUMPI DUP1 PUSH4 0xDEA9423A EQ PUSH2 0x225 JUMPI DUP1 PUSH4 0xE5C65EAF EQ PUSH2 0x206 JUMPI DUP1 PUSH4 0xEE3ABE38 EQ PUSH2 0x1C4 JUMPI PUSH4 0xF5719008 SUB PUSH2 0x11 JUMPI CALLVALUE PUSH2 0x1C0 JUMPI PUSH1 0x20 CALLDATASIZE PUSH1 0x3 NOT ADD SLT PUSH2 0x1C0 JUMPI DUP2 PUSH1 0x20 SWAP4 PUSH1 0xFF SWAP3 CALLDATALOAD DUP2 MSTORE PUSH1 0xA DUP6 MSTORE KECCAK256 SLOAD AND SWAP1 MLOAD SWAP1 ISZERO ISZERO DUP2 MSTORE RETURN JUMPDEST DUP3 DUP1 REVERT JUMPDEST POP POP CALLVALUE PUSH2 0x202 JUMPI DUP1 PUSH1 0x20 SWAP3 PUSH2 0x1D8 CALLDATASIZE PUSH2 0xBBE JUMP JUMPDEST PUSH1 0x1 PUSH1 0x1 PUSH1 0xA0 SHL SUB SWAP1 SWAP3 AND DUP4 MSTORE PUSH1 0xE DUP7 MSTORE DUP4 DUP4 KECCAK256 SWAP1 DUP4 MSTORE DUP6 MSTORE DUP3 DUP3 KECCAK256 SWAP1 DUP3 MSTORE DUP5 MSTORE KECCAK256 SLOAD SWAP1 MLOAD SWAP1 DUP2 MSTORE RETURN JUMPDEST POP DUP1 REVERT JUMPDEST POP POP CALLVALUE PUSH2 0x202 JUMPI DUP2 PUSH1 0x3 NOT CALLDATASIZE ADD SLT PUSH2 0x202 JUMPI PUSH1 0x20 SWAP1 PUSH1 0x1 SLOAD SWAP1 MLOAD SWAP1 DUP2 MSTORE RETURN JUMPDEST POP DUP3 PUSH1 0xA0 CALLDATASIZE PUSH1 0x3 NOT ADD SLT PUSH2 0x3D1 JUMPI PUSH2 0x23B PUSH2 0xB75 JUMP JUMPDEST SWAP2 PUSH8 0xFFFFFFFFFFFFFFFF SWAP2 PUSH1 0x24 CALLDATALOAD DUP4 DUP2 GT PUSH2 0x202 JUMPI PUSH2 0x25D SWAP1 CALLDATASIZE SWAP1 DUP5 ADD PUSH2 0xBE8 JUMP JUMPDEST SWAP5 SWAP1 SWAP4 PUSH1 0x44 CALLDATALOAD DUP2 DUP2 GT PUSH2 0x3CD JUMPI PUSH2 0x277 SWAP1 CALLDATASIZE SWAP1 DUP7 ADD PUSH2 0xBE8 JUMP JUMPDEST PUSH1 0x64 CALLDATALOAD DUP4 DUP2 GT PUSH2 0x3C9 JUMPI PUSH2 0x28E SWAP1 CALLDATASIZE SWAP1 DUP9 ADD PUSH2 0xBE8 JUMP JUMPDEST SWAP7 SWAP1 SWAP4 PUSH1 0x84 CALLDATALOAD SWAP1 DUP2 GT PUSH2 0x3C5 JUMPI DUP11 SWAP9 SWAP6 SWAP4 SWAP3 SWAP2 PUSH2 0x2B0 SWAP2 SWAP11 SWAP9 SWAP11 CALLDATASIZE SWAP2 ADD PUSH2 0xBE8 JUMP JUMPDEST POP POP PUSH2 0x2BD PUSH1 0x9 SLOAD PUSH2 0xC54 JUMP JUMPDEST PUSH1 0x9 SSTORE PUSH2 0x2C9 DUP8 PUSH2 0xCB1 JUMP JUMPDEST SWAP5 PUSH2 0x2D6 DUP10 MLOAD SWAP7 DUP8 PUSH2 0xC79 JUMP JUMPDEST DUP8 DUP7 MSTORE PUSH2 0x2E2 DUP9 PUSH2 0xCB1 JUMP JUMPDEST PUSH1 0x20 SWAP11 DUP8 DUP13 ADD SWAP10 SWAP2 PUSH1 0x1F NOT ADD CALLDATASIZE DUP12 CALLDATACOPY PUSH1 0x1 PUSH1 0x1 PUSH1 0xA0 SHL SUB SWAP1 SWAP6 AND SWAP5 DUP9 JUMPDEST DUP3 DUP2 LT PUSH2 0x346 JUMPI DUP13 DUP13 DUP13 DUP13 DUP13 DUP4 MLOAD SWAP5 DUP6 SWAP5 DUP2 DUP7 ADD SWAP3 DUP3 DUP8 MSTORE MLOAD DUP1 SWAP4 MSTORE DUP6 ADD SWAP4 SWAP3 JUMPDEST DUP3 DUP2 LT PUSH2 0x32F JUMPI POP POP POP POP SUB SWAP1 RETURN JUMPDEST DUP4 MLOAD DUP6 MSTORE DUP7 SWAP6 POP SWAP4 DUP2 ADD SWAP4 SWAP3 DUP2 ADD SWAP3 PUSH1 0x1 ADD PUSH2 0x320 JUMP JUMPDEST DUP1 DUP11 PUSH2 0x3B3 DUP15 SWAP16 SWAP13 SWAP12 SWAP14 SWAP15 DUP10 DUP16 DUP16 SWAP1 DUP7 DUP16 SWAP2 PUSH2 0x369 PUSH2 0x3BA SWAP11 DUP13 PUSH2 0x37A SWAP6 PUSH2 0xD25 JUMP JUMPDEST CALLDATALOAD PUSH2 0x374 DUP4 DUP4 PUSH2 0xCFB JUMP JUMPDEST MSTORE PUSH2 0xCFB JUMP JUMPDEST MLOAD SWAP5 DUP14 DUP2 MSTORE PUSH1 0xE DUP3 MSTORE DUP11 PUSH2 0x392 DUP9 DUP13 DUP8 DUP6 KECCAK256 SWAP4 PUSH2 0xD25 JUMP JUMPDEST CALLDATALOAD DUP3 MSTORE DUP3 MSTORE PUSH2 0x3A5 DUP8 DUP14 DUP7 DUP5 KECCAK256 SWAP6 PUSH2 0xD25 JUMP JUMPDEST CALLDATALOAD SWAP1 MSTORE MSTORE DUP13 KECCAK256 SWAP2 DUP3 SLOAD PUSH2 0xD35 JUMP JUMPDEST SWAP1 SSTORE PUSH2 0xC54 JUMP JUMPDEST SWAP12 SWAP11 SWAP10 SWAP8 SWAP9 SWAP12 PUSH2 0x2FF JUMP JUMPDEST DUP7 DUP1 REVERT JUMPDEST DUP6 DUP1 REVERT JUMPDEST DUP4 DUP1 REVERT JUMPDEST DUP1 REVERT JUMPDEST POP CALLVALUE PUSH2 0x1C0 JUMPI PUSH1 0x20 CALLDATASIZE PUSH1 0x3 NOT ADD SLT PUSH2 0x1C0 JUMPI PUSH1 0x20 SWAP3 DUP3 SWAP2 CALLDATALOAD DUP2 MSTORE PUSH1 0xC DUP5 MSTORE KECCAK256 SLOAD SWAP1 MLOAD SWAP1 DUP2 MSTORE RETURN JUMPDEST POP CALLVALUE PUSH2 0x1C0 JUMPI DUP3 PUSH1 0x3 NOT CALLDATASIZE ADD SLT PUSH2 0x1C0 JUMPI PUSH1 0x20 SWAP3 POP SLOAD SWAP1 MLOAD SWAP1 DUP2 MSTORE RETURN JUMPDEST POP CALLVALUE PUSH2 0x1C0 JUMPI PUSH1 0x20 CALLDATASIZE PUSH1 0x3 NOT ADD SLT PUSH2 0x1C0 JUMPI SWAP2 PUSH1 0x60 SWAP3 CALLDATALOAD DUP2 MSTORE PUSH1 0xB PUSH1 0x20 MSTORE DUP2 DUP2 KECCAK256 SLOAD SWAP2 PUSH1 0xC PUSH1 0x20 MSTORE DUP1 DUP1 DUP4 KECCAK256 SLOAD SWAP3 PUSH1 0xD PUSH1 0x20 MSTORE KECCAK256 SLOAD SWAP2 DUP2 MLOAD SWAP4 DUP5 MSTORE PUSH1 0x20 DUP5 ADD MSTORE DUP3 ADD MSTORE RETURN JUMPDEST DUP4 DUP3 CALLVALUE PUSH2 0x202 JUMPI PUSH1 0x20 CALLDATASIZE PUSH1 0x3 NOT ADD SLT PUSH2 0x202 JUMPI CALLDATALOAD PUSH1 0x1 SSTORE DUP1 RETURN JUMPDEST POP POP CALLVALUE PUSH2 0x202 JUMPI PUSH2 0x487 CALLDATASIZE PUSH2 0xB90 JUMP JUMPDEST PUSH1 0x1 PUSH1 0x1 PUSH1 0xA0 SHL SUB SWAP1 SWAP4 AND DUP6 MSTORE PUSH1 0xE PUSH1 0x20 SWAP1 DUP2 MSTORE DUP5 DUP7 KECCAK256 SWAP3 DUP7 MSTORE SWAP2 DUP3 MSTORE DUP4 DUP6 KECCAK256 SWAP1 DUP6 MSTORE SWAP1 MSTORE SWAP1 DUP3 KECCAK256 SSTORE DUP1 RETURN JUMPDEST POP POP CALLVALUE PUSH2 0x202 JUMPI DUP2 PUSH1 0x3 NOT CALLDATASIZE ADD SLT PUSH2 0x202 JUMPI PUSH1 0x20 SWAP1 PUSH1 0x7 SLOAD SWAP1 MLOAD SWAP1 DUP2 MSTORE RETURN JUMPDEST POP SWAP2 SWAP1 CALLVALUE PUSH2 0x202 JUMPI DUP1 PUSH1 0x3 NOT CALLDATASIZE ADD SLT PUSH2 0x202 JUMPI PUSH2 0x4ED PUSH2 0xB75 JUMP JUMPDEST PUSH1 0x1 PUSH1 0x1 PUSH1 0xA0 SHL SUB PUSH1 0x24 CALLDATALOAD DUP2 DUP2 AND SWAP3 SWAP1 DUP4 SWAP1 SUB PUSH2 0x542 JUMPI AND DUP4 MSTORE PUSH1 0xF PUSH1 0x20 MSTORE DUP2 DUP4 KECCAK256 SWAP1 DUP4 MSTORE PUSH1 0x20 MSTORE PUSH1 0xFF DUP2 DUP4 KECCAK256 SLOAD AND SWAP1 MLOAD SWAP2 DUP4 DUP3 LT ISZERO PUSH2 0x52F JUMPI PUSH1 0x20 DUP4 DUP4 DUP2 MSTORE RETURN JUMPDEST PUSH4 0x4E487B71 PUSH1 0xE0 SHL DUP2 MSTORE PUSH1 0x21 DUP5 MSTORE PUSH1 0x24 SWAP1 REVERT JUMPDEST DUP5 DUP1 REVERT JUMPDEST POP POP CALLVALUE PUSH2 0x202 JUMPI DUP2 PUSH1 0x3 NOT CALLDATASIZE ADD SLT PUSH2 0x202 JUMPI PUSH1 0x20 SWAP1 PUSH1 0x8 SLOAD SWAP1 MLOAD SWAP1 DUP2 MSTORE RETURN JUMPDEST POP POP CALLVALUE PUSH2 0x202 JUMPI DUP2 PUSH1 0x3 NOT CALLDATASIZE ADD SLT PUSH2 0x202 JUMPI PUSH1 0x3 SLOAD SWAP1 MLOAD PUSH1 0x1 PUSH1 0x1 PUSH1 0xA0 SHL SUB SWAP1 SWAP2 AND DUP2 MSTORE PUSH1 0x20 SWAP1 RETURN JUMPDEST POP POP CALLVALUE PUSH2 0x202 JUMPI DUP2 PUSH1 0x3 NOT CALLDATASIZE ADD SLT PUSH2 0x202 JUMPI PUSH1 0x20 SWAP1 PUSH1 0x6 SLOAD SWAP1 MLOAD SWAP1 DUP2 MSTORE RETURN JUMPDEST POP CALLVALUE PUSH2 0x1C0 JUMPI PUSH1 0x20 CALLDATASIZE PUSH1 0x3 NOT ADD SLT PUSH2 0x1C0 JUMPI PUSH1 0x20 SWAP3 DUP3 SWAP2 CALLDATALOAD DUP2 MSTORE PUSH1 0xD DUP5 MSTORE KECCAK256 SLOAD SWAP1 MLOAD SWAP1 DUP2 MSTORE RETURN JUMPDEST POP CALLVALUE PUSH2 0x1C0 JUMPI PUSH1 0x20 CALLDATASIZE PUSH1 0x3 NOT ADD SLT PUSH2 0x1C0 JUMPI DUP2 PUSH1 0x20 SWAP4 PUSH1 0xFF SWAP3 CALLDATALOAD DUP2 MSTORE PUSH1 0xA DUP6 MSTORE KECCAK256 SLOAD AND SWAP1 MLOAD SWAP1 ISZERO ISZERO DUP2 MSTORE RETURN JUMPDEST POP SWAP1 CALLVALUE PUSH2 0x1C0 JUMPI DUP1 PUSH1 0x3 NOT CALLDATASIZE ADD SLT PUSH2 0x1C0 JUMPI PUSH1 0x24 CALLDATALOAD SWAP2 DUP3 ISZERO ISZERO DUP1 SWAP4 SUB PUSH2 0x3CD JUMPI CALLDATALOAD DUP4 MSTORE PUSH1 0xA PUSH1 0x20 MSTORE DUP3 KECCAK256 SWAP1 PUSH1 0xFF DUP1 NOT DUP4 SLOAD AND SWAP2 AND OR SWAP1 SSTORE DUP1 RETURN JUMPDEST DUP3 DUP5 CALLVALUE PUSH2 0x3D1 JUMPI PUSH1 0x60 CALLDATASIZE PUSH1 0x3 NOT ADD SLT PUSH2 0x3D1 JUMPI POP DUP1 MLOAD PUSH1 0x44 CALLDATALOAD DUP1 DUP3 MSTORE PUSH1 0x20 DUP3 ADD MSTORE RETURN JUMPDEST POP CALLVALUE PUSH2 0x1C0 JUMPI PUSH1 0x20 CALLDATASIZE PUSH1 0x3 NOT ADD SLT PUSH2 0x1C0 JUMPI DUP1 CALLDATALOAD SWAP1 PUSH8 0xFFFFFFFFFFFFFFFF SWAP1 DUP2 DUP4 GT PUSH2 0x542 JUMPI CALLDATASIZE PUSH1 0x23 DUP5 ADD SLT ISZERO PUSH2 0x542 JUMPI DUP3 ADD CALLDATALOAD SWAP1 DUP2 GT PUSH2 0x3CD JUMPI CALLDATASIZE PUSH1 0x24 DUP3 DUP5 ADD ADD GT PUSH2 0x3CD JUMPI PUSH1 0x20 SWAP4 DUP5 DUP5 MLOAD SWAP3 PUSH2 0x6BE DUP3 PUSH1 0x1F NOT PUSH1 0x1F DUP5 ADD AND ADD DUP6 PUSH2 0xC79 JUMP JUMPDEST DUP1 DUP5 MSTORE DUP1 PUSH1 0x24 DUP4 DUP7 ADD SWAP7 ADD DUP7 CALLDATACOPY DUP4 ADD ADD MSTORE MLOAD SWAP1 KECCAK256 SWAP1 MLOAD SWAP1 DUP2 MSTORE RETURN JUMPDEST POP POP CALLVALUE PUSH2 0x202 JUMPI DUP2 PUSH1 0x3 NOT CALLDATASIZE ADD SLT PUSH2 0x202 JUMPI PUSH1 0x20 SWAP1 PUSH1 0x9 SLOAD SWAP1 MLOAD SWAP1 DUP2 MSTORE RETURN JUMPDEST POP SWAP1 DUP1 PUSH1 0x3 NOT CALLDATASIZE ADD SLT PUSH2 0x1C0 JUMPI PUSH8 0xFFFFFFFFFFFFFFFF DUP3 CALLDATALOAD DUP2 DUP2 GT PUSH2 0x542 JUMPI PUSH2 0x724 SWAP1 CALLDATASIZE SWAP1 DUP6 ADD PUSH2 0xBE8 JUMP JUMPDEST SWAP2 SWAP1 SWAP4 PUSH1 0x24 CALLDATALOAD SWAP1 DUP3 DUP3 GT PUSH2 0x3C5 JUMPI PUSH2 0x73E SWAP2 CALLDATASIZE SWAP2 ADD PUSH2 0xBE8 JUMP JUMPDEST POP POP PUSH2 0x74B PUSH1 0x6 SLOAD PUSH2 0xC54 JUMP JUMPDEST PUSH1 0x6 SSTORE PUSH2 0x757 DUP3 PUSH2 0xCC9 JUMP JUMPDEST SWAP4 DUP6 JUMPDEST DUP4 DUP2 LT PUSH2 0x772 JUMPI DUP5 MLOAD DUP1 PUSH2 0x76E DUP9 DUP3 PUSH2 0xC19 JUMP JUMPDEST SUB SWAP1 RETURN JUMPDEST DUP1 PUSH1 0x5 SHL DUP3 ADD CALLDATALOAD PUSH1 0x1E NOT DUP4 CALLDATASIZE SUB ADD DUP2 SLT ISZERO PUSH2 0x810 JUMPI DUP3 ADD SWAP1 DUP2 CALLDATALOAD DUP5 DUP2 GT PUSH2 0x80C JUMPI PUSH1 0x20 DUP1 SWAP4 ADD SWAP3 DUP2 CALLDATASIZE SUB DUP5 SGT PUSH2 0x808 JUMPI PUSH2 0x803 SWAP4 DUP4 PUSH2 0x7D4 PUSH1 0x60 PUSH1 0xA SWAP6 DUP13 DUP1 MLOAD SWAP5 DUP3 DUP7 SWAP4 DUP10 DUP6 ADD SWAP9 DUP10 CALLDATACOPY DUP4 ADD SWAP2 TIMESTAMP DUP10 DUP5 ADD MSTORE DUP3 ADD MSTORE SUB DUP13 DUP2 ADD DUP5 MSTORE ADD DUP3 PUSH2 0xC79 JUMP JUMPDEST MLOAD SWAP1 KECCAK256 PUSH2 0x7E1 DUP5 DUP12 PUSH2 0xCFB JUMP JUMPDEST MSTORE PUSH2 0x7EC DUP4 DUP11 PUSH2 0xCFB JUMP JUMPDEST MLOAD DUP11 MSTORE MSTORE DUP6 DUP9 KECCAK256 DUP1 SLOAD PUSH1 0xFF NOT AND PUSH1 0x1 OR SWAP1 SSTORE PUSH2 0xC54 JUMP JUMPDEST PUSH2 0x75A JUMP JUMPDEST DUP10 DUP1 REVERT JUMPDEST DUP9 DUP1 REVERT JUMPDEST DUP8 DUP1 REVERT JUMPDEST POP POP CALLVALUE PUSH2 0x202 JUMPI DUP2 PUSH1 0x3 NOT CALLDATASIZE ADD SLT PUSH2 0x202 JUMPI PUSH1 0x20 SWAP1 PUSH1 0x2 SLOAD SWAP1 MLOAD SWAP1 DUP2 MSTORE RETURN JUMPDEST POP SWAP1 CALLVALUE PUSH2 0x1C0 JUMPI DUP1 PUSH1 0x3 NOT CALLDATASIZE ADD SLT PUSH2 0x1C0 JUMPI PUSH2 0x84D PUSH2 0xB75 JUMP JUMPDEST PUSH1 0x24 CALLDATALOAD SWAP3 DUP4 LT ISZERO PUSH2 0x3CD JUMPI CALLER DUP5 MSTORE PUSH1 0xF PUSH1 0x20 MSTORE DUP2 DUP5 KECCAK256 SWAP1 PUSH1 0x1 DUP1 PUSH1 0xA0 SHL SUB AND DUP5 MSTORE PUSH1 0x20 MSTORE DUP3 KECCAK256 SWAP1 PUSH1 0xFF DUP1 NOT DUP4 SLOAD AND SWAP2 AND OR SWAP1 SSTORE DUP1 RETURN JUMPDEST POP SWAP1 PUSH1 0x80 CALLDATASIZE PUSH1 0x3 NOT ADD SLT PUSH2 0x1C0 JUMPI PUSH8 0xFFFFFFFFFFFFFFFF SWAP3 DUP3 CALLDATALOAD DUP5 DUP2 GT PUSH2 0x202 JUMPI PUSH2 0x8B1 SWAP1 CALLDATASIZE SWAP1 DUP6 ADD PUSH2 0xBE8 JUMP JUMPDEST SWAP5 SWAP1 SWAP4 PUSH1 0x24 CALLDATALOAD DUP3 DUP2 GT PUSH2 0x3CD JUMPI PUSH2 0x8CB SWAP1 CALLDATASIZE SWAP1 DUP4 ADD PUSH2 0xBE8 JUMP JUMPDEST PUSH1 0x44 CALLDATALOAD DUP5 DUP2 GT PUSH2 0x3C9 JUMPI PUSH2 0x8E2 SWAP1 CALLDATASIZE SWAP1 DUP6 ADD PUSH2 0xBE8 JUMP JUMPDEST SWAP4 SWAP1 SWAP5 PUSH1 0x64 CALLDATALOAD SWAP1 DUP2 GT PUSH2 0x3C5 JUMPI PUSH2 0x8FB SWAP2 CALLDATASIZE SWAP2 ADD PUSH2 0xBE8 JUMP JUMPDEST POP POP PUSH2 0x908 PUSH1 0x7 SLOAD PUSH2 0xC54 JUMP JUMPDEST PUSH1 0x7 SSTORE PUSH2 0x914 DUP9 PUSH2 0xCC9 JUMP JUMPDEST SWAP7 DUP6 JUMPDEST DUP10 DUP2 LT PUSH2 0x92B JUMPI DUP8 MLOAD DUP1 PUSH2 0x76E DUP12 DUP3 PUSH2 0xC19 JUMP JUMPDEST PUSH2 0x936 DUP2 DUP12 DUP5 PUSH2 0xD25 JUMP JUMPDEST CALLDATALOAD PUSH2 0x942 DUP3 DUP6 DUP8 PUSH2 0xD25 JUMP JUMPDEST CALLDATALOAD PUSH2 0x94E DUP4 DUP9 DUP11 PUSH2 0xD25 JUMP JUMPDEST DUP11 MLOAD PUSH1 0x20 DUP1 DUP3 ADD SWAP5 DUP6 MSTORE PUSH1 0x40 DUP3 ADD SWAP4 SWAP1 SWAP4 MSTORE SWAP1 CALLDATALOAD PUSH1 0x60 DUP1 DUP4 ADD SWAP2 SWAP1 SWAP2 MSTORE DUP2 MSTORE SWAP1 SWAP2 SWAP1 PUSH2 0x97B PUSH1 0x80 DUP3 PUSH2 0xC79 JUMP JUMPDEST MLOAD SWAP1 KECCAK256 PUSH2 0x988 DUP4 DUP13 PUSH2 0xCFB JUMP JUMPDEST MSTORE PUSH2 0x993 DUP3 DUP12 PUSH2 0xCFB JUMP JUMPDEST MLOAD DUP9 MSTORE PUSH1 0xA DUP2 MSTORE DUP9 DUP9 KECCAK256 PUSH1 0xFF NOT DUP2 SLOAD AND PUSH1 0x1 OR SWAP1 SSTORE PUSH2 0x9B3 DUP3 DUP13 DUP6 PUSH2 0xD25 JUMP JUMPDEST CALLDATALOAD PUSH2 0x9BE DUP4 DUP13 PUSH2 0xCFB JUMP JUMPDEST MLOAD DUP10 MSTORE PUSH1 0xB DUP3 MSTORE DUP10 DUP10 KECCAK256 SSTORE PUSH2 0x9D4 DUP3 DUP6 DUP8 PUSH2 0xD25 JUMP JUMPDEST CALLDATALOAD PUSH2 0x9DF DUP4 DUP13 PUSH2 0xCFB JUMP JUMPDEST MLOAD DUP10 MSTORE PUSH1 0xC DUP3 MSTORE DUP10 DUP10 KECCAK256 SSTORE PUSH2 0x9F5 DUP3 DUP8 DUP10 PUSH2 0xD25 JUMP JUMPDEST CALLDATALOAD SWAP1 PUSH2 0xA01 DUP4 DUP13 PUSH2 0xCFB JUMP JUMPDEST MLOAD DUP10 MSTORE PUSH1 0xD SWAP1 MSTORE DUP9 DUP9 KECCAK256 SSTORE PUSH2 0xA15 SWAP1 PUSH2 0xC54 JUMP JUMPDEST PUSH2 0x917 JUMP JUMPDEST POP POP CALLVALUE PUSH2 0x202 JUMPI DUP2 PUSH1 0x3 NOT CALLDATASIZE ADD SLT PUSH2 0x202 JUMPI PUSH1 0x20 SWAP2 SLOAD SWAP1 MLOAD SWAP1 DUP2 MSTORE RETURN JUMPDEST POP PUSH1 0x20 SWAP3 DUP3 SWAP2 PUSH2 0xA46 CALLDATASIZE PUSH2 0xB90 JUMP JUMPDEST POP SWAP3 SWAP1 DUP1 SWAP3 PUSH2 0xA56 PUSH1 0x8 SLOAD PUSH2 0xC54 JUMP JUMPDEST PUSH1 0x8 SSTORE CALLVALUE PUSH1 0x2 SSTORE PUSH1 0x1 DUP1 PUSH1 0xA0 SHL SUB AND SWAP2 DUP3 PUSH12 0xFFFFFFFFFFFFFFFFFFFFFFFF PUSH1 0xA0 SHL PUSH1 0x3 SLOAD AND OR PUSH1 0x3 SSTORE SSTORE DUP3 PUSH1 0x5 SSTORE DUP4 MSTORE PUSH1 0xE DUP7 MSTORE DUP4 DUP4 KECCAK256 SWAP1 DUP4 MSTORE DUP6 MSTORE DUP3 DUP3 KECCAK256 SWAP1 DUP3 MSTORE DUP5 MSTORE KECCAK256 PUSH2 0xAA6 CALLVALUE DUP3 SLOAD PUSH2 0xD35 JUMP JUMPDEST SWAP1 SSTORE MLOAD CALLVALUE DUP2 MSTORE RETURN JUMPDEST POP CALLVALUE PUSH2 0x1C0 JUMPI PUSH1 0x60 CALLDATASIZE PUSH1 0x3 NOT ADD SLT PUSH2 0x1C0 JUMPI DUP2 MLOAD SWAP1 CALLDATALOAD PUSH1 0x20 DUP1 DUP4 ADD SWAP2 DUP3 MSTORE PUSH1 0x24 CALLDATALOAD PUSH1 0x40 DUP5 ADD MSTORE PUSH1 0x44 CALLDATALOAD PUSH1 0x60 DUP1 DUP6 ADD SWAP2 SWAP1 SWAP2 MSTORE DUP4 MSTORE SWAP4 POP SWAP1 PUSH2 0xAF0 PUSH1 0x80 DUP3 PUSH2 0xC79 JUMP JUMPDEST MLOAD SWAP1 KECCAK256 SWAP1 MLOAD SWAP1 DUP2 MSTORE RETURN JUMPDEST POP POP CALLVALUE PUSH2 0x202 JUMPI DUP2 PUSH1 0x3 NOT CALLDATASIZE ADD SLT PUSH2 0x202 JUMPI PUSH1 0x20 SWAP1 PUSH1 0x5 SLOAD SWAP1 MLOAD SWAP1 DUP2 MSTORE RETURN JUMPDEST DUP4 DUP3 CALLVALUE PUSH2 0x202 JUMPI PUSH1 0x20 CALLDATASIZE PUSH1 0x3 NOT ADD SLT PUSH2 0x202 JUMPI CALLDATALOAD DUP2 SSTORE DUP1 RETURN JUMPDEST POP CALLVALUE PUSH2 0x1C0 JUMPI PUSH1 0x20 CALLDATASIZE PUSH1 0x3 NOT ADD SLT PUSH2 0x1C0 JUMPI PUSH1 0x20 SWAP3 DUP3 SWAP2 CALLDATALOAD DUP2 MSTORE PUSH1 0xB DUP5 MSTORE KECCAK256 SLOAD SWAP1 MLOAD SWAP1 DUP2 MSTORE RETURN JUMPDEST DUP5 SWAP1 CALLVALUE PUSH2 0x202 JUMPI DUP2 PUSH1 0x3 NOT CALLDATASIZE ADD SLT PUSH2 0x202 JUMPI PUSH1 0x20 SWAP1 PUSH1 0x1 SLOAD DUP2 MSTORE RETURN JUMPDEST PUSH1 0x4 CALLDATALOAD SWAP1 PUSH1 0x1 PUSH1 0x1 PUSH1 0xA0 SHL SUB DUP3 AND DUP3 SUB PUSH2 0xB8B JUMPI JUMP JUMPDEST PUSH1 0x0 DUP1 REVERT JUMPDEST PUSH1 0x80 SWAP1 PUSH1 0x3 NOT ADD SLT PUSH2 0xB8B JUMPI PUSH1 0x4 CALLDATALOAD PUSH1 0x1 PUSH1 0x1 PUSH1 0xA0 SHL SUB DUP2 AND DUP2 SUB PUSH2 0xB8B JUMPI SWAP1 PUSH1 0x24 CALLDATALOAD SWAP1 PUSH1 0x44 CALLDATALOAD SWAP1 PUSH1 0x64 CALLDATALOAD SWAP1 JUMP JUMPDEST PUSH1 0x60 SWAP1 PUSH1 0x3 NOT ADD SLT PUSH2 0xB8B JUMPI PUSH1 0x4 CALLDATALOAD PUSH1 0x1 PUSH1 0x1 PUSH1 0xA0 SHL SUB DUP2 AND DUP2 SUB PUSH2 0xB8B JUMPI SWAP1 PUSH1 0x24 CALLDATALOAD SWAP1 PUSH1 0x44 CALLDATALOAD SWAP1 JUMP JUMPDEST SWAP2 DUP2 PUSH1 0x1F DUP5 ADD SLT ISZERO PUSH2 0xB8B JUMPI DUP3 CALLDATALOAD SWAP2 PUSH8 0xFFFFFFFFFFFFFFFF DUP4 GT PUSH2 0xB8B JUMPI PUSH1 0x20 DUP1 DUP6 ADD SWAP5 DUP5 PUSH1 0x5 SHL ADD ADD GT PUSH2 0xB8B JUMPI JUMP JUMPDEST PUSH1 0x20 SWAP1 DUP2 PUSH1 0x40 DUP2 DUP4 ADD SWAP3 DUP3 DUP2 MSTORE DUP6 MLOAD DUP1 SWAP5 MSTORE ADD SWAP4 ADD SWAP2 PUSH1 0x0 JUMPDEST DUP3 DUP2 LT PUSH2 0xC40 JUMPI POP POP POP POP SWAP1 JUMP JUMPDEST DUP4 MLOAD DUP6 MSTORE SWAP4 DUP2 ADD SWAP4 SWAP3 DUP2 ADD SWAP3 PUSH1 0x1 ADD PUSH2 0xC32 JUMP JUMPDEST PUSH1 0x0 NOT DUP2 EQ PUSH2 0xC63 JUMPI PUSH1 0x1 ADD SWAP1 JUMP JUMPDEST PUSH4 0x4E487B71 PUSH1 0xE0 SHL PUSH1 0x0 MSTORE PUSH1 0x11 PUSH1 0x4 MSTORE PUSH1 0x24 PUSH1 0x0 REVERT JUMPDEST SWAP1 PUSH1 0x1F DUP1 NOT SWAP2 ADD AND DUP2 ADD SWAP1 DUP2 LT PUSH8 0xFFFFFFFFFFFFFFFF DUP3 GT OR PUSH2 0xC9B JUMPI PUSH1 0x40 MSTORE JUMP JUMPDEST PUSH4 0x4E487B71 PUSH1 0xE0 SHL PUSH1 0x0 MSTORE PUSH1 0x41 PUSH1 0x4 MSTORE PUSH1 0x24 PUSH1 0x0 REVERT JUMPDEST PUSH8 0xFFFFFFFFFFFFFFFF DUP2 GT PUSH2 0xC9B JUMPI PUSH1 0x5 SHL PUSH1 0x20 ADD SWAP1 JUMP JUMPDEST SWAP1 PUSH2 0xCD3 DUP3 PUSH2 0xCB1 JUMP JUMPDEST PUSH2 0xCE0 PUSH1 0x40 MLOAD SWAP2 DUP3 PUSH2 0xC79 JUMP JUMPDEST DUP3 DUP2 MSTORE DUP1 SWAP3 PUSH2 0xCF1 PUSH1 0x1F NOT SWAP2 PUSH2 0xCB1 JUMP JUMPDEST ADD SWAP1 PUSH1 0x20 CALLDATASIZE SWAP2 ADD CALLDATACOPY JUMP JUMPDEST DUP1 MLOAD DUP3 LT ISZERO PUSH2 0xD0F JUMPI PUSH1 0x20 SWAP2 PUSH1 0x5 SHL ADD ADD SWAP1 JUMP JUMPDEST PUSH4 0x4E487B71 PUSH1 0xE0 SHL PUSH1 0x0 MSTORE PUSH1 0x32 PUSH1 0x4 MSTORE PUSH1 0x24 PUSH1 0x0 REVERT JUMPDEST SWAP2 SWAP1 DUP2 LT ISZERO PUSH2 0xD0F JUMPI PUSH1 0x5 SHL ADD SWAP1 JUMP JUMPDEST SWAP2 SWAP1 DUP3 ADD DUP1 SWAP3 GT PUSH2 0xC63 JUMPI JUMP INVALID LOG2 PUSH5 0x6970667358 0x22 SLT KECCAK256 SWAP12 SDIV EXP PUSH17 0x9C3A226A71043718AA4D988BA9BBAEFDC5 COINBASE 0x5D PUSH12 0xDE724770A344EA6664736F6C PUSH4 0x43000815 STOP CALLER "},"methodIdentifiers":{"approvals(address,address)":"a32ce11e","approve(address,uint8)":"4342e966","atomCost()":"18b0054c","calculateAtomId(bytes)":"6828caa6","calculateTripleId(bytes32,bytes32,bytes32)":"2e1aa0f2","createAtoms(bytes[],uint256[])":"61403309","createAtomsCallCount()":"8b36c975","createTriples(bytes32[],bytes32[],bytes32[],uint256[])":"3c6bbf45","createTriplesCallCount()":"affe102c","deposit(address,bytes32,uint256,uint256)":"2fb1d270","depositBatch(address,bytes32[],uint256[],uint256[],uint256[])":"dea9423a","depositBatchCallCount()":"65007486","depositCallCount()":"9ae36a21","getAtomCost()":"33332d39","getShares(address,bytes32,uint256)":"ee3abe38","getTriple(bytes32)":"c12f7947","getTripleCost()":"0d65c91c","isTermCreated(bytes32)":"f5719008","lastDepositAmount()":"55b153e0","lastDepositCurveId()":"239563e0","lastDepositReceiver()":"95d9809b","lastDepositTermId()":"c17e1da3","previewDeposit(bytes32,uint256,uint256)":"7d4eaa91","setAtomCost(uint256)":"179e7a0a","setShares(address,bytes32,uint256,uint256)":"b03eafcb","setTermCreated(bytes32,bool)":"8680f6eb","setTripleCost(uint256)":"b7c1fd50","shares(address,bytes32,uint256)":"3bac8dcf","termCreated(bytes32)":"87d69ff9","tripleCost()":"e5c65eaf","tripleObjects(bytes32)":"8907e462","triplePredicates(bytes32)":"cfe3e83a","tripleSubjects(bytes32)":"13b0b7a1"}}}}}