{"src/SofiaFeeProxy.sol":{"SofiaFeeProxy":{"abi":[{"inputs":[{"internalType":"address","name":"_ethMultiVault","type":"address"},{"internalType":"address","name":"_feeRecipient","type":"address"},{"internalType":"uint256","name":"_creationFixedFee","type":"uint256"},{"internalType":"uint256","name":"_depositFixedFee","type":"uint256"},{"internalType":"uint256","name":"_depositPercentageFee","type":"uint256"},{"internalType":"address[]","name":"_initialAdmins","type":"address[]"}],"stateMutability":"nonpayable","type":"constructor"},{"inputs":[],"name":"SofiaFeeProxy_FeePercentageTooHigh","type":"error"},{"inputs":[],"name":"SofiaFeeProxy_InsufficientValue","type":"error"},{"inputs":[],"name":"SofiaFeeProxy_InvalidMultiVaultAddress","type":"error"},{"inputs":[],"name":"SofiaFeeProxy_InvalidMultisigAddress","type":"error"},{"inputs":[],"name":"SofiaFeeProxy_NotWhitelistedAdmin","type":"error"},{"inputs":[],"name":"SofiaFeeProxy_TransferFailed","type":"error"},{"inputs":[],"name":"SofiaFeeProxy_WrongArrayLengths","type":"error"},{"inputs":[],"name":"SofiaFeeProxy_ZeroAddress","type":"error"},{"anonymous":false,"inputs":[{"indexed":true,"internalType":"address","name":"admin","type":"address"},{"indexed":false,"internalType":"bool","name":"status","type":"bool"}],"name":"AdminWhitelistUpdated","type":"event"},{"anonymous":false,"inputs":[{"indexed":false,"internalType":"uint256","name":"oldFee","type":"uint256"},{"indexed":false,"internalType":"uint256","name":"newFee","type":"uint256"}],"name":"CreationFixedFeeUpdated","type":"event"},{"anonymous":false,"inputs":[{"indexed":false,"internalType":"uint256","name":"oldFee","type":"uint256"},{"indexed":false,"internalType":"uint256","name":"newFee","type":"uint256"}],"name":"DepositFixedFeeUpdated","type":"event"},{"anonymous":false,"inputs":[{"indexed":false,"internalType":"uint256","name":"oldFee","type":"uint256"},{"indexed":false,"internalType":"uint256","name":"newFee","type":"uint256"}],"name":"DepositPercentageFeeUpdated","type":"event"},{"anonymous":false,"inputs":[{"indexed":true,"internalType":"address","name":"oldRecipient","type":"address"},{"indexed":true,"internalType":"address","name":"newRecipient","type":"address"}],"name":"FeeRecipientUpdated","type":"event"},{"anonymous":false,"inputs":[{"indexed":true,"internalType":"address","name":"user","type":"address"},{"indexed":false,"internalType":"uint256","name":"amount","type":"uint256"},{"indexed":false,"internalType":"string","name":"operation","type":"string"}],"name":"FeesCollected","type":"event"},{"anonymous":false,"inputs":[{"indexed":false,"internalType":"string","name":"operation","type":"string"},{"indexed":false,"internalType":"uint256","name":"resultCount","type":"uint256"}],"name":"MultiVaultSuccess","type":"event"},{"anonymous":false,"inputs":[{"indexed":false,"internalType":"string","name":"operation","type":"string"},{"indexed":true,"internalType":"address","name":"user","type":"address"},{"indexed":false,"internalType":"uint256","name":"sofiaFee","type":"uint256"},{"indexed":false,"internalType":"uint256","name":"multiVaultValue","type":"uint256"},{"indexed":false,"internalType":"uint256","name":"totalReceived","type":"uint256"}],"name":"TransactionForwarded","type":"event"},{"inputs":[],"name":"FEE_DENOMINATOR","outputs":[{"internalType":"uint256","name":"","type":"uint256"}],"stateMutability":"view","type":"function"},{"inputs":[],"name":"MAX_FEE_PERCENTAGE","outputs":[{"internalType":"uint256","name":"","type":"uint256"}],"stateMutability":"view","type":"function"},{"inputs":[{"internalType":"bytes","name":"data","type":"bytes"}],"name":"calculateAtomId","outputs":[{"internalType":"bytes32","name":"","type":"bytes32"}],"stateMutability":"pure","type":"function"},{"inputs":[{"internalType":"uint256","name":"count","type":"uint256"}],"name":"calculateCreationFee","outputs":[{"internalType":"uint256","name":"","type":"uint256"}],"stateMutability":"view","type":"function"},{"inputs":[{"internalType":"uint256","name":"depositAmount","type":"uint256"}],"name":"calculateDepositFee","outputs":[{"internalType":"uint256","name":"","type":"uint256"}],"stateMutability":"view","type":"function"},{"inputs":[{"internalType":"bytes32","name":"subjectId","type":"bytes32"},{"internalType":"bytes32","name":"predicateId","type":"bytes32"},{"internalType":"bytes32","name":"objectId","type":"bytes32"}],"name":"calculateTripleId","outputs":[{"internalType":"bytes32","name":"","type":"bytes32"}],"stateMutability":"view","type":"function"},{"inputs":[{"internalType":"address","name":"receiver","type":"address"},{"internalType":"bytes[]","name":"data","type":"bytes[]"},{"internalType":"uint256[]","name":"assets","type":"uint256[]"},{"internalType":"uint256","name":"curveId","type":"uint256"}],"name":"createAtoms","outputs":[{"internalType":"bytes32[]","name":"atomIds","type":"bytes32[]"}],"stateMutability":"payable","type":"function"},{"inputs":[{"internalType":"address","name":"receiver","type":"address"},{"internalType":"bytes32[]","name":"subjectIds","type":"bytes32[]"},{"internalType":"bytes32[]","name":"predicateIds","type":"bytes32[]"},{"internalType":"bytes32[]","name":"objectIds","type":"bytes32[]"},{"internalType":"uint256[]","name":"assets","type":"uint256[]"},{"internalType":"uint256","name":"curveId","type":"uint256"}],"name":"createTriples","outputs":[{"internalType":"bytes32[]","name":"tripleIds","type":"bytes32[]"}],"stateMutability":"payable","type":"function"},{"inputs":[],"name":"creationFixedFee","outputs":[{"internalType":"uint256","name":"","type":"uint256"}],"stateMutability":"view","type":"function"},{"inputs":[{"internalType":"address","name":"receiver","type":"address"},{"internalType":"bytes32","name":"termId","type":"bytes32"},{"internalType":"uint256","name":"curveId","type":"uint256"},{"internalType":"uint256","name":"minShares","type":"uint256"}],"name":"deposit","outputs":[{"internalType":"uint256","name":"shares","type":"uint256"}],"stateMutability":"payable","type":"function"},{"inputs":[{"internalType":"address","name":"receiver","type":"address"},{"internalType":"bytes32[]","name":"termIds","type":"bytes32[]"},{"internalType":"uint256[]","name":"curveIds","type":"uint256[]"},{"internalType":"uint256[]","name":"assets","type":"uint256[]"},{"internalType":"uint256[]","name":"minShares","type":"uint256[]"}],"name":"depositBatch","outputs":[{"internalType":"uint256[]","name":"shares","type":"uint256[]"}],"stateMutability":"payable","type":"function"},{"inputs":[],"name":"depositFixedFee","outputs":[{"internalType":"uint256","name":"","type":"uint256"}],"stateMutability":"view","type":"function"},{"inputs":[],"name":"depositPercentageFee","outputs":[{"internalType":"uint256","name":"","type":"uint256"}],"stateMutability":"view","type":"function"},{"inputs":[],"name":"ethMultiVault","outputs":[{"internalType":"contract IEthMultiVault","name":"","type":"address"}],"stateMutability":"view","type":"function"},{"inputs":[],"name":"feeRecipient","outputs":[{"internalType":"address","name":"","type":"address"}],"stateMutability":"view","type":"function"},{"inputs":[],"name":"getAtomCost","outputs":[{"internalType":"uint256","name":"","type":"uint256"}],"stateMutability":"view","type":"function"},{"inputs":[{"internalType":"uint256","name":"msgValue","type":"uint256"}],"name":"getMultiVaultAmountFromValue","outputs":[{"internalType":"uint256","name":"","type":"uint256"}],"stateMutability":"view","type":"function"},{"inputs":[{"internalType":"address","name":"account","type":"address"},{"internalType":"bytes32","name":"termId","type":"bytes32"},{"internalType":"uint256","name":"curveId","type":"uint256"}],"name":"getShares","outputs":[{"internalType":"uint256","name":"","type":"uint256"}],"stateMutability":"view","type":"function"},{"inputs":[{"internalType":"uint256","name":"count","type":"uint256"},{"internalType":"uint256","name":"multiVaultCost","type":"uint256"}],"name":"getTotalCreationCost","outputs":[{"internalType":"uint256","name":"","type":"uint256"}],"stateMutability":"view","type":"function"},{"inputs":[{"internalType":"uint256","name":"depositAmount","type":"uint256"}],"name":"getTotalDepositCost","outputs":[{"internalType":"uint256","name":"","type":"uint256"}],"stateMutability":"view","type":"function"},{"inputs":[{"internalType":"bytes32","name":"tripleId","type":"bytes32"}],"name":"getTriple","outputs":[{"internalType":"bytes32","name":"","type":"bytes32"},{"internalType":"bytes32","name":"","type":"bytes32"},{"internalType":"bytes32","name":"","type":"bytes32"}],"stateMutability":"view","type":"function"},{"inputs":[],"name":"getTripleCost","outputs":[{"internalType":"uint256","name":"","type":"uint256"}],"stateMutability":"view","type":"function"},{"inputs":[{"internalType":"bytes32","name":"id","type":"bytes32"}],"name":"isTermCreated","outputs":[{"internalType":"bool","name":"","type":"bool"}],"stateMutability":"view","type":"function"},{"inputs":[{"internalType":"bytes32","name":"termId","type":"bytes32"},{"internalType":"uint256","name":"curveId","type":"uint256"},{"internalType":"uint256","name":"assets","type":"uint256"}],"name":"previewDeposit","outputs":[{"internalType":"uint256","name":"","type":"uint256"},{"internalType":"uint256","name":"","type":"uint256"}],"stateMutability":"view","type":"function"},{"inputs":[{"internalType":"uint256","name":"newFee","type":"uint256"}],"name":"setCreationFixedFee","outputs":[],"stateMutability":"nonpayable","type":"function"},{"inputs":[{"internalType":"uint256","name":"newFee","type":"uint256"}],"name":"setDepositFixedFee","outputs":[],"stateMutability":"nonpayable","type":"function"},{"inputs":[{"internalType":"uint256","name":"newFee","type":"uint256"}],"name":"setDepositPercentageFee","outputs":[],"stateMutability":"nonpayable","type":"function"},{"inputs":[{"internalType":"address","name":"newRecipient","type":"address"}],"name":"setFeeRecipient","outputs":[],"stateMutability":"nonpayable","type":"function"},{"inputs":[{"internalType":"address","name":"admin","type":"address"},{"internalType":"bool","name":"status","type":"bool"}],"name":"setWhitelistedAdmin","outputs":[],"stateMutability":"nonpayable","type":"function"},{"inputs":[{"internalType":"address","name":"","type":"address"}],"name":"whitelistedAdmins","outputs":[{"internalType":"bool","name":"","type":"bool"}],"stateMutability":"view","type":"function"},{"stateMutability":"payable","type":"receive"}],"evm":{"bytecode":{"linkReferences":{},"object":"604060a08152346200028f5762001fdd803803806200001e81620002aa565b92833981019060c0818303126200028f576200003a81620002d0565b602062000049818401620002d0565b91858401519360608101519560808201519060a083015160018060401b03938482116200028f570181601f820112156200028f57805193841162000294578360051b9086806200009b818501620002aa565b8097815201928201019283116200028f5786809101915b83831062000274575050506001600160a01b0393841695905085156200026357831694851562000252576127108211620002415760809897985260009460018060a01b03198654161785556001978896875560025560035583965b62000194575b8551611ccc908162000311823960805181818161018a015281816101ec0152818161033901528181610641015281816107fb0152818161095f01528181610af001528181610c0f01528181610e1c01528181610f96015281816110930152818161121701528181611460015281816115e1015281816116e601526117b70152f35b80518710156200023b5781620001ab8883620002e5565b5116620001dc575b6000198714620001c85795840195846200010d565b634e487b7160e01b84526011600452602484fd5b81620001e98883620002e5565b5116845260048352858420805460ff191686179055816200020b8883620002e5565b51167fdb8e93bc198e2b2eea2f3ebbfdbc11d697156217479ac1f45564eb70891e3d05848851888152a2620001b3565b62000113565b8851635dfb18eb60e01b8152600490fd5b8851631023f93d60e01b8152600490fd5b8851634a787e9b60e11b8152600490fd5b81906200028184620002d0565b8152019101908690620000b2565b600080fd5b634e487b7160e01b600052604160045260246000fd5b6040519190601f01601f191682016001600160401b038111838210176200029457604052565b51906001600160a01b03821682036200028f57565b8051821015620002fa5760209160051b010190565b634e487b7160e01b600052603260045260246000fdfe608080604052600436101561001d575b50361561001b57600080fd5b005b60003560e01c90816302ef36c71461188e57508063082e709f146117f95780630d65c91c146117915780630f060799146117735780630ff2663c14611747578063247d284b146117205780632e1aa0f2146116a05780632fb1d270146114a257806333332d391461143a5780634690484014611411578063558e44d31461079f5780635ce33d4f1461139257806363173be7146113745780636828caa6146112f457806370b9add0146112d6578063717ba4d91461129c5780637d4eaa91146111d95780638581c32f14610d9a578063ad934c1814610d36578063b3ec372e14610cf7578063bc2439e41461089c578063c12f7947146107cd578063c1757e36146107a4578063d73792a91461079f578063dea9423a1461043c578063e74b981b146103a6578063ee3abe38146102e8578063f48371c014610272578063f5719008146101be5763f8073c7614610174573861000f565b346101b95760003660031901126101b9576040517f00000000000000000000000000000000000000000000000000000000000000006001600160a01b03168152602090f35b600080fd5b346101b9576020806003193601126101b957604051631eae320160e31b8152600480359082015281816024817f00000000000000000000000000000000000000000000000000000000000000006001600160a01b03165afa90811561026657600091610230575b506040519015158152f35b90508181813d831161025f575b61024781836119bc565b810103126101b9575180151581036101b95782610225565b503d61023d565b6040513d6000823e3d90fd5b346101b95760203660031901126101b95760043533600052600460205260ff60406000205416156102d65760407f71bc2d9c4b3b5472e9afa8b00d83565c247798dbe5402735f27d074e8c8fdbd391600254908060025582519182526020820152a1005b6040516390c7c07160e01b8152600490fd5b346101b95760603660031901126101b957606460206103056118a9565b604051631dc757c760e31b81526001600160a01b0391821660048201526024803590820152604480359082015292839182907f0000000000000000000000000000000000000000000000000000000000000000165afa801561026657600090610374575b602090604051908152f35b506020813d821161039e575b8161038d602093836119bc565b810103126101b95760209051610369565b3d9150610380565b346101b95760203660031901126101b9576103bf6118a9565b33600052600460205260ff60406000205416156102d6576001600160a01b0390811690811561042a57600054826bffffffffffffffffffffffff60a01b821617600055167faaebcf1bfa00580e41d966056b48521fa9f202645c86d4ddf28113e617c1b1d3600080a3005b60405163e4799d2b60e01b8152600490fd5b60a03660031901126101b9576104506118a9565b67ffffffffffffffff906024358281116101b9576104729036906004016118dc565b916044358481116101b95761048b9036906004016118dc565b93906064358681116101b9576104a59036906004016118dc565b9590936084358881116101b9576104c09036906004016118dc565b838614801590610795575b801561078b575b610779576104e08988611bf8565b966105066104f08860025461197c565b6127106104ff6003548c61197c565b04906119af565b996105118b8a6119af565b3410610767576105208b611b95565b6040519a808c5260209b8c8101604090523390806040810161055c90604090600c81526b0c8cae0dee6d2e884c2e8c6d60a31b60208201520190565b03600080516020611c3783398151915291a26040516080808252600c908201526b0c8cae0dee6d2e884c2e8c6d60a31b60a082015260c08101918d8201528a604082015234606082015280339203600080516020611c5783398151915291a2604051636f54a11d60e11b81526001600160a01b03958616600482015260a06024820152998a98959789978897919290916105fb9160a48a019190611b01565b9060031988830301604489015261061192611b01565b9060031986830301606487015261062792611b01565b9060031984830301608485015261063d92611b01565b03917f000000000000000000000000000000000000000000000000000000000000000016935a94600095f1928315610266576000936106da575b5050600080516020611c7783398151915282516040518091604082526106ba60408301604090600c81526b0c8cae0dee6d2e884c2e8c6d60a31b60208201520190565b90858301520390a16106d6604051928284938452830190611948565b0390f35b909192503d806000843e6106ee81846119bc565b82019183818403126101b95780519182116101b957019080601f830112156101b95781519161071c836119f4565b9261072a60405194856119bc565b808452848085019160051b8301019283116101b95784809201905b8382106107585750505050908280610677565b81518152908201908201610745565b6040516339e5774360e01b8152600490fd5b60405163a9087e4b60e01b8152600490fd5b50808914156104d2565b50888414156104cb565b6118bf565b346101b95760203660031901126101b95760206107c560043560015461197c565b604051908152f35b346101b95760203660031901126101b95760405163c12f794760e01b815260048035908201526060816024817f00000000000000000000000000000000000000000000000000000000000000006001600160a01b03165afa80156102665760009060009260009161085b575b506106d690604051938493846040919493926060820195825260208201520152565b925050506060813d8211610894575b81610877606093836119bc565b810103126101b957805160208201516040909201516106d6610839565b3d915061086a565b60c03660031901126101b9576108b06118a9565b67ffffffffffffffff906024358281116101b9576108d29036906004016118dc565b9290916044358281116101b9576108ed9036906004016118dc565b6064949194358481116101b9576109089036906004016118dc565b9190946084359081116101b9576109239036906004016118dc565b939095828914801590610ced575b8015610ce3575b610779576109488960015461197c565b604051630359724760e21b815291906020836004817f00000000000000000000000000000000000000000000000000000000000000006001600160a01b03165afa92831561026657600093610caf575b506109b56109a6888b611bf8565b6109b08d8661197c565b6119af565b6109bf81836119af565b341061076757600080516020611c57833981519152906109de83611b95565b60405183815260406020820152600080516020611c37833981519152339180610a2560408201604090600d81526c637265617465547269706c657360981b60208201520190565b0390a2604080516080808252600d908201526c637265617465547269706c657360981b60a08201526020810194909452830152346060830152339160c090a2610a6d8a611a0c565b918a60005b818110610c925750610a839161197c565b94604051998a958695633c6bbf4560e01b875260048701608090528d6084880190610aad92611b01565b90600319878303016024880152610ac392611b01565b90600319858303016044860152610ad992611b01565b828103600319016064840152610aee91611948565b7f00000000000000000000000000000000000000000000000000000000000000006001600160a01b0316939190039082905a94600095f193841561026657600094610c6d575b5060005b858110610b99576106d685600080516020611c7783398151915288604051809160408252610b8460408301604090600d81526c637265617465547269706c657360981b60208201520190565b9060208301520390a16040519182918261190d565b610ba4818386611af1565b35610bb8575b610bb390611a3e565b610b38565b610bc3818386611af1565b356020610bd08388611a4d565b516040516302fb1d2760e41b81526001600160a01b038781166004830152602482019290925260a43560448201526000606482015292839160849183917f0000000000000000000000000000000000000000000000000000000000000000165af1801561026657610c42575b50610baa565b602090813d8311610c66575b610c5881836119bc565b810103126101b95786610c3c565b503d610c4e565b610c8b9194503d806000833e610c8381836119bc565b810190611a77565b9285610b34565b610ca8915082610ca28287611a4d565b52611a3e565b8b90610a72565b9092506020813d602011610cdb575b81610ccb602093836119bc565b810103126101b95751918b610998565b3d9150610cbe565b5084841415610938565b5083831415610931565b346101b95760203660031901126101b9576001600160a01b03610d186118a9565b166000526004602052602060ff604060002054166040519015158152f35b346101b95760203660031901126101b95760043533600052600460205260ff60406000205416156102d65760407f05fcb23afb0fb7986c3f826699011cf4d5126fd38c3105ad6f16690b2bd16d2891600154908060015582519182526020820152a1005b60803660031901126101b957610dae6118a9565b60243567ffffffffffffffff81116101b957610dce9036906004016118dc565b9160443567ffffffffffffffff81116101b957610def9036906004016118dc565b80859392930361077957610e058560015461197c565b6040516333332d3960e01b815294906020866004817f00000000000000000000000000000000000000000000000000000000000000006001600160a01b03165afa958615610266576000966111a5575b50610e6d610e638487611bf8565b6109b0898961197c565b610e7781836119af565b341061076757600080516020611c5783398151915290610e9983989498611b95565b60405183815260406020820152600080516020611c37833981519152339180610ede60408201604090600b81526a63726561746541746f6d7360a81b60208201520190565b0390a2604080516080808252600b908201526a63726561746541746f6d7360a81b60a08201526020810194909452830152346060830152339160c090a285610f2581611a0c565b9160005b828110611187575090610f3b9161197c565b90604051958691636140330960e01b835288604484016040600486015252606483019160648a60051b850101928160005b8c811061110e575050505082610f92600095938293600319848303016024850152611948565b03917f00000000000000000000000000000000000000000000000000000000000000006001600160a01b03165af1938415610266576000946110f1575b5060005b85811061101d576106d685600080516020611c7783398151915288604051809160408252610b8460408301604090600b81526a63726561746541746f6d7360a81b60208201520190565b611028818386611af1565b3561103c575b61103790611a3e565b610fd3565b611047818386611af1565b3560206110548388611a4d565b516040516302fb1d2760e41b81526001600160a01b038781166004830152602482019290925260648035604483015260009082015292839160849183917f0000000000000000000000000000000000000000000000000000000000000000165af18015610266576110c6575b5061102e565b602090813d83116110ea575b6110dc81836119bc565b810103126101b957866110c0565b503d6110d2565b6111079194503d806000833e610c8381836119bc565b9285610fcf565b919394909295506063198b8203018452601e1983360301863512156101b9578286350167ffffffffffffffff8135116101b9578035360360208201136101b957602080600193838294358252803583820184840137600083823584010152601f8019913501160101970194019101918a95949392610f6c565b8161119a929350610ca282869a96611a4d565b908791969296610f29565b9095506020813d6020116111d1575b816111c1602093836119bc565b810103126101b957519487610e55565b3d91506111b4565b346101b95760603660031901126101b95760408051637d4eaa9160e01b815260048035908201526024803590820152604480359082015290816064817f00000000000000000000000000000000000000000000000000000000000000006001600160a01b03165afa801561026657600090600090611262575b6040809350519182526020820152f35b50506040813d604011611294575b8161127d604093836119bc565b810103126101b95780602060409251910151611252565b3d9150611270565b346101b95760203660031901126101b95760206107c56004356112d06127106112c76003548461197c565b046002546119af565b906119af565b346101b95760203660031901126101b95760206107c5600435611b32565b346101b95760203660031901126101b95767ffffffffffffffff6004358181116101b957366023820112156101b95780600401359182116101b95736602483830101116101b957816000602061134a8195611b79565b9261135860405194856119bc565b8084528060248386019601863783010152519020604051908152f35b346101b95760003660031901126101b9576020600354604051908152f35b346101b95760203660031901126101b95760043533600052600460205260ff60406000205416156102d65761271081116113ff5760407f941228a4ace352cb2d85f4fc40701585a9ba154072a8794bff7db2bb6127773491600354908060035582519182526020820152a1005b604051635dfb18eb60e01b8152600490fd5b346101b95760003660031901126101b9576000546040516001600160a01b039091168152602090f35b346101b95760003660031901126101b9576040516333332d3960e01b81526020816004817f00000000000000000000000000000000000000000000000000000000000000006001600160a01b03165afa80156102665760009061037457602090604051908152f35b60803660031901126101b9576114b66118a9565b60025480341115610767576114cb9034611b25565b6127108082029180830482149015171561168a57600354810180911161168a576114f49161198f565b906114ff8234611b25565b9161150983611b95565b604051908382526020938260408680950152600080516020611c3783398151915233918061154f60408201604090600781526619195c1bdcda5d60ca1b60208201520190565b0390a2600080516020611c578339815191526040516080815261158a60808201604090600781526619195c1bdcda5d60ca1b60208201520190565b92858201528360408201523460608201528033930390a26040516302fb1d2760e41b81526001600160a01b0393841660048201526024803590820152604480359082015260648035908201529283916084918391907f0000000000000000000000000000000000000000000000000000000000000000165af19081156102665760009161165d575b50600080516020611c77833981519152604051604081528061164c60408201604090600781526619195c1bdcda5d60ca1b60208201520190565b6001868301520390a1604051908152f35b90508181813d8311611683575b61167481836119bc565b810103126101b9575182611612565b503d61166a565b634e487b7160e01b600052601160045260246000fd5b346101b95760603660031901126101b95760405163170d507960e11b81526004803590820152602480359082015260448035908201526020816064816001600160a01b037f0000000000000000000000000000000000000000000000000000000000000000165afa80156102665760009061037457602090604051908152f35b346101b95760203660031901126101b95760206107c56127106112c760035460043561197c565b346101b95760403660031901126101b95760206107c561176b60043560015461197c565b6024356119af565b346101b95760003660031901126101b9576020600154604051908152f35b346101b95760003660031901126101b957604051630359724760e21b81526020816004817f00000000000000000000000000000000000000000000000000000000000000006001600160a01b03165afa80156102665760009061037457602090604051908152f35b346101b95760403660031901126101b9576118126118a9565b602435908115158092036101b95733600052600460205260ff60406000205416156102d6576001600160a01b031690811561042a5760207fdb8e93bc198e2b2eea2f3ebbfdbc11d697156217479ac1f45564eb70891e3d05918360005260048252604060002060ff1981541660ff8316179055604051908152a2005b346101b95760003660031901126101b9576020906002548152f35b600435906001600160a01b03821682036101b957565b346101b95760003660031901126101b95760206040516127108152f35b9181601f840112156101b95782359167ffffffffffffffff83116101b9576020808501948460051b0101116101b957565b6020908160408183019282815285518094520193019160005b828110611934575050505090565b835185529381019392810192600101611926565b90815180825260208080930193019160005b828110611968575050505090565b83518552938101939281019260010161195a565b8181029291811591840414171561168a57565b8115611999570490565b634e487b7160e01b600052601260045260246000fd5b9190820180921161168a57565b90601f8019910116810190811067ffffffffffffffff8211176119de57604052565b634e487b7160e01b600052604160045260246000fd5b67ffffffffffffffff81116119de5760051b60200190565b90611a16826119f4565b611a2360405191826119bc565b8281528092611a34601f19916119f4565b0190602036910137565b600019811461168a5760010190565b8051821015611a615760209160051b010190565b634e487b7160e01b600052603260045260246000fd5b60209081818403126101b95780519067ffffffffffffffff82116101b957019180601f840112156101b9578251611aad816119f4565b93611abb60405195866119bc565b818552838086019260051b8201019283116101b9578301905b828210611ae2575050505090565b81518152908301908301611ad4565b9190811015611a615760051b0190565b81835290916001600160fb1b0383116101b95760209260051b809284830137010190565b9190820391821161168a57565b60025480821115611b7257611b4691611b25565b6127108082029180830482149015171561168a57600354810180911161168a57611b6f9161198f565b90565b5050600090565b67ffffffffffffffff81116119de57601f01601f191660200190565b80611b9d5750565b6000808080809460018060a01b038254165af1903d15611bf2573d90611bc282611b79565b91611bd060405193846119bc565b825260203d92013e5b15611be057565b604051630291be7b60e31b8152600490fd5b50611bd9565b91906000926000915b808310611c0d57505050565b909193611c29611c2f91611c22878587611af1565b35906119af565b94611a3e565b9190611c0156fedb23cba216bfaed89070d2734596f2ee2a163099cfc4f5ef32036debc97922266ebd237946549f7dd8c5b01156cfe92d39b298a153adb4c9911a5008ab7768626a35bcb4a51611dbcd01a735cefa7e3801d75be5a8a7ef08e5eae650fdbc9796a2646970667358221220b6f410c86256e34039dc3e75e359a2a84273bce1ec0bf58d8da35e3e5c48df1f64736f6c63430008150033","opcodes":"PUSH1 0x40 PUSH1 0xA0 DUP2 MSTORE CALLVALUE PUSH3 0x28F JUMPI PUSH3 0x1FDD DUP1 CODESIZE SUB DUP1 PUSH3 0x1E DUP2 PUSH3 0x2AA JUMP JUMPDEST SWAP3 DUP4 CODECOPY DUP2 ADD SWAP1 PUSH1 0xC0 DUP2 DUP4 SUB SLT PUSH3 0x28F JUMPI PUSH3 0x3A DUP2 PUSH3 0x2D0 JUMP JUMPDEST PUSH1 0x20 PUSH3 0x49 DUP2 DUP5 ADD PUSH3 0x2D0 JUMP JUMPDEST SWAP2 DUP6 DUP5 ADD MLOAD SWAP4 PUSH1 0x60 DUP2 ADD MLOAD SWAP6 PUSH1 0x80 DUP3 ADD MLOAD SWAP1 PUSH1 0xA0 DUP4 ADD MLOAD PUSH1 0x1 DUP1 PUSH1 0x40 SHL SUB SWAP4 DUP5 DUP3 GT PUSH3 0x28F JUMPI ADD DUP2 PUSH1 0x1F DUP3 ADD SLT ISZERO PUSH3 0x28F JUMPI DUP1 MLOAD SWAP4 DUP5 GT PUSH3 0x294 JUMPI DUP4 PUSH1 0x5 SHL SWAP1 DUP7 DUP1 PUSH3 0x9B DUP2 DUP6 ADD PUSH3 0x2AA JUMP JUMPDEST DUP1 SWAP8 DUP2 MSTORE ADD SWAP3 DUP3 ADD ADD SWAP3 DUP4 GT PUSH3 0x28F JUMPI DUP7 DUP1 SWAP2 ADD SWAP2 JUMPDEST DUP4 DUP4 LT PUSH3 0x274 JUMPI POP POP POP PUSH1 0x1 PUSH1 0x1 PUSH1 0xA0 SHL SUB SWAP4 DUP5 AND SWAP6 SWAP1 POP DUP6 ISZERO PUSH3 0x263 JUMPI DUP4 AND SWAP5 DUP6 ISZERO PUSH3 0x252 JUMPI PUSH2 0x2710 DUP3 GT PUSH3 0x241 JUMPI PUSH1 0x80 SWAP9 SWAP8 SWAP9 MSTORE PUSH1 0x0 SWAP5 PUSH1 0x1 DUP1 PUSH1 0xA0 SHL SUB NOT DUP7 SLOAD AND OR DUP6 SSTORE PUSH1 0x1 SWAP8 DUP9 SWAP7 DUP8 SSTORE PUSH1 0x2 SSTORE PUSH1 0x3 SSTORE DUP4 SWAP7 JUMPDEST PUSH3 0x194 JUMPI JUMPDEST DUP6 MLOAD PUSH2 0x1CCC SWAP1 DUP2 PUSH3 0x311 DUP3 CODECOPY PUSH1 0x80 MLOAD DUP2 DUP2 DUP2 PUSH2 0x18A ADD MSTORE DUP2 DUP2 PUSH2 0x1EC ADD MSTORE DUP2 DUP2 PUSH2 0x339 ADD MSTORE DUP2 DUP2 PUSH2 0x641 ADD MSTORE DUP2 DUP2 PUSH2 0x7FB ADD MSTORE DUP2 DUP2 PUSH2 0x95F ADD MSTORE DUP2 DUP2 PUSH2 0xAF0 ADD MSTORE DUP2 DUP2 PUSH2 0xC0F ADD MSTORE DUP2 DUP2 PUSH2 0xE1C ADD MSTORE DUP2 DUP2 PUSH2 0xF96 ADD MSTORE DUP2 DUP2 PUSH2 0x1093 ADD MSTORE DUP2 DUP2 PUSH2 0x1217 ADD MSTORE DUP2 DUP2 PUSH2 0x1460 ADD MSTORE DUP2 DUP2 PUSH2 0x15E1 ADD MSTORE DUP2 DUP2 PUSH2 0x16E6 ADD MSTORE PUSH2 0x17B7 ADD MSTORE RETURN JUMPDEST DUP1 MLOAD DUP8 LT ISZERO PUSH3 0x23B JUMPI DUP2 PUSH3 0x1AB DUP9 DUP4 PUSH3 0x2E5 JUMP JUMPDEST MLOAD AND PUSH3 0x1DC JUMPI JUMPDEST PUSH1 0x0 NOT DUP8 EQ PUSH3 0x1C8 JUMPI SWAP6 DUP5 ADD SWAP6 DUP5 PUSH3 0x10D JUMP JUMPDEST PUSH4 0x4E487B71 PUSH1 0xE0 SHL DUP5 MSTORE PUSH1 0x11 PUSH1 0x4 MSTORE PUSH1 0x24 DUP5 REVERT JUMPDEST DUP2 PUSH3 0x1E9 DUP9 DUP4 PUSH3 0x2E5 JUMP JUMPDEST MLOAD AND DUP5 MSTORE PUSH1 0x4 DUP4 MSTORE DUP6 DUP5 KECCAK256 DUP1 SLOAD PUSH1 0xFF NOT AND DUP7 OR SWAP1 SSTORE DUP2 PUSH3 0x20B DUP9 DUP4 PUSH3 0x2E5 JUMP JUMPDEST MLOAD AND PUSH32 0xDB8E93BC198E2B2EEA2F3EBBFDBC11D697156217479AC1F45564EB70891E3D05 DUP5 DUP9 MLOAD DUP9 DUP2 MSTORE LOG2 PUSH3 0x1B3 JUMP JUMPDEST PUSH3 0x113 JUMP JUMPDEST DUP9 MLOAD PUSH4 0x5DFB18EB PUSH1 0xE0 SHL DUP2 MSTORE PUSH1 0x4 SWAP1 REVERT JUMPDEST DUP9 MLOAD PUSH4 0x1023F93D PUSH1 0xE0 SHL DUP2 MSTORE PUSH1 0x4 SWAP1 REVERT JUMPDEST DUP9 MLOAD PUSH4 0x4A787E9B PUSH1 0xE1 SHL DUP2 MSTORE PUSH1 0x4 SWAP1 REVERT JUMPDEST DUP2 SWAP1 PUSH3 0x281 DUP5 PUSH3 0x2D0 JUMP JUMPDEST DUP2 MSTORE ADD SWAP2 ADD SWAP1 DUP7 SWAP1 PUSH3 0xB2 JUMP JUMPDEST PUSH1 0x0 DUP1 REVERT JUMPDEST PUSH4 0x4E487B71 PUSH1 0xE0 SHL PUSH1 0x0 MSTORE PUSH1 0x41 PUSH1 0x4 MSTORE PUSH1 0x24 PUSH1 0x0 REVERT JUMPDEST PUSH1 0x40 MLOAD SWAP2 SWAP1 PUSH1 0x1F ADD PUSH1 0x1F NOT AND DUP3 ADD PUSH1 0x1 PUSH1 0x1 PUSH1 0x40 SHL SUB DUP2 GT DUP4 DUP3 LT OR PUSH3 0x294 JUMPI PUSH1 0x40 MSTORE JUMP JUMPDEST MLOAD SWAP1 PUSH1 0x1 PUSH1 0x1 PUSH1 0xA0 SHL SUB DUP3 AND DUP3 SUB PUSH3 0x28F JUMPI JUMP JUMPDEST DUP1 MLOAD DUP3 LT ISZERO PUSH3 0x2FA JUMPI PUSH1 0x20 SWAP2 PUSH1 0x5 SHL ADD ADD SWAP1 JUMP JUMPDEST PUSH4 0x4E487B71 PUSH1 0xE0 SHL PUSH1 0x0 MSTORE PUSH1 0x32 PUSH1 0x4 MSTORE PUSH1 0x24 PUSH1 0x0 REVERT INVALID PUSH1 0x80 DUP1 PUSH1 0x40 MSTORE PUSH1 0x4 CALLDATASIZE LT ISZERO PUSH2 0x1D JUMPI JUMPDEST POP CALLDATASIZE ISZERO PUSH2 0x1B JUMPI PUSH1 0x0 DUP1 REVERT JUMPDEST STOP JUMPDEST PUSH1 0x0 CALLDATALOAD PUSH1 0xE0 SHR SWAP1 DUP2 PUSH4 0x2EF36C7 EQ PUSH2 0x188E JUMPI POP DUP1 PUSH4 0x82E709F EQ PUSH2 0x17F9 JUMPI DUP1 PUSH4 0xD65C91C EQ PUSH2 0x1791 JUMPI DUP1 PUSH4 0xF060799 EQ PUSH2 0x1773 JUMPI DUP1 PUSH4 0xFF2663C EQ PUSH2 0x1747 JUMPI DUP1 PUSH4 0x247D284B EQ PUSH2 0x1720 JUMPI DUP1 PUSH4 0x2E1AA0F2 EQ PUSH2 0x16A0 JUMPI DUP1 PUSH4 0x2FB1D270 EQ PUSH2 0x14A2 JUMPI DUP1 PUSH4 0x33332D39 EQ PUSH2 0x143A JUMPI DUP1 PUSH4 0x46904840 EQ PUSH2 0x1411 JUMPI DUP1 PUSH4 0x558E44D3 EQ PUSH2 0x79F JUMPI DUP1 PUSH4 0x5CE33D4F EQ PUSH2 0x1392 JUMPI DUP1 PUSH4 0x63173BE7 EQ PUSH2 0x1374 JUMPI DUP1 PUSH4 0x6828CAA6 EQ PUSH2 0x12F4 JUMPI DUP1 PUSH4 0x70B9ADD0 EQ PUSH2 0x12D6 JUMPI DUP1 PUSH4 0x717BA4D9 EQ PUSH2 0x129C JUMPI DUP1 PUSH4 0x7D4EAA91 EQ PUSH2 0x11D9 JUMPI DUP1 PUSH4 0x8581C32F EQ PUSH2 0xD9A JUMPI DUP1 PUSH4 0xAD934C18 EQ PUSH2 0xD36 JUMPI DUP1 PUSH4 0xB3EC372E EQ PUSH2 0xCF7 JUMPI DUP1 PUSH4 0xBC2439E4 EQ PUSH2 0x89C JUMPI DUP1 PUSH4 0xC12F7947 EQ PUSH2 0x7CD JUMPI DUP1 PUSH4 0xC1757E36 EQ PUSH2 0x7A4 JUMPI DUP1 PUSH4 0xD73792A9 EQ PUSH2 0x79F JUMPI DUP1 PUSH4 0xDEA9423A EQ PUSH2 0x43C JUMPI DUP1 PUSH4 0xE74B981B EQ PUSH2 0x3A6 JUMPI DUP1 PUSH4 0xEE3ABE38 EQ PUSH2 0x2E8 JUMPI DUP1 PUSH4 0xF48371C0 EQ PUSH2 0x272 JUMPI DUP1 PUSH4 0xF5719008 EQ PUSH2 0x1BE JUMPI PUSH4 0xF8073C76 EQ PUSH2 0x174 JUMPI CODESIZE PUSH2 0xF JUMP JUMPDEST CALLVALUE PUSH2 0x1B9 JUMPI PUSH1 0x0 CALLDATASIZE PUSH1 0x3 NOT ADD SLT PUSH2 0x1B9 JUMPI PUSH1 0x40 MLOAD PUSH32 0x0 PUSH1 0x1 PUSH1 0x1 PUSH1 0xA0 SHL SUB AND DUP2 MSTORE PUSH1 0x20 SWAP1 RETURN JUMPDEST PUSH1 0x0 DUP1 REVERT JUMPDEST CALLVALUE PUSH2 0x1B9 JUMPI PUSH1 0x20 DUP1 PUSH1 0x3 NOT CALLDATASIZE ADD SLT PUSH2 0x1B9 JUMPI PUSH1 0x40 MLOAD PUSH4 0x1EAE3201 PUSH1 0xE3 SHL DUP2 MSTORE PUSH1 0x4 DUP1 CALLDATALOAD SWAP1 DUP3 ADD MSTORE DUP2 DUP2 PUSH1 0x24 DUP2 PUSH32 0x0 PUSH1 0x1 PUSH1 0x1 PUSH1 0xA0 SHL SUB AND GAS STATICCALL SWAP1 DUP2 ISZERO PUSH2 0x266 JUMPI PUSH1 0x0 SWAP2 PUSH2 0x230 JUMPI JUMPDEST POP PUSH1 0x40 MLOAD SWAP1 ISZERO ISZERO DUP2 MSTORE RETURN JUMPDEST SWAP1 POP DUP2 DUP2 DUP2 RETURNDATASIZE DUP4 GT PUSH2 0x25F JUMPI JUMPDEST PUSH2 0x247 DUP2 DUP4 PUSH2 0x19BC JUMP JUMPDEST DUP2 ADD SUB SLT PUSH2 0x1B9 JUMPI MLOAD DUP1 ISZERO ISZERO DUP2 SUB PUSH2 0x1B9 JUMPI DUP3 PUSH2 0x225 JUMP JUMPDEST POP RETURNDATASIZE PUSH2 0x23D JUMP JUMPDEST PUSH1 0x40 MLOAD RETURNDATASIZE PUSH1 0x0 DUP3 RETURNDATACOPY RETURNDATASIZE SWAP1 REVERT JUMPDEST CALLVALUE PUSH2 0x1B9 JUMPI PUSH1 0x20 CALLDATASIZE PUSH1 0x3 NOT ADD SLT PUSH2 0x1B9 JUMPI PUSH1 0x4 CALLDATALOAD CALLER PUSH1 0x0 MSTORE PUSH1 0x4 PUSH1 0x20 MSTORE PUSH1 0xFF PUSH1 0x40 PUSH1 0x0 KECCAK256 SLOAD AND ISZERO PUSH2 0x2D6 JUMPI PUSH1 0x40 PUSH32 0x71BC2D9C4B3B5472E9AFA8B00D83565C247798DBE5402735F27D074E8C8FDBD3 SWAP2 PUSH1 0x2 SLOAD SWAP1 DUP1 PUSH1 0x2 SSTORE DUP3 MLOAD SWAP2 DUP3 MSTORE PUSH1 0x20 DUP3 ADD MSTORE LOG1 STOP JUMPDEST PUSH1 0x40 MLOAD PUSH4 0x90C7C071 PUSH1 0xE0 SHL DUP2 MSTORE PUSH1 0x4 SWAP1 REVERT JUMPDEST CALLVALUE PUSH2 0x1B9 JUMPI PUSH1 0x60 CALLDATASIZE PUSH1 0x3 NOT ADD SLT PUSH2 0x1B9 JUMPI PUSH1 0x64 PUSH1 0x20 PUSH2 0x305 PUSH2 0x18A9 JUMP JUMPDEST PUSH1 0x40 MLOAD PUSH4 0x1DC757C7 PUSH1 0xE3 SHL DUP2 MSTORE PUSH1 0x1 PUSH1 0x1 PUSH1 0xA0 SHL SUB SWAP2 DUP3 AND PUSH1 0x4 DUP3 ADD MSTORE PUSH1 0x24 DUP1 CALLDATALOAD SWAP1 DUP3 ADD MSTORE PUSH1 0x44 DUP1 CALLDATALOAD SWAP1 DUP3 ADD MSTORE SWAP3 DUP4 SWAP2 DUP3 SWAP1 PUSH32 0x0 AND GAS STATICCALL DUP1 ISZERO PUSH2 0x266 JUMPI PUSH1 0x0 SWAP1 PUSH2 0x374 JUMPI JUMPDEST PUSH1 0x20 SWAP1 PUSH1 0x40 MLOAD SWAP1 DUP2 MSTORE RETURN JUMPDEST POP PUSH1 0x20 DUP2 RETURNDATASIZE DUP3 GT PUSH2 0x39E JUMPI JUMPDEST DUP2 PUSH2 0x38D PUSH1 0x20 SWAP4 DUP4 PUSH2 0x19BC JUMP JUMPDEST DUP2 ADD SUB SLT PUSH2 0x1B9 JUMPI PUSH1 0x20 SWAP1 MLOAD PUSH2 0x369 JUMP JUMPDEST RETURNDATASIZE SWAP2 POP PUSH2 0x380 JUMP JUMPDEST CALLVALUE PUSH2 0x1B9 JUMPI PUSH1 0x20 CALLDATASIZE PUSH1 0x3 NOT ADD SLT PUSH2 0x1B9 JUMPI PUSH2 0x3BF PUSH2 0x18A9 JUMP JUMPDEST CALLER PUSH1 0x0 MSTORE PUSH1 0x4 PUSH1 0x20 MSTORE PUSH1 0xFF PUSH1 0x40 PUSH1 0x0 KECCAK256 SLOAD AND ISZERO PUSH2 0x2D6 JUMPI PUSH1 0x1 PUSH1 0x1 PUSH1 0xA0 SHL SUB SWAP1 DUP2 AND SWAP1 DUP2 ISZERO PUSH2 0x42A JUMPI PUSH1 0x0 SLOAD DUP3 PUSH12 0xFFFFFFFFFFFFFFFFFFFFFFFF PUSH1 0xA0 SHL DUP3 AND OR PUSH1 0x0 SSTORE AND PUSH32 0xAAEBCF1BFA00580E41D966056B48521FA9F202645C86D4DDF28113E617C1B1D3 PUSH1 0x0 DUP1 LOG3 STOP JUMPDEST PUSH1 0x40 MLOAD PUSH4 0xE4799D2B PUSH1 0xE0 SHL DUP2 MSTORE PUSH1 0x4 SWAP1 REVERT JUMPDEST PUSH1 0xA0 CALLDATASIZE PUSH1 0x3 NOT ADD SLT PUSH2 0x1B9 JUMPI PUSH2 0x450 PUSH2 0x18A9 JUMP JUMPDEST PUSH8 0xFFFFFFFFFFFFFFFF SWAP1 PUSH1 0x24 CALLDATALOAD DUP3 DUP2 GT PUSH2 0x1B9 JUMPI PUSH2 0x472 SWAP1 CALLDATASIZE SWAP1 PUSH1 0x4 ADD PUSH2 0x18DC JUMP JUMPDEST SWAP2 PUSH1 0x44 CALLDATALOAD DUP5 DUP2 GT PUSH2 0x1B9 JUMPI PUSH2 0x48B SWAP1 CALLDATASIZE SWAP1 PUSH1 0x4 ADD PUSH2 0x18DC JUMP JUMPDEST SWAP4 SWAP1 PUSH1 0x64 CALLDATALOAD DUP7 DUP2 GT PUSH2 0x1B9 JUMPI PUSH2 0x4A5 SWAP1 CALLDATASIZE SWAP1 PUSH1 0x4 ADD PUSH2 0x18DC JUMP JUMPDEST SWAP6 SWAP1 SWAP4 PUSH1 0x84 CALLDATALOAD DUP9 DUP2 GT PUSH2 0x1B9 JUMPI PUSH2 0x4C0 SWAP1 CALLDATASIZE SWAP1 PUSH1 0x4 ADD PUSH2 0x18DC JUMP JUMPDEST DUP4 DUP7 EQ DUP1 ISZERO SWAP1 PUSH2 0x795 JUMPI JUMPDEST DUP1 ISZERO PUSH2 0x78B JUMPI JUMPDEST PUSH2 0x779 JUMPI PUSH2 0x4E0 DUP10 DUP9 PUSH2 0x1BF8 JUMP JUMPDEST SWAP7 PUSH2 0x506 PUSH2 0x4F0 DUP9 PUSH1 0x2 SLOAD PUSH2 0x197C JUMP JUMPDEST PUSH2 0x2710 PUSH2 0x4FF PUSH1 0x3 SLOAD DUP13 PUSH2 0x197C JUMP JUMPDEST DIV SWAP1 PUSH2 0x19AF JUMP JUMPDEST SWAP10 PUSH2 0x511 DUP12 DUP11 PUSH2 0x19AF JUMP JUMPDEST CALLVALUE LT PUSH2 0x767 JUMPI PUSH2 0x520 DUP12 PUSH2 0x1B95 JUMP JUMPDEST PUSH1 0x40 MLOAD SWAP11 DUP1 DUP13 MSTORE PUSH1 0x20 SWAP12 DUP13 DUP2 ADD PUSH1 0x40 SWAP1 MSTORE CALLER SWAP1 DUP1 PUSH1 0x40 DUP2 ADD PUSH2 0x55C SWAP1 PUSH1 0x40 SWAP1 PUSH1 0xC DUP2 MSTORE PUSH12 0xC8CAE0DEE6D2E884C2E8C6D PUSH1 0xA3 SHL PUSH1 0x20 DUP3 ADD MSTORE ADD SWAP1 JUMP JUMPDEST SUB PUSH1 0x0 DUP1 MLOAD PUSH1 0x20 PUSH2 0x1C37 DUP4 CODECOPY DUP2 MLOAD SWAP2 MSTORE SWAP2 LOG2 PUSH1 0x40 MLOAD PUSH1 0x80 DUP1 DUP3 MSTORE PUSH1 0xC SWAP1 DUP3 ADD MSTORE PUSH12 0xC8CAE0DEE6D2E884C2E8C6D PUSH1 0xA3 SHL PUSH1 0xA0 DUP3 ADD MSTORE PUSH1 0xC0 DUP2 ADD SWAP2 DUP14 DUP3 ADD MSTORE DUP11 PUSH1 0x40 DUP3 ADD MSTORE CALLVALUE PUSH1 0x60 DUP3 ADD MSTORE DUP1 CALLER SWAP3 SUB PUSH1 0x0 DUP1 MLOAD PUSH1 0x20 PUSH2 0x1C57 DUP4 CODECOPY DUP2 MLOAD SWAP2 MSTORE SWAP2 LOG2 PUSH1 0x40 MLOAD PUSH4 0x6F54A11D PUSH1 0xE1 SHL DUP2 MSTORE PUSH1 0x1 PUSH1 0x1 PUSH1 0xA0 SHL SUB SWAP6 DUP7 AND PUSH1 0x4 DUP3 ADD MSTORE PUSH1 0xA0 PUSH1 0x24 DUP3 ADD MSTORE SWAP10 DUP11 SWAP9 SWAP6 SWAP8 DUP10 SWAP8 DUP9 SWAP8 SWAP2 SWAP3 SWAP1 SWAP2 PUSH2 0x5FB SWAP2 PUSH1 0xA4 DUP11 ADD SWAP2 SWAP1 PUSH2 0x1B01 JUMP JUMPDEST SWAP1 PUSH1 0x3 NOT DUP9 DUP4 SUB ADD PUSH1 0x44 DUP10 ADD MSTORE PUSH2 0x611 SWAP3 PUSH2 0x1B01 JUMP JUMPDEST SWAP1 PUSH1 0x3 NOT DUP7 DUP4 SUB ADD PUSH1 0x64 DUP8 ADD MSTORE PUSH2 0x627 SWAP3 PUSH2 0x1B01 JUMP JUMPDEST SWAP1 PUSH1 0x3 NOT DUP5 DUP4 SUB ADD PUSH1 0x84 DUP6 ADD MSTORE PUSH2 0x63D SWAP3 PUSH2 0x1B01 JUMP JUMPDEST SUB SWAP2 PUSH32 0x0 AND SWAP4 GAS SWAP5 PUSH1 0x0 SWAP6 CALL SWAP3 DUP4 ISZERO PUSH2 0x266 JUMPI PUSH1 0x0 SWAP4 PUSH2 0x6DA JUMPI JUMPDEST POP POP PUSH1 0x0 DUP1 MLOAD PUSH1 0x20 PUSH2 0x1C77 DUP4 CODECOPY DUP2 MLOAD SWAP2 MSTORE DUP3 MLOAD PUSH1 0x40 MLOAD DUP1 SWAP2 PUSH1 0x40 DUP3 MSTORE PUSH2 0x6BA PUSH1 0x40 DUP4 ADD PUSH1 0x40 SWAP1 PUSH1 0xC DUP2 MSTORE PUSH12 0xC8CAE0DEE6D2E884C2E8C6D PUSH1 0xA3 SHL PUSH1 0x20 DUP3 ADD MSTORE ADD SWAP1 JUMP JUMPDEST SWAP1 DUP6 DUP4 ADD MSTORE SUB SWAP1 LOG1 PUSH2 0x6D6 PUSH1 0x40 MLOAD SWAP3 DUP3 DUP5 SWAP4 DUP5 MSTORE DUP4 ADD SWAP1 PUSH2 0x1948 JUMP JUMPDEST SUB SWAP1 RETURN JUMPDEST SWAP1 SWAP2 SWAP3 POP RETURNDATASIZE DUP1 PUSH1 0x0 DUP5 RETURNDATACOPY PUSH2 0x6EE DUP2 DUP5 PUSH2 0x19BC JUMP JUMPDEST DUP3 ADD SWAP2 DUP4 DUP2 DUP5 SUB SLT PUSH2 0x1B9 JUMPI DUP1 MLOAD SWAP2 DUP3 GT PUSH2 0x1B9 JUMPI ADD SWAP1 DUP1 PUSH1 0x1F DUP4 ADD SLT ISZERO PUSH2 0x1B9 JUMPI DUP2 MLOAD SWAP2 PUSH2 0x71C DUP4 PUSH2 0x19F4 JUMP JUMPDEST SWAP3 PUSH2 0x72A PUSH1 0x40 MLOAD SWAP5 DUP6 PUSH2 0x19BC JUMP JUMPDEST DUP1 DUP5 MSTORE DUP5 DUP1 DUP6 ADD SWAP2 PUSH1 0x5 SHL DUP4 ADD ADD SWAP3 DUP4 GT PUSH2 0x1B9 JUMPI DUP5 DUP1 SWAP3 ADD SWAP1 JUMPDEST DUP4 DUP3 LT PUSH2 0x758 JUMPI POP POP POP POP SWAP1 DUP3 DUP1 PUSH2 0x677 JUMP JUMPDEST DUP2 MLOAD DUP2 MSTORE SWAP1 DUP3 ADD SWAP1 DUP3 ADD PUSH2 0x745 JUMP JUMPDEST PUSH1 0x40 MLOAD PUSH4 0x39E57743 PUSH1 0xE0 SHL DUP2 MSTORE PUSH1 0x4 SWAP1 REVERT JUMPDEST PUSH1 0x40 MLOAD PUSH4 0xA9087E4B PUSH1 0xE0 SHL DUP2 MSTORE PUSH1 0x4 SWAP1 REVERT JUMPDEST POP DUP1 DUP10 EQ ISZERO PUSH2 0x4D2 JUMP JUMPDEST POP DUP9 DUP5 EQ ISZERO PUSH2 0x4CB JUMP JUMPDEST PUSH2 0x18BF JUMP JUMPDEST CALLVALUE PUSH2 0x1B9 JUMPI PUSH1 0x20 CALLDATASIZE PUSH1 0x3 NOT ADD SLT PUSH2 0x1B9 JUMPI PUSH1 0x20 PUSH2 0x7C5 PUSH1 0x4 CALLDATALOAD PUSH1 0x1 SLOAD PUSH2 0x197C JUMP JUMPDEST PUSH1 0x40 MLOAD SWAP1 DUP2 MSTORE RETURN JUMPDEST CALLVALUE PUSH2 0x1B9 JUMPI PUSH1 0x20 CALLDATASIZE PUSH1 0x3 NOT ADD SLT PUSH2 0x1B9 JUMPI PUSH1 0x40 MLOAD PUSH4 0xC12F7947 PUSH1 0xE0 SHL DUP2 MSTORE PUSH1 0x4 DUP1 CALLDATALOAD SWAP1 DUP3 ADD MSTORE PUSH1 0x60 DUP2 PUSH1 0x24 DUP2 PUSH32 0x0 PUSH1 0x1 PUSH1 0x1 PUSH1 0xA0 SHL SUB AND GAS STATICCALL DUP1 ISZERO PUSH2 0x266 JUMPI PUSH1 0x0 SWAP1 PUSH1 0x0 SWAP3 PUSH1 0x0 SWAP2 PUSH2 0x85B JUMPI JUMPDEST POP PUSH2 0x6D6 SWAP1 PUSH1 0x40 MLOAD SWAP4 DUP5 SWAP4 DUP5 PUSH1 0x40 SWAP2 SWAP5 SWAP4 SWAP3 PUSH1 0x60 DUP3 ADD SWAP6 DUP3 MSTORE PUSH1 0x20 DUP3 ADD MSTORE ADD MSTORE JUMP JUMPDEST SWAP3 POP POP POP PUSH1 0x60 DUP2 RETURNDATASIZE DUP3 GT PUSH2 0x894 JUMPI JUMPDEST DUP2 PUSH2 0x877 PUSH1 0x60 SWAP4 DUP4 PUSH2 0x19BC JUMP JUMPDEST DUP2 ADD SUB SLT PUSH2 0x1B9 JUMPI DUP1 MLOAD PUSH1 0x20 DUP3 ADD MLOAD PUSH1 0x40 SWAP1 SWAP3 ADD MLOAD PUSH2 0x6D6 PUSH2 0x839 JUMP JUMPDEST RETURNDATASIZE SWAP2 POP PUSH2 0x86A JUMP JUMPDEST PUSH1 0xC0 CALLDATASIZE PUSH1 0x3 NOT ADD SLT PUSH2 0x1B9 JUMPI PUSH2 0x8B0 PUSH2 0x18A9 JUMP JUMPDEST PUSH8 0xFFFFFFFFFFFFFFFF SWAP1 PUSH1 0x24 CALLDATALOAD DUP3 DUP2 GT PUSH2 0x1B9 JUMPI PUSH2 0x8D2 SWAP1 CALLDATASIZE SWAP1 PUSH1 0x4 ADD PUSH2 0x18DC JUMP JUMPDEST SWAP3 SWAP1 SWAP2 PUSH1 0x44 CALLDATALOAD DUP3 DUP2 GT PUSH2 0x1B9 JUMPI PUSH2 0x8ED SWAP1 CALLDATASIZE SWAP1 PUSH1 0x4 ADD PUSH2 0x18DC JUMP JUMPDEST PUSH1 0x64 SWAP5 SWAP2 SWAP5 CALLDATALOAD DUP5 DUP2 GT PUSH2 0x1B9 JUMPI PUSH2 0x908 SWAP1 CALLDATASIZE SWAP1 PUSH1 0x4 ADD PUSH2 0x18DC JUMP JUMPDEST SWAP2 SWAP1 SWAP5 PUSH1 0x84 CALLDATALOAD SWAP1 DUP2 GT PUSH2 0x1B9 JUMPI PUSH2 0x923 SWAP1 CALLDATASIZE SWAP1 PUSH1 0x4 ADD PUSH2 0x18DC JUMP JUMPDEST SWAP4 SWAP1 SWAP6 DUP3 DUP10 EQ DUP1 ISZERO SWAP1 PUSH2 0xCED JUMPI JUMPDEST DUP1 ISZERO PUSH2 0xCE3 JUMPI JUMPDEST PUSH2 0x779 JUMPI PUSH2 0x948 DUP10 PUSH1 0x1 SLOAD PUSH2 0x197C JUMP JUMPDEST PUSH1 0x40 MLOAD PUSH4 0x3597247 PUSH1 0xE2 SHL DUP2 MSTORE SWAP2 SWAP1 PUSH1 0x20 DUP4 PUSH1 0x4 DUP2 PUSH32 0x0 PUSH1 0x1 PUSH1 0x1 PUSH1 0xA0 SHL SUB AND GAS STATICCALL SWAP3 DUP4 ISZERO PUSH2 0x266 JUMPI PUSH1 0x0 SWAP4 PUSH2 0xCAF JUMPI JUMPDEST POP PUSH2 0x9B5 PUSH2 0x9A6 DUP9 DUP12 PUSH2 0x1BF8 JUMP JUMPDEST PUSH2 0x9B0 DUP14 DUP7 PUSH2 0x197C JUMP JUMPDEST PUSH2 0x19AF JUMP JUMPDEST PUSH2 0x9BF DUP2 DUP4 PUSH2 0x19AF JUMP JUMPDEST CALLVALUE LT PUSH2 0x767 JUMPI PUSH1 0x0 DUP1 MLOAD PUSH1 0x20 PUSH2 0x1C57 DUP4 CODECOPY DUP2 MLOAD SWAP2 MSTORE SWAP1 PUSH2 0x9DE DUP4 PUSH2 0x1B95 JUMP JUMPDEST PUSH1 0x40 MLOAD DUP4 DUP2 MSTORE PUSH1 0x40 PUSH1 0x20 DUP3 ADD MSTORE PUSH1 0x0 DUP1 MLOAD PUSH1 0x20 PUSH2 0x1C37 DUP4 CODECOPY DUP2 MLOAD SWAP2 MSTORE CALLER SWAP2 DUP1 PUSH2 0xA25 PUSH1 0x40 DUP3 ADD PUSH1 0x40 SWAP1 PUSH1 0xD DUP2 MSTORE PUSH13 0x637265617465547269706C6573 PUSH1 0x98 SHL PUSH1 0x20 DUP3 ADD MSTORE ADD SWAP1 JUMP JUMPDEST SUB SWAP1 LOG2 PUSH1 0x40 DUP1 MLOAD PUSH1 0x80 DUP1 DUP3 MSTORE PUSH1 0xD SWAP1 DUP3 ADD MSTORE PUSH13 0x637265617465547269706C6573 PUSH1 0x98 SHL PUSH1 0xA0 DUP3 ADD MSTORE PUSH1 0x20 DUP2 ADD SWAP5 SWAP1 SWAP5 MSTORE DUP4 ADD MSTORE CALLVALUE PUSH1 0x60 DUP4 ADD MSTORE CALLER SWAP2 PUSH1 0xC0 SWAP1 LOG2 PUSH2 0xA6D DUP11 PUSH2 0x1A0C JUMP JUMPDEST SWAP2 DUP11 PUSH1 0x0 JUMPDEST DUP2 DUP2 LT PUSH2 0xC92 JUMPI POP PUSH2 0xA83 SWAP2 PUSH2 0x197C JUMP JUMPDEST SWAP5 PUSH1 0x40 MLOAD SWAP10 DUP11 SWAP6 DUP7 SWAP6 PUSH4 0x3C6BBF45 PUSH1 0xE0 SHL DUP8 MSTORE PUSH1 0x4 DUP8 ADD PUSH1 0x80 SWAP1 MSTORE DUP14 PUSH1 0x84 DUP9 ADD SWAP1 PUSH2 0xAAD SWAP3 PUSH2 0x1B01 JUMP JUMPDEST SWAP1 PUSH1 0x3 NOT DUP8 DUP4 SUB ADD PUSH1 0x24 DUP9 ADD MSTORE PUSH2 0xAC3 SWAP3 PUSH2 0x1B01 JUMP JUMPDEST SWAP1 PUSH1 0x3 NOT DUP6 DUP4 SUB ADD PUSH1 0x44 DUP7 ADD MSTORE PUSH2 0xAD9 SWAP3 PUSH2 0x1B01 JUMP JUMPDEST DUP3 DUP2 SUB PUSH1 0x3 NOT ADD PUSH1 0x64 DUP5 ADD MSTORE PUSH2 0xAEE SWAP2 PUSH2 0x1948 JUMP JUMPDEST PUSH32 0x0 PUSH1 0x1 PUSH1 0x1 PUSH1 0xA0 SHL SUB AND SWAP4 SWAP2 SWAP1 SUB SWAP1 DUP3 SWAP1 GAS SWAP5 PUSH1 0x0 SWAP6 CALL SWAP4 DUP5 ISZERO PUSH2 0x266 JUMPI PUSH1 0x0 SWAP5 PUSH2 0xC6D JUMPI JUMPDEST POP PUSH1 0x0 JUMPDEST DUP6 DUP2 LT PUSH2 0xB99 JUMPI PUSH2 0x6D6 DUP6 PUSH1 0x0 DUP1 MLOAD PUSH1 0x20 PUSH2 0x1C77 DUP4 CODECOPY DUP2 MLOAD SWAP2 MSTORE DUP9 PUSH1 0x40 MLOAD DUP1 SWAP2 PUSH1 0x40 DUP3 MSTORE PUSH2 0xB84 PUSH1 0x40 DUP4 ADD PUSH1 0x40 SWAP1 PUSH1 0xD DUP2 MSTORE PUSH13 0x637265617465547269706C6573 PUSH1 0x98 SHL PUSH1 0x20 DUP3 ADD MSTORE ADD SWAP1 JUMP JUMPDEST SWAP1 PUSH1 0x20 DUP4 ADD MSTORE SUB SWAP1 LOG1 PUSH1 0x40 MLOAD SWAP2 DUP3 SWAP2 DUP3 PUSH2 0x190D JUMP JUMPDEST PUSH2 0xBA4 DUP2 DUP4 DUP7 PUSH2 0x1AF1 JUMP JUMPDEST CALLDATALOAD PUSH2 0xBB8 JUMPI JUMPDEST PUSH2 0xBB3 SWAP1 PUSH2 0x1A3E JUMP JUMPDEST PUSH2 0xB38 JUMP JUMPDEST PUSH2 0xBC3 DUP2 DUP4 DUP7 PUSH2 0x1AF1 JUMP JUMPDEST CALLDATALOAD PUSH1 0x20 PUSH2 0xBD0 DUP4 DUP9 PUSH2 0x1A4D JUMP JUMPDEST MLOAD PUSH1 0x40 MLOAD PUSH4 0x2FB1D27 PUSH1 0xE4 SHL DUP2 MSTORE PUSH1 0x1 PUSH1 0x1 PUSH1 0xA0 SHL SUB DUP8 DUP2 AND PUSH1 0x4 DUP4 ADD MSTORE PUSH1 0x24 DUP3 ADD SWAP3 SWAP1 SWAP3 MSTORE PUSH1 0xA4 CALLDATALOAD PUSH1 0x44 DUP3 ADD MSTORE PUSH1 0x0 PUSH1 0x64 DUP3 ADD MSTORE SWAP3 DUP4 SWAP2 PUSH1 0x84 SWAP2 DUP4 SWAP2 PUSH32 0x0 AND GAS CALL DUP1 ISZERO PUSH2 0x266 JUMPI PUSH2 0xC42 JUMPI JUMPDEST POP PUSH2 0xBAA JUMP JUMPDEST PUSH1 0x20 SWAP1 DUP2 RETURNDATASIZE DUP4 GT PUSH2 0xC66 JUMPI JUMPDEST PUSH2 0xC58 DUP2 DUP4 PUSH2 0x19BC JUMP JUMPDEST DUP2 ADD SUB SLT PUSH2 0x1B9 JUMPI DUP7 PUSH2 0xC3C JUMP JUMPDEST POP RETURNDATASIZE PUSH2 0xC4E JUMP JUMPDEST PUSH2 0xC8B SWAP2 SWAP5 POP RETURNDATASIZE DUP1 PUSH1 0x0 DUP4 RETURNDATACOPY PUSH2 0xC83 DUP2 DUP4 PUSH2 0x19BC JUMP JUMPDEST DUP2 ADD SWAP1 PUSH2 0x1A77 JUMP JUMPDEST SWAP3 DUP6 PUSH2 0xB34 JUMP JUMPDEST PUSH2 0xCA8 SWAP2 POP DUP3 PUSH2 0xCA2 DUP3 DUP8 PUSH2 0x1A4D JUMP JUMPDEST MSTORE PUSH2 0x1A3E JUMP JUMPDEST DUP12 SWAP1 PUSH2 0xA72 JUMP JUMPDEST SWAP1 SWAP3 POP PUSH1 0x20 DUP2 RETURNDATASIZE PUSH1 0x20 GT PUSH2 0xCDB JUMPI JUMPDEST DUP2 PUSH2 0xCCB PUSH1 0x20 SWAP4 DUP4 PUSH2 0x19BC JUMP JUMPDEST DUP2 ADD SUB SLT PUSH2 0x1B9 JUMPI MLOAD SWAP2 DUP12 PUSH2 0x998 JUMP JUMPDEST RETURNDATASIZE SWAP2 POP PUSH2 0xCBE JUMP JUMPDEST POP DUP5 DUP5 EQ ISZERO PUSH2 0x938 JUMP JUMPDEST POP DUP4 DUP4 EQ ISZERO PUSH2 0x931 JUMP JUMPDEST CALLVALUE PUSH2 0x1B9 JUMPI PUSH1 0x20 CALLDATASIZE PUSH1 0x3 NOT ADD SLT PUSH2 0x1B9 JUMPI PUSH1 0x1 PUSH1 0x1 PUSH1 0xA0 SHL SUB PUSH2 0xD18 PUSH2 0x18A9 JUMP JUMPDEST AND PUSH1 0x0 MSTORE PUSH1 0x4 PUSH1 0x20 MSTORE PUSH1 0x20 PUSH1 0xFF PUSH1 0x40 PUSH1 0x0 KECCAK256 SLOAD AND PUSH1 0x40 MLOAD SWAP1 ISZERO ISZERO DUP2 MSTORE RETURN JUMPDEST CALLVALUE PUSH2 0x1B9 JUMPI PUSH1 0x20 CALLDATASIZE PUSH1 0x3 NOT ADD SLT PUSH2 0x1B9 JUMPI PUSH1 0x4 CALLDATALOAD CALLER PUSH1 0x0 MSTORE PUSH1 0x4 PUSH1 0x20 MSTORE PUSH1 0xFF PUSH1 0x40 PUSH1 0x0 KECCAK256 SLOAD AND ISZERO PUSH2 0x2D6 JUMPI PUSH1 0x40 PUSH32 0x5FCB23AFB0FB7986C3F826699011CF4D5126FD38C3105AD6F16690B2BD16D28 SWAP2 PUSH1 0x1 SLOAD SWAP1 DUP1 PUSH1 0x1 SSTORE DUP3 MLOAD SWAP2 DUP3 MSTORE PUSH1 0x20 DUP3 ADD MSTORE LOG1 STOP JUMPDEST PUSH1 0x80 CALLDATASIZE PUSH1 0x3 NOT ADD SLT PUSH2 0x1B9 JUMPI PUSH2 0xDAE PUSH2 0x18A9 JUMP JUMPDEST PUSH1 0x24 CALLDATALOAD PUSH8 0xFFFFFFFFFFFFFFFF DUP2 GT PUSH2 0x1B9 JUMPI PUSH2 0xDCE SWAP1 CALLDATASIZE SWAP1 PUSH1 0x4 ADD PUSH2 0x18DC JUMP JUMPDEST SWAP2 PUSH1 0x44 CALLDATALOAD PUSH8 0xFFFFFFFFFFFFFFFF DUP2 GT PUSH2 0x1B9 JUMPI PUSH2 0xDEF SWAP1 CALLDATASIZE SWAP1 PUSH1 0x4 ADD PUSH2 0x18DC JUMP JUMPDEST DUP1 DUP6 SWAP4 SWAP3 SWAP4 SUB PUSH2 0x779 JUMPI PUSH2 0xE05 DUP6 PUSH1 0x1 SLOAD PUSH2 0x197C JUMP JUMPDEST PUSH1 0x40 MLOAD PUSH4 0x33332D39 PUSH1 0xE0 SHL DUP2 MSTORE SWAP5 SWAP1 PUSH1 0x20 DUP7 PUSH1 0x4 DUP2 PUSH32 0x0 PUSH1 0x1 PUSH1 0x1 PUSH1 0xA0 SHL SUB AND GAS STATICCALL SWAP6 DUP7 ISZERO PUSH2 0x266 JUMPI PUSH1 0x0 SWAP7 PUSH2 0x11A5 JUMPI JUMPDEST POP PUSH2 0xE6D PUSH2 0xE63 DUP5 DUP8 PUSH2 0x1BF8 JUMP JUMPDEST PUSH2 0x9B0 DUP10 DUP10 PUSH2 0x197C JUMP JUMPDEST PUSH2 0xE77 DUP2 DUP4 PUSH2 0x19AF JUMP JUMPDEST CALLVALUE LT PUSH2 0x767 JUMPI PUSH1 0x0 DUP1 MLOAD PUSH1 0x20 PUSH2 0x1C57 DUP4 CODECOPY DUP2 MLOAD SWAP2 MSTORE SWAP1 PUSH2 0xE99 DUP4 SWAP9 SWAP5 SWAP9 PUSH2 0x1B95 JUMP JUMPDEST PUSH1 0x40 MLOAD DUP4 DUP2 MSTORE PUSH1 0x40 PUSH1 0x20 DUP3 ADD MSTORE PUSH1 0x0 DUP1 MLOAD PUSH1 0x20 PUSH2 0x1C37 DUP4 CODECOPY DUP2 MLOAD SWAP2 MSTORE CALLER SWAP2 DUP1 PUSH2 0xEDE PUSH1 0x40 DUP3 ADD PUSH1 0x40 SWAP1 PUSH1 0xB DUP2 MSTORE PUSH11 0x63726561746541746F6D73 PUSH1 0xA8 SHL PUSH1 0x20 DUP3 ADD MSTORE ADD SWAP1 JUMP JUMPDEST SUB SWAP1 LOG2 PUSH1 0x40 DUP1 MLOAD PUSH1 0x80 DUP1 DUP3 MSTORE PUSH1 0xB SWAP1 DUP3 ADD MSTORE PUSH11 0x63726561746541746F6D73 PUSH1 0xA8 SHL PUSH1 0xA0 DUP3 ADD MSTORE PUSH1 0x20 DUP2 ADD SWAP5 SWAP1 SWAP5 MSTORE DUP4 ADD MSTORE CALLVALUE PUSH1 0x60 DUP4 ADD MSTORE CALLER SWAP2 PUSH1 0xC0 SWAP1 LOG2 DUP6 PUSH2 0xF25 DUP2 PUSH2 0x1A0C JUMP JUMPDEST SWAP2 PUSH1 0x0 JUMPDEST DUP3 DUP2 LT PUSH2 0x1187 JUMPI POP SWAP1 PUSH2 0xF3B SWAP2 PUSH2 0x197C JUMP JUMPDEST SWAP1 PUSH1 0x40 MLOAD SWAP6 DUP7 SWAP2 PUSH4 0x61403309 PUSH1 0xE0 SHL DUP4 MSTORE DUP9 PUSH1 0x44 DUP5 ADD PUSH1 0x40 PUSH1 0x4 DUP7 ADD MSTORE MSTORE PUSH1 0x64 DUP4 ADD SWAP2 PUSH1 0x64 DUP11 PUSH1 0x5 SHL DUP6 ADD ADD SWAP3 DUP2 PUSH1 0x0 JUMPDEST DUP13 DUP2 LT PUSH2 0x110E JUMPI POP POP POP POP DUP3 PUSH2 0xF92 PUSH1 0x0 SWAP6 SWAP4 DUP3 SWAP4 PUSH1 0x3 NOT DUP5 DUP4 SUB ADD PUSH1 0x24 DUP6 ADD MSTORE PUSH2 0x1948 JUMP JUMPDEST SUB SWAP2 PUSH32 0x0 PUSH1 0x1 PUSH1 0x1 PUSH1 0xA0 SHL SUB AND GAS CALL SWAP4 DUP5 ISZERO PUSH2 0x266 JUMPI PUSH1 0x0 SWAP5 PUSH2 0x10F1 JUMPI JUMPDEST POP PUSH1 0x0 JUMPDEST DUP6 DUP2 LT PUSH2 0x101D JUMPI PUSH2 0x6D6 DUP6 PUSH1 0x0 DUP1 MLOAD PUSH1 0x20 PUSH2 0x1C77 DUP4 CODECOPY DUP2 MLOAD SWAP2 MSTORE DUP9 PUSH1 0x40 MLOAD DUP1 SWAP2 PUSH1 0x40 DUP3 MSTORE PUSH2 0xB84 PUSH1 0x40 DUP4 ADD PUSH1 0x40 SWAP1 PUSH1 0xB DUP2 MSTORE PUSH11 0x63726561746541746F6D73 PUSH1 0xA8 SHL PUSH1 0x20 DUP3 ADD MSTORE ADD SWAP1 JUMP JUMPDEST PUSH2 0x1028 DUP2 DUP4 DUP7 PUSH2 0x1AF1 JUMP JUMPDEST CALLDATALOAD PUSH2 0x103C JUMPI JUMPDEST PUSH2 0x1037 SWAP1 PUSH2 0x1A3E JUMP JUMPDEST PUSH2 0xFD3 JUMP JUMPDEST PUSH2 0x1047 DUP2 DUP4 DUP7 PUSH2 0x1AF1 JUMP JUMPDEST CALLDATALOAD PUSH1 0x20 PUSH2 0x1054 DUP4 DUP9 PUSH2 0x1A4D JUMP JUMPDEST MLOAD PUSH1 0x40 MLOAD PUSH4 0x2FB1D27 PUSH1 0xE4 SHL DUP2 MSTORE PUSH1 0x1 PUSH1 0x1 PUSH1 0xA0 SHL SUB DUP8 DUP2 AND PUSH1 0x4 DUP4 ADD MSTORE PUSH1 0x24 DUP3 ADD SWAP3 SWAP1 SWAP3 MSTORE PUSH1 0x64 DUP1 CALLDATALOAD PUSH1 0x44 DUP4 ADD MSTORE PUSH1 0x0 SWAP1 DUP3 ADD MSTORE SWAP3 DUP4 SWAP2 PUSH1 0x84 SWAP2 DUP4 SWAP2 PUSH32 0x0 AND GAS CALL DUP1 ISZERO PUSH2 0x266 JUMPI PUSH2 0x10C6 JUMPI JUMPDEST POP PUSH2 0x102E JUMP JUMPDEST PUSH1 0x20 SWAP1 DUP2 RETURNDATASIZE DUP4 GT PUSH2 0x10EA JUMPI JUMPDEST PUSH2 0x10DC DUP2 DUP4 PUSH2 0x19BC JUMP JUMPDEST DUP2 ADD SUB SLT PUSH2 0x1B9 JUMPI DUP7 PUSH2 0x10C0 JUMP JUMPDEST POP RETURNDATASIZE PUSH2 0x10D2 JUMP JUMPDEST PUSH2 0x1107 SWAP2 SWAP5 POP RETURNDATASIZE DUP1 PUSH1 0x0 DUP4 RETURNDATACOPY PUSH2 0xC83 DUP2 DUP4 PUSH2 0x19BC JUMP JUMPDEST SWAP3 DUP6 PUSH2 0xFCF JUMP JUMPDEST SWAP2 SWAP4 SWAP5 SWAP1 SWAP3 SWAP6 POP PUSH1 0x63 NOT DUP12 DUP3 SUB ADD DUP5 MSTORE PUSH1 0x1E NOT DUP4 CALLDATASIZE SUB ADD DUP7 CALLDATALOAD SLT ISZERO PUSH2 0x1B9 JUMPI DUP3 DUP7 CALLDATALOAD ADD PUSH8 0xFFFFFFFFFFFFFFFF DUP2 CALLDATALOAD GT PUSH2 0x1B9 JUMPI DUP1 CALLDATALOAD CALLDATASIZE SUB PUSH1 0x20 DUP3 ADD SGT PUSH2 0x1B9 JUMPI PUSH1 0x20 DUP1 PUSH1 0x1 SWAP4 DUP4 DUP3 SWAP5 CALLDATALOAD DUP3 MSTORE DUP1 CALLDATALOAD DUP4 DUP3 ADD DUP5 DUP5 ADD CALLDATACOPY PUSH1 0x0 DUP4 DUP3 CALLDATALOAD DUP5 ADD ADD MSTORE PUSH1 0x1F DUP1 NOT SWAP2 CALLDATALOAD ADD AND ADD ADD SWAP8 ADD SWAP5 ADD SWAP2 ADD SWAP2 DUP11 SWAP6 SWAP5 SWAP4 SWAP3 PUSH2 0xF6C JUMP JUMPDEST DUP2 PUSH2 0x119A SWAP3 SWAP4 POP PUSH2 0xCA2 DUP3 DUP7 SWAP11 SWAP7 PUSH2 0x1A4D JUMP JUMPDEST SWAP1 DUP8 SWAP2 SWAP7 SWAP3 SWAP7 PUSH2 0xF29 JUMP JUMPDEST SWAP1 SWAP6 POP PUSH1 0x20 DUP2 RETURNDATASIZE PUSH1 0x20 GT PUSH2 0x11D1 JUMPI JUMPDEST DUP2 PUSH2 0x11C1 PUSH1 0x20 SWAP4 DUP4 PUSH2 0x19BC JUMP JUMPDEST DUP2 ADD SUB SLT PUSH2 0x1B9 JUMPI MLOAD SWAP5 DUP8 PUSH2 0xE55 JUMP JUMPDEST RETURNDATASIZE SWAP2 POP PUSH2 0x11B4 JUMP JUMPDEST CALLVALUE PUSH2 0x1B9 JUMPI PUSH1 0x60 CALLDATASIZE PUSH1 0x3 NOT ADD SLT PUSH2 0x1B9 JUMPI PUSH1 0x40 DUP1 MLOAD PUSH4 0x7D4EAA91 PUSH1 0xE0 SHL DUP2 MSTORE PUSH1 0x4 DUP1 CALLDATALOAD SWAP1 DUP3 ADD MSTORE PUSH1 0x24 DUP1 CALLDATALOAD SWAP1 DUP3 ADD MSTORE PUSH1 0x44 DUP1 CALLDATALOAD SWAP1 DUP3 ADD MSTORE SWAP1 DUP2 PUSH1 0x64 DUP2 PUSH32 0x0 PUSH1 0x1 PUSH1 0x1 PUSH1 0xA0 SHL SUB AND GAS STATICCALL DUP1 ISZERO PUSH2 0x266 JUMPI PUSH1 0x0 SWAP1 PUSH1 0x0 SWAP1 PUSH2 0x1262 JUMPI JUMPDEST PUSH1 0x40 DUP1 SWAP4 POP MLOAD SWAP2 DUP3 MSTORE PUSH1 0x20 DUP3 ADD MSTORE RETURN JUMPDEST POP POP PUSH1 0x40 DUP2 RETURNDATASIZE PUSH1 0x40 GT PUSH2 0x1294 JUMPI JUMPDEST DUP2 PUSH2 0x127D PUSH1 0x40 SWAP4 DUP4 PUSH2 0x19BC JUMP JUMPDEST DUP2 ADD SUB SLT PUSH2 0x1B9 JUMPI DUP1 PUSH1 0x20 PUSH1 0x40 SWAP3 MLOAD SWAP2 ADD MLOAD PUSH2 0x1252 JUMP JUMPDEST RETURNDATASIZE SWAP2 POP PUSH2 0x1270 JUMP JUMPDEST CALLVALUE PUSH2 0x1B9 JUMPI PUSH1 0x20 CALLDATASIZE PUSH1 0x3 NOT ADD SLT PUSH2 0x1B9 JUMPI PUSH1 0x20 PUSH2 0x7C5 PUSH1 0x4 CALLDATALOAD PUSH2 0x12D0 PUSH2 0x2710 PUSH2 0x12C7 PUSH1 0x3 SLOAD DUP5 PUSH2 0x197C JUMP JUMPDEST DIV PUSH1 0x2 SLOAD PUSH2 0x19AF JUMP JUMPDEST SWAP1 PUSH2 0x19AF JUMP JUMPDEST CALLVALUE PUSH2 0x1B9 JUMPI PUSH1 0x20 CALLDATASIZE PUSH1 0x3 NOT ADD SLT PUSH2 0x1B9 JUMPI PUSH1 0x20 PUSH2 0x7C5 PUSH1 0x4 CALLDATALOAD PUSH2 0x1B32 JUMP JUMPDEST CALLVALUE PUSH2 0x1B9 JUMPI PUSH1 0x20 CALLDATASIZE PUSH1 0x3 NOT ADD SLT PUSH2 0x1B9 JUMPI PUSH8 0xFFFFFFFFFFFFFFFF PUSH1 0x4 CALLDATALOAD DUP2 DUP2 GT PUSH2 0x1B9 JUMPI CALLDATASIZE PUSH1 0x23 DUP3 ADD SLT ISZERO PUSH2 0x1B9 JUMPI DUP1 PUSH1 0x4 ADD CALLDATALOAD SWAP2 DUP3 GT PUSH2 0x1B9 JUMPI CALLDATASIZE PUSH1 0x24 DUP4 DUP4 ADD ADD GT PUSH2 0x1B9 JUMPI DUP2 PUSH1 0x0 PUSH1 0x20 PUSH2 0x134A DUP2 SWAP6 PUSH2 0x1B79 JUMP JUMPDEST SWAP3 PUSH2 0x1358 PUSH1 0x40 MLOAD SWAP5 DUP6 PUSH2 0x19BC JUMP JUMPDEST DUP1 DUP5 MSTORE DUP1 PUSH1 0x24 DUP4 DUP7 ADD SWAP7 ADD DUP7 CALLDATACOPY DUP4 ADD ADD MSTORE MLOAD SWAP1 KECCAK256 PUSH1 0x40 MLOAD SWAP1 DUP2 MSTORE RETURN JUMPDEST CALLVALUE PUSH2 0x1B9 JUMPI PUSH1 0x0 CALLDATASIZE PUSH1 0x3 NOT ADD SLT PUSH2 0x1B9 JUMPI PUSH1 0x20 PUSH1 0x3 SLOAD PUSH1 0x40 MLOAD SWAP1 DUP2 MSTORE RETURN JUMPDEST CALLVALUE PUSH2 0x1B9 JUMPI PUSH1 0x20 CALLDATASIZE PUSH1 0x3 NOT ADD SLT PUSH2 0x1B9 JUMPI PUSH1 0x4 CALLDATALOAD CALLER PUSH1 0x0 MSTORE PUSH1 0x4 PUSH1 0x20 MSTORE PUSH1 0xFF PUSH1 0x40 PUSH1 0x0 KECCAK256 SLOAD AND ISZERO PUSH2 0x2D6 JUMPI PUSH2 0x2710 DUP2 GT PUSH2 0x13FF JUMPI PUSH1 0x40 PUSH32 0x941228A4ACE352CB2D85F4FC40701585A9BA154072A8794BFF7DB2BB61277734 SWAP2 PUSH1 0x3 SLOAD SWAP1 DUP1 PUSH1 0x3 SSTORE DUP3 MLOAD SWAP2 DUP3 MSTORE PUSH1 0x20 DUP3 ADD MSTORE LOG1 STOP JUMPDEST PUSH1 0x40 MLOAD PUSH4 0x5DFB18EB PUSH1 0xE0 SHL DUP2 MSTORE PUSH1 0x4 SWAP1 REVERT JUMPDEST CALLVALUE PUSH2 0x1B9 JUMPI PUSH1 0x0 CALLDATASIZE PUSH1 0x3 NOT ADD SLT PUSH2 0x1B9 JUMPI PUSH1 0x0 SLOAD PUSH1 0x40 MLOAD PUSH1 0x1 PUSH1 0x1 PUSH1 0xA0 SHL SUB SWAP1 SWAP2 AND DUP2 MSTORE PUSH1 0x20 SWAP1 RETURN JUMPDEST CALLVALUE PUSH2 0x1B9 JUMPI PUSH1 0x0 CALLDATASIZE PUSH1 0x3 NOT ADD SLT PUSH2 0x1B9 JUMPI PUSH1 0x40 MLOAD PUSH4 0x33332D39 PUSH1 0xE0 SHL DUP2 MSTORE PUSH1 0x20 DUP2 PUSH1 0x4 DUP2 PUSH32 0x0 PUSH1 0x1 PUSH1 0x1 PUSH1 0xA0 SHL SUB AND GAS STATICCALL DUP1 ISZERO PUSH2 0x266 JUMPI PUSH1 0x0 SWAP1 PUSH2 0x374 JUMPI PUSH1 0x20 SWAP1 PUSH1 0x40 MLOAD SWAP1 DUP2 MSTORE RETURN JUMPDEST PUSH1 0x80 CALLDATASIZE PUSH1 0x3 NOT ADD SLT PUSH2 0x1B9 JUMPI PUSH2 0x14B6 PUSH2 0x18A9 JUMP JUMPDEST PUSH1 0x2 SLOAD DUP1 CALLVALUE GT ISZERO PUSH2 0x767 JUMPI PUSH2 0x14CB SWAP1 CALLVALUE PUSH2 0x1B25 JUMP JUMPDEST PUSH2 0x2710 DUP1 DUP3 MUL SWAP2 DUP1 DUP4 DIV DUP3 EQ SWAP1 ISZERO OR ISZERO PUSH2 0x168A JUMPI PUSH1 0x3 SLOAD DUP2 ADD DUP1 SWAP2 GT PUSH2 0x168A JUMPI PUSH2 0x14F4 SWAP2 PUSH2 0x198F JUMP JUMPDEST SWAP1 PUSH2 0x14FF DUP3 CALLVALUE PUSH2 0x1B25 JUMP JUMPDEST SWAP2 PUSH2 0x1509 DUP4 PUSH2 0x1B95 JUMP JUMPDEST PUSH1 0x40 MLOAD SWAP1 DUP4 DUP3 MSTORE PUSH1 0x20 SWAP4 DUP3 PUSH1 0x40 DUP7 DUP1 SWAP6 ADD MSTORE PUSH1 0x0 DUP1 MLOAD PUSH1 0x20 PUSH2 0x1C37 DUP4 CODECOPY DUP2 MLOAD SWAP2 MSTORE CALLER SWAP2 DUP1 PUSH2 0x154F PUSH1 0x40 DUP3 ADD PUSH1 0x40 SWAP1 PUSH1 0x7 DUP2 MSTORE PUSH7 0x19195C1BDCDA5D PUSH1 0xCA SHL PUSH1 0x20 DUP3 ADD MSTORE ADD SWAP1 JUMP JUMPDEST SUB SWAP1 LOG2 PUSH1 0x0 DUP1 MLOAD PUSH1 0x20 PUSH2 0x1C57 DUP4 CODECOPY DUP2 MLOAD SWAP2 MSTORE PUSH1 0x40 MLOAD PUSH1 0x80 DUP2 MSTORE PUSH2 0x158A PUSH1 0x80 DUP3 ADD PUSH1 0x40 SWAP1 PUSH1 0x7 DUP2 MSTORE PUSH7 0x19195C1BDCDA5D PUSH1 0xCA SHL PUSH1 0x20 DUP3 ADD MSTORE ADD SWAP1 JUMP JUMPDEST SWAP3 DUP6 DUP3 ADD MSTORE DUP4 PUSH1 0x40 DUP3 ADD MSTORE CALLVALUE PUSH1 0x60 DUP3 ADD MSTORE DUP1 CALLER SWAP4 SUB SWAP1 LOG2 PUSH1 0x40 MLOAD PUSH4 0x2FB1D27 PUSH1 0xE4 SHL DUP2 MSTORE PUSH1 0x1 PUSH1 0x1 PUSH1 0xA0 SHL SUB SWAP4 DUP5 AND PUSH1 0x4 DUP3 ADD MSTORE PUSH1 0x24 DUP1 CALLDATALOAD SWAP1 DUP3 ADD MSTORE PUSH1 0x44 DUP1 CALLDATALOAD SWAP1 DUP3 ADD MSTORE PUSH1 0x64 DUP1 CALLDATALOAD SWAP1 DUP3 ADD MSTORE SWAP3 DUP4 SWAP2 PUSH1 0x84 SWAP2 DUP4 SWAP2 SWAP1 PUSH32 0x0 AND GAS CALL SWAP1 DUP2 ISZERO PUSH2 0x266 JUMPI PUSH1 0x0 SWAP2 PUSH2 0x165D JUMPI JUMPDEST POP PUSH1 0x0 DUP1 MLOAD PUSH1 0x20 PUSH2 0x1C77 DUP4 CODECOPY DUP2 MLOAD SWAP2 MSTORE PUSH1 0x40 MLOAD PUSH1 0x40 DUP2 MSTORE DUP1 PUSH2 0x164C PUSH1 0x40 DUP3 ADD PUSH1 0x40 SWAP1 PUSH1 0x7 DUP2 MSTORE PUSH7 0x19195C1BDCDA5D PUSH1 0xCA SHL PUSH1 0x20 DUP3 ADD MSTORE ADD SWAP1 JUMP JUMPDEST PUSH1 0x1 DUP7 DUP4 ADD MSTORE SUB SWAP1 LOG1 PUSH1 0x40 MLOAD SWAP1 DUP2 MSTORE RETURN JUMPDEST SWAP1 POP DUP2 DUP2 DUP2 RETURNDATASIZE DUP4 GT PUSH2 0x1683 JUMPI JUMPDEST PUSH2 0x1674 DUP2 DUP4 PUSH2 0x19BC JUMP JUMPDEST DUP2 ADD SUB SLT PUSH2 0x1B9 JUMPI MLOAD DUP3 PUSH2 0x1612 JUMP JUMPDEST POP RETURNDATASIZE PUSH2 0x166A JUMP JUMPDEST PUSH4 0x4E487B71 PUSH1 0xE0 SHL PUSH1 0x0 MSTORE PUSH1 0x11 PUSH1 0x4 MSTORE PUSH1 0x24 PUSH1 0x0 REVERT JUMPDEST CALLVALUE PUSH2 0x1B9 JUMPI PUSH1 0x60 CALLDATASIZE PUSH1 0x3 NOT ADD SLT PUSH2 0x1B9 JUMPI PUSH1 0x40 MLOAD PUSH4 0x170D5079 PUSH1 0xE1 SHL DUP2 MSTORE PUSH1 0x4 DUP1 CALLDATALOAD SWAP1 DUP3 ADD MSTORE PUSH1 0x24 DUP1 CALLDATALOAD SWAP1 DUP3 ADD MSTORE PUSH1 0x44 DUP1 CALLDATALOAD SWAP1 DUP3 ADD MSTORE PUSH1 0x20 DUP2 PUSH1 0x64 DUP2 PUSH1 0x1 PUSH1 0x1 PUSH1 0xA0 SHL SUB PUSH32 0x0 AND GAS STATICCALL DUP1 ISZERO PUSH2 0x266 JUMPI PUSH1 0x0 SWAP1 PUSH2 0x374 JUMPI PUSH1 0x20 SWAP1 PUSH1 0x40 MLOAD SWAP1 DUP2 MSTORE RETURN JUMPDEST CALLVALUE PUSH2 0x1B9 JUMPI PUSH1 0x20 CALLDATASIZE PUSH1 0x3 NOT ADD SLT PUSH2 0x1B9 JUMPI PUSH1 0x20 PUSH2 0x7C5 PUSH2 0x2710 PUSH2 0x12C7 PUSH1 0x3 SLOAD PUSH1 0x4 CALLDATALOAD PUSH2 0x197C JUMP JUMPDEST CALLVALUE PUSH2 0x1B9 JUMPI PUSH1 0x40 CALLDATASIZE PUSH1 0x3 NOT ADD SLT PUSH2 0x1B9 JUMPI PUSH1 0x20 PUSH2 0x7C5 PUSH2 0x176B PUSH1 0x4 CALLDATALOAD PUSH1 0x1 SLOAD PUSH2 0x197C JUMP JUMPDEST PUSH1 0x24 CALLDATALOAD PUSH2 0x19AF JUMP JUMPDEST CALLVALUE PUSH2 0x1B9 JUMPI PUSH1 0x0 CALLDATASIZE PUSH1 0x3 NOT ADD SLT PUSH2 0x1B9 JUMPI PUSH1 0x20 PUSH1 0x1 SLOAD PUSH1 0x40 MLOAD SWAP1 DUP2 MSTORE RETURN JUMPDEST CALLVALUE PUSH2 0x1B9 JUMPI PUSH1 0x0 CALLDATASIZE PUSH1 0x3 NOT ADD SLT PUSH2 0x1B9 JUMPI PUSH1 0x40 MLOAD PUSH4 0x3597247 PUSH1 0xE2 SHL DUP2 MSTORE PUSH1 0x20 DUP2 PUSH1 0x4 DUP2 PUSH32 0x0 PUSH1 0x1 PUSH1 0x1 PUSH1 0xA0 SHL SUB AND GAS STATICCALL DUP1 ISZERO PUSH2 0x266 JUMPI PUSH1 0x0 SWAP1 PUSH2 0x374 JUMPI PUSH1 0x20 SWAP1 PUSH1 0x40 MLOAD SWAP1 DUP2 MSTORE RETURN JUMPDEST CALLVALUE PUSH2 0x1B9 JUMPI PUSH1 0x40 CALLDATASIZE PUSH1 0x3 NOT ADD SLT PUSH2 0x1B9 JUMPI PUSH2 0x1812 PUSH2 0x18A9 JUMP JUMPDEST PUSH1 0x24 CALLDATALOAD SWAP1 DUP2 ISZERO ISZERO DUP1 SWAP3 SUB PUSH2 0x1B9 JUMPI CALLER PUSH1 0x0 MSTORE PUSH1 0x4 PUSH1 0x20 MSTORE PUSH1 0xFF PUSH1 0x40 PUSH1 0x0 KECCAK256 SLOAD AND ISZERO PUSH2 0x2D6 JUMPI PUSH1 0x1 PUSH1 0x1 PUSH1 0xA0 SHL SUB AND SWAP1 DUP2 ISZERO PUSH2 0x42A JUMPI PUSH1 0x20 PUSH32 0xDB8E93BC198E2B2EEA2F3EBBFDBC11D697156217479AC1F45564EB70891E3D05 SWAP2 DUP4 PUSH1 0x0 MSTORE PUSH1 0x4 DUP3 MSTORE PUSH1 0x40 PUSH1 0x0 KECCAK256 PUSH1 0xFF NOT DUP2 SLOAD AND PUSH1 0xFF DUP4 AND OR SWAP1 SSTORE PUSH1 0x40 MLOAD SWAP1 DUP2 MSTORE LOG2 STOP JUMPDEST CALLVALUE PUSH2 0x1B9 JUMPI PUSH1 0x0 CALLDATASIZE PUSH1 0x3 NOT ADD SLT PUSH2 0x1B9 JUMPI PUSH1 0x20 SWAP1 PUSH1 0x2 SLOAD DUP2 MSTORE RETURN JUMPDEST PUSH1 0x4 CALLDATALOAD SWAP1 PUSH1 0x1 PUSH1 0x1 PUSH1 0xA0 SHL SUB DUP3 AND DUP3 SUB PUSH2 0x1B9 JUMPI JUMP JUMPDEST CALLVALUE PUSH2 0x1B9 JUMPI PUSH1 0x0 CALLDATASIZE PUSH1 0x3 NOT ADD SLT PUSH2 0x1B9 JUMPI PUSH1 0x20 PUSH1 0x40 MLOAD PUSH2 0x2710 DUP2 MSTORE RETURN JUMPDEST SWAP2 DUP2 PUSH1 0x1F DUP5 ADD SLT ISZERO PUSH2 0x1B9 JUMPI DUP3 CALLDATALOAD SWAP2 PUSH8 0xFFFFFFFFFFFFFFFF DUP4 GT PUSH2 0x1B9 JUMPI PUSH1 0x20 DUP1 DUP6 ADD SWAP5 DUP5 PUSH1 0x5 SHL ADD ADD GT PUSH2 0x1B9 JUMPI JUMP JUMPDEST PUSH1 0x20 SWAP1 DUP2 PUSH1 0x40 DUP2 DUP4 ADD SWAP3 DUP3 DUP2 MSTORE DUP6 MLOAD DUP1 SWAP5 MSTORE ADD SWAP4 ADD SWAP2 PUSH1 0x0 JUMPDEST DUP3 DUP2 LT PUSH2 0x1934 JUMPI POP POP POP POP SWAP1 JUMP JUMPDEST DUP4 MLOAD DUP6 MSTORE SWAP4 DUP2 ADD SWAP4 SWAP3 DUP2 ADD SWAP3 PUSH1 0x1 ADD PUSH2 0x1926 JUMP JUMPDEST SWAP1 DUP2 MLOAD DUP1 DUP3 MSTORE PUSH1 0x20 DUP1 DUP1 SWAP4 ADD SWAP4 ADD SWAP2 PUSH1 0x0 JUMPDEST DUP3 DUP2 LT PUSH2 0x1968 JUMPI POP POP POP POP SWAP1 JUMP JUMPDEST DUP4 MLOAD DUP6 MSTORE SWAP4 DUP2 ADD SWAP4 SWAP3 DUP2 ADD SWAP3 PUSH1 0x1 ADD PUSH2 0x195A JUMP JUMPDEST DUP2 DUP2 MUL SWAP3 SWAP2 DUP2 ISZERO SWAP2 DUP5 DIV EQ OR ISZERO PUSH2 0x168A JUMPI JUMP JUMPDEST DUP2 ISZERO PUSH2 0x1999 JUMPI DIV SWAP1 JUMP JUMPDEST PUSH4 0x4E487B71 PUSH1 0xE0 SHL PUSH1 0x0 MSTORE PUSH1 0x12 PUSH1 0x4 MSTORE PUSH1 0x24 PUSH1 0x0 REVERT JUMPDEST SWAP2 SWAP1 DUP3 ADD DUP1 SWAP3 GT PUSH2 0x168A JUMPI JUMP JUMPDEST SWAP1 PUSH1 0x1F DUP1 NOT SWAP2 ADD AND DUP2 ADD SWAP1 DUP2 LT PUSH8 0xFFFFFFFFFFFFFFFF DUP3 GT OR PUSH2 0x19DE JUMPI PUSH1 0x40 MSTORE JUMP JUMPDEST PUSH4 0x4E487B71 PUSH1 0xE0 SHL PUSH1 0x0 MSTORE PUSH1 0x41 PUSH1 0x4 MSTORE PUSH1 0x24 PUSH1 0x0 REVERT JUMPDEST PUSH8 0xFFFFFFFFFFFFFFFF DUP2 GT PUSH2 0x19DE JUMPI PUSH1 0x5 SHL PUSH1 0x20 ADD SWAP1 JUMP JUMPDEST SWAP1 PUSH2 0x1A16 DUP3 PUSH2 0x19F4 JUMP JUMPDEST PUSH2 0x1A23 PUSH1 0x40 MLOAD SWAP2 DUP3 PUSH2 0x19BC JUMP JUMPDEST DUP3 DUP2 MSTORE DUP1 SWAP3 PUSH2 0x1A34 PUSH1 0x1F NOT SWAP2 PUSH2 0x19F4 JUMP JUMPDEST ADD SWAP1 PUSH1 0x20 CALLDATASIZE SWAP2 ADD CALLDATACOPY JUMP JUMPDEST PUSH1 0x0 NOT DUP2 EQ PUSH2 0x168A JUMPI PUSH1 0x1 ADD SWAP1 JUMP JUMPDEST DUP1 MLOAD DUP3 LT ISZERO PUSH2 0x1A61 JUMPI PUSH1 0x20 SWAP2 PUSH1 0x5 SHL ADD ADD SWAP1 JUMP JUMPDEST PUSH4 0x4E487B71 PUSH1 0xE0 SHL PUSH1 0x0 MSTORE PUSH1 0x32 PUSH1 0x4 MSTORE PUSH1 0x24 PUSH1 0x0 REVERT JUMPDEST PUSH1 0x20 SWAP1 DUP2 DUP2 DUP5 SUB SLT PUSH2 0x1B9 JUMPI DUP1 MLOAD SWAP1 PUSH8 0xFFFFFFFFFFFFFFFF DUP3 GT PUSH2 0x1B9 JUMPI ADD SWAP2 DUP1 PUSH1 0x1F DUP5 ADD SLT ISZERO PUSH2 0x1B9 JUMPI DUP3 MLOAD PUSH2 0x1AAD DUP2 PUSH2 0x19F4 JUMP JUMPDEST SWAP4 PUSH2 0x1ABB PUSH1 0x40 MLOAD SWAP6 DUP7 PUSH2 0x19BC JUMP JUMPDEST DUP2 DUP6 MSTORE DUP4 DUP1 DUP7 ADD SWAP3 PUSH1 0x5 SHL DUP3 ADD ADD SWAP3 DUP4 GT PUSH2 0x1B9 JUMPI DUP4 ADD SWAP1 JUMPDEST DUP3 DUP3 LT PUSH2 0x1AE2 JUMPI POP POP POP POP SWAP1 JUMP JUMPDEST DUP2 MLOAD DUP2 MSTORE SWAP1 DUP4 ADD SWAP1 DUP4 ADD PUSH2 0x1AD4 JUMP JUMPDEST SWAP2 SWAP1 DUP2 LT ISZERO PUSH2 0x1A61 JUMPI PUSH1 0x5 SHL ADD SWAP1 JUMP JUMPDEST DUP2 DUP4 MSTORE SWAP1 SWAP2 PUSH1 0x1 PUSH1 0x1 PUSH1 0xFB SHL SUB DUP4 GT PUSH2 0x1B9 JUMPI PUSH1 0x20 SWAP3 PUSH1 0x5 SHL DUP1 SWAP3 DUP5 DUP4 ADD CALLDATACOPY ADD ADD SWAP1 JUMP JUMPDEST SWAP2 SWAP1 DUP3 SUB SWAP2 DUP3 GT PUSH2 0x168A JUMPI JUMP JUMPDEST PUSH1 0x2 SLOAD DUP1 DUP3 GT ISZERO PUSH2 0x1B72 JUMPI PUSH2 0x1B46 SWAP2 PUSH2 0x1B25 JUMP JUMPDEST PUSH2 0x2710 DUP1 DUP3 MUL SWAP2 DUP1 DUP4 DIV DUP3 EQ SWAP1 ISZERO OR ISZERO PUSH2 0x168A JUMPI PUSH1 0x3 SLOAD DUP2 ADD DUP1 SWAP2 GT PUSH2 0x168A JUMPI PUSH2 0x1B6F SWAP2 PUSH2 0x198F JUMP JUMPDEST SWAP1 JUMP JUMPDEST POP POP PUSH1 0x0 SWAP1 JUMP JUMPDEST PUSH8 0xFFFFFFFFFFFFFFFF DUP2 GT PUSH2 0x19DE JUMPI PUSH1 0x1F ADD PUSH1 0x1F NOT AND PUSH1 0x20 ADD SWAP1 JUMP JUMPDEST DUP1 PUSH2 0x1B9D JUMPI POP JUMP JUMPDEST PUSH1 0x0 DUP1 DUP1 DUP1 DUP1 SWAP5 PUSH1 0x1 DUP1 PUSH1 0xA0 SHL SUB DUP3 SLOAD AND GAS CALL SWAP1 RETURNDATASIZE ISZERO PUSH2 0x1BF2 JUMPI RETURNDATASIZE SWAP1 PUSH2 0x1BC2 DUP3 PUSH2 0x1B79 JUMP JUMPDEST SWAP2 PUSH2 0x1BD0 PUSH1 0x40 MLOAD SWAP4 DUP5 PUSH2 0x19BC JUMP JUMPDEST DUP3 MSTORE PUSH1 0x20 RETURNDATASIZE SWAP3 ADD RETURNDATACOPY JUMPDEST ISZERO PUSH2 0x1BE0 JUMPI JUMP JUMPDEST PUSH1 0x40 MLOAD PUSH4 0x291BE7B PUSH1 0xE3 SHL DUP2 MSTORE PUSH1 0x4 SWAP1 REVERT JUMPDEST POP PUSH2 0x1BD9 JUMP JUMPDEST SWAP2 SWAP1 PUSH1 0x0 SWAP3 PUSH1 0x0 SWAP2 JUMPDEST DUP1 DUP4 LT PUSH2 0x1C0D JUMPI POP POP POP JUMP JUMPDEST SWAP1 SWAP2 SWAP4 PUSH2 0x1C29 PUSH2 0x1C2F SWAP2 PUSH2 0x1C22 DUP8 DUP6 DUP8 PUSH2 0x1AF1 JUMP JUMPDEST CALLDATALOAD SWAP1 PUSH2 0x19AF JUMP JUMPDEST SWAP5 PUSH2 0x1A3E JUMP JUMPDEST SWAP2 SWAP1 PUSH2 0x1C01 JUMP INVALID 0xDB 0x23 0xCB LOG2 AND 0xBF 0xAE 0xD8 SWAP1 PUSH17 0xD2734596F2EE2A163099CFC4F5EF32036D 0xEB 0xC9 PUSH26 0x22266EBD237946549F7DD8C5B01156CFE92D39B298A153ADB4C9 SWAP2 BYTE POP ADDMOD 0xAB PUSH24 0x68626A35BCB4A51611DBCD01A735CEFA7E3801D75BE5A8A7 0xEF ADDMOD 0xE5 0xEA 0xE6 POP REVERT 0xBC SWAP8 SWAP7 LOG2 PUSH5 0x6970667358 0x22 SLT KECCAK256 0xB6 DELEGATECALL LT 0xC8 PUSH3 0x56E340 CODECOPY 0xDC RETURNDATACOPY PUSH22 0xE359A2A84273BCE1EC0BF58D8DA35E3E5C48DF1F6473 PUSH16 0x6C634300081500330000000000000000 "},"methodIdentifiers":{"FEE_DENOMINATOR()":"d73792a9","MAX_FEE_PERCENTAGE()":"558e44d3","calculateAtomId(bytes)":"6828caa6","calculateCreationFee(uint256)":"c1757e36","calculateDepositFee(uint256)":"247d284b","calculateTripleId(bytes32,bytes32,bytes32)":"2e1aa0f2","createAtoms(address,bytes[],uint256[],uint256)":"8581c32f","createTriples(address,bytes32[],bytes32[],bytes32[],uint256[],uint256)":"bc2439e4","creationFixedFee()":"0f060799","deposit(address,bytes32,uint256,uint256)":"2fb1d270","depositBatch(address,bytes32[],uint256[],uint256[],uint256[])":"dea9423a","depositFixedFee()":"02ef36c7","depositPercentageFee()":"63173be7","ethMultiVault()":"f8073c76","feeRecipient()":"46904840","getAtomCost()":"33332d39","getMultiVaultAmountFromValue(uint256)":"70b9add0","getShares(address,bytes32,uint256)":"ee3abe38","getTotalCreationCost(uint256,uint256)":"0ff2663c","getTotalDepositCost(uint256)":"717ba4d9","getTriple(bytes32)":"c12f7947","getTripleCost()":"0d65c91c","isTermCreated(bytes32)":"f5719008","previewDeposit(bytes32,uint256,uint256)":"7d4eaa91","setCreationFixedFee(uint256)":"ad934c18","setDepositFixedFee(uint256)":"f48371c0","setDepositPercentageFee(uint256)":"5ce33d4f","setFeeRecipient(address)":"e74b981b","setWhitelistedAdmin(address,bool)":"082e709f","whitelistedAdmins(address)":"b3ec372e"}}}}}