{"src/SofiaFeeProxy.sol":{"SofiaFeeProxy":{"abi":[{"inputs":[{"internalType":"address","name":"_ethMultiVault","type":"address"},{"internalType":"address","name":"_feeRecipient","type":"address"},{"internalType":"uint256","name":"_creationFixedFee","type":"uint256"},{"internalType":"uint256","name":"_depositFixedFee","type":"uint256"},{"internalType":"uint256","name":"_depositPercentageFee","type":"uint256"},{"internalType":"address[]","name":"_initialAdmins","type":"address[]"}],"stateMutability":"nonpayable","type":"constructor"},{"inputs":[],"name":"SofiaFeeProxy_FeePercentageTooHigh","type":"error"},{"inputs":[],"name":"SofiaFeeProxy_InsufficientValue","type":"error"},{"inputs":[],"name":"SofiaFeeProxy_InvalidMultiVaultAddress","type":"error"},{"inputs":[],"name":"SofiaFeeProxy_InvalidMultisigAddress","type":"error"},{"inputs":[],"name":"SofiaFeeProxy_NotWhitelistedAdmin","type":"error"},{"inputs":[],"name":"SofiaFeeProxy_TransferFailed","type":"error"},{"inputs":[],"name":"SofiaFeeProxy_WrongArrayLengths","type":"error"},{"inputs":[],"name":"SofiaFeeProxy_ZeroAddress","type":"error"},{"anonymous":false,"inputs":[{"indexed":true,"internalType":"address","name":"admin","type":"address"},{"indexed":false,"internalType":"bool","name":"status","type":"bool"}],"name":"AdminWhitelistUpdated","type":"event"},{"anonymous":false,"inputs":[{"indexed":false,"internalType":"uint256","name":"oldFee","type":"uint256"},{"indexed":false,"internalType":"uint256","name":"newFee","type":"uint256"}],"name":"CreationFixedFeeUpdated","type":"event"},{"anonymous":false,"inputs":[{"indexed":false,"internalType":"uint256","name":"oldFee","type":"uint256"},{"indexed":false,"internalType":"uint256","name":"newFee","type":"uint256"}],"name":"DepositFixedFeeUpdated","type":"event"},{"anonymous":false,"inputs":[{"indexed":false,"internalType":"uint256","name":"oldFee","type":"uint256"},{"indexed":false,"internalType":"uint256","name":"newFee","type":"uint256"}],"name":"DepositPercentageFeeUpdated","type":"event"},{"anonymous":false,"inputs":[{"indexed":true,"internalType":"address","name":"oldRecipient","type":"address"},{"indexed":true,"internalType":"address","name":"newRecipient","type":"address"}],"name":"FeeRecipientUpdated","type":"event"},{"anonymous":false,"inputs":[{"indexed":true,"internalType":"address","name":"user","type":"address"},{"indexed":false,"internalType":"uint256","name":"amount","type":"uint256"},{"indexed":false,"internalType":"string","name":"operation","type":"string"}],"name":"FeesCollected","type":"event"},{"inputs":[],"name":"FEE_DENOMINATOR","outputs":[{"internalType":"uint256","name":"","type":"uint256"}],"stateMutability":"view","type":"function"},{"inputs":[],"name":"MAX_FEE_PERCENTAGE","outputs":[{"internalType":"uint256","name":"","type":"uint256"}],"stateMutability":"view","type":"function"},{"inputs":[{"internalType":"bytes","name":"data","type":"bytes"}],"name":"calculateAtomId","outputs":[{"internalType":"bytes32","name":"","type":"bytes32"}],"stateMutability":"pure","type":"function"},{"inputs":[{"internalType":"uint256","name":"count","type":"uint256"}],"name":"calculateCreationFee","outputs":[{"internalType":"uint256","name":"","type":"uint256"}],"stateMutability":"view","type":"function"},{"inputs":[{"internalType":"uint256","name":"depositAmount","type":"uint256"}],"name":"calculateDepositFee","outputs":[{"internalType":"uint256","name":"","type":"uint256"}],"stateMutability":"view","type":"function"},{"inputs":[{"internalType":"bytes32","name":"subjectId","type":"bytes32"},{"internalType":"bytes32","name":"predicateId","type":"bytes32"},{"internalType":"bytes32","name":"objectId","type":"bytes32"}],"name":"calculateTripleId","outputs":[{"internalType":"bytes32","name":"","type":"bytes32"}],"stateMutability":"view","type":"function"},{"inputs":[{"internalType":"bytes[]","name":"data","type":"bytes[]"},{"internalType":"uint256[]","name":"assets","type":"uint256[]"}],"name":"createAtoms","outputs":[{"internalType":"bytes32[]","name":"","type":"bytes32[]"}],"stateMutability":"payable","type":"function"},{"inputs":[{"internalType":"bytes32[]","name":"subjectIds","type":"bytes32[]"},{"internalType":"bytes32[]","name":"predicateIds","type":"bytes32[]"},{"internalType":"bytes32[]","name":"objectIds","type":"bytes32[]"},{"internalType":"uint256[]","name":"assets","type":"uint256[]"}],"name":"createTriples","outputs":[{"internalType":"bytes32[]","name":"","type":"bytes32[]"}],"stateMutability":"payable","type":"function"},{"inputs":[],"name":"creationFixedFee","outputs":[{"internalType":"uint256","name":"","type":"uint256"}],"stateMutability":"view","type":"function"},{"inputs":[{"internalType":"address","name":"receiver","type":"address"},{"internalType":"bytes32","name":"termId","type":"bytes32"},{"internalType":"uint256","name":"curveId","type":"uint256"},{"internalType":"uint256","name":"minShares","type":"uint256"},{"internalType":"uint256","name":"depositAmount","type":"uint256"}],"name":"deposit","outputs":[{"internalType":"uint256","name":"shares","type":"uint256"}],"stateMutability":"payable","type":"function"},{"inputs":[{"internalType":"address","name":"receiver","type":"address"},{"internalType":"bytes32[]","name":"termIds","type":"bytes32[]"},{"internalType":"uint256[]","name":"curveIds","type":"uint256[]"},{"internalType":"uint256[]","name":"assets","type":"uint256[]"},{"internalType":"uint256[]","name":"minShares","type":"uint256[]"}],"name":"depositBatch","outputs":[{"internalType":"uint256[]","name":"shares","type":"uint256[]"}],"stateMutability":"payable","type":"function"},{"inputs":[],"name":"depositFixedFee","outputs":[{"internalType":"uint256","name":"","type":"uint256"}],"stateMutability":"view","type":"function"},{"inputs":[],"name":"depositPercentageFee","outputs":[{"internalType":"uint256","name":"","type":"uint256"}],"stateMutability":"view","type":"function"},{"inputs":[],"name":"ethMultiVault","outputs":[{"internalType":"contract IEthMultiVault","name":"","type":"address"}],"stateMutability":"view","type":"function"},{"inputs":[],"name":"feeRecipient","outputs":[{"internalType":"address","name":"","type":"address"}],"stateMutability":"view","type":"function"},{"inputs":[],"name":"getAtomCost","outputs":[{"internalType":"uint256","name":"","type":"uint256"}],"stateMutability":"view","type":"function"},{"inputs":[{"internalType":"address","name":"account","type":"address"},{"internalType":"bytes32","name":"termId","type":"bytes32"},{"internalType":"uint256","name":"curveId","type":"uint256"}],"name":"getShares","outputs":[{"internalType":"uint256","name":"","type":"uint256"}],"stateMutability":"view","type":"function"},{"inputs":[{"internalType":"uint256","name":"count","type":"uint256"},{"internalType":"uint256","name":"multiVaultCost","type":"uint256"}],"name":"getTotalCreationCost","outputs":[{"internalType":"uint256","name":"","type":"uint256"}],"stateMutability":"view","type":"function"},{"inputs":[{"internalType":"uint256","name":"depositAmount","type":"uint256"}],"name":"getTotalDepositCost","outputs":[{"internalType":"uint256","name":"","type":"uint256"}],"stateMutability":"view","type":"function"},{"inputs":[{"internalType":"bytes32","name":"tripleId","type":"bytes32"}],"name":"getTriple","outputs":[{"internalType":"bytes32","name":"","type":"bytes32"},{"internalType":"bytes32","name":"","type":"bytes32"},{"internalType":"bytes32","name":"","type":"bytes32"}],"stateMutability":"view","type":"function"},{"inputs":[],"name":"getTripleCost","outputs":[{"internalType":"uint256","name":"","type":"uint256"}],"stateMutability":"view","type":"function"},{"inputs":[{"internalType":"bytes32","name":"id","type":"bytes32"}],"name":"isTermCreated","outputs":[{"internalType":"bool","name":"","type":"bool"}],"stateMutability":"view","type":"function"},{"inputs":[{"internalType":"bytes32","name":"termId","type":"bytes32"},{"internalType":"uint256","name":"curveId","type":"uint256"},{"internalType":"uint256","name":"assets","type":"uint256"}],"name":"previewDeposit","outputs":[{"internalType":"uint256","name":"","type":"uint256"},{"internalType":"uint256","name":"","type":"uint256"}],"stateMutability":"view","type":"function"},{"inputs":[{"internalType":"uint256","name":"newFee","type":"uint256"}],"name":"setCreationFixedFee","outputs":[],"stateMutability":"nonpayable","type":"function"},{"inputs":[{"internalType":"uint256","name":"newFee","type":"uint256"}],"name":"setDepositFixedFee","outputs":[],"stateMutability":"nonpayable","type":"function"},{"inputs":[{"internalType":"uint256","name":"newFee","type":"uint256"}],"name":"setDepositPercentageFee","outputs":[],"stateMutability":"nonpayable","type":"function"},{"inputs":[{"internalType":"address","name":"newRecipient","type":"address"}],"name":"setFeeRecipient","outputs":[],"stateMutability":"nonpayable","type":"function"},{"inputs":[{"internalType":"address","name":"admin","type":"address"},{"internalType":"bool","name":"status","type":"bool"}],"name":"setWhitelistedAdmin","outputs":[],"stateMutability":"nonpayable","type":"function"},{"inputs":[{"internalType":"address","name":"","type":"address"}],"name":"whitelistedAdmins","outputs":[{"internalType":"bool","name":"","type":"bool"}],"stateMutability":"view","type":"function"},{"stateMutability":"payable","type":"receive"}],"evm":{"bytecode":{"linkReferences":{},"object":"60a06040523480156200001157600080fd5b5060405162001fe838038062001fe8833981016040819052620000349162000231565b6001600160a01b0386166200005c57604051634a787e9b60e11b815260040160405180910390fd5b6001600160a01b0385166200008457604051631023f93d60e01b815260040160405180910390fd5b612710821115620000a857604051635dfb18eb60e01b815260040160405180910390fd5b6001600160a01b03868116608052600080546001600160a01b0319169187169190911781556001859055600284905560038390555b8151811015620001f15760006001600160a01b031682828151811062000107576200010762000348565b60200260200101516001600160a01b031614620001dc5760016004600084848151811062000139576200013962000348565b60200260200101516001600160a01b03166001600160a01b0316815260200190815260200160002060006101000a81548160ff0219169083151502179055508181815181106200018d576200018d62000348565b60200260200101516001600160a01b03167fdb8e93bc198e2b2eea2f3ebbfdbc11d697156217479ac1f45564eb70891e3d056001604051620001d3911515815260200190565b60405180910390a25b80620001e8816200035e565b915050620000dd565b5050505050505062000386565b80516001600160a01b03811681146200021657600080fd5b919050565b634e487b7160e01b600052604160045260246000fd5b60008060008060008060c087890312156200024b57600080fd5b6200025687620001fe565b9550602062000267818901620001fe565b604089015160608a015160808b015160a08c0151939950919750955093506001600160401b03808211156200029b57600080fd5b818a0191508a601f830112620002b057600080fd5b815181811115620002c557620002c56200021b565b8060051b604051601f19603f83011681018181108582111715620002ed57620002ed6200021b565b60405291825284820192508381018501918d8311156200030c57600080fd5b938501935b8285101562000335576200032585620001fe565b8452938501939285019262000311565b8096505050505050509295509295509295565b634e487b7160e01b600052603260045260246000fd5b6000600182016200037f57634e487b7160e01b600052601160045260246000fd5b5060010190565b608051611bf9620003ef6000396000818161055c0152818161063801528181610737015281816107b7015281816108f801528181610a7201528181610c4601528181610d3201528181610e1d01528181610fd50152818161115f01526112170152611bf96000f3fe6080604052600436106101c65760003560e01c806363173be7116100f7578063c1757e3611610095578063ee3abe3811610064578063ee3abe38146104ea578063f48371c01461050a578063f57190081461052a578063f8073c761461054a57600080fd5b8063c1757e3614610497578063d73792a914610315578063dea9423a146104b7578063e74b981b146104ca57600080fd5b80637d4eaa91116100d15780637d4eaa91146103c7578063ad934c18146103fc578063b3ec372e1461041c578063c12f79471461045c57600080fd5b806363173be7146103715780636828caa614610387578063717ba4d9146103a757600080fd5b806333332d3911610164578063558e44d31161013e578063558e44d31461031557806358a19d5e1461032b5780635ce33d4f1461033e578063614033091461035e57600080fd5b806333332d39146102a85780633c6bbf45146102bd57806346904840146102dd57600080fd5b80630f060799116101a05780630f060799146102325780630ff2663c14610248578063247d284b146102685780632e1aa0f21461028857600080fd5b806302ef36c7146101d2578063082e709f146101fb5780630d65c91c1461021d57600080fd5b366101cd57005b600080fd5b3480156101de57600080fd5b506101e860025481565b6040519081526020015b60405180910390f35b34801561020757600080fd5b5061021b61021636600461137e565b61057e565b005b34801561022957600080fd5b506101e8610634565b34801561023e57600080fd5b506101e860015481565b34801561025457600080fd5b506101e86102633660046113b5565b6106bd565b34801561027457600080fd5b506101e86102833660046113d7565b6106db565b34801561029457600080fd5b506101e86102a33660046113f0565b610710565b3480156102b457600080fd5b506101e86107b3565b6102d06102cb366004611468565b610813565b6040516101f2919061152c565b3480156102e957600080fd5b506000546102fd906001600160a01b031681565b6040516001600160a01b0390911681526020016101f2565b34801561032157600080fd5b506101e861271081565b6101e8610339366004611570565b6109a8565b34801561034a57600080fd5b5061021b6103593660046113d7565b610aed565b6102d061036c3660046115b2565b610b86565b34801561037d57600080fd5b506101e860035481565b34801561039357600080fd5b506101e86103a236600461161e565b610cca565b3480156103b357600080fd5b506101e86103c23660046113d7565b610cec565b3480156103d357600080fd5b506103e76103e23660046113f0565b610d01565b604080519283526020830191909152016101f2565b34801561040857600080fd5b5061021b6104173660046113d7565b610da8565b34801561042857600080fd5b5061044c610437366004611690565b60046020526000908152604090205460ff1681565b60405190151581526020016101f2565b34801561046857600080fd5b5061047c6104773660046113d7565b610e16565b604080519384526020840192909252908201526060016101f2565b3480156104a357600080fd5b506101e86104b23660046113d7565b610eb7565b6102d06104c53660046116ab565b610ec7565b3480156104d657600080fd5b5061021b6104e5366004611690565b611088565b3480156104f657600080fd5b506101e8610505366004611782565b61112f565b34801561051657600080fd5b5061021b6105253660046113d7565b611190565b34801561053657600080fd5b5061044c6105453660046113d7565b6111fe565b34801561055657600080fd5b506102fd7f000000000000000000000000000000000000000000000000000000000000000081565b3360009081526004602052604090205460ff166105ae576040516390c7c07160e01b815260040160405180910390fd5b6001600160a01b0382166105d55760405163e4799d2b60e01b815260040160405180910390fd5b6001600160a01b038216600081815260046020908152604091829020805460ff191685151590811790915591519182527fdb8e93bc198e2b2eea2f3ebbfdbc11d697156217479ac1f45564eb70891e3d05910160405180910390a25050565b60007f00000000000000000000000000000000000000000000000000000000000000006001600160a01b0316630d65c91c6040518163ffffffff1660e01b8152600401602060405180830381865afa158015610694573d6000803e3d6000fd5b505050506040513d601f19601f820116820180604052508101906106b891906117b5565b905090565b60006106c883610eb7565b6106d290836117e4565b90505b92915050565b600080612710600354846106ef91906117f7565b6106f9919061180e565b90508060025461070991906117e4565b9392505050565b60405163170d507960e11b81526004810184905260248101839052604481018290526000907f00000000000000000000000000000000000000000000000000000000000000006001600160a01b031690632e1aa0f2906064015b602060405180830381865afa158015610787573d6000803e3d6000fd5b505050506040513d601f19601f820116820180604052508101906107ab91906117b5565b949350505050565b60007f00000000000000000000000000000000000000000000000000000000000000006001600160a01b03166333332d396040518163ffffffff1660e01b8152600401602060405180830381865afa158015610694573d6000803e3d6000fd5b606087861415806108245750858414155b8061082f5750838214155b1561084d5760405163a9087e4b60e01b815260040160405180910390fd5b600061085889610eb7565b90506000610866858561128a565b9050600061087482846117e4565b905080341015610897576040516339e5774360e01b815260040160405180910390fd5b6108a0836112d5565b336001600160a01b0316600080516020611ba4833981519152846040516108ee918152604060208201819052600d908201526c637265617465547269706c657360981b606082015260800190565b60405180910390a27f00000000000000000000000000000000000000000000000000000000000000006001600160a01b0316633c6bbf45838e8e8e8e8e8e8e8e6040518a63ffffffff1660e01b8152600401610951989796959493929190611862565b60006040518083038185885af115801561096f573d6000803e3d6000fd5b50505050506040513d6000823e601f3d908101601f19168201604052610998919081019061192d565b9c9b505050505050505050505050565b6000806109b4836106db565b905060006109c282856117e4565b9050803410156109e5576040516339e5774360e01b815260040160405180910390fd5b6109ee826112d5565b336001600160a01b0316600080516020611ba483398151915283604051610a369181526040602082018190526007908201526619195c1bdcda5d60ca1b606082015260800190565b60405180910390a26040516302fb1d2760e41b81526001600160a01b0389811660048301526024820189905260448201889052606482018790527f00000000000000000000000000000000000000000000000000000000000000001690632fb1d27090869060840160206040518083038185885af1158015610abc573d6000803e3d6000fd5b50505050506040513d601f19601f82011682018060405250810190610ae191906117b5565b98975050505050505050565b3360009081526004602052604090205460ff16610b1d576040516390c7c07160e01b815260040160405180910390fd5b612710811115610b4057604051635dfb18eb60e01b815260040160405180910390fd5b600380549082905560408051828152602081018490527f941228a4ace352cb2d85f4fc40701585a9ba154072a8794bff7db2bb6127773491015b60405180910390a15050565b60606000610b9385610eb7565b90506000610ba1858561128a565b90506000610baf82846117e4565b905080341015610bd2576040516339e5774360e01b815260040160405180910390fd5b610bdb836112d5565b336001600160a01b0316600080516020611ba483398151915284604051610c27918152604060208201819052600b908201526a63726561746541746f6d7360a81b606082015260800190565b60405180910390a2604051636140330960e01b81526001600160a01b037f000000000000000000000000000000000000000000000000000000000000000016906361403309908490610c83908c908c908c908c906004016119ec565b60006040518083038185885af1158015610ca1573d6000803e3d6000fd5b50505050506040513d6000823e601f3d908101601f19168201604052610ae1919081019061192d565b60008282604051610cdc929190611a93565b6040518091039020905092915050565b6000610cf7826106db565b6106d590836117e4565b604051637d4eaa9160e01b815260048101849052602481018390526044810182905260009081906001600160a01b037f00000000000000000000000000000000000000000000000000000000000000001690637d4eaa91906064016040805180830381865afa158015610d78573d6000803e3d6000fd5b505050506040513d601f19601f82011682018060405250810190610d9c9190611aa3565b91509150935093915050565b3360009081526004602052604090205460ff16610dd8576040516390c7c07160e01b815260040160405180910390fd5b600180549082905560408051828152602081018490527f05fcb23afb0fb7986c3f826699011cf4d5126fd38c3105ad6f16690b2bd16d289101610b7a565b60008060007f00000000000000000000000000000000000000000000000000000000000000006001600160a01b031663c12f7947856040518263ffffffff1660e01b8152600401610e6991815260200190565b606060405180830381865afa158015610e86573d6000803e3d6000fd5b505050506040513d601f19601f82011682018060405250810190610eaa9190611ac7565b9250925092509193909250565b6000816001546106d591906117f7565b60608786141580610ed85750858414155b80610ee35750838214155b15610f015760405163a9087e4b60e01b815260040160405180910390fd5b6000610f0d868661128a565b9050600061271060035483610f2291906117f7565b610f2c919061180e565b600254610f3a908c906117f7565b610f4491906117e4565b90506000610f5282846117e4565b905080341015610f75576040516339e5774360e01b815260040160405180910390fd5b610f7e826112d5565b336001600160a01b0316600080516020611ba483398151915283604051610fcb918152604060208201819052600c908201526b0c8cae0dee6d2e884c2e8c6d60a31b606082015260800190565b60405180910390a27f00000000000000000000000000000000000000000000000000000000000000006001600160a01b031663dea9423a848f8f8f8f8f8f8f8f8f6040518b63ffffffff1660e01b815260040161103099989796959493929190611af5565b60006040518083038185885af115801561104e573d6000803e3d6000fd5b50505050506040513d6000823e601f3d908101601f19168201604052611077919081019061192d565b9d9c50505050505050505050505050565b3360009081526004602052604090205460ff166110b8576040516390c7c07160e01b815260040160405180910390fd5b6001600160a01b0381166110df5760405163e4799d2b60e01b815260040160405180910390fd5b600080546001600160a01b038381166001600160a01b0319831681178455604051919092169283917faaebcf1bfa00580e41d966056b48521fa9f202645c86d4ddf28113e617c1b1d39190a35050565b604051631dc757c760e31b81526001600160a01b03848116600483015260248201849052604482018390526000917f00000000000000000000000000000000000000000000000000000000000000009091169063ee3abe389060640161076a565b3360009081526004602052604090205460ff166111c0576040516390c7c07160e01b815260040160405180910390fd5b600280549082905560408051828152602081018490527f71bc2d9c4b3b5472e9afa8b00d83565c247798dbe5402735f27d074e8c8fdbd39101610b7a565b604051631eae320160e31b8152600481018290526000907f00000000000000000000000000000000000000000000000000000000000000006001600160a01b03169063f571900890602401602060405180830381865afa158015611266573d6000803e3d6000fd5b505050506040513d601f19601f820116820180604052508101906106d59190611b57565b6000805b828110156112ce578383828181106112a8576112a8611b74565b90506020020135826112ba91906117e4565b9150806112c681611b8a565b91505061128e565b5092915050565b801561135157600080546040516001600160a01b039091169083908381818185875af1925050503d8060008114611328576040519150601f19603f3d011682016040523d82523d6000602084013e61132d565b606091505b505090508061134f57604051630291be7b60e31b815260040160405180910390fd5b505b50565b80356001600160a01b038116811461136b57600080fd5b919050565b801515811461135157600080fd5b6000806040838503121561139157600080fd5b61139a83611354565b915060208301356113aa81611370565b809150509250929050565b600080604083850312156113c857600080fd5b50508035926020909101359150565b6000602082840312156113e957600080fd5b5035919050565b60008060006060848603121561140557600080fd5b505081359360208301359350604090920135919050565b60008083601f84011261142e57600080fd5b50813567ffffffffffffffff81111561144657600080fd5b6020830191508360208260051b850101111561146157600080fd5b9250929050565b6000806000806000806000806080898b03121561148457600080fd5b883567ffffffffffffffff8082111561149c57600080fd5b6114a88c838d0161141c565b909a50985060208b01359150808211156114c157600080fd5b6114cd8c838d0161141c565b909850965060408b01359150808211156114e657600080fd5b6114f28c838d0161141c565b909650945060608b013591508082111561150b57600080fd5b506115188b828c0161141c565b999c989b5096995094979396929594505050565b6020808252825182820181905260009190848201906040850190845b8181101561156457835183529284019291840191600101611548565b50909695505050505050565b600080600080600060a0868803121561158857600080fd5b61159186611354565b97602087013597506040870135966060810135965060800135945092505050565b600080600080604085870312156115c857600080fd5b843567ffffffffffffffff808211156115e057600080fd5b6115ec8883890161141c565b9096509450602087013591508082111561160557600080fd5b506116128782880161141c565b95989497509550505050565b6000806020838503121561163157600080fd5b823567ffffffffffffffff8082111561164957600080fd5b818501915085601f83011261165d57600080fd5b81358181111561166c57600080fd5b86602082850101111561167e57600080fd5b60209290920196919550909350505050565b6000602082840312156116a257600080fd5b6106d282611354565b600080600080600080600080600060a08a8c0312156116c957600080fd5b6116d28a611354565b985060208a013567ffffffffffffffff808211156116ef57600080fd5b6116fb8d838e0161141c565b909a50985060408c013591508082111561171457600080fd5b6117208d838e0161141c565b909850965060608c013591508082111561173957600080fd5b6117458d838e0161141c565b909650945060808c013591508082111561175e57600080fd5b5061176b8c828d0161141c565b915080935050809150509295985092959850929598565b60008060006060848603121561179757600080fd5b6117a084611354565b95602085013595506040909401359392505050565b6000602082840312156117c757600080fd5b5051919050565b634e487b7160e01b600052601160045260246000fd5b808201808211156106d5576106d56117ce565b80820281158282048414176106d5576106d56117ce565b60008261182b57634e487b7160e01b600052601260045260246000fd5b500490565b81835260006001600160fb1b0383111561184957600080fd5b8260051b80836020870137939093016020019392505050565b608081526000611876608083018a8c611830565b828103602084015261188981898b611830565b9050828103604084015261189e818789611830565b905082810360608401526118b3818587611830565b9b9a5050505050505050505050565b634e487b7160e01b600052604160045260246000fd5b604051601f8201601f1916810167ffffffffffffffff81118282101715611901576119016118c2565b604052919050565b600067ffffffffffffffff821115611923576119236118c2565b5060051b60200190565b6000602080838503121561194057600080fd5b825167ffffffffffffffff81111561195757600080fd5b8301601f8101851361196857600080fd5b805161197b61197682611909565b6118d8565b81815260059190911b8201830190838101908783111561199a57600080fd5b928401925b828410156119b85783518252928401929084019061199f565b979650505050505050565b81835281816020850137506000828201602090810191909152601f909101601f19169091010190565b6040808252810184905260006060600586901b8301810190830187835b88811015611a7d57858403605f190183528135368b9003601e19018112611a2f57600080fd5b8a01602081810191359067ffffffffffffffff821115611a4e57600080fd5b813603831315611a5d57600080fd5b611a688783856119c3565b96509485019493909301925050600101611a09565b50505082810360208401526119b8818587611830565b8183823760009101908152919050565b60008060408385031215611ab657600080fd5b505080516020909101519092909150565b600080600060608486031215611adc57600080fd5b8351925060208401519150604084015190509250925092565b6001600160a01b038a16815260a060208201819052600090611b1a9083018a8c611830565b8281036040840152611b2d81898b611830565b90508281036060840152611b42818789611830565b90508281036080840152610998818587611830565b600060208284031215611b6957600080fd5b815161070981611370565b634e487b7160e01b600052603260045260246000fd5b600060018201611b9c57611b9c6117ce565b506001019056fedb23cba216bfaed89070d2734596f2ee2a163099cfc4f5ef32036debc9792226a26469706673582212202c831e2d8cfc247b73193840b3d402612f531b9011fd73f419ef2cfd6da89e6f64736f6c63430008150033","opcodes":"PUSH1 0xA0 PUSH1 0x40 MSTORE CALLVALUE DUP1 ISZERO PUSH3 0x11 JUMPI PUSH1 0x0 DUP1 REVERT JUMPDEST POP PUSH1 0x40 MLOAD PUSH3 0x1FE8 CODESIZE SUB DUP1 PUSH3 0x1FE8 DUP4 CODECOPY DUP2 ADD PUSH1 0x40 DUP2 SWAP1 MSTORE PUSH3 0x34 SWAP2 PUSH3 0x231 JUMP JUMPDEST PUSH1 0x1 PUSH1 0x1 PUSH1 0xA0 SHL SUB DUP7 AND PUSH3 0x5C JUMPI PUSH1 0x40 MLOAD PUSH4 0x4A787E9B PUSH1 0xE1 SHL DUP2 MSTORE PUSH1 0x4 ADD PUSH1 0x40 MLOAD DUP1 SWAP2 SUB SWAP1 REVERT JUMPDEST PUSH1 0x1 PUSH1 0x1 PUSH1 0xA0 SHL SUB DUP6 AND PUSH3 0x84 JUMPI PUSH1 0x40 MLOAD PUSH4 0x1023F93D PUSH1 0xE0 SHL DUP2 MSTORE PUSH1 0x4 ADD PUSH1 0x40 MLOAD DUP1 SWAP2 SUB SWAP1 REVERT JUMPDEST PUSH2 0x2710 DUP3 GT ISZERO PUSH3 0xA8 JUMPI PUSH1 0x40 MLOAD PUSH4 0x5DFB18EB PUSH1 0xE0 SHL DUP2 MSTORE PUSH1 0x4 ADD PUSH1 0x40 MLOAD DUP1 SWAP2 SUB SWAP1 REVERT JUMPDEST PUSH1 0x1 PUSH1 0x1 PUSH1 0xA0 SHL SUB DUP7 DUP2 AND PUSH1 0x80 MSTORE PUSH1 0x0 DUP1 SLOAD PUSH1 0x1 PUSH1 0x1 PUSH1 0xA0 SHL SUB NOT AND SWAP2 DUP8 AND SWAP2 SWAP1 SWAP2 OR DUP2 SSTORE PUSH1 0x1 DUP6 SWAP1 SSTORE PUSH1 0x2 DUP5 SWAP1 SSTORE PUSH1 0x3 DUP4 SWAP1 SSTORE JUMPDEST DUP2 MLOAD DUP2 LT ISZERO PUSH3 0x1F1 JUMPI PUSH1 0x0 PUSH1 0x1 PUSH1 0x1 PUSH1 0xA0 SHL SUB AND DUP3 DUP3 DUP2 MLOAD DUP2 LT PUSH3 0x107 JUMPI PUSH3 0x107 PUSH3 0x348 JUMP JUMPDEST PUSH1 0x20 MUL PUSH1 0x20 ADD ADD MLOAD PUSH1 0x1 PUSH1 0x1 PUSH1 0xA0 SHL SUB AND EQ PUSH3 0x1DC JUMPI PUSH1 0x1 PUSH1 0x4 PUSH1 0x0 DUP5 DUP5 DUP2 MLOAD DUP2 LT PUSH3 0x139 JUMPI PUSH3 0x139 PUSH3 0x348 JUMP JUMPDEST PUSH1 0x20 MUL PUSH1 0x20 ADD ADD MLOAD PUSH1 0x1 PUSH1 0x1 PUSH1 0xA0 SHL SUB AND PUSH1 0x1 PUSH1 0x1 PUSH1 0xA0 SHL SUB AND DUP2 MSTORE PUSH1 0x20 ADD SWAP1 DUP2 MSTORE PUSH1 0x20 ADD PUSH1 0x0 KECCAK256 PUSH1 0x0 PUSH2 0x100 EXP DUP2 SLOAD DUP2 PUSH1 0xFF MUL NOT AND SWAP1 DUP4 ISZERO ISZERO MUL OR SWAP1 SSTORE POP DUP2 DUP2 DUP2 MLOAD DUP2 LT PUSH3 0x18D JUMPI PUSH3 0x18D PUSH3 0x348 JUMP JUMPDEST PUSH1 0x20 MUL PUSH1 0x20 ADD ADD MLOAD PUSH1 0x1 PUSH1 0x1 PUSH1 0xA0 SHL SUB AND PUSH32 0xDB8E93BC198E2B2EEA2F3EBBFDBC11D697156217479AC1F45564EB70891E3D05 PUSH1 0x1 PUSH1 0x40 MLOAD PUSH3 0x1D3 SWAP2 ISZERO ISZERO DUP2 MSTORE PUSH1 0x20 ADD SWAP1 JUMP JUMPDEST PUSH1 0x40 MLOAD DUP1 SWAP2 SUB SWAP1 LOG2 JUMPDEST DUP1 PUSH3 0x1E8 DUP2 PUSH3 0x35E JUMP JUMPDEST SWAP2 POP POP PUSH3 0xDD JUMP JUMPDEST POP POP POP POP POP POP POP PUSH3 0x386 JUMP JUMPDEST DUP1 MLOAD PUSH1 0x1 PUSH1 0x1 PUSH1 0xA0 SHL SUB DUP2 AND DUP2 EQ PUSH3 0x216 JUMPI PUSH1 0x0 DUP1 REVERT JUMPDEST SWAP2 SWAP1 POP JUMP JUMPDEST PUSH4 0x4E487B71 PUSH1 0xE0 SHL PUSH1 0x0 MSTORE PUSH1 0x41 PUSH1 0x4 MSTORE PUSH1 0x24 PUSH1 0x0 REVERT JUMPDEST PUSH1 0x0 DUP1 PUSH1 0x0 DUP1 PUSH1 0x0 DUP1 PUSH1 0xC0 DUP8 DUP10 SUB SLT ISZERO PUSH3 0x24B JUMPI PUSH1 0x0 DUP1 REVERT JUMPDEST PUSH3 0x256 DUP8 PUSH3 0x1FE JUMP JUMPDEST SWAP6 POP PUSH1 0x20 PUSH3 0x267 DUP2 DUP10 ADD PUSH3 0x1FE JUMP JUMPDEST PUSH1 0x40 DUP10 ADD MLOAD PUSH1 0x60 DUP11 ADD MLOAD PUSH1 0x80 DUP12 ADD MLOAD PUSH1 0xA0 DUP13 ADD MLOAD SWAP4 SWAP10 POP SWAP2 SWAP8 POP SWAP6 POP SWAP4 POP PUSH1 0x1 PUSH1 0x1 PUSH1 0x40 SHL SUB DUP1 DUP3 GT ISZERO PUSH3 0x29B JUMPI PUSH1 0x0 DUP1 REVERT JUMPDEST DUP2 DUP11 ADD SWAP2 POP DUP11 PUSH1 0x1F DUP4 ADD SLT PUSH3 0x2B0 JUMPI PUSH1 0x0 DUP1 REVERT JUMPDEST DUP2 MLOAD DUP2 DUP2 GT ISZERO PUSH3 0x2C5 JUMPI PUSH3 0x2C5 PUSH3 0x21B JUMP JUMPDEST DUP1 PUSH1 0x5 SHL PUSH1 0x40 MLOAD PUSH1 0x1F NOT PUSH1 0x3F DUP4 ADD AND DUP2 ADD DUP2 DUP2 LT DUP6 DUP3 GT OR ISZERO PUSH3 0x2ED JUMPI PUSH3 0x2ED PUSH3 0x21B JUMP JUMPDEST PUSH1 0x40 MSTORE SWAP2 DUP3 MSTORE DUP5 DUP3 ADD SWAP3 POP DUP4 DUP2 ADD DUP6 ADD SWAP2 DUP14 DUP4 GT ISZERO PUSH3 0x30C JUMPI PUSH1 0x0 DUP1 REVERT JUMPDEST SWAP4 DUP6 ADD SWAP4 JUMPDEST DUP3 DUP6 LT ISZERO PUSH3 0x335 JUMPI PUSH3 0x325 DUP6 PUSH3 0x1FE JUMP JUMPDEST DUP5 MSTORE SWAP4 DUP6 ADD SWAP4 SWAP3 DUP6 ADD SWAP3 PUSH3 0x311 JUMP JUMPDEST DUP1 SWAP7 POP POP POP POP POP POP POP SWAP3 SWAP6 POP SWAP3 SWAP6 POP SWAP3 SWAP6 JUMP JUMPDEST PUSH4 0x4E487B71 PUSH1 0xE0 SHL PUSH1 0x0 MSTORE PUSH1 0x32 PUSH1 0x4 MSTORE PUSH1 0x24 PUSH1 0x0 REVERT JUMPDEST PUSH1 0x0 PUSH1 0x1 DUP3 ADD PUSH3 0x37F JUMPI PUSH4 0x4E487B71 PUSH1 0xE0 SHL PUSH1 0x0 MSTORE PUSH1 0x11 PUSH1 0x4 MSTORE PUSH1 0x24 PUSH1 0x0 REVERT JUMPDEST POP PUSH1 0x1 ADD SWAP1 JUMP JUMPDEST PUSH1 0x80 MLOAD PUSH2 0x1BF9 PUSH3 0x3EF PUSH1 0x0 CODECOPY PUSH1 0x0 DUP2 DUP2 PUSH2 0x55C ADD MSTORE DUP2 DUP2 PUSH2 0x638 ADD MSTORE DUP2 DUP2 PUSH2 0x737 ADD MSTORE DUP2 DUP2 PUSH2 0x7B7 ADD MSTORE DUP2 DUP2 PUSH2 0x8F8 ADD MSTORE DUP2 DUP2 PUSH2 0xA72 ADD MSTORE DUP2 DUP2 PUSH2 0xC46 ADD MSTORE DUP2 DUP2 PUSH2 0xD32 ADD MSTORE DUP2 DUP2 PUSH2 0xE1D ADD MSTORE DUP2 DUP2 PUSH2 0xFD5 ADD MSTORE DUP2 DUP2 PUSH2 0x115F ADD MSTORE PUSH2 0x1217 ADD MSTORE PUSH2 0x1BF9 PUSH1 0x0 RETURN INVALID PUSH1 0x80 PUSH1 0x40 MSTORE PUSH1 0x4 CALLDATASIZE LT PUSH2 0x1C6 JUMPI PUSH1 0x0 CALLDATALOAD PUSH1 0xE0 SHR DUP1 PUSH4 0x63173BE7 GT PUSH2 0xF7 JUMPI DUP1 PUSH4 0xC1757E36 GT PUSH2 0x95 JUMPI DUP1 PUSH4 0xEE3ABE38 GT PUSH2 0x64 JUMPI DUP1 PUSH4 0xEE3ABE38 EQ PUSH2 0x4EA JUMPI DUP1 PUSH4 0xF48371C0 EQ PUSH2 0x50A JUMPI DUP1 PUSH4 0xF5719008 EQ PUSH2 0x52A JUMPI DUP1 PUSH4 0xF8073C76 EQ PUSH2 0x54A JUMPI PUSH1 0x0 DUP1 REVERT JUMPDEST DUP1 PUSH4 0xC1757E36 EQ PUSH2 0x497 JUMPI DUP1 PUSH4 0xD73792A9 EQ PUSH2 0x315 JUMPI DUP1 PUSH4 0xDEA9423A EQ PUSH2 0x4B7 JUMPI DUP1 PUSH4 0xE74B981B EQ PUSH2 0x4CA JUMPI PUSH1 0x0 DUP1 REVERT JUMPDEST DUP1 PUSH4 0x7D4EAA91 GT PUSH2 0xD1 JUMPI DUP1 PUSH4 0x7D4EAA91 EQ PUSH2 0x3C7 JUMPI DUP1 PUSH4 0xAD934C18 EQ PUSH2 0x3FC JUMPI DUP1 PUSH4 0xB3EC372E EQ PUSH2 0x41C JUMPI DUP1 PUSH4 0xC12F7947 EQ PUSH2 0x45C JUMPI PUSH1 0x0 DUP1 REVERT JUMPDEST DUP1 PUSH4 0x63173BE7 EQ PUSH2 0x371 JUMPI DUP1 PUSH4 0x6828CAA6 EQ PUSH2 0x387 JUMPI DUP1 PUSH4 0x717BA4D9 EQ PUSH2 0x3A7 JUMPI PUSH1 0x0 DUP1 REVERT JUMPDEST DUP1 PUSH4 0x33332D39 GT PUSH2 0x164 JUMPI DUP1 PUSH4 0x558E44D3 GT PUSH2 0x13E JUMPI DUP1 PUSH4 0x558E44D3 EQ PUSH2 0x315 JUMPI DUP1 PUSH4 0x58A19D5E EQ PUSH2 0x32B JUMPI DUP1 PUSH4 0x5CE33D4F EQ PUSH2 0x33E JUMPI DUP1 PUSH4 0x61403309 EQ PUSH2 0x35E JUMPI PUSH1 0x0 DUP1 REVERT JUMPDEST DUP1 PUSH4 0x33332D39 EQ PUSH2 0x2A8 JUMPI DUP1 PUSH4 0x3C6BBF45 EQ PUSH2 0x2BD JUMPI DUP1 PUSH4 0x46904840 EQ PUSH2 0x2DD JUMPI PUSH1 0x0 DUP1 REVERT JUMPDEST DUP1 PUSH4 0xF060799 GT PUSH2 0x1A0 JUMPI DUP1 PUSH4 0xF060799 EQ PUSH2 0x232 JUMPI DUP1 PUSH4 0xFF2663C EQ PUSH2 0x248 JUMPI DUP1 PUSH4 0x247D284B EQ PUSH2 0x268 JUMPI DUP1 PUSH4 0x2E1AA0F2 EQ PUSH2 0x288 JUMPI PUSH1 0x0 DUP1 REVERT JUMPDEST DUP1 PUSH4 0x2EF36C7 EQ PUSH2 0x1D2 JUMPI DUP1 PUSH4 0x82E709F EQ PUSH2 0x1FB JUMPI DUP1 PUSH4 0xD65C91C EQ PUSH2 0x21D JUMPI PUSH1 0x0 DUP1 REVERT JUMPDEST CALLDATASIZE PUSH2 0x1CD JUMPI STOP JUMPDEST PUSH1 0x0 DUP1 REVERT JUMPDEST CALLVALUE DUP1 ISZERO PUSH2 0x1DE JUMPI PUSH1 0x0 DUP1 REVERT JUMPDEST POP PUSH2 0x1E8 PUSH1 0x2 SLOAD DUP2 JUMP JUMPDEST PUSH1 0x40 MLOAD SWAP1 DUP2 MSTORE PUSH1 0x20 ADD JUMPDEST PUSH1 0x40 MLOAD DUP1 SWAP2 SUB SWAP1 RETURN JUMPDEST CALLVALUE DUP1 ISZERO PUSH2 0x207 JUMPI PUSH1 0x0 DUP1 REVERT JUMPDEST POP PUSH2 0x21B PUSH2 0x216 CALLDATASIZE PUSH1 0x4 PUSH2 0x137E JUMP JUMPDEST PUSH2 0x57E JUMP JUMPDEST STOP JUMPDEST CALLVALUE DUP1 ISZERO PUSH2 0x229 JUMPI PUSH1 0x0 DUP1 REVERT JUMPDEST POP PUSH2 0x1E8 PUSH2 0x634 JUMP JUMPDEST CALLVALUE DUP1 ISZERO PUSH2 0x23E JUMPI PUSH1 0x0 DUP1 REVERT JUMPDEST POP PUSH2 0x1E8 PUSH1 0x1 SLOAD DUP2 JUMP JUMPDEST CALLVALUE DUP1 ISZERO PUSH2 0x254 JUMPI PUSH1 0x0 DUP1 REVERT JUMPDEST POP PUSH2 0x1E8 PUSH2 0x263 CALLDATASIZE PUSH1 0x4 PUSH2 0x13B5 JUMP JUMPDEST PUSH2 0x6BD JUMP JUMPDEST CALLVALUE DUP1 ISZERO PUSH2 0x274 JUMPI PUSH1 0x0 DUP1 REVERT JUMPDEST POP PUSH2 0x1E8 PUSH2 0x283 CALLDATASIZE PUSH1 0x4 PUSH2 0x13D7 JUMP JUMPDEST PUSH2 0x6DB JUMP JUMPDEST CALLVALUE DUP1 ISZERO PUSH2 0x294 JUMPI PUSH1 0x0 DUP1 REVERT JUMPDEST POP PUSH2 0x1E8 PUSH2 0x2A3 CALLDATASIZE PUSH1 0x4 PUSH2 0x13F0 JUMP JUMPDEST PUSH2 0x710 JUMP JUMPDEST CALLVALUE DUP1 ISZERO PUSH2 0x2B4 JUMPI PUSH1 0x0 DUP1 REVERT JUMPDEST POP PUSH2 0x1E8 PUSH2 0x7B3 JUMP JUMPDEST PUSH2 0x2D0 PUSH2 0x2CB CALLDATASIZE PUSH1 0x4 PUSH2 0x1468 JUMP JUMPDEST PUSH2 0x813 JUMP JUMPDEST PUSH1 0x40 MLOAD PUSH2 0x1F2 SWAP2 SWAP1 PUSH2 0x152C JUMP JUMPDEST CALLVALUE DUP1 ISZERO PUSH2 0x2E9 JUMPI PUSH1 0x0 DUP1 REVERT JUMPDEST POP PUSH1 0x0 SLOAD PUSH2 0x2FD SWAP1 PUSH1 0x1 PUSH1 0x1 PUSH1 0xA0 SHL SUB AND DUP2 JUMP JUMPDEST PUSH1 0x40 MLOAD PUSH1 0x1 PUSH1 0x1 PUSH1 0xA0 SHL SUB SWAP1 SWAP2 AND DUP2 MSTORE PUSH1 0x20 ADD PUSH2 0x1F2 JUMP JUMPDEST CALLVALUE DUP1 ISZERO PUSH2 0x321 JUMPI PUSH1 0x0 DUP1 REVERT JUMPDEST POP PUSH2 0x1E8 PUSH2 0x2710 DUP2 JUMP JUMPDEST PUSH2 0x1E8 PUSH2 0x339 CALLDATASIZE PUSH1 0x4 PUSH2 0x1570 JUMP JUMPDEST PUSH2 0x9A8 JUMP JUMPDEST CALLVALUE DUP1 ISZERO PUSH2 0x34A JUMPI PUSH1 0x0 DUP1 REVERT JUMPDEST POP PUSH2 0x21B PUSH2 0x359 CALLDATASIZE PUSH1 0x4 PUSH2 0x13D7 JUMP JUMPDEST PUSH2 0xAED JUMP JUMPDEST PUSH2 0x2D0 PUSH2 0x36C CALLDATASIZE PUSH1 0x4 PUSH2 0x15B2 JUMP JUMPDEST PUSH2 0xB86 JUMP JUMPDEST CALLVALUE DUP1 ISZERO PUSH2 0x37D JUMPI PUSH1 0x0 DUP1 REVERT JUMPDEST POP PUSH2 0x1E8 PUSH1 0x3 SLOAD DUP2 JUMP JUMPDEST CALLVALUE DUP1 ISZERO PUSH2 0x393 JUMPI PUSH1 0x0 DUP1 REVERT JUMPDEST POP PUSH2 0x1E8 PUSH2 0x3A2 CALLDATASIZE PUSH1 0x4 PUSH2 0x161E JUMP JUMPDEST PUSH2 0xCCA JUMP JUMPDEST CALLVALUE DUP1 ISZERO PUSH2 0x3B3 JUMPI PUSH1 0x0 DUP1 REVERT JUMPDEST POP PUSH2 0x1E8 PUSH2 0x3C2 CALLDATASIZE PUSH1 0x4 PUSH2 0x13D7 JUMP JUMPDEST PUSH2 0xCEC JUMP JUMPDEST CALLVALUE DUP1 ISZERO PUSH2 0x3D3 JUMPI PUSH1 0x0 DUP1 REVERT JUMPDEST POP PUSH2 0x3E7 PUSH2 0x3E2 CALLDATASIZE PUSH1 0x4 PUSH2 0x13F0 JUMP JUMPDEST PUSH2 0xD01 JUMP JUMPDEST PUSH1 0x40 DUP1 MLOAD SWAP3 DUP4 MSTORE PUSH1 0x20 DUP4 ADD SWAP2 SWAP1 SWAP2 MSTORE ADD PUSH2 0x1F2 JUMP JUMPDEST CALLVALUE DUP1 ISZERO PUSH2 0x408 JUMPI PUSH1 0x0 DUP1 REVERT JUMPDEST POP PUSH2 0x21B PUSH2 0x417 CALLDATASIZE PUSH1 0x4 PUSH2 0x13D7 JUMP JUMPDEST PUSH2 0xDA8 JUMP JUMPDEST CALLVALUE DUP1 ISZERO PUSH2 0x428 JUMPI PUSH1 0x0 DUP1 REVERT JUMPDEST POP PUSH2 0x44C PUSH2 0x437 CALLDATASIZE PUSH1 0x4 PUSH2 0x1690 JUMP JUMPDEST PUSH1 0x4 PUSH1 0x20 MSTORE PUSH1 0x0 SWAP1 DUP2 MSTORE PUSH1 0x40 SWAP1 KECCAK256 SLOAD PUSH1 0xFF AND DUP2 JUMP JUMPDEST PUSH1 0x40 MLOAD SWAP1 ISZERO ISZERO DUP2 MSTORE PUSH1 0x20 ADD PUSH2 0x1F2 JUMP JUMPDEST CALLVALUE DUP1 ISZERO PUSH2 0x468 JUMPI PUSH1 0x0 DUP1 REVERT JUMPDEST POP PUSH2 0x47C PUSH2 0x477 CALLDATASIZE PUSH1 0x4 PUSH2 0x13D7 JUMP JUMPDEST PUSH2 0xE16 JUMP JUMPDEST PUSH1 0x40 DUP1 MLOAD SWAP4 DUP5 MSTORE PUSH1 0x20 DUP5 ADD SWAP3 SWAP1 SWAP3 MSTORE SWAP1 DUP3 ADD MSTORE PUSH1 0x60 ADD PUSH2 0x1F2 JUMP JUMPDEST CALLVALUE DUP1 ISZERO PUSH2 0x4A3 JUMPI PUSH1 0x0 DUP1 REVERT JUMPDEST POP PUSH2 0x1E8 PUSH2 0x4B2 CALLDATASIZE PUSH1 0x4 PUSH2 0x13D7 JUMP JUMPDEST PUSH2 0xEB7 JUMP JUMPDEST PUSH2 0x2D0 PUSH2 0x4C5 CALLDATASIZE PUSH1 0x4 PUSH2 0x16AB JUMP JUMPDEST PUSH2 0xEC7 JUMP JUMPDEST CALLVALUE DUP1 ISZERO PUSH2 0x4D6 JUMPI PUSH1 0x0 DUP1 REVERT JUMPDEST POP PUSH2 0x21B PUSH2 0x4E5 CALLDATASIZE PUSH1 0x4 PUSH2 0x1690 JUMP JUMPDEST PUSH2 0x1088 JUMP JUMPDEST CALLVALUE DUP1 ISZERO PUSH2 0x4F6 JUMPI PUSH1 0x0 DUP1 REVERT JUMPDEST POP PUSH2 0x1E8 PUSH2 0x505 CALLDATASIZE PUSH1 0x4 PUSH2 0x1782 JUMP JUMPDEST PUSH2 0x112F JUMP JUMPDEST CALLVALUE DUP1 ISZERO PUSH2 0x516 JUMPI PUSH1 0x0 DUP1 REVERT JUMPDEST POP PUSH2 0x21B PUSH2 0x525 CALLDATASIZE PUSH1 0x4 PUSH2 0x13D7 JUMP JUMPDEST PUSH2 0x1190 JUMP JUMPDEST CALLVALUE DUP1 ISZERO PUSH2 0x536 JUMPI PUSH1 0x0 DUP1 REVERT JUMPDEST POP PUSH2 0x44C PUSH2 0x545 CALLDATASIZE PUSH1 0x4 PUSH2 0x13D7 JUMP JUMPDEST PUSH2 0x11FE JUMP JUMPDEST CALLVALUE DUP1 ISZERO PUSH2 0x556 JUMPI PUSH1 0x0 DUP1 REVERT JUMPDEST POP PUSH2 0x2FD PUSH32 0x0 DUP2 JUMP JUMPDEST CALLER PUSH1 0x0 SWAP1 DUP2 MSTORE PUSH1 0x4 PUSH1 0x20 MSTORE PUSH1 0x40 SWAP1 KECCAK256 SLOAD PUSH1 0xFF AND PUSH2 0x5AE JUMPI PUSH1 0x40 MLOAD PUSH4 0x90C7C071 PUSH1 0xE0 SHL DUP2 MSTORE PUSH1 0x4 ADD PUSH1 0x40 MLOAD DUP1 SWAP2 SUB SWAP1 REVERT JUMPDEST PUSH1 0x1 PUSH1 0x1 PUSH1 0xA0 SHL SUB DUP3 AND PUSH2 0x5D5 JUMPI PUSH1 0x40 MLOAD PUSH4 0xE4799D2B PUSH1 0xE0 SHL DUP2 MSTORE PUSH1 0x4 ADD PUSH1 0x40 MLOAD DUP1 SWAP2 SUB SWAP1 REVERT JUMPDEST PUSH1 0x1 PUSH1 0x1 PUSH1 0xA0 SHL SUB DUP3 AND PUSH1 0x0 DUP2 DUP2 MSTORE PUSH1 0x4 PUSH1 0x20 SWAP1 DUP2 MSTORE PUSH1 0x40 SWAP2 DUP3 SWAP1 KECCAK256 DUP1 SLOAD PUSH1 0xFF NOT AND DUP6 ISZERO ISZERO SWAP1 DUP2 OR SWAP1 SWAP2 SSTORE SWAP2 MLOAD SWAP2 DUP3 MSTORE PUSH32 0xDB8E93BC198E2B2EEA2F3EBBFDBC11D697156217479AC1F45564EB70891E3D05 SWAP2 ADD PUSH1 0x40 MLOAD DUP1 SWAP2 SUB SWAP1 LOG2 POP POP JUMP JUMPDEST PUSH1 0x0 PUSH32 0x0 PUSH1 0x1 PUSH1 0x1 PUSH1 0xA0 SHL SUB AND PUSH4 0xD65C91C PUSH1 0x40 MLOAD DUP2 PUSH4 0xFFFFFFFF AND PUSH1 0xE0 SHL DUP2 MSTORE PUSH1 0x4 ADD PUSH1 0x20 PUSH1 0x40 MLOAD DUP1 DUP4 SUB DUP2 DUP7 GAS STATICCALL ISZERO DUP1 ISZERO PUSH2 0x694 JUMPI RETURNDATASIZE PUSH1 0x0 DUP1 RETURNDATACOPY RETURNDATASIZE PUSH1 0x0 REVERT JUMPDEST POP POP POP POP PUSH1 0x40 MLOAD RETURNDATASIZE PUSH1 0x1F NOT PUSH1 0x1F DUP3 ADD AND DUP3 ADD DUP1 PUSH1 0x40 MSTORE POP DUP2 ADD SWAP1 PUSH2 0x6B8 SWAP2 SWAP1 PUSH2 0x17B5 JUMP JUMPDEST SWAP1 POP SWAP1 JUMP JUMPDEST PUSH1 0x0 PUSH2 0x6C8 DUP4 PUSH2 0xEB7 JUMP JUMPDEST PUSH2 0x6D2 SWAP1 DUP4 PUSH2 0x17E4 JUMP JUMPDEST SWAP1 POP JUMPDEST SWAP3 SWAP2 POP POP JUMP JUMPDEST PUSH1 0x0 DUP1 PUSH2 0x2710 PUSH1 0x3 SLOAD DUP5 PUSH2 0x6EF SWAP2 SWAP1 PUSH2 0x17F7 JUMP JUMPDEST PUSH2 0x6F9 SWAP2 SWAP1 PUSH2 0x180E JUMP JUMPDEST SWAP1 POP DUP1 PUSH1 0x2 SLOAD PUSH2 0x709 SWAP2 SWAP1 PUSH2 0x17E4 JUMP JUMPDEST SWAP4 SWAP3 POP POP POP JUMP JUMPDEST PUSH1 0x40 MLOAD PUSH4 0x170D5079 PUSH1 0xE1 SHL DUP2 MSTORE PUSH1 0x4 DUP2 ADD DUP5 SWAP1 MSTORE PUSH1 0x24 DUP2 ADD DUP4 SWAP1 MSTORE PUSH1 0x44 DUP2 ADD DUP3 SWAP1 MSTORE PUSH1 0x0 SWAP1 PUSH32 0x0 PUSH1 0x1 PUSH1 0x1 PUSH1 0xA0 SHL SUB AND SWAP1 PUSH4 0x2E1AA0F2 SWAP1 PUSH1 0x64 ADD JUMPDEST PUSH1 0x20 PUSH1 0x40 MLOAD DUP1 DUP4 SUB DUP2 DUP7 GAS STATICCALL ISZERO DUP1 ISZERO PUSH2 0x787 JUMPI RETURNDATASIZE PUSH1 0x0 DUP1 RETURNDATACOPY RETURNDATASIZE PUSH1 0x0 REVERT JUMPDEST POP POP POP POP PUSH1 0x40 MLOAD RETURNDATASIZE PUSH1 0x1F NOT PUSH1 0x1F DUP3 ADD AND DUP3 ADD DUP1 PUSH1 0x40 MSTORE POP DUP2 ADD SWAP1 PUSH2 0x7AB SWAP2 SWAP1 PUSH2 0x17B5 JUMP JUMPDEST SWAP5 SWAP4 POP POP POP POP JUMP JUMPDEST PUSH1 0x0 PUSH32 0x0 PUSH1 0x1 PUSH1 0x1 PUSH1 0xA0 SHL SUB AND PUSH4 0x33332D39 PUSH1 0x40 MLOAD DUP2 PUSH4 0xFFFFFFFF AND PUSH1 0xE0 SHL DUP2 MSTORE PUSH1 0x4 ADD PUSH1 0x20 PUSH1 0x40 MLOAD DUP1 DUP4 SUB DUP2 DUP7 GAS STATICCALL ISZERO DUP1 ISZERO PUSH2 0x694 JUMPI RETURNDATASIZE PUSH1 0x0 DUP1 RETURNDATACOPY RETURNDATASIZE PUSH1 0x0 REVERT JUMPDEST PUSH1 0x60 DUP8 DUP7 EQ ISZERO DUP1 PUSH2 0x824 JUMPI POP DUP6 DUP5 EQ ISZERO JUMPDEST DUP1 PUSH2 0x82F JUMPI POP DUP4 DUP3 EQ ISZERO JUMPDEST ISZERO PUSH2 0x84D JUMPI PUSH1 0x40 MLOAD PUSH4 0xA9087E4B PUSH1 0xE0 SHL DUP2 MSTORE PUSH1 0x4 ADD PUSH1 0x40 MLOAD DUP1 SWAP2 SUB SWAP1 REVERT JUMPDEST PUSH1 0x0 PUSH2 0x858 DUP10 PUSH2 0xEB7 JUMP JUMPDEST SWAP1 POP PUSH1 0x0 PUSH2 0x866 DUP6 DUP6 PUSH2 0x128A JUMP JUMPDEST SWAP1 POP PUSH1 0x0 PUSH2 0x874 DUP3 DUP5 PUSH2 0x17E4 JUMP JUMPDEST SWAP1 POP DUP1 CALLVALUE LT ISZERO PUSH2 0x897 JUMPI PUSH1 0x40 MLOAD PUSH4 0x39E57743 PUSH1 0xE0 SHL DUP2 MSTORE PUSH1 0x4 ADD PUSH1 0x40 MLOAD DUP1 SWAP2 SUB SWAP1 REVERT JUMPDEST PUSH2 0x8A0 DUP4 PUSH2 0x12D5 JUMP JUMPDEST CALLER PUSH1 0x1 PUSH1 0x1 PUSH1 0xA0 SHL SUB AND PUSH1 0x0 DUP1 MLOAD PUSH1 0x20 PUSH2 0x1BA4 DUP4 CODECOPY DUP2 MLOAD SWAP2 MSTORE DUP5 PUSH1 0x40 MLOAD PUSH2 0x8EE SWAP2 DUP2 MSTORE PUSH1 0x40 PUSH1 0x20 DUP3 ADD DUP2 SWAP1 MSTORE PUSH1 0xD SWAP1 DUP3 ADD MSTORE PUSH13 0x637265617465547269706C6573 PUSH1 0x98 SHL PUSH1 0x60 DUP3 ADD MSTORE PUSH1 0x80 ADD SWAP1 JUMP JUMPDEST PUSH1 0x40 MLOAD DUP1 SWAP2 SUB SWAP1 LOG2 PUSH32 0x0 PUSH1 0x1 PUSH1 0x1 PUSH1 0xA0 SHL SUB AND PUSH4 0x3C6BBF45 DUP4 DUP15 DUP15 DUP15 DUP15 DUP15 DUP15 DUP15 DUP15 PUSH1 0x40 MLOAD DUP11 PUSH4 0xFFFFFFFF AND PUSH1 0xE0 SHL DUP2 MSTORE PUSH1 0x4 ADD PUSH2 0x951 SWAP9 SWAP8 SWAP7 SWAP6 SWAP5 SWAP4 SWAP3 SWAP2 SWAP1 PUSH2 0x1862 JUMP JUMPDEST PUSH1 0x0 PUSH1 0x40 MLOAD DUP1 DUP4 SUB DUP2 DUP6 DUP9 GAS CALL ISZERO DUP1 ISZERO PUSH2 0x96F JUMPI RETURNDATASIZE PUSH1 0x0 DUP1 RETURNDATACOPY RETURNDATASIZE PUSH1 0x0 REVERT JUMPDEST POP POP POP POP POP PUSH1 0x40 MLOAD RETURNDATASIZE PUSH1 0x0 DUP3 RETURNDATACOPY PUSH1 0x1F RETURNDATASIZE SWAP1 DUP2 ADD PUSH1 0x1F NOT AND DUP3 ADD PUSH1 0x40 MSTORE PUSH2 0x998 SWAP2 SWAP1 DUP2 ADD SWAP1 PUSH2 0x192D JUMP JUMPDEST SWAP13 SWAP12 POP POP POP POP POP POP POP POP POP POP POP POP JUMP JUMPDEST PUSH1 0x0 DUP1 PUSH2 0x9B4 DUP4 PUSH2 0x6DB JUMP JUMPDEST SWAP1 POP PUSH1 0x0 PUSH2 0x9C2 DUP3 DUP6 PUSH2 0x17E4 JUMP JUMPDEST SWAP1 POP DUP1 CALLVALUE LT ISZERO PUSH2 0x9E5 JUMPI PUSH1 0x40 MLOAD PUSH4 0x39E57743 PUSH1 0xE0 SHL DUP2 MSTORE PUSH1 0x4 ADD PUSH1 0x40 MLOAD DUP1 SWAP2 SUB SWAP1 REVERT JUMPDEST PUSH2 0x9EE DUP3 PUSH2 0x12D5 JUMP JUMPDEST CALLER PUSH1 0x1 PUSH1 0x1 PUSH1 0xA0 SHL SUB AND PUSH1 0x0 DUP1 MLOAD PUSH1 0x20 PUSH2 0x1BA4 DUP4 CODECOPY DUP2 MLOAD SWAP2 MSTORE DUP4 PUSH1 0x40 MLOAD PUSH2 0xA36 SWAP2 DUP2 MSTORE PUSH1 0x40 PUSH1 0x20 DUP3 ADD DUP2 SWAP1 MSTORE PUSH1 0x7 SWAP1 DUP3 ADD MSTORE PUSH7 0x19195C1BDCDA5D PUSH1 0xCA SHL PUSH1 0x60 DUP3 ADD MSTORE PUSH1 0x80 ADD SWAP1 JUMP JUMPDEST PUSH1 0x40 MLOAD DUP1 SWAP2 SUB SWAP1 LOG2 PUSH1 0x40 MLOAD PUSH4 0x2FB1D27 PUSH1 0xE4 SHL DUP2 MSTORE PUSH1 0x1 PUSH1 0x1 PUSH1 0xA0 SHL SUB DUP10 DUP2 AND PUSH1 0x4 DUP4 ADD MSTORE PUSH1 0x24 DUP3 ADD DUP10 SWAP1 MSTORE PUSH1 0x44 DUP3 ADD DUP9 SWAP1 MSTORE PUSH1 0x64 DUP3 ADD DUP8 SWAP1 MSTORE PUSH32 0x0 AND SWAP1 PUSH4 0x2FB1D270 SWAP1 DUP7 SWAP1 PUSH1 0x84 ADD PUSH1 0x20 PUSH1 0x40 MLOAD DUP1 DUP4 SUB DUP2 DUP6 DUP9 GAS CALL ISZERO DUP1 ISZERO PUSH2 0xABC JUMPI RETURNDATASIZE PUSH1 0x0 DUP1 RETURNDATACOPY RETURNDATASIZE PUSH1 0x0 REVERT JUMPDEST POP POP POP POP POP PUSH1 0x40 MLOAD RETURNDATASIZE PUSH1 0x1F NOT PUSH1 0x1F DUP3 ADD AND DUP3 ADD DUP1 PUSH1 0x40 MSTORE POP DUP2 ADD SWAP1 PUSH2 0xAE1 SWAP2 SWAP1 PUSH2 0x17B5 JUMP JUMPDEST SWAP9 SWAP8 POP POP POP POP POP POP POP POP JUMP JUMPDEST CALLER PUSH1 0x0 SWAP1 DUP2 MSTORE PUSH1 0x4 PUSH1 0x20 MSTORE PUSH1 0x40 SWAP1 KECCAK256 SLOAD PUSH1 0xFF AND PUSH2 0xB1D JUMPI PUSH1 0x40 MLOAD PUSH4 0x90C7C071 PUSH1 0xE0 SHL DUP2 MSTORE PUSH1 0x4 ADD PUSH1 0x40 MLOAD DUP1 SWAP2 SUB SWAP1 REVERT JUMPDEST PUSH2 0x2710 DUP2 GT ISZERO PUSH2 0xB40 JUMPI PUSH1 0x40 MLOAD PUSH4 0x5DFB18EB PUSH1 0xE0 SHL DUP2 MSTORE PUSH1 0x4 ADD PUSH1 0x40 MLOAD DUP1 SWAP2 SUB SWAP1 REVERT JUMPDEST PUSH1 0x3 DUP1 SLOAD SWAP1 DUP3 SWAP1 SSTORE PUSH1 0x40 DUP1 MLOAD DUP3 DUP2 MSTORE PUSH1 0x20 DUP2 ADD DUP5 SWAP1 MSTORE PUSH32 0x941228A4ACE352CB2D85F4FC40701585A9BA154072A8794BFF7DB2BB61277734 SWAP2 ADD JUMPDEST PUSH1 0x40 MLOAD DUP1 SWAP2 SUB SWAP1 LOG1 POP POP JUMP JUMPDEST PUSH1 0x60 PUSH1 0x0 PUSH2 0xB93 DUP6 PUSH2 0xEB7 JUMP JUMPDEST SWAP1 POP PUSH1 0x0 PUSH2 0xBA1 DUP6 DUP6 PUSH2 0x128A JUMP JUMPDEST SWAP1 POP PUSH1 0x0 PUSH2 0xBAF DUP3 DUP5 PUSH2 0x17E4 JUMP JUMPDEST SWAP1 POP DUP1 CALLVALUE LT ISZERO PUSH2 0xBD2 JUMPI PUSH1 0x40 MLOAD PUSH4 0x39E57743 PUSH1 0xE0 SHL DUP2 MSTORE PUSH1 0x4 ADD PUSH1 0x40 MLOAD DUP1 SWAP2 SUB SWAP1 REVERT JUMPDEST PUSH2 0xBDB DUP4 PUSH2 0x12D5 JUMP JUMPDEST CALLER PUSH1 0x1 PUSH1 0x1 PUSH1 0xA0 SHL SUB AND PUSH1 0x0 DUP1 MLOAD PUSH1 0x20 PUSH2 0x1BA4 DUP4 CODECOPY DUP2 MLOAD SWAP2 MSTORE DUP5 PUSH1 0x40 MLOAD PUSH2 0xC27 SWAP2 DUP2 MSTORE PUSH1 0x40 PUSH1 0x20 DUP3 ADD DUP2 SWAP1 MSTORE PUSH1 0xB SWAP1 DUP3 ADD MSTORE PUSH11 0x63726561746541746F6D73 PUSH1 0xA8 SHL PUSH1 0x60 DUP3 ADD MSTORE PUSH1 0x80 ADD SWAP1 JUMP JUMPDEST PUSH1 0x40 MLOAD DUP1 SWAP2 SUB SWAP1 LOG2 PUSH1 0x40 MLOAD PUSH4 0x61403309 PUSH1 0xE0 SHL DUP2 MSTORE PUSH1 0x1 PUSH1 0x1 PUSH1 0xA0 SHL SUB PUSH32 0x0 AND SWAP1 PUSH4 0x61403309 SWAP1 DUP5 SWAP1 PUSH2 0xC83 SWAP1 DUP13 SWAP1 DUP13 SWAP1 DUP13 SWAP1 DUP13 SWAP1 PUSH1 0x4 ADD PUSH2 0x19EC JUMP JUMPDEST PUSH1 0x0 PUSH1 0x40 MLOAD DUP1 DUP4 SUB DUP2 DUP6 DUP9 GAS CALL ISZERO DUP1 ISZERO PUSH2 0xCA1 JUMPI RETURNDATASIZE PUSH1 0x0 DUP1 RETURNDATACOPY RETURNDATASIZE PUSH1 0x0 REVERT JUMPDEST POP POP POP POP POP PUSH1 0x40 MLOAD RETURNDATASIZE PUSH1 0x0 DUP3 RETURNDATACOPY PUSH1 0x1F RETURNDATASIZE SWAP1 DUP2 ADD PUSH1 0x1F NOT AND DUP3 ADD PUSH1 0x40 MSTORE PUSH2 0xAE1 SWAP2 SWAP1 DUP2 ADD SWAP1 PUSH2 0x192D JUMP JUMPDEST PUSH1 0x0 DUP3 DUP3 PUSH1 0x40 MLOAD PUSH2 0xCDC SWAP3 SWAP2 SWAP1 PUSH2 0x1A93 JUMP JUMPDEST PUSH1 0x40 MLOAD DUP1 SWAP2 SUB SWAP1 KECCAK256 SWAP1 POP SWAP3 SWAP2 POP POP JUMP JUMPDEST PUSH1 0x0 PUSH2 0xCF7 DUP3 PUSH2 0x6DB JUMP JUMPDEST PUSH2 0x6D5 SWAP1 DUP4 PUSH2 0x17E4 JUMP JUMPDEST PUSH1 0x40 MLOAD PUSH4 0x7D4EAA91 PUSH1 0xE0 SHL DUP2 MSTORE PUSH1 0x4 DUP2 ADD DUP5 SWAP1 MSTORE PUSH1 0x24 DUP2 ADD DUP4 SWAP1 MSTORE PUSH1 0x44 DUP2 ADD DUP3 SWAP1 MSTORE PUSH1 0x0 SWAP1 DUP2 SWAP1 PUSH1 0x1 PUSH1 0x1 PUSH1 0xA0 SHL SUB PUSH32 0x0 AND SWAP1 PUSH4 0x7D4EAA91 SWAP1 PUSH1 0x64 ADD PUSH1 0x40 DUP1 MLOAD DUP1 DUP4 SUB DUP2 DUP7 GAS STATICCALL ISZERO DUP1 ISZERO PUSH2 0xD78 JUMPI RETURNDATASIZE PUSH1 0x0 DUP1 RETURNDATACOPY RETURNDATASIZE PUSH1 0x0 REVERT JUMPDEST POP POP POP POP PUSH1 0x40 MLOAD RETURNDATASIZE PUSH1 0x1F NOT PUSH1 0x1F DUP3 ADD AND DUP3 ADD DUP1 PUSH1 0x40 MSTORE POP DUP2 ADD SWAP1 PUSH2 0xD9C SWAP2 SWAP1 PUSH2 0x1AA3 JUMP JUMPDEST SWAP2 POP SWAP2 POP SWAP4 POP SWAP4 SWAP2 POP POP JUMP JUMPDEST CALLER PUSH1 0x0 SWAP1 DUP2 MSTORE PUSH1 0x4 PUSH1 0x20 MSTORE PUSH1 0x40 SWAP1 KECCAK256 SLOAD PUSH1 0xFF AND PUSH2 0xDD8 JUMPI PUSH1 0x40 MLOAD PUSH4 0x90C7C071 PUSH1 0xE0 SHL DUP2 MSTORE PUSH1 0x4 ADD PUSH1 0x40 MLOAD DUP1 SWAP2 SUB SWAP1 REVERT JUMPDEST PUSH1 0x1 DUP1 SLOAD SWAP1 DUP3 SWAP1 SSTORE PUSH1 0x40 DUP1 MLOAD DUP3 DUP2 MSTORE PUSH1 0x20 DUP2 ADD DUP5 SWAP1 MSTORE PUSH32 0x5FCB23AFB0FB7986C3F826699011CF4D5126FD38C3105AD6F16690B2BD16D28 SWAP2 ADD PUSH2 0xB7A JUMP JUMPDEST PUSH1 0x0 DUP1 PUSH1 0x0 PUSH32 0x0 PUSH1 0x1 PUSH1 0x1 PUSH1 0xA0 SHL SUB AND PUSH4 0xC12F7947 DUP6 PUSH1 0x40 MLOAD DUP3 PUSH4 0xFFFFFFFF AND PUSH1 0xE0 SHL DUP2 MSTORE PUSH1 0x4 ADD PUSH2 0xE69 SWAP2 DUP2 MSTORE PUSH1 0x20 ADD SWAP1 JUMP JUMPDEST PUSH1 0x60 PUSH1 0x40 MLOAD DUP1 DUP4 SUB DUP2 DUP7 GAS STATICCALL ISZERO DUP1 ISZERO PUSH2 0xE86 JUMPI RETURNDATASIZE PUSH1 0x0 DUP1 RETURNDATACOPY RETURNDATASIZE PUSH1 0x0 REVERT JUMPDEST POP POP POP POP PUSH1 0x40 MLOAD RETURNDATASIZE PUSH1 0x1F NOT PUSH1 0x1F DUP3 ADD AND DUP3 ADD DUP1 PUSH1 0x40 MSTORE POP DUP2 ADD SWAP1 PUSH2 0xEAA SWAP2 SWAP1 PUSH2 0x1AC7 JUMP JUMPDEST SWAP3 POP SWAP3 POP SWAP3 POP SWAP2 SWAP4 SWAP1 SWAP3 POP JUMP JUMPDEST PUSH1 0x0 DUP2 PUSH1 0x1 SLOAD PUSH2 0x6D5 SWAP2 SWAP1 PUSH2 0x17F7 JUMP JUMPDEST PUSH1 0x60 DUP8 DUP7 EQ ISZERO DUP1 PUSH2 0xED8 JUMPI POP DUP6 DUP5 EQ ISZERO JUMPDEST DUP1 PUSH2 0xEE3 JUMPI POP DUP4 DUP3 EQ ISZERO JUMPDEST ISZERO PUSH2 0xF01 JUMPI PUSH1 0x40 MLOAD PUSH4 0xA9087E4B PUSH1 0xE0 SHL DUP2 MSTORE PUSH1 0x4 ADD PUSH1 0x40 MLOAD DUP1 SWAP2 SUB SWAP1 REVERT JUMPDEST PUSH1 0x0 PUSH2 0xF0D DUP7 DUP7 PUSH2 0x128A JUMP JUMPDEST SWAP1 POP PUSH1 0x0 PUSH2 0x2710 PUSH1 0x3 SLOAD DUP4 PUSH2 0xF22 SWAP2 SWAP1 PUSH2 0x17F7 JUMP JUMPDEST PUSH2 0xF2C SWAP2 SWAP1 PUSH2 0x180E JUMP JUMPDEST PUSH1 0x2 SLOAD PUSH2 0xF3A SWAP1 DUP13 SWAP1 PUSH2 0x17F7 JUMP JUMPDEST PUSH2 0xF44 SWAP2 SWAP1 PUSH2 0x17E4 JUMP JUMPDEST SWAP1 POP PUSH1 0x0 PUSH2 0xF52 DUP3 DUP5 PUSH2 0x17E4 JUMP JUMPDEST SWAP1 POP DUP1 CALLVALUE LT ISZERO PUSH2 0xF75 JUMPI PUSH1 0x40 MLOAD PUSH4 0x39E57743 PUSH1 0xE0 SHL DUP2 MSTORE PUSH1 0x4 ADD PUSH1 0x40 MLOAD DUP1 SWAP2 SUB SWAP1 REVERT JUMPDEST PUSH2 0xF7E DUP3 PUSH2 0x12D5 JUMP JUMPDEST CALLER PUSH1 0x1 PUSH1 0x1 PUSH1 0xA0 SHL SUB AND PUSH1 0x0 DUP1 MLOAD PUSH1 0x20 PUSH2 0x1BA4 DUP4 CODECOPY DUP2 MLOAD SWAP2 MSTORE DUP4 PUSH1 0x40 MLOAD PUSH2 0xFCB SWAP2 DUP2 MSTORE PUSH1 0x40 PUSH1 0x20 DUP3 ADD DUP2 SWAP1 MSTORE PUSH1 0xC SWAP1 DUP3 ADD MSTORE PUSH12 0xC8CAE0DEE6D2E884C2E8C6D PUSH1 0xA3 SHL PUSH1 0x60 DUP3 ADD MSTORE PUSH1 0x80 ADD SWAP1 JUMP JUMPDEST PUSH1 0x40 MLOAD DUP1 SWAP2 SUB SWAP1 LOG2 PUSH32 0x0 PUSH1 0x1 PUSH1 0x1 PUSH1 0xA0 SHL SUB AND PUSH4 0xDEA9423A DUP5 DUP16 DUP16 DUP16 DUP16 DUP16 DUP16 DUP16 DUP16 DUP16 PUSH1 0x40 MLOAD DUP12 PUSH4 0xFFFFFFFF AND PUSH1 0xE0 SHL DUP2 MSTORE PUSH1 0x4 ADD PUSH2 0x1030 SWAP10 SWAP9 SWAP8 SWAP7 SWAP6 SWAP5 SWAP4 SWAP3 SWAP2 SWAP1 PUSH2 0x1AF5 JUMP JUMPDEST PUSH1 0x0 PUSH1 0x40 MLOAD DUP1 DUP4 SUB DUP2 DUP6 DUP9 GAS CALL ISZERO DUP1 ISZERO PUSH2 0x104E JUMPI RETURNDATASIZE PUSH1 0x0 DUP1 RETURNDATACOPY RETURNDATASIZE PUSH1 0x0 REVERT JUMPDEST POP POP POP POP POP PUSH1 0x40 MLOAD RETURNDATASIZE PUSH1 0x0 DUP3 RETURNDATACOPY PUSH1 0x1F RETURNDATASIZE SWAP1 DUP2 ADD PUSH1 0x1F NOT AND DUP3 ADD PUSH1 0x40 MSTORE PUSH2 0x1077 SWAP2 SWAP1 DUP2 ADD SWAP1 PUSH2 0x192D JUMP JUMPDEST SWAP14 SWAP13 POP POP POP POP POP POP POP POP POP POP POP POP POP JUMP JUMPDEST CALLER PUSH1 0x0 SWAP1 DUP2 MSTORE PUSH1 0x4 PUSH1 0x20 MSTORE PUSH1 0x40 SWAP1 KECCAK256 SLOAD PUSH1 0xFF AND PUSH2 0x10B8 JUMPI PUSH1 0x40 MLOAD PUSH4 0x90C7C071 PUSH1 0xE0 SHL DUP2 MSTORE PUSH1 0x4 ADD PUSH1 0x40 MLOAD DUP1 SWAP2 SUB SWAP1 REVERT JUMPDEST PUSH1 0x1 PUSH1 0x1 PUSH1 0xA0 SHL SUB DUP2 AND PUSH2 0x10DF JUMPI PUSH1 0x40 MLOAD PUSH4 0xE4799D2B PUSH1 0xE0 SHL DUP2 MSTORE PUSH1 0x4 ADD PUSH1 0x40 MLOAD DUP1 SWAP2 SUB SWAP1 REVERT JUMPDEST PUSH1 0x0 DUP1 SLOAD PUSH1 0x1 PUSH1 0x1 PUSH1 0xA0 SHL SUB DUP4 DUP2 AND PUSH1 0x1 PUSH1 0x1 PUSH1 0xA0 SHL SUB NOT DUP4 AND DUP2 OR DUP5 SSTORE PUSH1 0x40 MLOAD SWAP2 SWAP1 SWAP3 AND SWAP3 DUP4 SWAP2 PUSH32 0xAAEBCF1BFA00580E41D966056B48521FA9F202645C86D4DDF28113E617C1B1D3 SWAP2 SWAP1 LOG3 POP POP JUMP JUMPDEST PUSH1 0x40 MLOAD PUSH4 0x1DC757C7 PUSH1 0xE3 SHL DUP2 MSTORE PUSH1 0x1 PUSH1 0x1 PUSH1 0xA0 SHL SUB DUP5 DUP2 AND PUSH1 0x4 DUP4 ADD MSTORE PUSH1 0x24 DUP3 ADD DUP5 SWAP1 MSTORE PUSH1 0x44 DUP3 ADD DUP4 SWAP1 MSTORE PUSH1 0x0 SWAP2 PUSH32 0x0 SWAP1 SWAP2 AND SWAP1 PUSH4 0xEE3ABE38 SWAP1 PUSH1 0x64 ADD PUSH2 0x76A JUMP JUMPDEST CALLER PUSH1 0x0 SWAP1 DUP2 MSTORE PUSH1 0x4 PUSH1 0x20 MSTORE PUSH1 0x40 SWAP1 KECCAK256 SLOAD PUSH1 0xFF AND PUSH2 0x11C0 JUMPI PUSH1 0x40 MLOAD PUSH4 0x90C7C071 PUSH1 0xE0 SHL DUP2 MSTORE PUSH1 0x4 ADD PUSH1 0x40 MLOAD DUP1 SWAP2 SUB SWAP1 REVERT JUMPDEST PUSH1 0x2 DUP1 SLOAD SWAP1 DUP3 SWAP1 SSTORE PUSH1 0x40 DUP1 MLOAD DUP3 DUP2 MSTORE PUSH1 0x20 DUP2 ADD DUP5 SWAP1 MSTORE PUSH32 0x71BC2D9C4B3B5472E9AFA8B00D83565C247798DBE5402735F27D074E8C8FDBD3 SWAP2 ADD PUSH2 0xB7A JUMP JUMPDEST PUSH1 0x40 MLOAD PUSH4 0x1EAE3201 PUSH1 0xE3 SHL DUP2 MSTORE PUSH1 0x4 DUP2 ADD DUP3 SWAP1 MSTORE PUSH1 0x0 SWAP1 PUSH32 0x0 PUSH1 0x1 PUSH1 0x1 PUSH1 0xA0 SHL SUB AND SWAP1 PUSH4 0xF5719008 SWAP1 PUSH1 0x24 ADD PUSH1 0x20 PUSH1 0x40 MLOAD DUP1 DUP4 SUB DUP2 DUP7 GAS STATICCALL ISZERO DUP1 ISZERO PUSH2 0x1266 JUMPI RETURNDATASIZE PUSH1 0x0 DUP1 RETURNDATACOPY RETURNDATASIZE PUSH1 0x0 REVERT JUMPDEST POP POP POP POP PUSH1 0x40 MLOAD RETURNDATASIZE PUSH1 0x1F NOT PUSH1 0x1F DUP3 ADD AND DUP3 ADD DUP1 PUSH1 0x40 MSTORE POP DUP2 ADD SWAP1 PUSH2 0x6D5 SWAP2 SWAP1 PUSH2 0x1B57 JUMP JUMPDEST PUSH1 0x0 DUP1 JUMPDEST DUP3 DUP2 LT ISZERO PUSH2 0x12CE JUMPI DUP4 DUP4 DUP3 DUP2 DUP2 LT PUSH2 0x12A8 JUMPI PUSH2 0x12A8 PUSH2 0x1B74 JUMP JUMPDEST SWAP1 POP PUSH1 0x20 MUL ADD CALLDATALOAD DUP3 PUSH2 0x12BA SWAP2 SWAP1 PUSH2 0x17E4 JUMP JUMPDEST SWAP2 POP DUP1 PUSH2 0x12C6 DUP2 PUSH2 0x1B8A JUMP JUMPDEST SWAP2 POP POP PUSH2 0x128E JUMP JUMPDEST POP SWAP3 SWAP2 POP POP JUMP JUMPDEST DUP1 ISZERO PUSH2 0x1351 JUMPI PUSH1 0x0 DUP1 SLOAD PUSH1 0x40 MLOAD PUSH1 0x1 PUSH1 0x1 PUSH1 0xA0 SHL SUB SWAP1 SWAP2 AND SWAP1 DUP4 SWAP1 DUP4 DUP2 DUP2 DUP2 DUP6 DUP8 GAS CALL SWAP3 POP POP POP RETURNDATASIZE DUP1 PUSH1 0x0 DUP2 EQ PUSH2 0x1328 JUMPI PUSH1 0x40 MLOAD SWAP2 POP PUSH1 0x1F NOT PUSH1 0x3F RETURNDATASIZE ADD AND DUP3 ADD PUSH1 0x40 MSTORE RETURNDATASIZE DUP3 MSTORE RETURNDATASIZE PUSH1 0x0 PUSH1 0x20 DUP5 ADD RETURNDATACOPY PUSH2 0x132D JUMP JUMPDEST PUSH1 0x60 SWAP2 POP JUMPDEST POP POP SWAP1 POP DUP1 PUSH2 0x134F JUMPI PUSH1 0x40 MLOAD PUSH4 0x291BE7B PUSH1 0xE3 SHL DUP2 MSTORE PUSH1 0x4 ADD PUSH1 0x40 MLOAD DUP1 SWAP2 SUB SWAP1 REVERT JUMPDEST POP JUMPDEST POP JUMP JUMPDEST DUP1 CALLDATALOAD PUSH1 0x1 PUSH1 0x1 PUSH1 0xA0 SHL SUB DUP2 AND DUP2 EQ PUSH2 0x136B JUMPI PUSH1 0x0 DUP1 REVERT JUMPDEST SWAP2 SWAP1 POP JUMP JUMPDEST DUP1 ISZERO ISZERO DUP2 EQ PUSH2 0x1351 JUMPI PUSH1 0x0 DUP1 REVERT JUMPDEST PUSH1 0x0 DUP1 PUSH1 0x40 DUP4 DUP6 SUB SLT ISZERO PUSH2 0x1391 JUMPI PUSH1 0x0 DUP1 REVERT JUMPDEST PUSH2 0x139A DUP4 PUSH2 0x1354 JUMP JUMPDEST SWAP2 POP PUSH1 0x20 DUP4 ADD CALLDATALOAD PUSH2 0x13AA DUP2 PUSH2 0x1370 JUMP JUMPDEST DUP1 SWAP2 POP POP SWAP3 POP SWAP3 SWAP1 POP JUMP JUMPDEST PUSH1 0x0 DUP1 PUSH1 0x40 DUP4 DUP6 SUB SLT ISZERO PUSH2 0x13C8 JUMPI PUSH1 0x0 DUP1 REVERT JUMPDEST POP POP DUP1 CALLDATALOAD SWAP3 PUSH1 0x20 SWAP1 SWAP2 ADD CALLDATALOAD SWAP2 POP JUMP JUMPDEST PUSH1 0x0 PUSH1 0x20 DUP3 DUP5 SUB SLT ISZERO PUSH2 0x13E9 JUMPI PUSH1 0x0 DUP1 REVERT JUMPDEST POP CALLDATALOAD SWAP2 SWAP1 POP JUMP JUMPDEST PUSH1 0x0 DUP1 PUSH1 0x0 PUSH1 0x60 DUP5 DUP7 SUB SLT ISZERO PUSH2 0x1405 JUMPI PUSH1 0x0 DUP1 REVERT JUMPDEST POP POP DUP2 CALLDATALOAD SWAP4 PUSH1 0x20 DUP4 ADD CALLDATALOAD SWAP4 POP PUSH1 0x40 SWAP1 SWAP3 ADD CALLDATALOAD SWAP2 SWAP1 POP JUMP JUMPDEST PUSH1 0x0 DUP1 DUP4 PUSH1 0x1F DUP5 ADD SLT PUSH2 0x142E JUMPI PUSH1 0x0 DUP1 REVERT JUMPDEST POP DUP2 CALLDATALOAD PUSH8 0xFFFFFFFFFFFFFFFF DUP2 GT ISZERO PUSH2 0x1446 JUMPI PUSH1 0x0 DUP1 REVERT JUMPDEST PUSH1 0x20 DUP4 ADD SWAP2 POP DUP4 PUSH1 0x20 DUP3 PUSH1 0x5 SHL DUP6 ADD ADD GT ISZERO PUSH2 0x1461 JUMPI PUSH1 0x0 DUP1 REVERT JUMPDEST SWAP3 POP SWAP3 SWAP1 POP JUMP JUMPDEST PUSH1 0x0 DUP1 PUSH1 0x0 DUP1 PUSH1 0x0 DUP1 PUSH1 0x0 DUP1 PUSH1 0x80 DUP10 DUP12 SUB SLT ISZERO PUSH2 0x1484 JUMPI PUSH1 0x0 DUP1 REVERT JUMPDEST DUP9 CALLDATALOAD PUSH8 0xFFFFFFFFFFFFFFFF DUP1 DUP3 GT ISZERO PUSH2 0x149C JUMPI PUSH1 0x0 DUP1 REVERT JUMPDEST PUSH2 0x14A8 DUP13 DUP4 DUP14 ADD PUSH2 0x141C JUMP JUMPDEST SWAP1 SWAP11 POP SWAP9 POP PUSH1 0x20 DUP12 ADD CALLDATALOAD SWAP2 POP DUP1 DUP3 GT ISZERO PUSH2 0x14C1 JUMPI PUSH1 0x0 DUP1 REVERT JUMPDEST PUSH2 0x14CD DUP13 DUP4 DUP14 ADD PUSH2 0x141C JUMP JUMPDEST SWAP1 SWAP9 POP SWAP7 POP PUSH1 0x40 DUP12 ADD CALLDATALOAD SWAP2 POP DUP1 DUP3 GT ISZERO PUSH2 0x14E6 JUMPI PUSH1 0x0 DUP1 REVERT JUMPDEST PUSH2 0x14F2 DUP13 DUP4 DUP14 ADD PUSH2 0x141C JUMP JUMPDEST SWAP1 SWAP7 POP SWAP5 POP PUSH1 0x60 DUP12 ADD CALLDATALOAD SWAP2 POP DUP1 DUP3 GT ISZERO PUSH2 0x150B JUMPI PUSH1 0x0 DUP1 REVERT JUMPDEST POP PUSH2 0x1518 DUP12 DUP3 DUP13 ADD PUSH2 0x141C JUMP JUMPDEST SWAP10 SWAP13 SWAP9 SWAP12 POP SWAP7 SWAP10 POP SWAP5 SWAP8 SWAP4 SWAP7 SWAP3 SWAP6 SWAP5 POP POP POP JUMP JUMPDEST PUSH1 0x20 DUP1 DUP3 MSTORE DUP3 MLOAD DUP3 DUP3 ADD DUP2 SWAP1 MSTORE PUSH1 0x0 SWAP2 SWAP1 DUP5 DUP3 ADD SWAP1 PUSH1 0x40 DUP6 ADD SWAP1 DUP5 JUMPDEST DUP2 DUP2 LT ISZERO PUSH2 0x1564 JUMPI DUP4 MLOAD DUP4 MSTORE SWAP3 DUP5 ADD SWAP3 SWAP2 DUP5 ADD SWAP2 PUSH1 0x1 ADD PUSH2 0x1548 JUMP JUMPDEST POP SWAP1 SWAP7 SWAP6 POP POP POP POP POP POP JUMP JUMPDEST PUSH1 0x0 DUP1 PUSH1 0x0 DUP1 PUSH1 0x0 PUSH1 0xA0 DUP7 DUP9 SUB SLT ISZERO PUSH2 0x1588 JUMPI PUSH1 0x0 DUP1 REVERT JUMPDEST PUSH2 0x1591 DUP7 PUSH2 0x1354 JUMP JUMPDEST SWAP8 PUSH1 0x20 DUP8 ADD CALLDATALOAD SWAP8 POP PUSH1 0x40 DUP8 ADD CALLDATALOAD SWAP7 PUSH1 0x60 DUP2 ADD CALLDATALOAD SWAP7 POP PUSH1 0x80 ADD CALLDATALOAD SWAP5 POP SWAP3 POP POP POP JUMP JUMPDEST PUSH1 0x0 DUP1 PUSH1 0x0 DUP1 PUSH1 0x40 DUP6 DUP8 SUB SLT ISZERO PUSH2 0x15C8 JUMPI PUSH1 0x0 DUP1 REVERT JUMPDEST DUP5 CALLDATALOAD PUSH8 0xFFFFFFFFFFFFFFFF DUP1 DUP3 GT ISZERO PUSH2 0x15E0 JUMPI PUSH1 0x0 DUP1 REVERT JUMPDEST PUSH2 0x15EC DUP9 DUP4 DUP10 ADD PUSH2 0x141C JUMP JUMPDEST SWAP1 SWAP7 POP SWAP5 POP PUSH1 0x20 DUP8 ADD CALLDATALOAD SWAP2 POP DUP1 DUP3 GT ISZERO PUSH2 0x1605 JUMPI PUSH1 0x0 DUP1 REVERT JUMPDEST POP PUSH2 0x1612 DUP8 DUP3 DUP9 ADD PUSH2 0x141C JUMP JUMPDEST SWAP6 SWAP9 SWAP5 SWAP8 POP SWAP6 POP POP POP POP JUMP JUMPDEST PUSH1 0x0 DUP1 PUSH1 0x20 DUP4 DUP6 SUB SLT ISZERO PUSH2 0x1631 JUMPI PUSH1 0x0 DUP1 REVERT JUMPDEST DUP3 CALLDATALOAD PUSH8 0xFFFFFFFFFFFFFFFF DUP1 DUP3 GT ISZERO PUSH2 0x1649 JUMPI PUSH1 0x0 DUP1 REVERT JUMPDEST DUP2 DUP6 ADD SWAP2 POP DUP6 PUSH1 0x1F DUP4 ADD SLT PUSH2 0x165D JUMPI PUSH1 0x0 DUP1 REVERT JUMPDEST DUP2 CALLDATALOAD DUP2 DUP2 GT ISZERO PUSH2 0x166C JUMPI PUSH1 0x0 DUP1 REVERT JUMPDEST DUP7 PUSH1 0x20 DUP3 DUP6 ADD ADD GT ISZERO PUSH2 0x167E JUMPI PUSH1 0x0 DUP1 REVERT JUMPDEST PUSH1 0x20 SWAP3 SWAP1 SWAP3 ADD SWAP7 SWAP2 SWAP6 POP SWAP1 SWAP4 POP POP POP POP JUMP JUMPDEST PUSH1 0x0 PUSH1 0x20 DUP3 DUP5 SUB SLT ISZERO PUSH2 0x16A2 JUMPI PUSH1 0x0 DUP1 REVERT JUMPDEST PUSH2 0x6D2 DUP3 PUSH2 0x1354 JUMP JUMPDEST PUSH1 0x0 DUP1 PUSH1 0x0 DUP1 PUSH1 0x0 DUP1 PUSH1 0x0 DUP1 PUSH1 0x0 PUSH1 0xA0 DUP11 DUP13 SUB SLT ISZERO PUSH2 0x16C9 JUMPI PUSH1 0x0 DUP1 REVERT JUMPDEST PUSH2 0x16D2 DUP11 PUSH2 0x1354 JUMP JUMPDEST SWAP9 POP PUSH1 0x20 DUP11 ADD CALLDATALOAD PUSH8 0xFFFFFFFFFFFFFFFF DUP1 DUP3 GT ISZERO PUSH2 0x16EF JUMPI PUSH1 0x0 DUP1 REVERT JUMPDEST PUSH2 0x16FB DUP14 DUP4 DUP15 ADD PUSH2 0x141C JUMP JUMPDEST SWAP1 SWAP11 POP SWAP9 POP PUSH1 0x40 DUP13 ADD CALLDATALOAD SWAP2 POP DUP1 DUP3 GT ISZERO PUSH2 0x1714 JUMPI PUSH1 0x0 DUP1 REVERT JUMPDEST PUSH2 0x1720 DUP14 DUP4 DUP15 ADD PUSH2 0x141C JUMP JUMPDEST SWAP1 SWAP9 POP SWAP7 POP PUSH1 0x60 DUP13 ADD CALLDATALOAD SWAP2 POP DUP1 DUP3 GT ISZERO PUSH2 0x1739 JUMPI PUSH1 0x0 DUP1 REVERT JUMPDEST PUSH2 0x1745 DUP14 DUP4 DUP15 ADD PUSH2 0x141C JUMP JUMPDEST SWAP1 SWAP7 POP SWAP5 POP PUSH1 0x80 DUP13 ADD CALLDATALOAD SWAP2 POP DUP1 DUP3 GT ISZERO PUSH2 0x175E JUMPI PUSH1 0x0 DUP1 REVERT JUMPDEST POP PUSH2 0x176B DUP13 DUP3 DUP14 ADD PUSH2 0x141C JUMP JUMPDEST SWAP2 POP DUP1 SWAP4 POP POP DUP1 SWAP2 POP POP SWAP3 SWAP6 SWAP9 POP SWAP3 SWAP6 SWAP9 POP SWAP3 SWAP6 SWAP9 JUMP JUMPDEST PUSH1 0x0 DUP1 PUSH1 0x0 PUSH1 0x60 DUP5 DUP7 SUB SLT ISZERO PUSH2 0x1797 JUMPI PUSH1 0x0 DUP1 REVERT JUMPDEST PUSH2 0x17A0 DUP5 PUSH2 0x1354 JUMP JUMPDEST SWAP6 PUSH1 0x20 DUP6 ADD CALLDATALOAD SWAP6 POP PUSH1 0x40 SWAP1 SWAP5 ADD CALLDATALOAD SWAP4 SWAP3 POP POP POP JUMP JUMPDEST PUSH1 0x0 PUSH1 0x20 DUP3 DUP5 SUB SLT ISZERO PUSH2 0x17C7 JUMPI PUSH1 0x0 DUP1 REVERT JUMPDEST POP MLOAD SWAP2 SWAP1 POP JUMP JUMPDEST PUSH4 0x4E487B71 PUSH1 0xE0 SHL PUSH1 0x0 MSTORE PUSH1 0x11 PUSH1 0x4 MSTORE PUSH1 0x24 PUSH1 0x0 REVERT JUMPDEST DUP1 DUP3 ADD DUP1 DUP3 GT ISZERO PUSH2 0x6D5 JUMPI PUSH2 0x6D5 PUSH2 0x17CE JUMP JUMPDEST DUP1 DUP3 MUL DUP2 ISZERO DUP3 DUP3 DIV DUP5 EQ OR PUSH2 0x6D5 JUMPI PUSH2 0x6D5 PUSH2 0x17CE JUMP JUMPDEST PUSH1 0x0 DUP3 PUSH2 0x182B JUMPI PUSH4 0x4E487B71 PUSH1 0xE0 SHL PUSH1 0x0 MSTORE PUSH1 0x12 PUSH1 0x4 MSTORE PUSH1 0x24 PUSH1 0x0 REVERT JUMPDEST POP DIV SWAP1 JUMP JUMPDEST DUP2 DUP4 MSTORE PUSH1 0x0 PUSH1 0x1 PUSH1 0x1 PUSH1 0xFB SHL SUB DUP4 GT ISZERO PUSH2 0x1849 JUMPI PUSH1 0x0 DUP1 REVERT JUMPDEST DUP3 PUSH1 0x5 SHL DUP1 DUP4 PUSH1 0x20 DUP8 ADD CALLDATACOPY SWAP4 SWAP1 SWAP4 ADD PUSH1 0x20 ADD SWAP4 SWAP3 POP POP POP JUMP JUMPDEST PUSH1 0x80 DUP2 MSTORE PUSH1 0x0 PUSH2 0x1876 PUSH1 0x80 DUP4 ADD DUP11 DUP13 PUSH2 0x1830 JUMP JUMPDEST DUP3 DUP2 SUB PUSH1 0x20 DUP5 ADD MSTORE PUSH2 0x1889 DUP2 DUP10 DUP12 PUSH2 0x1830 JUMP JUMPDEST SWAP1 POP DUP3 DUP2 SUB PUSH1 0x40 DUP5 ADD MSTORE PUSH2 0x189E DUP2 DUP8 DUP10 PUSH2 0x1830 JUMP JUMPDEST SWAP1 POP DUP3 DUP2 SUB PUSH1 0x60 DUP5 ADD MSTORE PUSH2 0x18B3 DUP2 DUP6 DUP8 PUSH2 0x1830 JUMP JUMPDEST SWAP12 SWAP11 POP POP POP POP POP POP POP POP POP POP POP JUMP JUMPDEST PUSH4 0x4E487B71 PUSH1 0xE0 SHL PUSH1 0x0 MSTORE PUSH1 0x41 PUSH1 0x4 MSTORE PUSH1 0x24 PUSH1 0x0 REVERT JUMPDEST PUSH1 0x40 MLOAD PUSH1 0x1F DUP3 ADD PUSH1 0x1F NOT AND DUP2 ADD PUSH8 0xFFFFFFFFFFFFFFFF DUP2 GT DUP3 DUP3 LT OR ISZERO PUSH2 0x1901 JUMPI PUSH2 0x1901 PUSH2 0x18C2 JUMP JUMPDEST PUSH1 0x40 MSTORE SWAP2 SWAP1 POP JUMP JUMPDEST PUSH1 0x0 PUSH8 0xFFFFFFFFFFFFFFFF DUP3 GT ISZERO PUSH2 0x1923 JUMPI PUSH2 0x1923 PUSH2 0x18C2 JUMP JUMPDEST POP PUSH1 0x5 SHL PUSH1 0x20 ADD SWAP1 JUMP JUMPDEST PUSH1 0x0 PUSH1 0x20 DUP1 DUP4 DUP6 SUB SLT ISZERO PUSH2 0x1940 JUMPI PUSH1 0x0 DUP1 REVERT JUMPDEST DUP3 MLOAD PUSH8 0xFFFFFFFFFFFFFFFF DUP2 GT ISZERO PUSH2 0x1957 JUMPI PUSH1 0x0 DUP1 REVERT JUMPDEST DUP4 ADD PUSH1 0x1F DUP2 ADD DUP6 SGT PUSH2 0x1968 JUMPI PUSH1 0x0 DUP1 REVERT JUMPDEST DUP1 MLOAD PUSH2 0x197B PUSH2 0x1976 DUP3 PUSH2 0x1909 JUMP JUMPDEST PUSH2 0x18D8 JUMP JUMPDEST DUP2 DUP2 MSTORE PUSH1 0x5 SWAP2 SWAP1 SWAP2 SHL DUP3 ADD DUP4 ADD SWAP1 DUP4 DUP2 ADD SWAP1 DUP8 DUP4 GT ISZERO PUSH2 0x199A JUMPI PUSH1 0x0 DUP1 REVERT JUMPDEST SWAP3 DUP5 ADD SWAP3 JUMPDEST DUP3 DUP5 LT ISZERO PUSH2 0x19B8 JUMPI DUP4 MLOAD DUP3 MSTORE SWAP3 DUP5 ADD SWAP3 SWAP1 DUP5 ADD SWAP1 PUSH2 0x199F JUMP JUMPDEST SWAP8 SWAP7 POP POP POP POP POP POP POP JUMP JUMPDEST DUP2 DUP4 MSTORE DUP2 DUP2 PUSH1 0x20 DUP6 ADD CALLDATACOPY POP PUSH1 0x0 DUP3 DUP3 ADD PUSH1 0x20 SWAP1 DUP2 ADD SWAP2 SWAP1 SWAP2 MSTORE PUSH1 0x1F SWAP1 SWAP2 ADD PUSH1 0x1F NOT AND SWAP1 SWAP2 ADD ADD SWAP1 JUMP JUMPDEST PUSH1 0x40 DUP1 DUP3 MSTORE DUP2 ADD DUP5 SWAP1 MSTORE PUSH1 0x0 PUSH1 0x60 PUSH1 0x5 DUP7 SWAP1 SHL DUP4 ADD DUP2 ADD SWAP1 DUP4 ADD DUP8 DUP4 JUMPDEST DUP9 DUP2 LT ISZERO PUSH2 0x1A7D JUMPI DUP6 DUP5 SUB PUSH1 0x5F NOT ADD DUP4 MSTORE DUP2 CALLDATALOAD CALLDATASIZE DUP12 SWAP1 SUB PUSH1 0x1E NOT ADD DUP2 SLT PUSH2 0x1A2F JUMPI PUSH1 0x0 DUP1 REVERT JUMPDEST DUP11 ADD PUSH1 0x20 DUP2 DUP2 ADD SWAP2 CALLDATALOAD SWAP1 PUSH8 0xFFFFFFFFFFFFFFFF DUP3 GT ISZERO PUSH2 0x1A4E JUMPI PUSH1 0x0 DUP1 REVERT JUMPDEST DUP2 CALLDATASIZE SUB DUP4 SGT ISZERO PUSH2 0x1A5D JUMPI PUSH1 0x0 DUP1 REVERT JUMPDEST PUSH2 0x1A68 DUP8 DUP4 DUP6 PUSH2 0x19C3 JUMP JUMPDEST SWAP7 POP SWAP5 DUP6 ADD SWAP5 SWAP4 SWAP1 SWAP4 ADD SWAP3 POP POP PUSH1 0x1 ADD PUSH2 0x1A09 JUMP JUMPDEST POP POP POP DUP3 DUP2 SUB PUSH1 0x20 DUP5 ADD MSTORE PUSH2 0x19B8 DUP2 DUP6 DUP8 PUSH2 0x1830 JUMP JUMPDEST DUP2 DUP4 DUP3 CALLDATACOPY PUSH1 0x0 SWAP2 ADD SWAP1 DUP2 MSTORE SWAP2 SWAP1 POP JUMP JUMPDEST PUSH1 0x0 DUP1 PUSH1 0x40 DUP4 DUP6 SUB SLT ISZERO PUSH2 0x1AB6 JUMPI PUSH1 0x0 DUP1 REVERT JUMPDEST POP POP DUP1 MLOAD PUSH1 0x20 SWAP1 SWAP2 ADD MLOAD SWAP1 SWAP3 SWAP1 SWAP2 POP JUMP JUMPDEST PUSH1 0x0 DUP1 PUSH1 0x0 PUSH1 0x60 DUP5 DUP7 SUB SLT ISZERO PUSH2 0x1ADC JUMPI PUSH1 0x0 DUP1 REVERT JUMPDEST DUP4 MLOAD SWAP3 POP PUSH1 0x20 DUP5 ADD MLOAD SWAP2 POP PUSH1 0x40 DUP5 ADD MLOAD SWAP1 POP SWAP3 POP SWAP3 POP SWAP3 JUMP JUMPDEST PUSH1 0x1 PUSH1 0x1 PUSH1 0xA0 SHL SUB DUP11 AND DUP2 MSTORE PUSH1 0xA0 PUSH1 0x20 DUP3 ADD DUP2 SWAP1 MSTORE PUSH1 0x0 SWAP1 PUSH2 0x1B1A SWAP1 DUP4 ADD DUP11 DUP13 PUSH2 0x1830 JUMP JUMPDEST DUP3 DUP2 SUB PUSH1 0x40 DUP5 ADD MSTORE PUSH2 0x1B2D DUP2 DUP10 DUP12 PUSH2 0x1830 JUMP JUMPDEST SWAP1 POP DUP3 DUP2 SUB PUSH1 0x60 DUP5 ADD MSTORE PUSH2 0x1B42 DUP2 DUP8 DUP10 PUSH2 0x1830 JUMP JUMPDEST SWAP1 POP DUP3 DUP2 SUB PUSH1 0x80 DUP5 ADD MSTORE PUSH2 0x998 DUP2 DUP6 DUP8 PUSH2 0x1830 JUMP JUMPDEST PUSH1 0x0 PUSH1 0x20 DUP3 DUP5 SUB SLT ISZERO PUSH2 0x1B69 JUMPI PUSH1 0x0 DUP1 REVERT JUMPDEST DUP2 MLOAD PUSH2 0x709 DUP2 PUSH2 0x1370 JUMP JUMPDEST PUSH4 0x4E487B71 PUSH1 0xE0 SHL PUSH1 0x0 MSTORE PUSH1 0x32 PUSH1 0x4 MSTORE PUSH1 0x24 PUSH1 0x0 REVERT JUMPDEST PUSH1 0x0 PUSH1 0x1 DUP3 ADD PUSH2 0x1B9C JUMPI PUSH2 0x1B9C PUSH2 0x17CE JUMP JUMPDEST POP PUSH1 0x1 ADD SWAP1 JUMP INVALID 0xDB 0x23 0xCB LOG2 AND 0xBF 0xAE 0xD8 SWAP1 PUSH17 0xD2734596F2EE2A163099CFC4F5EF32036D 0xEB 0xC9 PUSH26 0x2226A26469706673582212202C831E2D8CFC247B73193840B3D4 MUL PUSH2 0x2F53 SHL SWAP1 GT REVERT PUSH20 0xF419EF2CFD6DA89E6F64736F6C63430008150033 "},"methodIdentifiers":{"FEE_DENOMINATOR()":"d73792a9","MAX_FEE_PERCENTAGE()":"558e44d3","calculateAtomId(bytes)":"6828caa6","calculateCreationFee(uint256)":"c1757e36","calculateDepositFee(uint256)":"247d284b","calculateTripleId(bytes32,bytes32,bytes32)":"2e1aa0f2","createAtoms(bytes[],uint256[])":"61403309","createTriples(bytes32[],bytes32[],bytes32[],uint256[])":"3c6bbf45","creationFixedFee()":"0f060799","deposit(address,bytes32,uint256,uint256,uint256)":"58a19d5e","depositBatch(address,bytes32[],uint256[],uint256[],uint256[])":"dea9423a","depositFixedFee()":"02ef36c7","depositPercentageFee()":"63173be7","ethMultiVault()":"f8073c76","feeRecipient()":"46904840","getAtomCost()":"33332d39","getShares(address,bytes32,uint256)":"ee3abe38","getTotalCreationCost(uint256,uint256)":"0ff2663c","getTotalDepositCost(uint256)":"717ba4d9","getTriple(bytes32)":"c12f7947","getTripleCost()":"0d65c91c","isTermCreated(bytes32)":"f5719008","previewDeposit(bytes32,uint256,uint256)":"7d4eaa91","setCreationFixedFee(uint256)":"ad934c18","setDepositFixedFee(uint256)":"f48371c0","setDepositPercentageFee(uint256)":"5ce33d4f","setFeeRecipient(address)":"e74b981b","setWhitelistedAdmin(address,bool)":"082e709f","whitelistedAdmins(address)":"b3ec372e"}}}}}