{"src/test/MockMultiVault.sol":{"MockMultiVault":{"abi":[{"inputs":[],"name":"atomCost","outputs":[{"internalType":"uint256","name":"","type":"uint256"}],"stateMutability":"view","type":"function"},{"inputs":[{"internalType":"bytes","name":"data","type":"bytes"}],"name":"calculateAtomId","outputs":[{"internalType":"bytes32","name":"","type":"bytes32"}],"stateMutability":"pure","type":"function"},{"inputs":[{"internalType":"bytes32","name":"subjectId","type":"bytes32"},{"internalType":"bytes32","name":"predicateId","type":"bytes32"},{"internalType":"bytes32","name":"objectId","type":"bytes32"}],"name":"calculateTripleId","outputs":[{"internalType":"bytes32","name":"","type":"bytes32"}],"stateMutability":"pure","type":"function"},{"inputs":[{"internalType":"bytes[]","name":"data","type":"bytes[]"},{"internalType":"uint256[]","name":"assets","type":"uint256[]"}],"name":"createAtoms","outputs":[{"internalType":"bytes32[]","name":"atomIds","type":"bytes32[]"}],"stateMutability":"payable","type":"function"},{"inputs":[],"name":"createAtomsCallCount","outputs":[{"internalType":"uint256","name":"","type":"uint256"}],"stateMutability":"view","type":"function"},{"inputs":[{"internalType":"bytes32[]","name":"subjectIds","type":"bytes32[]"},{"internalType":"bytes32[]","name":"predicateIds","type":"bytes32[]"},{"internalType":"bytes32[]","name":"objectIds","type":"bytes32[]"},{"internalType":"uint256[]","name":"assets","type":"uint256[]"}],"name":"createTriples","outputs":[{"internalType":"bytes32[]","name":"tripleIds","type":"bytes32[]"}],"stateMutability":"payable","type":"function"},{"inputs":[],"name":"createTriplesCallCount","outputs":[{"internalType":"uint256","name":"","type":"uint256"}],"stateMutability":"view","type":"function"},{"inputs":[{"internalType":"address","name":"receiver","type":"address"},{"internalType":"bytes32","name":"termId","type":"bytes32"},{"internalType":"uint256","name":"curveId","type":"uint256"},{"internalType":"uint256","name":"minShares","type":"uint256"}],"name":"deposit","outputs":[{"internalType":"uint256","name":"sharesOut","type":"uint256"}],"stateMutability":"payable","type":"function"},{"inputs":[{"internalType":"address","name":"receiver","type":"address"},{"internalType":"bytes32[]","name":"termIds","type":"bytes32[]"},{"internalType":"uint256[]","name":"curveIds","type":"uint256[]"},{"internalType":"uint256[]","name":"assets","type":"uint256[]"},{"internalType":"uint256[]","name":"minShares","type":"uint256[]"}],"name":"depositBatch","outputs":[{"internalType":"uint256[]","name":"sharesOut","type":"uint256[]"}],"stateMutability":"payable","type":"function"},{"inputs":[],"name":"depositBatchCallCount","outputs":[{"internalType":"uint256","name":"","type":"uint256"}],"stateMutability":"view","type":"function"},{"inputs":[],"name":"depositCallCount","outputs":[{"internalType":"uint256","name":"","type":"uint256"}],"stateMutability":"view","type":"function"},{"inputs":[],"name":"getAtomCost","outputs":[{"internalType":"uint256","name":"","type":"uint256"}],"stateMutability":"view","type":"function"},{"inputs":[{"internalType":"address","name":"account","type":"address"},{"internalType":"bytes32","name":"termId","type":"bytes32"},{"internalType":"uint256","name":"curveId","type":"uint256"}],"name":"getShares","outputs":[{"internalType":"uint256","name":"","type":"uint256"}],"stateMutability":"view","type":"function"},{"inputs":[{"internalType":"bytes32","name":"tripleId","type":"bytes32"}],"name":"getTriple","outputs":[{"internalType":"bytes32","name":"subjectId","type":"bytes32"},{"internalType":"bytes32","name":"predicateId","type":"bytes32"},{"internalType":"bytes32","name":"objectId","type":"bytes32"}],"stateMutability":"view","type":"function"},{"inputs":[],"name":"getTripleCost","outputs":[{"internalType":"uint256","name":"","type":"uint256"}],"stateMutability":"view","type":"function"},{"inputs":[{"internalType":"bytes32","name":"id","type":"bytes32"}],"name":"isTermCreated","outputs":[{"internalType":"bool","name":"","type":"bool"}],"stateMutability":"view","type":"function"},{"inputs":[],"name":"lastDepositAmount","outputs":[{"internalType":"uint256","name":"","type":"uint256"}],"stateMutability":"view","type":"function"},{"inputs":[],"name":"lastDepositCurveId","outputs":[{"internalType":"uint256","name":"","type":"uint256"}],"stateMutability":"view","type":"function"},{"inputs":[],"name":"lastDepositReceiver","outputs":[{"internalType":"address","name":"","type":"address"}],"stateMutability":"view","type":"function"},{"inputs":[],"name":"lastDepositTermId","outputs":[{"internalType":"bytes32","name":"","type":"bytes32"}],"stateMutability":"view","type":"function"},{"inputs":[{"internalType":"bytes32","name":"termId","type":"bytes32"},{"internalType":"uint256","name":"curveId","type":"uint256"},{"internalType":"uint256","name":"assets","type":"uint256"}],"name":"previewDeposit","outputs":[{"internalType":"uint256","name":"","type":"uint256"},{"internalType":"uint256","name":"","type":"uint256"}],"stateMutability":"pure","type":"function"},{"inputs":[{"internalType":"uint256","name":"_cost","type":"uint256"}],"name":"setAtomCost","outputs":[],"stateMutability":"nonpayable","type":"function"},{"inputs":[{"internalType":"address","name":"account","type":"address"},{"internalType":"bytes32","name":"termId","type":"bytes32"},{"internalType":"uint256","name":"curveId","type":"uint256"},{"internalType":"uint256","name":"amount","type":"uint256"}],"name":"setShares","outputs":[],"stateMutability":"nonpayable","type":"function"},{"inputs":[{"internalType":"bytes32","name":"termId","type":"bytes32"},{"internalType":"bool","name":"created","type":"bool"}],"name":"setTermCreated","outputs":[],"stateMutability":"nonpayable","type":"function"},{"inputs":[{"internalType":"uint256","name":"_cost","type":"uint256"}],"name":"setTripleCost","outputs":[],"stateMutability":"nonpayable","type":"function"},{"inputs":[{"internalType":"address","name":"","type":"address"},{"internalType":"bytes32","name":"","type":"bytes32"},{"internalType":"uint256","name":"","type":"uint256"}],"name":"shares","outputs":[{"internalType":"uint256","name":"","type":"uint256"}],"stateMutability":"view","type":"function"},{"inputs":[{"internalType":"bytes32","name":"","type":"bytes32"}],"name":"termCreated","outputs":[{"internalType":"bool","name":"","type":"bool"}],"stateMutability":"view","type":"function"},{"inputs":[],"name":"tripleCost","outputs":[{"internalType":"uint256","name":"","type":"uint256"}],"stateMutability":"view","type":"function"},{"inputs":[{"internalType":"bytes32","name":"","type":"bytes32"}],"name":"tripleObjects","outputs":[{"internalType":"bytes32","name":"","type":"bytes32"}],"stateMutability":"view","type":"function"},{"inputs":[{"internalType":"bytes32","name":"","type":"bytes32"}],"name":"triplePredicates","outputs":[{"internalType":"bytes32","name":"","type":"bytes32"}],"stateMutability":"view","type":"function"},{"inputs":[{"internalType":"bytes32","name":"","type":"bytes32"}],"name":"tripleSubjects","outputs":[{"internalType":"bytes32","name":"","type":"bytes32"}],"stateMutability":"view","type":"function"},{"stateMutability":"payable","type":"receive"}],"evm":{"bytecode":{"linkReferences":{},"object":"6080604052655af3107a400060005565b5e620f4800060015534801561002457600080fd5b5061117b806100346000396000f3fe6080604052600436106101dc5760003560e01c80638680f6eb11610102578063b7c1fd5011610095578063dea9423a11610064578063dea9423a14610625578063e5c65eaf14610638578063ee3abe381461064e578063f57190081461069c57600080fd5b8063b7c1fd5014610563578063c12f794714610583578063c17e1da3146105e2578063cfe3e83a146105f857600080fd5b806395d9809b116100d157806395d9809b146104b45780639ae36a21146104ec578063affe102c14610502578063b03eafcb1461051857600080fd5b80638680f6eb146103f657806387d69ff9146104315780638907e462146104715780638b36c9751461049e57600080fd5b806333332d391161017a5780636140330911610149578063614033091461037557806365007486146103885780636828caa61461039e5780637d4eaa91146103be57600080fd5b806333332d39146102ec5780633bac8dcf146103015780633c6bbf451461033f57806355b153e01461035f57600080fd5b806318b0054c116101b657806318b0054c1461025b578063239563e0146102715780632e1aa0f2146102875780632fb1d270146102d957600080fd5b80630d65c91c146101e857806313b0b7a11461020c578063179e7a0a1461023957600080fd5b366101e357005b600080fd5b3480156101f457600080fd5b506001545b6040519081526020015b60405180910390f35b34801561021857600080fd5b506101f9610227366004610c5b565b600b6020526000908152604090205481565b34801561024557600080fd5b50610259610254366004610c5b565b600055565b005b34801561026757600080fd5b506101f960005481565b34801561027d57600080fd5b506101f960055481565b34801561029357600080fd5b506101f96102a2366004610c74565b6040805160208082019590955280820193909352606080840192909252805180840390920182526080909201909152805191012090565b6101f96102e7366004610cbc565b6106cc565b3480156102f857600080fd5b506000546101f9565b34801561030d57600080fd5b506101f961031c366004610cf5565b600e60209081526000938452604080852082529284528284209052825290205481565b61035261034d366004610d74565b610753565b6040516102039190610e38565b34801561036b57600080fd5b506101f960025481565b610352610383366004610e7c565b61099d565b34801561039457600080fd5b506101f960095481565b3480156103aa57600080fd5b506101f96103b9366004610ee8565b610ad3565b3480156103ca57600080fd5b506103e16103d9366004610c74565b928392509050565b60408051928352602083019190915201610203565b34801561040257600080fd5b50610259610411366004610f5a565b6000918252600a6020526040909120805460ff1916911515919091179055565b34801561043d57600080fd5b5061046161044c366004610c5b565b600a6020526000908152604090205460ff1681565b6040519015158152602001610203565b34801561047d57600080fd5b506101f961048c366004610c5b565b600d6020526000908152604090205481565b3480156104aa57600080fd5b506101f960065481565b3480156104c057600080fd5b506003546104d4906001600160a01b031681565b6040516001600160a01b039091168152602001610203565b3480156104f857600080fd5b506101f960085481565b34801561050e57600080fd5b506101f960075481565b34801561052457600080fd5b50610259610533366004610cbc565b6001600160a01b039093166000908152600e60209081526040808320948352938152838220928252919091522055565b34801561056f57600080fd5b5061025961057e366004610c5b565b600155565b34801561058f57600080fd5b506105c761059e366004610c5b565b6000818152600b6020908152604080832054600c835281842054600d9093529220549193909250565b60408051938452602084019290925290820152606001610203565b3480156105ee57600080fd5b506101f960045481565b34801561060457600080fd5b506101f9610613366004610c5b565b600c6020526000908152604090205481565b610352610633366004610f8f565b610af6565b34801561064457600080fd5b506101f960015481565b34801561065a57600080fd5b506101f9610669366004610cf5565b6001600160a01b0383166000908152600e6020908152604080832085845282528083208484529091529020549392505050565b3480156106a857600080fd5b506104616106b7366004610c5b565b6000908152600a602052604090205460ff1690565b60088054600091826106dd8361107c565b9091555050346002819055600380546001600160a01b0319166001600160a01b038816908117909155600486905560058590556000908152600e602090815260408083208884528252808320878452909152812080549293508392909190610746908490611095565b9091555050949350505050565b6007805460609160006107658361107c565b9091555088905067ffffffffffffffff811115610784576107846110a8565b6040519080825280602002602001820160405280156107ad578160200160208202803683370190505b50905060005b88811015610990578989828181106107cd576107cd6110be565b905060200201358888838181106107e6576107e66110be565b905060200201358787848181106107ff576107ff6110be565b90506020020135604051602001610829939291909283526020830191909152604082015260600190565b60405160208183030381529060405280519060200120828281518110610851576108516110be565b6020026020010181815250506001600a6000848481518110610875576108756110be565b6020026020010151815260200190815260200160002060006101000a81548160ff0219169083151502179055508989828181106108b4576108b46110be565b90506020020135600b60008484815181106108d1576108d16110be565b60200260200101518152602001908152602001600020819055508787828181106108fd576108fd6110be565b90506020020135600c600084848151811061091a5761091a6110be565b6020026020010151815260200190815260200160002081905550858582818110610946576109466110be565b90506020020135600d6000848481518110610963576109636110be565b602002602001015181526020019081526020016000208190555080806109889061107c565b9150506107b3565b5098975050505050505050565b6006805460609160006109af8361107c565b9091555084905067ffffffffffffffff8111156109ce576109ce6110a8565b6040519080825280602002602001820160405280156109f7578160200160208202803683370190505b50905060005b84811015610aca57858582818110610a1757610a176110be565b9050602002810190610a2991906110d4565b4283604051602001610a3e949392919061111b565b60405160208183030381529060405280519060200120828281518110610a6657610a666110be565b6020026020010181815250506001600a6000848481518110610a8a57610a8a6110be565b6020026020010151815260200190815260200160002060006101000a81548160ff0219169083151502179055508080610ac29061107c565b9150506109fd565b50949350505050565b60008282604051610ae5929190611135565b604051809103902090505b92915050565b600980546060916000610b088361107c565b9091555088905067ffffffffffffffff811115610b2757610b276110a8565b604051908082528060200260200182016040528015610b50578160200160208202803683370190505b50905060005b88811015610c4d57858582818110610b7057610b706110be565b90506020020135828281518110610b8957610b896110be565b602002602001018181525050818181518110610ba757610ba76110be565b6020026020010151600e60008d6001600160a01b03166001600160a01b0316815260200190815260200160002060008c8c85818110610be857610be86110be565b90506020020135815260200190815260200160002060008a8a85818110610c1157610c116110be565b9050602002013581526020019081526020016000206000828254610c359190611095565b90915550819050610c458161107c565b915050610b56565b509998505050505050505050565b600060208284031215610c6d57600080fd5b5035919050565b600080600060608486031215610c8957600080fd5b505081359360208301359350604090920135919050565b80356001600160a01b0381168114610cb757600080fd5b919050565b60008060008060808587031215610cd257600080fd5b610cdb85610ca0565b966020860135965060408601359560600135945092505050565b600080600060608486031215610d0a57600080fd5b610d1384610ca0565b95602085013595506040909401359392505050565b60008083601f840112610d3a57600080fd5b50813567ffffffffffffffff811115610d5257600080fd5b6020830191508360208260051b8501011115610d6d57600080fd5b9250929050565b6000806000806000806000806080898b031215610d9057600080fd5b883567ffffffffffffffff80821115610da857600080fd5b610db48c838d01610d28565b909a50985060208b0135915080821115610dcd57600080fd5b610dd98c838d01610d28565b909850965060408b0135915080821115610df257600080fd5b610dfe8c838d01610d28565b909650945060608b0135915080821115610e1757600080fd5b50610e248b828c01610d28565b999c989b5096995094979396929594505050565b6020808252825182820181905260009190848201906040850190845b81811015610e7057835183529284019291840191600101610e54565b50909695505050505050565b60008060008060408587031215610e9257600080fd5b843567ffffffffffffffff80821115610eaa57600080fd5b610eb688838901610d28565b90965094506020870135915080821115610ecf57600080fd5b50610edc87828801610d28565b95989497509550505050565b60008060208385031215610efb57600080fd5b823567ffffffffffffffff80821115610f1357600080fd5b818501915085601f830112610f2757600080fd5b813581811115610f3657600080fd5b866020828501011115610f4857600080fd5b60209290920196919550909350505050565b60008060408385031215610f6d57600080fd5b8235915060208301358015158114610f8457600080fd5b809150509250929050565b600080600080600080600080600060a08a8c031215610fad57600080fd5b610fb68a610ca0565b985060208a013567ffffffffffffffff80821115610fd357600080fd5b610fdf8d838e01610d28565b909a50985060408c0135915080821115610ff857600080fd5b6110048d838e01610d28565b909850965060608c013591508082111561101d57600080fd5b6110298d838e01610d28565b909650945060808c013591508082111561104257600080fd5b5061104f8c828d01610d28565b915080935050809150509295985092959850929598565b634e487b7160e01b600052601160045260246000fd5b60006001820161108e5761108e611066565b5060010190565b80820180821115610af057610af0611066565b634e487b7160e01b600052604160045260246000fd5b634e487b7160e01b600052603260045260246000fd5b6000808335601e198436030181126110eb57600080fd5b83018035915067ffffffffffffffff82111561110657600080fd5b602001915036819003821315610d6d57600080fd5b838582379092019081526020810191909152604001919050565b818382376000910190815291905056fea26469706673582212202c911e9e147c18b37d334ba4920c6bb48c30fa7c2f1eafc880822283e6c457d164736f6c63430008150033","opcodes":"PUSH1 0x80 PUSH1 0x40 MSTORE PUSH6 0x5AF3107A4000 PUSH1 0x0 SSTORE PUSH6 0xB5E620F48000 PUSH1 0x1 SSTORE CALLVALUE DUP1 ISZERO PUSH2 0x24 JUMPI PUSH1 0x0 DUP1 REVERT JUMPDEST POP PUSH2 0x117B DUP1 PUSH2 0x34 PUSH1 0x0 CODECOPY PUSH1 0x0 RETURN INVALID PUSH1 0x80 PUSH1 0x40 MSTORE PUSH1 0x4 CALLDATASIZE LT PUSH2 0x1DC JUMPI PUSH1 0x0 CALLDATALOAD PUSH1 0xE0 SHR DUP1 PUSH4 0x8680F6EB GT PUSH2 0x102 JUMPI DUP1 PUSH4 0xB7C1FD50 GT PUSH2 0x95 JUMPI DUP1 PUSH4 0xDEA9423A GT PUSH2 0x64 JUMPI DUP1 PUSH4 0xDEA9423A EQ PUSH2 0x625 JUMPI DUP1 PUSH4 0xE5C65EAF EQ PUSH2 0x638 JUMPI DUP1 PUSH4 0xEE3ABE38 EQ PUSH2 0x64E JUMPI DUP1 PUSH4 0xF5719008 EQ PUSH2 0x69C JUMPI PUSH1 0x0 DUP1 REVERT JUMPDEST DUP1 PUSH4 0xB7C1FD50 EQ PUSH2 0x563 JUMPI DUP1 PUSH4 0xC12F7947 EQ PUSH2 0x583 JUMPI DUP1 PUSH4 0xC17E1DA3 EQ PUSH2 0x5E2 JUMPI DUP1 PUSH4 0xCFE3E83A EQ PUSH2 0x5F8 JUMPI PUSH1 0x0 DUP1 REVERT JUMPDEST DUP1 PUSH4 0x95D9809B GT PUSH2 0xD1 JUMPI DUP1 PUSH4 0x95D9809B EQ PUSH2 0x4B4 JUMPI DUP1 PUSH4 0x9AE36A21 EQ PUSH2 0x4EC JUMPI DUP1 PUSH4 0xAFFE102C EQ PUSH2 0x502 JUMPI DUP1 PUSH4 0xB03EAFCB EQ PUSH2 0x518 JUMPI PUSH1 0x0 DUP1 REVERT JUMPDEST DUP1 PUSH4 0x8680F6EB EQ PUSH2 0x3F6 JUMPI DUP1 PUSH4 0x87D69FF9 EQ PUSH2 0x431 JUMPI DUP1 PUSH4 0x8907E462 EQ PUSH2 0x471 JUMPI DUP1 PUSH4 0x8B36C975 EQ PUSH2 0x49E JUMPI PUSH1 0x0 DUP1 REVERT JUMPDEST DUP1 PUSH4 0x33332D39 GT PUSH2 0x17A JUMPI DUP1 PUSH4 0x61403309 GT PUSH2 0x149 JUMPI DUP1 PUSH4 0x61403309 EQ PUSH2 0x375 JUMPI DUP1 PUSH4 0x65007486 EQ PUSH2 0x388 JUMPI DUP1 PUSH4 0x6828CAA6 EQ PUSH2 0x39E JUMPI DUP1 PUSH4 0x7D4EAA91 EQ PUSH2 0x3BE JUMPI PUSH1 0x0 DUP1 REVERT JUMPDEST DUP1 PUSH4 0x33332D39 EQ PUSH2 0x2EC JUMPI DUP1 PUSH4 0x3BAC8DCF EQ PUSH2 0x301 JUMPI DUP1 PUSH4 0x3C6BBF45 EQ PUSH2 0x33F JUMPI DUP1 PUSH4 0x55B153E0 EQ PUSH2 0x35F JUMPI PUSH1 0x0 DUP1 REVERT JUMPDEST DUP1 PUSH4 0x18B0054C GT PUSH2 0x1B6 JUMPI DUP1 PUSH4 0x18B0054C EQ PUSH2 0x25B JUMPI DUP1 PUSH4 0x239563E0 EQ PUSH2 0x271 JUMPI DUP1 PUSH4 0x2E1AA0F2 EQ PUSH2 0x287 JUMPI DUP1 PUSH4 0x2FB1D270 EQ PUSH2 0x2D9 JUMPI PUSH1 0x0 DUP1 REVERT JUMPDEST DUP1 PUSH4 0xD65C91C EQ PUSH2 0x1E8 JUMPI DUP1 PUSH4 0x13B0B7A1 EQ PUSH2 0x20C JUMPI DUP1 PUSH4 0x179E7A0A EQ PUSH2 0x239 JUMPI PUSH1 0x0 DUP1 REVERT JUMPDEST CALLDATASIZE PUSH2 0x1E3 JUMPI STOP JUMPDEST PUSH1 0x0 DUP1 REVERT JUMPDEST CALLVALUE DUP1 ISZERO PUSH2 0x1F4 JUMPI PUSH1 0x0 DUP1 REVERT JUMPDEST POP PUSH1 0x1 SLOAD JUMPDEST PUSH1 0x40 MLOAD SWAP1 DUP2 MSTORE PUSH1 0x20 ADD JUMPDEST PUSH1 0x40 MLOAD DUP1 SWAP2 SUB SWAP1 RETURN JUMPDEST CALLVALUE DUP1 ISZERO PUSH2 0x218 JUMPI PUSH1 0x0 DUP1 REVERT JUMPDEST POP PUSH2 0x1F9 PUSH2 0x227 CALLDATASIZE PUSH1 0x4 PUSH2 0xC5B JUMP JUMPDEST PUSH1 0xB PUSH1 0x20 MSTORE PUSH1 0x0 SWAP1 DUP2 MSTORE PUSH1 0x40 SWAP1 KECCAK256 SLOAD DUP2 JUMP JUMPDEST CALLVALUE DUP1 ISZERO PUSH2 0x245 JUMPI PUSH1 0x0 DUP1 REVERT JUMPDEST POP PUSH2 0x259 PUSH2 0x254 CALLDATASIZE PUSH1 0x4 PUSH2 0xC5B JUMP JUMPDEST PUSH1 0x0 SSTORE JUMP JUMPDEST STOP JUMPDEST CALLVALUE DUP1 ISZERO PUSH2 0x267 JUMPI PUSH1 0x0 DUP1 REVERT JUMPDEST POP PUSH2 0x1F9 PUSH1 0x0 SLOAD DUP2 JUMP JUMPDEST CALLVALUE DUP1 ISZERO PUSH2 0x27D JUMPI PUSH1 0x0 DUP1 REVERT JUMPDEST POP PUSH2 0x1F9 PUSH1 0x5 SLOAD DUP2 JUMP JUMPDEST CALLVALUE DUP1 ISZERO PUSH2 0x293 JUMPI PUSH1 0x0 DUP1 REVERT JUMPDEST POP PUSH2 0x1F9 PUSH2 0x2A2 CALLDATASIZE PUSH1 0x4 PUSH2 0xC74 JUMP JUMPDEST PUSH1 0x40 DUP1 MLOAD PUSH1 0x20 DUP1 DUP3 ADD SWAP6 SWAP1 SWAP6 MSTORE DUP1 DUP3 ADD SWAP4 SWAP1 SWAP4 MSTORE PUSH1 0x60 DUP1 DUP5 ADD SWAP3 SWAP1 SWAP3 MSTORE DUP1 MLOAD DUP1 DUP5 SUB SWAP1 SWAP3 ADD DUP3 MSTORE PUSH1 0x80 SWAP1 SWAP3 ADD SWAP1 SWAP2 MSTORE DUP1 MLOAD SWAP2 ADD KECCAK256 SWAP1 JUMP JUMPDEST PUSH2 0x1F9 PUSH2 0x2E7 CALLDATASIZE PUSH1 0x4 PUSH2 0xCBC JUMP JUMPDEST PUSH2 0x6CC JUMP JUMPDEST CALLVALUE DUP1 ISZERO PUSH2 0x2F8 JUMPI PUSH1 0x0 DUP1 REVERT JUMPDEST POP PUSH1 0x0 SLOAD PUSH2 0x1F9 JUMP JUMPDEST CALLVALUE DUP1 ISZERO PUSH2 0x30D JUMPI PUSH1 0x0 DUP1 REVERT JUMPDEST POP PUSH2 0x1F9 PUSH2 0x31C CALLDATASIZE PUSH1 0x4 PUSH2 0xCF5 JUMP JUMPDEST PUSH1 0xE PUSH1 0x20 SWAP1 DUP2 MSTORE PUSH1 0x0 SWAP4 DUP5 MSTORE PUSH1 0x40 DUP1 DUP6 KECCAK256 DUP3 MSTORE SWAP3 DUP5 MSTORE DUP3 DUP5 KECCAK256 SWAP1 MSTORE DUP3 MSTORE SWAP1 KECCAK256 SLOAD DUP2 JUMP JUMPDEST PUSH2 0x352 PUSH2 0x34D CALLDATASIZE PUSH1 0x4 PUSH2 0xD74 JUMP JUMPDEST PUSH2 0x753 JUMP JUMPDEST PUSH1 0x40 MLOAD PUSH2 0x203 SWAP2 SWAP1 PUSH2 0xE38 JUMP JUMPDEST CALLVALUE DUP1 ISZERO PUSH2 0x36B JUMPI PUSH1 0x0 DUP1 REVERT JUMPDEST POP PUSH2 0x1F9 PUSH1 0x2 SLOAD DUP2 JUMP JUMPDEST PUSH2 0x352 PUSH2 0x383 CALLDATASIZE PUSH1 0x4 PUSH2 0xE7C JUMP JUMPDEST PUSH2 0x99D JUMP JUMPDEST CALLVALUE DUP1 ISZERO PUSH2 0x394 JUMPI PUSH1 0x0 DUP1 REVERT JUMPDEST POP PUSH2 0x1F9 PUSH1 0x9 SLOAD DUP2 JUMP JUMPDEST CALLVALUE DUP1 ISZERO PUSH2 0x3AA JUMPI PUSH1 0x0 DUP1 REVERT JUMPDEST POP PUSH2 0x1F9 PUSH2 0x3B9 CALLDATASIZE PUSH1 0x4 PUSH2 0xEE8 JUMP JUMPDEST PUSH2 0xAD3 JUMP JUMPDEST CALLVALUE DUP1 ISZERO PUSH2 0x3CA JUMPI PUSH1 0x0 DUP1 REVERT JUMPDEST POP PUSH2 0x3E1 PUSH2 0x3D9 CALLDATASIZE PUSH1 0x4 PUSH2 0xC74 JUMP JUMPDEST SWAP3 DUP4 SWAP3 POP SWAP1 POP JUMP JUMPDEST PUSH1 0x40 DUP1 MLOAD SWAP3 DUP4 MSTORE PUSH1 0x20 DUP4 ADD SWAP2 SWAP1 SWAP2 MSTORE ADD PUSH2 0x203 JUMP JUMPDEST CALLVALUE DUP1 ISZERO PUSH2 0x402 JUMPI PUSH1 0x0 DUP1 REVERT JUMPDEST POP PUSH2 0x259 PUSH2 0x411 CALLDATASIZE PUSH1 0x4 PUSH2 0xF5A JUMP JUMPDEST PUSH1 0x0 SWAP2 DUP3 MSTORE PUSH1 0xA PUSH1 0x20 MSTORE PUSH1 0x40 SWAP1 SWAP2 KECCAK256 DUP1 SLOAD PUSH1 0xFF NOT AND SWAP2 ISZERO ISZERO SWAP2 SWAP1 SWAP2 OR SWAP1 SSTORE JUMP JUMPDEST CALLVALUE DUP1 ISZERO PUSH2 0x43D JUMPI PUSH1 0x0 DUP1 REVERT JUMPDEST POP PUSH2 0x461 PUSH2 0x44C CALLDATASIZE PUSH1 0x4 PUSH2 0xC5B JUMP JUMPDEST PUSH1 0xA PUSH1 0x20 MSTORE PUSH1 0x0 SWAP1 DUP2 MSTORE PUSH1 0x40 SWAP1 KECCAK256 SLOAD PUSH1 0xFF AND DUP2 JUMP JUMPDEST PUSH1 0x40 MLOAD SWAP1 ISZERO ISZERO DUP2 MSTORE PUSH1 0x20 ADD PUSH2 0x203 JUMP JUMPDEST CALLVALUE DUP1 ISZERO PUSH2 0x47D JUMPI PUSH1 0x0 DUP1 REVERT JUMPDEST POP PUSH2 0x1F9 PUSH2 0x48C CALLDATASIZE PUSH1 0x4 PUSH2 0xC5B JUMP JUMPDEST PUSH1 0xD PUSH1 0x20 MSTORE PUSH1 0x0 SWAP1 DUP2 MSTORE PUSH1 0x40 SWAP1 KECCAK256 SLOAD DUP2 JUMP JUMPDEST CALLVALUE DUP1 ISZERO PUSH2 0x4AA JUMPI PUSH1 0x0 DUP1 REVERT JUMPDEST POP PUSH2 0x1F9 PUSH1 0x6 SLOAD DUP2 JUMP JUMPDEST CALLVALUE DUP1 ISZERO PUSH2 0x4C0 JUMPI PUSH1 0x0 DUP1 REVERT JUMPDEST POP PUSH1 0x3 SLOAD PUSH2 0x4D4 SWAP1 PUSH1 0x1 PUSH1 0x1 PUSH1 0xA0 SHL SUB AND DUP2 JUMP JUMPDEST PUSH1 0x40 MLOAD PUSH1 0x1 PUSH1 0x1 PUSH1 0xA0 SHL SUB SWAP1 SWAP2 AND DUP2 MSTORE PUSH1 0x20 ADD PUSH2 0x203 JUMP JUMPDEST CALLVALUE DUP1 ISZERO PUSH2 0x4F8 JUMPI PUSH1 0x0 DUP1 REVERT JUMPDEST POP PUSH2 0x1F9 PUSH1 0x8 SLOAD DUP2 JUMP JUMPDEST CALLVALUE DUP1 ISZERO PUSH2 0x50E JUMPI PUSH1 0x0 DUP1 REVERT JUMPDEST POP PUSH2 0x1F9 PUSH1 0x7 SLOAD DUP2 JUMP JUMPDEST CALLVALUE DUP1 ISZERO PUSH2 0x524 JUMPI PUSH1 0x0 DUP1 REVERT JUMPDEST POP PUSH2 0x259 PUSH2 0x533 CALLDATASIZE PUSH1 0x4 PUSH2 0xCBC JUMP JUMPDEST PUSH1 0x1 PUSH1 0x1 PUSH1 0xA0 SHL SUB SWAP1 SWAP4 AND PUSH1 0x0 SWAP1 DUP2 MSTORE PUSH1 0xE PUSH1 0x20 SWAP1 DUP2 MSTORE PUSH1 0x40 DUP1 DUP4 KECCAK256 SWAP5 DUP4 MSTORE SWAP4 DUP2 MSTORE DUP4 DUP3 KECCAK256 SWAP3 DUP3 MSTORE SWAP2 SWAP1 SWAP2 MSTORE KECCAK256 SSTORE JUMP JUMPDEST CALLVALUE DUP1 ISZERO PUSH2 0x56F JUMPI PUSH1 0x0 DUP1 REVERT JUMPDEST POP PUSH2 0x259 PUSH2 0x57E CALLDATASIZE PUSH1 0x4 PUSH2 0xC5B JUMP JUMPDEST PUSH1 0x1 SSTORE JUMP JUMPDEST CALLVALUE DUP1 ISZERO PUSH2 0x58F JUMPI PUSH1 0x0 DUP1 REVERT JUMPDEST POP PUSH2 0x5C7 PUSH2 0x59E CALLDATASIZE PUSH1 0x4 PUSH2 0xC5B JUMP JUMPDEST PUSH1 0x0 DUP2 DUP2 MSTORE PUSH1 0xB PUSH1 0x20 SWAP1 DUP2 MSTORE PUSH1 0x40 DUP1 DUP4 KECCAK256 SLOAD PUSH1 0xC DUP4 MSTORE DUP2 DUP5 KECCAK256 SLOAD PUSH1 0xD SWAP1 SWAP4 MSTORE SWAP3 KECCAK256 SLOAD SWAP2 SWAP4 SWAP1 SWAP3 POP JUMP JUMPDEST PUSH1 0x40 DUP1 MLOAD SWAP4 DUP5 MSTORE PUSH1 0x20 DUP5 ADD SWAP3 SWAP1 SWAP3 MSTORE SWAP1 DUP3 ADD MSTORE PUSH1 0x60 ADD PUSH2 0x203 JUMP JUMPDEST CALLVALUE DUP1 ISZERO PUSH2 0x5EE JUMPI PUSH1 0x0 DUP1 REVERT JUMPDEST POP PUSH2 0x1F9 PUSH1 0x4 SLOAD DUP2 JUMP JUMPDEST CALLVALUE DUP1 ISZERO PUSH2 0x604 JUMPI PUSH1 0x0 DUP1 REVERT JUMPDEST POP PUSH2 0x1F9 PUSH2 0x613 CALLDATASIZE PUSH1 0x4 PUSH2 0xC5B JUMP JUMPDEST PUSH1 0xC PUSH1 0x20 MSTORE PUSH1 0x0 SWAP1 DUP2 MSTORE PUSH1 0x40 SWAP1 KECCAK256 SLOAD DUP2 JUMP JUMPDEST PUSH2 0x352 PUSH2 0x633 CALLDATASIZE PUSH1 0x4 PUSH2 0xF8F JUMP JUMPDEST PUSH2 0xAF6 JUMP JUMPDEST CALLVALUE DUP1 ISZERO PUSH2 0x644 JUMPI PUSH1 0x0 DUP1 REVERT JUMPDEST POP PUSH2 0x1F9 PUSH1 0x1 SLOAD DUP2 JUMP JUMPDEST CALLVALUE DUP1 ISZERO PUSH2 0x65A JUMPI PUSH1 0x0 DUP1 REVERT JUMPDEST POP PUSH2 0x1F9 PUSH2 0x669 CALLDATASIZE PUSH1 0x4 PUSH2 0xCF5 JUMP JUMPDEST PUSH1 0x1 PUSH1 0x1 PUSH1 0xA0 SHL SUB DUP4 AND PUSH1 0x0 SWAP1 DUP2 MSTORE PUSH1 0xE PUSH1 0x20 SWAP1 DUP2 MSTORE PUSH1 0x40 DUP1 DUP4 KECCAK256 DUP6 DUP5 MSTORE DUP3 MSTORE DUP1 DUP4 KECCAK256 DUP5 DUP5 MSTORE SWAP1 SWAP2 MSTORE SWAP1 KECCAK256 SLOAD SWAP4 SWAP3 POP POP POP JUMP JUMPDEST CALLVALUE DUP1 ISZERO PUSH2 0x6A8 JUMPI PUSH1 0x0 DUP1 REVERT JUMPDEST POP PUSH2 0x461 PUSH2 0x6B7 CALLDATASIZE PUSH1 0x4 PUSH2 0xC5B JUMP JUMPDEST PUSH1 0x0 SWAP1 DUP2 MSTORE PUSH1 0xA PUSH1 0x20 MSTORE PUSH1 0x40 SWAP1 KECCAK256 SLOAD PUSH1 0xFF AND SWAP1 JUMP JUMPDEST PUSH1 0x8 DUP1 SLOAD PUSH1 0x0 SWAP2 DUP3 PUSH2 0x6DD DUP4 PUSH2 0x107C JUMP JUMPDEST SWAP1 SWAP2 SSTORE POP POP CALLVALUE PUSH1 0x2 DUP2 SWAP1 SSTORE PUSH1 0x3 DUP1 SLOAD PUSH1 0x1 PUSH1 0x1 PUSH1 0xA0 SHL SUB NOT AND PUSH1 0x1 PUSH1 0x1 PUSH1 0xA0 SHL SUB DUP9 AND SWAP1 DUP2 OR SWAP1 SWAP2 SSTORE PUSH1 0x4 DUP7 SWAP1 SSTORE PUSH1 0x5 DUP6 SWAP1 SSTORE PUSH1 0x0 SWAP1 DUP2 MSTORE PUSH1 0xE PUSH1 0x20 SWAP1 DUP2 MSTORE PUSH1 0x40 DUP1 DUP4 KECCAK256 DUP9 DUP5 MSTORE DUP3 MSTORE DUP1 DUP4 KECCAK256 DUP8 DUP5 MSTORE SWAP1 SWAP2 MSTORE DUP2 KECCAK256 DUP1 SLOAD SWAP3 SWAP4 POP DUP4 SWAP3 SWAP1 SWAP2 SWAP1 PUSH2 0x746 SWAP1 DUP5 SWAP1 PUSH2 0x1095 JUMP JUMPDEST SWAP1 SWAP2 SSTORE POP POP SWAP5 SWAP4 POP POP POP POP JUMP JUMPDEST PUSH1 0x7 DUP1 SLOAD PUSH1 0x60 SWAP2 PUSH1 0x0 PUSH2 0x765 DUP4 PUSH2 0x107C JUMP JUMPDEST SWAP1 SWAP2 SSTORE POP DUP9 SWAP1 POP PUSH8 0xFFFFFFFFFFFFFFFF DUP2 GT ISZERO PUSH2 0x784 JUMPI PUSH2 0x784 PUSH2 0x10A8 JUMP JUMPDEST PUSH1 0x40 MLOAD SWAP1 DUP1 DUP3 MSTORE DUP1 PUSH1 0x20 MUL PUSH1 0x20 ADD DUP3 ADD PUSH1 0x40 MSTORE DUP1 ISZERO PUSH2 0x7AD JUMPI DUP2 PUSH1 0x20 ADD PUSH1 0x20 DUP3 MUL DUP1 CALLDATASIZE DUP4 CALLDATACOPY ADD SWAP1 POP JUMPDEST POP SWAP1 POP PUSH1 0x0 JUMPDEST DUP9 DUP2 LT ISZERO PUSH2 0x990 JUMPI DUP10 DUP10 DUP3 DUP2 DUP2 LT PUSH2 0x7CD JUMPI PUSH2 0x7CD PUSH2 0x10BE JUMP JUMPDEST SWAP1 POP PUSH1 0x20 MUL ADD CALLDATALOAD DUP9 DUP9 DUP4 DUP2 DUP2 LT PUSH2 0x7E6 JUMPI PUSH2 0x7E6 PUSH2 0x10BE JUMP JUMPDEST SWAP1 POP PUSH1 0x20 MUL ADD CALLDATALOAD DUP8 DUP8 DUP5 DUP2 DUP2 LT PUSH2 0x7FF JUMPI PUSH2 0x7FF PUSH2 0x10BE JUMP JUMPDEST SWAP1 POP PUSH1 0x20 MUL ADD CALLDATALOAD PUSH1 0x40 MLOAD PUSH1 0x20 ADD PUSH2 0x829 SWAP4 SWAP3 SWAP2 SWAP1 SWAP3 DUP4 MSTORE PUSH1 0x20 DUP4 ADD SWAP2 SWAP1 SWAP2 MSTORE PUSH1 0x40 DUP3 ADD MSTORE PUSH1 0x60 ADD SWAP1 JUMP JUMPDEST PUSH1 0x40 MLOAD PUSH1 0x20 DUP2 DUP4 SUB SUB DUP2 MSTORE SWAP1 PUSH1 0x40 MSTORE DUP1 MLOAD SWAP1 PUSH1 0x20 ADD KECCAK256 DUP3 DUP3 DUP2 MLOAD DUP2 LT PUSH2 0x851 JUMPI PUSH2 0x851 PUSH2 0x10BE JUMP JUMPDEST PUSH1 0x20 MUL PUSH1 0x20 ADD ADD DUP2 DUP2 MSTORE POP POP PUSH1 0x1 PUSH1 0xA PUSH1 0x0 DUP5 DUP5 DUP2 MLOAD DUP2 LT PUSH2 0x875 JUMPI PUSH2 0x875 PUSH2 0x10BE JUMP JUMPDEST PUSH1 0x20 MUL PUSH1 0x20 ADD ADD MLOAD DUP2 MSTORE PUSH1 0x20 ADD SWAP1 DUP2 MSTORE PUSH1 0x20 ADD PUSH1 0x0 KECCAK256 PUSH1 0x0 PUSH2 0x100 EXP DUP2 SLOAD DUP2 PUSH1 0xFF MUL NOT AND SWAP1 DUP4 ISZERO ISZERO MUL OR SWAP1 SSTORE POP DUP10 DUP10 DUP3 DUP2 DUP2 LT PUSH2 0x8B4 JUMPI PUSH2 0x8B4 PUSH2 0x10BE JUMP JUMPDEST SWAP1 POP PUSH1 0x20 MUL ADD CALLDATALOAD PUSH1 0xB PUSH1 0x0 DUP5 DUP5 DUP2 MLOAD DUP2 LT PUSH2 0x8D1 JUMPI PUSH2 0x8D1 PUSH2 0x10BE JUMP JUMPDEST PUSH1 0x20 MUL PUSH1 0x20 ADD ADD MLOAD DUP2 MSTORE PUSH1 0x20 ADD SWAP1 DUP2 MSTORE PUSH1 0x20 ADD PUSH1 0x0 KECCAK256 DUP2 SWAP1 SSTORE POP DUP8 DUP8 DUP3 DUP2 DUP2 LT PUSH2 0x8FD JUMPI PUSH2 0x8FD PUSH2 0x10BE JUMP JUMPDEST SWAP1 POP PUSH1 0x20 MUL ADD CALLDATALOAD PUSH1 0xC PUSH1 0x0 DUP5 DUP5 DUP2 MLOAD DUP2 LT PUSH2 0x91A JUMPI PUSH2 0x91A PUSH2 0x10BE JUMP JUMPDEST PUSH1 0x20 MUL PUSH1 0x20 ADD ADD MLOAD DUP2 MSTORE PUSH1 0x20 ADD SWAP1 DUP2 MSTORE PUSH1 0x20 ADD PUSH1 0x0 KECCAK256 DUP2 SWAP1 SSTORE POP DUP6 DUP6 DUP3 DUP2 DUP2 LT PUSH2 0x946 JUMPI PUSH2 0x946 PUSH2 0x10BE JUMP JUMPDEST SWAP1 POP PUSH1 0x20 MUL ADD CALLDATALOAD PUSH1 0xD PUSH1 0x0 DUP5 DUP5 DUP2 MLOAD DUP2 LT PUSH2 0x963 JUMPI PUSH2 0x963 PUSH2 0x10BE JUMP JUMPDEST PUSH1 0x20 MUL PUSH1 0x20 ADD ADD MLOAD DUP2 MSTORE PUSH1 0x20 ADD SWAP1 DUP2 MSTORE PUSH1 0x20 ADD PUSH1 0x0 KECCAK256 DUP2 SWAP1 SSTORE POP DUP1 DUP1 PUSH2 0x988 SWAP1 PUSH2 0x107C JUMP JUMPDEST SWAP2 POP POP PUSH2 0x7B3 JUMP JUMPDEST POP SWAP9 SWAP8 POP POP POP POP POP POP POP POP JUMP JUMPDEST PUSH1 0x6 DUP1 SLOAD PUSH1 0x60 SWAP2 PUSH1 0x0 PUSH2 0x9AF DUP4 PUSH2 0x107C JUMP JUMPDEST SWAP1 SWAP2 SSTORE POP DUP5 SWAP1 POP PUSH8 0xFFFFFFFFFFFFFFFF DUP2 GT ISZERO PUSH2 0x9CE JUMPI PUSH2 0x9CE PUSH2 0x10A8 JUMP JUMPDEST PUSH1 0x40 MLOAD SWAP1 DUP1 DUP3 MSTORE DUP1 PUSH1 0x20 MUL PUSH1 0x20 ADD DUP3 ADD PUSH1 0x40 MSTORE DUP1 ISZERO PUSH2 0x9F7 JUMPI DUP2 PUSH1 0x20 ADD PUSH1 0x20 DUP3 MUL DUP1 CALLDATASIZE DUP4 CALLDATACOPY ADD SWAP1 POP JUMPDEST POP SWAP1 POP PUSH1 0x0 JUMPDEST DUP5 DUP2 LT ISZERO PUSH2 0xACA JUMPI DUP6 DUP6 DUP3 DUP2 DUP2 LT PUSH2 0xA17 JUMPI PUSH2 0xA17 PUSH2 0x10BE JUMP JUMPDEST SWAP1 POP PUSH1 0x20 MUL DUP2 ADD SWAP1 PUSH2 0xA29 SWAP2 SWAP1 PUSH2 0x10D4 JUMP JUMPDEST TIMESTAMP DUP4 PUSH1 0x40 MLOAD PUSH1 0x20 ADD PUSH2 0xA3E SWAP5 SWAP4 SWAP3 SWAP2 SWAP1 PUSH2 0x111B JUMP JUMPDEST PUSH1 0x40 MLOAD PUSH1 0x20 DUP2 DUP4 SUB SUB DUP2 MSTORE SWAP1 PUSH1 0x40 MSTORE DUP1 MLOAD SWAP1 PUSH1 0x20 ADD KECCAK256 DUP3 DUP3 DUP2 MLOAD DUP2 LT PUSH2 0xA66 JUMPI PUSH2 0xA66 PUSH2 0x10BE JUMP JUMPDEST PUSH1 0x20 MUL PUSH1 0x20 ADD ADD DUP2 DUP2 MSTORE POP POP PUSH1 0x1 PUSH1 0xA PUSH1 0x0 DUP5 DUP5 DUP2 MLOAD DUP2 LT PUSH2 0xA8A JUMPI PUSH2 0xA8A PUSH2 0x10BE JUMP JUMPDEST PUSH1 0x20 MUL PUSH1 0x20 ADD ADD MLOAD DUP2 MSTORE PUSH1 0x20 ADD SWAP1 DUP2 MSTORE PUSH1 0x20 ADD PUSH1 0x0 KECCAK256 PUSH1 0x0 PUSH2 0x100 EXP DUP2 SLOAD DUP2 PUSH1 0xFF MUL NOT AND SWAP1 DUP4 ISZERO ISZERO MUL OR SWAP1 SSTORE POP DUP1 DUP1 PUSH2 0xAC2 SWAP1 PUSH2 0x107C JUMP JUMPDEST SWAP2 POP POP PUSH2 0x9FD JUMP JUMPDEST POP SWAP5 SWAP4 POP POP POP POP JUMP JUMPDEST PUSH1 0x0 DUP3 DUP3 PUSH1 0x40 MLOAD PUSH2 0xAE5 SWAP3 SWAP2 SWAP1 PUSH2 0x1135 JUMP JUMPDEST PUSH1 0x40 MLOAD DUP1 SWAP2 SUB SWAP1 KECCAK256 SWAP1 POP JUMPDEST SWAP3 SWAP2 POP POP JUMP JUMPDEST PUSH1 0x9 DUP1 SLOAD PUSH1 0x60 SWAP2 PUSH1 0x0 PUSH2 0xB08 DUP4 PUSH2 0x107C JUMP JUMPDEST SWAP1 SWAP2 SSTORE POP DUP9 SWAP1 POP PUSH8 0xFFFFFFFFFFFFFFFF DUP2 GT ISZERO PUSH2 0xB27 JUMPI PUSH2 0xB27 PUSH2 0x10A8 JUMP JUMPDEST PUSH1 0x40 MLOAD SWAP1 DUP1 DUP3 MSTORE DUP1 PUSH1 0x20 MUL PUSH1 0x20 ADD DUP3 ADD PUSH1 0x40 MSTORE DUP1 ISZERO PUSH2 0xB50 JUMPI DUP2 PUSH1 0x20 ADD PUSH1 0x20 DUP3 MUL DUP1 CALLDATASIZE DUP4 CALLDATACOPY ADD SWAP1 POP JUMPDEST POP SWAP1 POP PUSH1 0x0 JUMPDEST DUP9 DUP2 LT ISZERO PUSH2 0xC4D JUMPI DUP6 DUP6 DUP3 DUP2 DUP2 LT PUSH2 0xB70 JUMPI PUSH2 0xB70 PUSH2 0x10BE JUMP JUMPDEST SWAP1 POP PUSH1 0x20 MUL ADD CALLDATALOAD DUP3 DUP3 DUP2 MLOAD DUP2 LT PUSH2 0xB89 JUMPI PUSH2 0xB89 PUSH2 0x10BE JUMP JUMPDEST PUSH1 0x20 MUL PUSH1 0x20 ADD ADD DUP2 DUP2 MSTORE POP POP DUP2 DUP2 DUP2 MLOAD DUP2 LT PUSH2 0xBA7 JUMPI PUSH2 0xBA7 PUSH2 0x10BE JUMP JUMPDEST PUSH1 0x20 MUL PUSH1 0x20 ADD ADD MLOAD PUSH1 0xE PUSH1 0x0 DUP14 PUSH1 0x1 PUSH1 0x1 PUSH1 0xA0 SHL SUB AND PUSH1 0x1 PUSH1 0x1 PUSH1 0xA0 SHL SUB AND DUP2 MSTORE PUSH1 0x20 ADD SWAP1 DUP2 MSTORE PUSH1 0x20 ADD PUSH1 0x0 KECCAK256 PUSH1 0x0 DUP13 DUP13 DUP6 DUP2 DUP2 LT PUSH2 0xBE8 JUMPI PUSH2 0xBE8 PUSH2 0x10BE JUMP JUMPDEST SWAP1 POP PUSH1 0x20 MUL ADD CALLDATALOAD DUP2 MSTORE PUSH1 0x20 ADD SWAP1 DUP2 MSTORE PUSH1 0x20 ADD PUSH1 0x0 KECCAK256 PUSH1 0x0 DUP11 DUP11 DUP6 DUP2 DUP2 LT PUSH2 0xC11 JUMPI PUSH2 0xC11 PUSH2 0x10BE JUMP JUMPDEST SWAP1 POP PUSH1 0x20 MUL ADD CALLDATALOAD DUP2 MSTORE PUSH1 0x20 ADD SWAP1 DUP2 MSTORE PUSH1 0x20 ADD PUSH1 0x0 KECCAK256 PUSH1 0x0 DUP3 DUP3 SLOAD PUSH2 0xC35 SWAP2 SWAP1 PUSH2 0x1095 JUMP JUMPDEST SWAP1 SWAP2 SSTORE POP DUP2 SWAP1 POP PUSH2 0xC45 DUP2 PUSH2 0x107C JUMP JUMPDEST SWAP2 POP POP PUSH2 0xB56 JUMP JUMPDEST POP SWAP10 SWAP9 POP POP POP POP POP POP POP POP POP JUMP JUMPDEST PUSH1 0x0 PUSH1 0x20 DUP3 DUP5 SUB SLT ISZERO PUSH2 0xC6D JUMPI PUSH1 0x0 DUP1 REVERT JUMPDEST POP CALLDATALOAD SWAP2 SWAP1 POP JUMP JUMPDEST PUSH1 0x0 DUP1 PUSH1 0x0 PUSH1 0x60 DUP5 DUP7 SUB SLT ISZERO PUSH2 0xC89 JUMPI PUSH1 0x0 DUP1 REVERT JUMPDEST POP POP DUP2 CALLDATALOAD SWAP4 PUSH1 0x20 DUP4 ADD CALLDATALOAD SWAP4 POP PUSH1 0x40 SWAP1 SWAP3 ADD CALLDATALOAD SWAP2 SWAP1 POP JUMP JUMPDEST DUP1 CALLDATALOAD PUSH1 0x1 PUSH1 0x1 PUSH1 0xA0 SHL SUB DUP2 AND DUP2 EQ PUSH2 0xCB7 JUMPI PUSH1 0x0 DUP1 REVERT JUMPDEST SWAP2 SWAP1 POP JUMP JUMPDEST PUSH1 0x0 DUP1 PUSH1 0x0 DUP1 PUSH1 0x80 DUP6 DUP8 SUB SLT ISZERO PUSH2 0xCD2 JUMPI PUSH1 0x0 DUP1 REVERT JUMPDEST PUSH2 0xCDB DUP6 PUSH2 0xCA0 JUMP JUMPDEST SWAP7 PUSH1 0x20 DUP7 ADD CALLDATALOAD SWAP7 POP PUSH1 0x40 DUP7 ADD CALLDATALOAD SWAP6 PUSH1 0x60 ADD CALLDATALOAD SWAP5 POP SWAP3 POP POP POP JUMP JUMPDEST PUSH1 0x0 DUP1 PUSH1 0x0 PUSH1 0x60 DUP5 DUP7 SUB SLT ISZERO PUSH2 0xD0A JUMPI PUSH1 0x0 DUP1 REVERT JUMPDEST PUSH2 0xD13 DUP5 PUSH2 0xCA0 JUMP JUMPDEST SWAP6 PUSH1 0x20 DUP6 ADD CALLDATALOAD SWAP6 POP PUSH1 0x40 SWAP1 SWAP5 ADD CALLDATALOAD SWAP4 SWAP3 POP POP POP JUMP JUMPDEST PUSH1 0x0 DUP1 DUP4 PUSH1 0x1F DUP5 ADD SLT PUSH2 0xD3A JUMPI PUSH1 0x0 DUP1 REVERT JUMPDEST POP DUP2 CALLDATALOAD PUSH8 0xFFFFFFFFFFFFFFFF DUP2 GT ISZERO PUSH2 0xD52 JUMPI PUSH1 0x0 DUP1 REVERT JUMPDEST PUSH1 0x20 DUP4 ADD SWAP2 POP DUP4 PUSH1 0x20 DUP3 PUSH1 0x5 SHL DUP6 ADD ADD GT ISZERO PUSH2 0xD6D JUMPI PUSH1 0x0 DUP1 REVERT JUMPDEST SWAP3 POP SWAP3 SWAP1 POP JUMP JUMPDEST PUSH1 0x0 DUP1 PUSH1 0x0 DUP1 PUSH1 0x0 DUP1 PUSH1 0x0 DUP1 PUSH1 0x80 DUP10 DUP12 SUB SLT ISZERO PUSH2 0xD90 JUMPI PUSH1 0x0 DUP1 REVERT JUMPDEST DUP9 CALLDATALOAD PUSH8 0xFFFFFFFFFFFFFFFF DUP1 DUP3 GT ISZERO PUSH2 0xDA8 JUMPI PUSH1 0x0 DUP1 REVERT JUMPDEST PUSH2 0xDB4 DUP13 DUP4 DUP14 ADD PUSH2 0xD28 JUMP JUMPDEST SWAP1 SWAP11 POP SWAP9 POP PUSH1 0x20 DUP12 ADD CALLDATALOAD SWAP2 POP DUP1 DUP3 GT ISZERO PUSH2 0xDCD JUMPI PUSH1 0x0 DUP1 REVERT JUMPDEST PUSH2 0xDD9 DUP13 DUP4 DUP14 ADD PUSH2 0xD28 JUMP JUMPDEST SWAP1 SWAP9 POP SWAP7 POP PUSH1 0x40 DUP12 ADD CALLDATALOAD SWAP2 POP DUP1 DUP3 GT ISZERO PUSH2 0xDF2 JUMPI PUSH1 0x0 DUP1 REVERT JUMPDEST PUSH2 0xDFE DUP13 DUP4 DUP14 ADD PUSH2 0xD28 JUMP JUMPDEST SWAP1 SWAP7 POP SWAP5 POP PUSH1 0x60 DUP12 ADD CALLDATALOAD SWAP2 POP DUP1 DUP3 GT ISZERO PUSH2 0xE17 JUMPI PUSH1 0x0 DUP1 REVERT JUMPDEST POP PUSH2 0xE24 DUP12 DUP3 DUP13 ADD PUSH2 0xD28 JUMP JUMPDEST SWAP10 SWAP13 SWAP9 SWAP12 POP SWAP7 SWAP10 POP SWAP5 SWAP8 SWAP4 SWAP7 SWAP3 SWAP6 SWAP5 POP POP POP JUMP JUMPDEST PUSH1 0x20 DUP1 DUP3 MSTORE DUP3 MLOAD DUP3 DUP3 ADD DUP2 SWAP1 MSTORE PUSH1 0x0 SWAP2 SWAP1 DUP5 DUP3 ADD SWAP1 PUSH1 0x40 DUP6 ADD SWAP1 DUP5 JUMPDEST DUP2 DUP2 LT ISZERO PUSH2 0xE70 JUMPI DUP4 MLOAD DUP4 MSTORE SWAP3 DUP5 ADD SWAP3 SWAP2 DUP5 ADD SWAP2 PUSH1 0x1 ADD PUSH2 0xE54 JUMP JUMPDEST POP SWAP1 SWAP7 SWAP6 POP POP POP POP POP POP JUMP JUMPDEST PUSH1 0x0 DUP1 PUSH1 0x0 DUP1 PUSH1 0x40 DUP6 DUP8 SUB SLT ISZERO PUSH2 0xE92 JUMPI PUSH1 0x0 DUP1 REVERT JUMPDEST DUP5 CALLDATALOAD PUSH8 0xFFFFFFFFFFFFFFFF DUP1 DUP3 GT ISZERO PUSH2 0xEAA JUMPI PUSH1 0x0 DUP1 REVERT JUMPDEST PUSH2 0xEB6 DUP9 DUP4 DUP10 ADD PUSH2 0xD28 JUMP JUMPDEST SWAP1 SWAP7 POP SWAP5 POP PUSH1 0x20 DUP8 ADD CALLDATALOAD SWAP2 POP DUP1 DUP3 GT ISZERO PUSH2 0xECF JUMPI PUSH1 0x0 DUP1 REVERT JUMPDEST POP PUSH2 0xEDC DUP8 DUP3 DUP9 ADD PUSH2 0xD28 JUMP JUMPDEST SWAP6 SWAP9 SWAP5 SWAP8 POP SWAP6 POP POP POP POP JUMP JUMPDEST PUSH1 0x0 DUP1 PUSH1 0x20 DUP4 DUP6 SUB SLT ISZERO PUSH2 0xEFB JUMPI PUSH1 0x0 DUP1 REVERT JUMPDEST DUP3 CALLDATALOAD PUSH8 0xFFFFFFFFFFFFFFFF DUP1 DUP3 GT ISZERO PUSH2 0xF13 JUMPI PUSH1 0x0 DUP1 REVERT JUMPDEST DUP2 DUP6 ADD SWAP2 POP DUP6 PUSH1 0x1F DUP4 ADD SLT PUSH2 0xF27 JUMPI PUSH1 0x0 DUP1 REVERT JUMPDEST DUP2 CALLDATALOAD DUP2 DUP2 GT ISZERO PUSH2 0xF36 JUMPI PUSH1 0x0 DUP1 REVERT JUMPDEST DUP7 PUSH1 0x20 DUP3 DUP6 ADD ADD GT ISZERO PUSH2 0xF48 JUMPI PUSH1 0x0 DUP1 REVERT JUMPDEST PUSH1 0x20 SWAP3 SWAP1 SWAP3 ADD SWAP7 SWAP2 SWAP6 POP SWAP1 SWAP4 POP POP POP POP JUMP JUMPDEST PUSH1 0x0 DUP1 PUSH1 0x40 DUP4 DUP6 SUB SLT ISZERO PUSH2 0xF6D JUMPI PUSH1 0x0 DUP1 REVERT JUMPDEST DUP3 CALLDATALOAD SWAP2 POP PUSH1 0x20 DUP4 ADD CALLDATALOAD DUP1 ISZERO ISZERO DUP2 EQ PUSH2 0xF84 JUMPI PUSH1 0x0 DUP1 REVERT JUMPDEST DUP1 SWAP2 POP POP SWAP3 POP SWAP3 SWAP1 POP JUMP JUMPDEST PUSH1 0x0 DUP1 PUSH1 0x0 DUP1 PUSH1 0x0 DUP1 PUSH1 0x0 DUP1 PUSH1 0x0 PUSH1 0xA0 DUP11 DUP13 SUB SLT ISZERO PUSH2 0xFAD JUMPI PUSH1 0x0 DUP1 REVERT JUMPDEST PUSH2 0xFB6 DUP11 PUSH2 0xCA0 JUMP JUMPDEST SWAP9 POP PUSH1 0x20 DUP11 ADD CALLDATALOAD PUSH8 0xFFFFFFFFFFFFFFFF DUP1 DUP3 GT ISZERO PUSH2 0xFD3 JUMPI PUSH1 0x0 DUP1 REVERT JUMPDEST PUSH2 0xFDF DUP14 DUP4 DUP15 ADD PUSH2 0xD28 JUMP JUMPDEST SWAP1 SWAP11 POP SWAP9 POP PUSH1 0x40 DUP13 ADD CALLDATALOAD SWAP2 POP DUP1 DUP3 GT ISZERO PUSH2 0xFF8 JUMPI PUSH1 0x0 DUP1 REVERT JUMPDEST PUSH2 0x1004 DUP14 DUP4 DUP15 ADD PUSH2 0xD28 JUMP JUMPDEST SWAP1 SWAP9 POP SWAP7 POP PUSH1 0x60 DUP13 ADD CALLDATALOAD SWAP2 POP DUP1 DUP3 GT ISZERO PUSH2 0x101D JUMPI PUSH1 0x0 DUP1 REVERT JUMPDEST PUSH2 0x1029 DUP14 DUP4 DUP15 ADD PUSH2 0xD28 JUMP JUMPDEST SWAP1 SWAP7 POP SWAP5 POP PUSH1 0x80 DUP13 ADD CALLDATALOAD SWAP2 POP DUP1 DUP3 GT ISZERO PUSH2 0x1042 JUMPI PUSH1 0x0 DUP1 REVERT JUMPDEST POP PUSH2 0x104F DUP13 DUP3 DUP14 ADD PUSH2 0xD28 JUMP JUMPDEST SWAP2 POP DUP1 SWAP4 POP POP DUP1 SWAP2 POP POP SWAP3 SWAP6 SWAP9 POP SWAP3 SWAP6 SWAP9 POP SWAP3 SWAP6 SWAP9 JUMP JUMPDEST PUSH4 0x4E487B71 PUSH1 0xE0 SHL PUSH1 0x0 MSTORE PUSH1 0x11 PUSH1 0x4 MSTORE PUSH1 0x24 PUSH1 0x0 REVERT JUMPDEST PUSH1 0x0 PUSH1 0x1 DUP3 ADD PUSH2 0x108E JUMPI PUSH2 0x108E PUSH2 0x1066 JUMP JUMPDEST POP PUSH1 0x1 ADD SWAP1 JUMP JUMPDEST DUP1 DUP3 ADD DUP1 DUP3 GT ISZERO PUSH2 0xAF0 JUMPI PUSH2 0xAF0 PUSH2 0x1066 JUMP JUMPDEST PUSH4 0x4E487B71 PUSH1 0xE0 SHL PUSH1 0x0 MSTORE PUSH1 0x41 PUSH1 0x4 MSTORE PUSH1 0x24 PUSH1 0x0 REVERT JUMPDEST PUSH4 0x4E487B71 PUSH1 0xE0 SHL PUSH1 0x0 MSTORE PUSH1 0x32 PUSH1 0x4 MSTORE PUSH1 0x24 PUSH1 0x0 REVERT JUMPDEST PUSH1 0x0 DUP1 DUP4 CALLDATALOAD PUSH1 0x1E NOT DUP5 CALLDATASIZE SUB ADD DUP2 SLT PUSH2 0x10EB JUMPI PUSH1 0x0 DUP1 REVERT JUMPDEST DUP4 ADD DUP1 CALLDATALOAD SWAP2 POP PUSH8 0xFFFFFFFFFFFFFFFF DUP3 GT ISZERO PUSH2 0x1106 JUMPI PUSH1 0x0 DUP1 REVERT JUMPDEST PUSH1 0x20 ADD SWAP2 POP CALLDATASIZE DUP2 SWAP1 SUB DUP3 SGT ISZERO PUSH2 0xD6D JUMPI PUSH1 0x0 DUP1 REVERT JUMPDEST DUP4 DUP6 DUP3 CALLDATACOPY SWAP1 SWAP3 ADD SWAP1 DUP2 MSTORE PUSH1 0x20 DUP2 ADD SWAP2 SWAP1 SWAP2 MSTORE PUSH1 0x40 ADD SWAP2 SWAP1 POP JUMP JUMPDEST DUP2 DUP4 DUP3 CALLDATACOPY PUSH1 0x0 SWAP2 ADD SWAP1 DUP2 MSTORE SWAP2 SWAP1 POP JUMP INVALID LOG2 PUSH5 0x6970667358 0x22 SLT KECCAK256 0x2C SWAP2 0x1E SWAP15 EQ PUSH29 0x18B37D334BA4920C6BB48C30FA7C2F1EAFC880822283E6C457D164736F PUSH13 0x63430008150033000000000000 "},"methodIdentifiers":{"atomCost()":"18b0054c","calculateAtomId(bytes)":"6828caa6","calculateTripleId(bytes32,bytes32,bytes32)":"2e1aa0f2","createAtoms(bytes[],uint256[])":"61403309","createAtomsCallCount()":"8b36c975","createTriples(bytes32[],bytes32[],bytes32[],uint256[])":"3c6bbf45","createTriplesCallCount()":"affe102c","deposit(address,bytes32,uint256,uint256)":"2fb1d270","depositBatch(address,bytes32[],uint256[],uint256[],uint256[])":"dea9423a","depositBatchCallCount()":"65007486","depositCallCount()":"9ae36a21","getAtomCost()":"33332d39","getShares(address,bytes32,uint256)":"ee3abe38","getTriple(bytes32)":"c12f7947","getTripleCost()":"0d65c91c","isTermCreated(bytes32)":"f5719008","lastDepositAmount()":"55b153e0","lastDepositCurveId()":"239563e0","lastDepositReceiver()":"95d9809b","lastDepositTermId()":"c17e1da3","previewDeposit(bytes32,uint256,uint256)":"7d4eaa91","setAtomCost(uint256)":"179e7a0a","setShares(address,bytes32,uint256,uint256)":"b03eafcb","setTermCreated(bytes32,bool)":"8680f6eb","setTripleCost(uint256)":"b7c1fd50","shares(address,bytes32,uint256)":"3bac8dcf","termCreated(bytes32)":"87d69ff9","tripleCost()":"e5c65eaf","tripleObjects(bytes32)":"8907e462","triplePredicates(bytes32)":"cfe3e83a","tripleSubjects(bytes32)":"13b0b7a1"}}}}}