{
  "_format": "hh-sol-artifact-1",
  "contractName": "SofiaFeeProxy",
  "sourceName": "src/SofiaFeeProxy.sol",
  "abi": [
    {
      "inputs": [
        {
          "internalType": "address",
          "name": "_ethMultiVault",
          "type": "address"
        },
        {
          "internalType": "address",
          "name": "_feeRecipient",
          "type": "address"
        },
        {
          "internalType": "uint256",
          "name": "_creationFixedFee",
          "type": "uint256"
        },
        {
          "internalType": "uint256",
          "name": "_depositFixedFee",
          "type": "uint256"
        },
        {
          "internalType": "uint256",
          "name": "_depositPercentageFee",
          "type": "uint256"
        },
        {
          "internalType": "address[]",
          "name": "_initialAdmins",
          "type": "address[]"
        }
      ],
      "stateMutability": "nonpayable",
      "type": "constructor"
    },
    {
      "inputs": [],
      "name": "SofiaFeeProxy_FeePercentageTooHigh",
      "type": "error"
    },
    {
      "inputs": [],
      "name": "SofiaFeeProxy_InsufficientValue",
      "type": "error"
    },
    {
      "inputs": [],
      "name": "SofiaFeeProxy_InvalidMultiVaultAddress",
      "type": "error"
    },
    {
      "inputs": [],
      "name": "SofiaFeeProxy_InvalidMultisigAddress",
      "type": "error"
    },
    {
      "inputs": [],
      "name": "SofiaFeeProxy_NotWhitelistedAdmin",
      "type": "error"
    },
    {
      "inputs": [],
      "name": "SofiaFeeProxy_TransferFailed",
      "type": "error"
    },
    {
      "inputs": [],
      "name": "SofiaFeeProxy_WrongArrayLengths",
      "type": "error"
    },
    {
      "inputs": [],
      "name": "SofiaFeeProxy_ZeroAddress",
      "type": "error"
    },
    {
      "anonymous": false,
      "inputs": [
        {
          "indexed": true,
          "internalType": "address",
          "name": "admin",
          "type": "address"
        },
        {
          "indexed": false,
          "internalType": "bool",
          "name": "status",
          "type": "bool"
        }
      ],
      "name": "AdminWhitelistUpdated",
      "type": "event"
    },
    {
      "anonymous": false,
      "inputs": [
        {
          "indexed": false,
          "internalType": "uint256",
          "name": "oldFee",
          "type": "uint256"
        },
        {
          "indexed": false,
          "internalType": "uint256",
          "name": "newFee",
          "type": "uint256"
        }
      ],
      "name": "CreationFixedFeeUpdated",
      "type": "event"
    },
    {
      "anonymous": false,
      "inputs": [
        {
          "indexed": false,
          "internalType": "uint256",
          "name": "oldFee",
          "type": "uint256"
        },
        {
          "indexed": false,
          "internalType": "uint256",
          "name": "newFee",
          "type": "uint256"
        }
      ],
      "name": "DepositFixedFeeUpdated",
      "type": "event"
    },
    {
      "anonymous": false,
      "inputs": [
        {
          "indexed": false,
          "internalType": "uint256",
          "name": "oldFee",
          "type": "uint256"
        },
        {
          "indexed": false,
          "internalType": "uint256",
          "name": "newFee",
          "type": "uint256"
        }
      ],
      "name": "DepositPercentageFeeUpdated",
      "type": "event"
    },
    {
      "anonymous": false,
      "inputs": [
        {
          "indexed": true,
          "internalType": "address",
          "name": "oldRecipient",
          "type": "address"
        },
        {
          "indexed": true,
          "internalType": "address",
          "name": "newRecipient",
          "type": "address"
        }
      ],
      "name": "FeeRecipientUpdated",
      "type": "event"
    },
    {
      "anonymous": false,
      "inputs": [
        {
          "indexed": true,
          "internalType": "address",
          "name": "user",
          "type": "address"
        },
        {
          "indexed": false,
          "internalType": "uint256",
          "name": "amount",
          "type": "uint256"
        },
        {
          "indexed": false,
          "internalType": "string",
          "name": "operation",
          "type": "string"
        }
      ],
      "name": "FeesCollected",
      "type": "event"
    },
    {
      "anonymous": false,
      "inputs": [
        {
          "indexed": false,
          "internalType": "string",
          "name": "operation",
          "type": "string"
        },
        {
          "indexed": false,
          "internalType": "uint256",
          "name": "resultCount",
          "type": "uint256"
        }
      ],
      "name": "MultiVaultSuccess",
      "type": "event"
    },
    {
      "anonymous": false,
      "inputs": [
        {
          "indexed": false,
          "internalType": "string",
          "name": "operation",
          "type": "string"
        },
        {
          "indexed": true,
          "internalType": "address",
          "name": "user",
          "type": "address"
        },
        {
          "indexed": false,
          "internalType": "uint256",
          "name": "sofiaFee",
          "type": "uint256"
        },
        {
          "indexed": false,
          "internalType": "uint256",
          "name": "multiVaultValue",
          "type": "uint256"
        },
        {
          "indexed": false,
          "internalType": "uint256",
          "name": "totalReceived",
          "type": "uint256"
        }
      ],
      "name": "TransactionForwarded",
      "type": "event"
    },
    {
      "inputs": [],
      "name": "FEE_DENOMINATOR",
      "outputs": [
        {
          "internalType": "uint256",
          "name": "",
          "type": "uint256"
        }
      ],
      "stateMutability": "view",
      "type": "function"
    },
    {
      "inputs": [],
      "name": "MAX_FEE_PERCENTAGE",
      "outputs": [
        {
          "internalType": "uint256",
          "name": "",
          "type": "uint256"
        }
      ],
      "stateMutability": "view",
      "type": "function"
    },
    {
      "inputs": [
        {
          "internalType": "bytes",
          "name": "data",
          "type": "bytes"
        }
      ],
      "name": "calculateAtomId",
      "outputs": [
        {
          "internalType": "bytes32",
          "name": "",
          "type": "bytes32"
        }
      ],
      "stateMutability": "pure",
      "type": "function"
    },
    {
      "inputs": [
        {
          "internalType": "uint256",
          "name": "count",
          "type": "uint256"
        }
      ],
      "name": "calculateCreationFee",
      "outputs": [
        {
          "internalType": "uint256",
          "name": "",
          "type": "uint256"
        }
      ],
      "stateMutability": "view",
      "type": "function"
    },
    {
      "inputs": [
        {
          "internalType": "uint256",
          "name": "depositAmount",
          "type": "uint256"
        }
      ],
      "name": "calculateDepositFee",
      "outputs": [
        {
          "internalType": "uint256",
          "name": "",
          "type": "uint256"
        }
      ],
      "stateMutability": "view",
      "type": "function"
    },
    {
      "inputs": [
        {
          "internalType": "bytes32",
          "name": "subjectId",
          "type": "bytes32"
        },
        {
          "internalType": "bytes32",
          "name": "predicateId",
          "type": "bytes32"
        },
        {
          "internalType": "bytes32",
          "name": "objectId",
          "type": "bytes32"
        }
      ],
      "name": "calculateTripleId",
      "outputs": [
        {
          "internalType": "bytes32",
          "name": "",
          "type": "bytes32"
        }
      ],
      "stateMutability": "view",
      "type": "function"
    },
    {
      "inputs": [
        {
          "internalType": "bytes[]",
          "name": "data",
          "type": "bytes[]"
        },
        {
          "internalType": "uint256[]",
          "name": "assets",
          "type": "uint256[]"
        }
      ],
      "name": "createAtoms",
      "outputs": [
        {
          "internalType": "bytes32[]",
          "name": "",
          "type": "bytes32[]"
        }
      ],
      "stateMutability": "payable",
      "type": "function"
    },
    {
      "inputs": [
        {
          "internalType": "bytes32[]",
          "name": "subjectIds",
          "type": "bytes32[]"
        },
        {
          "internalType": "bytes32[]",
          "name": "predicateIds",
          "type": "bytes32[]"
        },
        {
          "internalType": "bytes32[]",
          "name": "objectIds",
          "type": "bytes32[]"
        },
        {
          "internalType": "uint256[]",
          "name": "assets",
          "type": "uint256[]"
        }
      ],
      "name": "createTriples",
      "outputs": [
        {
          "internalType": "bytes32[]",
          "name": "",
          "type": "bytes32[]"
        }
      ],
      "stateMutability": "payable",
      "type": "function"
    },
    {
      "inputs": [],
      "name": "creationFixedFee",
      "outputs": [
        {
          "internalType": "uint256",
          "name": "",
          "type": "uint256"
        }
      ],
      "stateMutability": "view",
      "type": "function"
    },
    {
      "inputs": [
        {
          "internalType": "address",
          "name": "receiver",
          "type": "address"
        },
        {
          "internalType": "bytes32",
          "name": "termId",
          "type": "bytes32"
        },
        {
          "internalType": "uint256",
          "name": "curveId",
          "type": "uint256"
        },
        {
          "internalType": "uint256",
          "name": "minShares",
          "type": "uint256"
        }
      ],
      "name": "deposit",
      "outputs": [
        {
          "internalType": "uint256",
          "name": "shares",
          "type": "uint256"
        }
      ],
      "stateMutability": "payable",
      "type": "function"
    },
    {
      "inputs": [
        {
          "internalType": "address",
          "name": "receiver",
          "type": "address"
        },
        {
          "internalType": "bytes32[]",
          "name": "termIds",
          "type": "bytes32[]"
        },
        {
          "internalType": "uint256[]",
          "name": "curveIds",
          "type": "uint256[]"
        },
        {
          "internalType": "uint256[]",
          "name": "assets",
          "type": "uint256[]"
        },
        {
          "internalType": "uint256[]",
          "name": "minShares",
          "type": "uint256[]"
        }
      ],
      "name": "depositBatch",
      "outputs": [
        {
          "internalType": "uint256[]",
          "name": "shares",
          "type": "uint256[]"
        }
      ],
      "stateMutability": "payable",
      "type": "function"
    },
    {
      "inputs": [],
      "name": "depositFixedFee",
      "outputs": [
        {
          "internalType": "uint256",
          "name": "",
          "type": "uint256"
        }
      ],
      "stateMutability": "view",
      "type": "function"
    },
    {
      "inputs": [],
      "name": "depositPercentageFee",
      "outputs": [
        {
          "internalType": "uint256",
          "name": "",
          "type": "uint256"
        }
      ],
      "stateMutability": "view",
      "type": "function"
    },
    {
      "inputs": [],
      "name": "ethMultiVault",
      "outputs": [
        {
          "internalType": "contract IEthMultiVault",
          "name": "",
          "type": "address"
        }
      ],
      "stateMutability": "view",
      "type": "function"
    },
    {
      "inputs": [],
      "name": "feeRecipient",
      "outputs": [
        {
          "internalType": "address",
          "name": "",
          "type": "address"
        }
      ],
      "stateMutability": "view",
      "type": "function"
    },
    {
      "inputs": [],
      "name": "getAtomCost",
      "outputs": [
        {
          "internalType": "uint256",
          "name": "",
          "type": "uint256"
        }
      ],
      "stateMutability": "view",
      "type": "function"
    },
    {
      "inputs": [
        {
          "internalType": "uint256",
          "name": "msgValue",
          "type": "uint256"
        }
      ],
      "name": "getMultiVaultAmountFromValue",
      "outputs": [
        {
          "internalType": "uint256",
          "name": "",
          "type": "uint256"
        }
      ],
      "stateMutability": "view",
      "type": "function"
    },
    {
      "inputs": [
        {
          "internalType": "address",
          "name": "account",
          "type": "address"
        },
        {
          "internalType": "bytes32",
          "name": "termId",
          "type": "bytes32"
        },
        {
          "internalType": "uint256",
          "name": "curveId",
          "type": "uint256"
        }
      ],
      "name": "getShares",
      "outputs": [
        {
          "internalType": "uint256",
          "name": "",
          "type": "uint256"
        }
      ],
      "stateMutability": "view",
      "type": "function"
    },
    {
      "inputs": [
        {
          "internalType": "uint256",
          "name": "count",
          "type": "uint256"
        },
        {
          "internalType": "uint256",
          "name": "multiVaultCost",
          "type": "uint256"
        }
      ],
      "name": "getTotalCreationCost",
      "outputs": [
        {
          "internalType": "uint256",
          "name": "",
          "type": "uint256"
        }
      ],
      "stateMutability": "view",
      "type": "function"
    },
    {
      "inputs": [
        {
          "internalType": "uint256",
          "name": "depositAmount",
          "type": "uint256"
        }
      ],
      "name": "getTotalDepositCost",
      "outputs": [
        {
          "internalType": "uint256",
          "name": "",
          "type": "uint256"
        }
      ],
      "stateMutability": "view",
      "type": "function"
    },
    {
      "inputs": [
        {
          "internalType": "bytes32",
          "name": "tripleId",
          "type": "bytes32"
        }
      ],
      "name": "getTriple",
      "outputs": [
        {
          "internalType": "bytes32",
          "name": "",
          "type": "bytes32"
        },
        {
          "internalType": "bytes32",
          "name": "",
          "type": "bytes32"
        },
        {
          "internalType": "bytes32",
          "name": "",
          "type": "bytes32"
        }
      ],
      "stateMutability": "view",
      "type": "function"
    },
    {
      "inputs": [],
      "name": "getTripleCost",
      "outputs": [
        {
          "internalType": "uint256",
          "name": "",
          "type": "uint256"
        }
      ],
      "stateMutability": "view",
      "type": "function"
    },
    {
      "inputs": [
        {
          "internalType": "bytes32",
          "name": "id",
          "type": "bytes32"
        }
      ],
      "name": "isTermCreated",
      "outputs": [
        {
          "internalType": "bool",
          "name": "",
          "type": "bool"
        }
      ],
      "stateMutability": "view",
      "type": "function"
    },
    {
      "inputs": [
        {
          "internalType": "bytes32",
          "name": "termId",
          "type": "bytes32"
        },
        {
          "internalType": "uint256",
          "name": "curveId",
          "type": "uint256"
        },
        {
          "internalType": "uint256",
          "name": "assets",
          "type": "uint256"
        }
      ],
      "name": "previewDeposit",
      "outputs": [
        {
          "internalType": "uint256",
          "name": "",
          "type": "uint256"
        },
        {
          "internalType": "uint256",
          "name": "",
          "type": "uint256"
        }
      ],
      "stateMutability": "view",
      "type": "function"
    },
    {
      "inputs": [
        {
          "internalType": "uint256",
          "name": "newFee",
          "type": "uint256"
        }
      ],
      "name": "setCreationFixedFee",
      "outputs": [],
      "stateMutability": "nonpayable",
      "type": "function"
    },
    {
      "inputs": [
        {
          "internalType": "uint256",
          "name": "newFee",
          "type": "uint256"
        }
      ],
      "name": "setDepositFixedFee",
      "outputs": [],
      "stateMutability": "nonpayable",
      "type": "function"
    },
    {
      "inputs": [
        {
          "internalType": "uint256",
          "name": "newFee",
          "type": "uint256"
        }
      ],
      "name": "setDepositPercentageFee",
      "outputs": [],
      "stateMutability": "nonpayable",
      "type": "function"
    },
    {
      "inputs": [
        {
          "internalType": "address",
          "name": "newRecipient",
          "type": "address"
        }
      ],
      "name": "setFeeRecipient",
      "outputs": [],
      "stateMutability": "nonpayable",
      "type": "function"
    },
    {
      "inputs": [
        {
          "internalType": "address",
          "name": "admin",
          "type": "address"
        },
        {
          "internalType": "bool",
          "name": "status",
          "type": "bool"
        }
      ],
      "name": "setWhitelistedAdmin",
      "outputs": [],
      "stateMutability": "nonpayable",
      "type": "function"
    },
    {
      "inputs": [
        {
          "internalType": "address",
          "name": "",
          "type": "address"
        }
      ],
      "name": "whitelistedAdmins",
      "outputs": [
        {
          "internalType": "bool",
          "name": "",
          "type": "bool"
        }
      ],
      "stateMutability": "view",
      "type": "function"
    },
    {
      "stateMutability": "payable",
      "type": "receive"
    }
  ],
  "bytecode": "0x604060a0815234620002735762001cb7803803806200001e816200028e565b92833981019060c08183031262000273576200003a81620002b4565b602062000049818401620002b4565b91858401519360608101519560808201519060a083015160018060401b039384821162000273570181601f820112156200027357805193841162000278578360051b9086806200009b8185016200028e565b809781520192820101928311620002735786809101915b83831062000258575050506001600160a01b0393841695905085156200024757831694851562000236576127108211620002255760809897985260009460018060a01b03198654161785556001978896875560025560035583965b62000178575b85516119c29081620002f5823960805181818161018f015281816101f40152818161034b015281816106510152818161084c015281816109d701528181610ccc0152818161108501528181611196015281816113140152818161143301526115120152f35b80518710156200021f57816200018f8883620002c9565b5116620001c0575b6000198714620001ac5795840195846200010d565b634e487b7160e01b84526011600452602484fd5b81620001cd8883620002c9565b5116845260048352858420805460ff19168617905581620001ef8883620002c9565b51167fdb8e93bc198e2b2eea2f3ebbfdbc11d697156217479ac1f45564eb70891e3d05848851888152a262000197565b62000113565b8851635dfb18eb60e01b8152600490fd5b8851631023f93d60e01b8152600490fd5b8851634a787e9b60e11b8152600490fd5b81906200026584620002b4565b8152019101908690620000b2565b600080fd5b634e487b7160e01b600052604160045260246000fd5b6040519190601f01601f191682016001600160401b038111838210176200027857604052565b51906001600160a01b03821682036200027357565b8051821015620002de5760209160051b010190565b634e487b7160e01b600052603260045260246000fdfe6080604081815260049182361015610022575b505050361561002057600080fd5b005b600092833560e01c91826302ef36c71461160157508163082e709f146115535781630d65c91c146114ea5781630f060799146114cb5781630ff2663c1461149e578163247d284b146114745781632e1aa0f2146113ea5781632fb1d270146111d757816333332d391461116e5781633c6bbf4514610ebc5781634690484014610e94578163558e44d3146107ec5781635ce33d4f14610e1a5781636140330914610b5757816363173be714610b385781636828caa614610abb57816370b9add014610a9b578163717ba4d914610a5f5781637d4eaa9114610997578163ad934c1814610934578163b3ec372e146108f7578163c12f79471461081b578163c1757e36146107f1578163d73792a9146107ec578163dea9423a1461044f578163e74b981b146103c6578163ee3abe38146102f6578163f48371c014610285578163f5719008146101c2575063f8073c761461017c5780610012565b346101be57816003193601126101be57517f00000000000000000000000000000000000000000000000000000000000000006001600160a01b03168152602090f35b5080fd5b91905034610281576020928360031936011261026b578151631eae320160e31b815283359381019390935283836024817f00000000000000000000000000000000000000000000000000000000000000006001600160a01b03165afa928315610275578193610236575b5050519015158152f35b909192508381813d831161026e575b61024f8183611717565b810103126101be575190811515820361026b575090388061022c565b80fd5b503d610245565b509051903d90823e3d90fd5b8280fd5b905034610281576020366003190112610281578035903384528060205260ff8385205416156102e85750907f71bc2d9c4b3b5472e9afa8b00d83565c247798dbe5402735f27d074e8c8fdbd391600254908060025582519182526020820152a180f35b82516390c7c07160e01b8152fd5b9190503461028157606036600319011261028157602061031461161d565b8251631dc757c760e31b81526001600160a01b039182169481019490945260248035908501526044803590850152839060649082907f0000000000000000000000000000000000000000000000000000000000000000165afa9182156103bc578392610385575b6020838351908152f35b9091506020813d82116103b4575b816103a060209383611717565b81010312610281576020925051903861037b565b3d9150610393565b81513d85823e3d90fd5b905034610281576020366003190112610281576103e161161d565b903384528060205260ff8385205416156102e8576001600160a01b0391821692831561044257505082546001600160a01b0319811683178455167faaebcf1bfa00580e41d966056b48521fa9f202645c86d4ddf28113e617c1b1d38380a380f35b5163e4799d2b60e01b8152fd5b91905060a03660031901126102815761046661161d565b67ffffffffffffffff92602435848111610796576104879036908301611638565b926044358681116107e85761049f9036908501611638565b91906064358881116107e4576104b89036908701611638565b906084358a81116107e0576104d09036908901611638565b929093868a148015906107d6575b80156107cc575b6107bc576104f382846118d8565b966105196105038c6002546116c1565b6127106105126003548c6116c1565b049061170a565b610523818a61170a565b34106107ac57918c979593918f9b9a9997959361053f81611875565b89518181528a60208201523390808c810161057490604090600c81526b0c8cae0dee6d2e884c2e8c6d60a31b60208201520190565b0360008051602061192d83398151915291a289516080808252600c908201526b0c8cae0dee6d2e884c2e8c6d60a31b60a082015260c08101916020820152898b8201523460608201528033920360008051602061194d83398151915291a2600160a01b60019003998a99519d8e9c8d9b8c9a636f54a11d60e11b8c5216908a01526024890160a0905260a489019061060b926117e1565b90600319888303016044890152610621926117e1565b90600319868303016064870152610637926117e1565b9060031984830301608485015261064d926117e1565b03927f0000000000000000000000000000000000000000000000000000000000000000165af19283156107a257849361070b575b50509060008051602061196d8339815191528151835180918582526106c2868301604090600c81526b0c8cae0dee6d2e884c2e8c6d60a31b60208201520190565b9060208301520390a18151928392602080850191818652845180935285019301915b8181106106f2575050500390f35b82518452859450602093840193909201916001016106e4565b909192503d8085843e61071e8184611717565b82019160208184031261079e57805191821161079e57019080601f8301121561079a57815161074c8161174f565b9261075985519485611717565b81845260208085019260051b82010192831161079657602001905b82821061078657505050903880610681565b8151815260209182019101610774565b8580fd5b8380fd5b8480fd5b82513d86823e3d90fd5b8c516339e5774360e01b81528b90fd5b8a5163a9087e4b60e01b81528990fd5b50838214156104e5565b50818714156104de565b8b80fd5b8980fd5b8780fd5b6116a4565b82843461026b57602036600319011261026b5750610814602092356001546116c1565b9051908152f35b9190503461028157602036600319011261028157805163c12f794760e01b81528235928101929092526060826024817f00000000000000000000000000000000000000000000000000000000000000006001600160a01b03165afa9081156108ee5783928480936108a6575b50505191825260208201929092526040810191909152606090f35b0390f35b9250925092506060823d82116108e6575b816108c460609383611717565b8101031261026b57506108a28151928060208401519301519392939138610887565b3d91506108b7565b513d84823e3d90fd5b9050346102815760203660031901126102815760209260ff918391906001600160a01b0361092361161d565b168252855220541690519015158152f35b905034610281576020366003190112610281578035903384528060205260ff8385205416156102e85750907f05fcb23afb0fb7986c3f826699011cf4d5126fd38c3105ad6f16690b2bd16d2891600154908060015582519182526020820152a180f35b839150346101be5760603660031901126101be578251637d4eaa9160e01b81528135918101919091526024803590820152604480359082015282816064817f00000000000000000000000000000000000000000000000000000000000000006001600160a01b03165afa908115610a5557828092610a1e575b505082519182526020820152f35b915091508282813d8311610a4e575b610a378183611717565b8101031261026b5750602081519101518380610a10565b503d610a2d565b83513d84823e3d90fd5b82843461026b57602036600319011261026b575061081460209235610a95612710610a8c600354846116c1565b0460025461170a565b9061170a565b82843461026b57602036600319011261026b575061081460209235611812565b9050346102815760203660031901126102815780359067ffffffffffffffff9081831161079e573660238401121561079e5782013590811161079a57366024828401011161079a5760209384610b1083611859565b92610b1d86519485611717565b80845280602483860196018637830101525190209051908152f35b5050346101be57816003193601126101be576020906003549051908152f35b9050600319828136011261079a5767ffffffffffffffff823581811161079657610b849036908501611638565b90926024358381116107e857610b9d9036908701611638565b939092600191610bae8284546116c1565b97610bb987876118d8565b98610bc48a8261170a565b3410610e0b57918a99959196929485610be18e9a969d9b97611875565b60008051602061194d8339815191528b51918083528960209d848f95868391015260008051602061192d833981519152339180610c39858201604090600b81526a63726561746541746f6d7360a81b60208201520190565b0390a280516080808252600b908201526a63726561746541746f6d7360a81b60a08201529485019290925290830152346060830152339160c090a28b8b519c8d99636140330960e01b8b528d60448c01918c015252606489019660648260051b8b01019781948c925b848410610d90575050505050505092859392610cc89285948584030160248601526117e1565b03917f00000000000000000000000000000000000000000000000000000000000000006001600160a01b03165af19283156107a257846108a29594610d5a575b505060008051602061196d8339815191529083518351918291858352610d49868401604090600b81526a63726561746541746f6d7360a81b60208201520190565b918301520390a15191829182611669565b60008051602061196d83398151915292945090610d88913d8091833e610d808183611717565b810190611767565b929038610d08565b92959b60639d919497999b9d9a9295989a199083030185528b3590601e198436030182121561026b57838f920191823592018583116101be5782360381136101be578f92938484938185948e98855285850137838284010152601f801991011601019c019401940190938f9b999795928f9b99979495610ca2565b5089516339e5774360e01b8152fd5b905034610281576020366003190112610281578035903384528060205260ff8385205416156102e8576127108211610e865750907f941228a4ace352cb2d85f4fc40701585a9ba154072a8794bff7db2bb6127773491600354908060035582519182526020820152a180f35b8251635dfb18eb60e01b8152fd5b5050346101be57816003193601126101be57905490516001600160a01b039091168152602090f35b600319928492506080368501126102815767ffffffffffffffff823581811161079e57610eec9036908501611638565b60249291923582811161116a57610f069036908701611638565b95909260443581811161116657610f209036908401611638565b9990916064359081116107e457610f3a9036908501611638565b909289861480159061115c575b8015611152575b61114257610f5e866001546116c1565b9b8c97610f75610f6e85886118d8565b809a61170a565b3410611132578d610f8a8e9f9e9c9d9e611875565b8c80518281528160208201528033928101610fc090604090600d81526c637265617465547269706c657360981b60208201520190565b0360008051602061192d83398151915291a28c516080808252600d908201526c637265617465547269706c657360981b60a08201528a8e60c083019360208401528201523460608201528033920360008051602061194d83398151915291a28b519c8d9a8b998a99633c6bbf4560e01b8b528a016080905260848a0190611046926117e1565b90868983030160248a015261105a926117e1565b908487830301604488015261106e926117e1565b91848303016064850152611081926117e1565b03917f00000000000000000000000000000000000000000000000000000000000000006001600160a01b03165af19182156103bc57836108a29493611115575b505060008051602061196d833981519152825182518091848252611102858301604090600d81526c637265617465547269706c657360981b60208201520190565b9060208301520390a15191829182611669565b61112a9293503d8091833e610d808183611717565b9083806110c1565b8a516339e5774360e01b81528790fd5b885163a9087e4b60e01b81528590fd5b50818c1415610f4e565b508b8a1415610f47565b8880fd5b8680fd5b9190503461028157826003193601126102815780516333332d3960e01b8152916020908390817f00000000000000000000000000000000000000000000000000000000000000006001600160a01b03165afa9182156103bc578392610385576020838351908152f35b838360803660031901126101be576111ed61161d565b92600254803411156113db576112039034611805565b61271090818102908082048314901517156113c85760035482018092116113c8579061122e916116ea565b936112398534611805565b9461124386611875565b608484519287845260209784878a8097015260008051602061192d8339815191523391806112888b8201604090600781526619195c1bdcda5d60ca1b60208201520190565b0390a260008051602061194d8339815191528751608081526112c260808201604090600781526619195c1bdcda5d60ca1b60208201520190565b928782015285898201523460608201528033930390a285516302fb1d2760e41b81526001600160a01b0391821695810195909552602480359086015260448035908601526064803590860152849283917f0000000000000000000000000000000000000000000000000000000000000000165af19283156113bd57809361138b575b505060008051602061196d83398151915281518281528061137c848201604090600781526619195c1bdcda5d60ca1b60208201520190565b6001878301520390a151908152f35b909192508382813d83116113b6575b6113a48183611717565b8101031261026b575051908380611344565b503d61139a565b8251903d90823e3d90fd5b634e487b7160e01b855260118352602485fd5b5090516339e5774360e01b8152fd5b9190503461028157606036600319011261028157805163170d507960e11b81528235928101928352602435602084810191909152604435604085015290928390819060600103817f00000000000000000000000000000000000000000000000000000000000000006001600160a01b03165afa9182156103bc578392610385576020838351908152f35b82843461026b57602036600319011261026b5750610814612710610a8c60209460035490356116c1565b82843461026b578160031936011261026b57506108146114c3602093356001546116c1565b60243561170a565b5050346101be57816003193601126101be576020906001549051908152f35b919050346102815782600319360112610281578051630359724760e21b8152916020908390817f00000000000000000000000000000000000000000000000000000000000000006001600160a01b03165afa9182156103bc578392610385576020838351908152f35b9190503461028157806003193601126102815761156e61161d565b906024359182151580930361079e573385528360205260ff8286205416156115f1576001600160a01b03169283156115e357916020917fdb8e93bc198e2b2eea2f3ebbfdbc11d697156217479ac1f45564eb70891e3d0593858752835280862060ff1981541660ff841617905551908152a280f35b905163e4799d2b60e01b8152fd5b81516390c7c07160e01b81528490fd5b8490346101be57816003193601126101be576020906002548152f35b600435906001600160a01b038216820361163357565b600080fd5b9181601f840112156116335782359167ffffffffffffffff8311611633576020808501948460051b01011161163357565b6020908160408183019282815285518094520193019160005b828110611690575050505090565b835185529381019392810192600101611682565b346116335760003660031901126116335760206040516127108152f35b818102929181159184041417156116d457565b634e487b7160e01b600052601160045260246000fd5b81156116f4570490565b634e487b7160e01b600052601260045260246000fd5b919082018092116116d457565b90601f8019910116810190811067ffffffffffffffff82111761173957604052565b634e487b7160e01b600052604160045260246000fd5b67ffffffffffffffff81116117395760051b60200190565b60209081818403126116335780519067ffffffffffffffff821161163357019180601f8401121561163357825161179d8161174f565b936117ab6040519586611717565b818552838086019260051b820101928311611633578301905b8282106117d2575050505090565b815181529083019083016117c4565b81835290916001600160fb1b0383116116335760209260051b809284830137010190565b919082039182116116d457565b600254808211156118525761182691611805565b612710808202918083048214901517156116d45760035481018091116116d45761184f916116ea565b90565b5050600090565b67ffffffffffffffff811161173957601f01601f191660200190565b8061187d5750565b6000808080809460018060a01b038254165af1903d156118d2573d906118a282611859565b916118b06040519384611717565b825260203d92013e5b156118c057565b604051630291be7b60e31b8152600490fd5b506118b9565b60009291839182905b8284106118ee5750505050565b90919294611903908660051b8301359061170a565b946000198114611918576001019291906118e1565b634e487b7160e01b83526011600452602483fdfedb23cba216bfaed89070d2734596f2ee2a163099cfc4f5ef32036debc97922266ebd237946549f7dd8c5b01156cfe92d39b298a153adb4c9911a5008ab7768626a35bcb4a51611dbcd01a735cefa7e3801d75be5a8a7ef08e5eae650fdbc9796a264697066735822122037120c5ce0f908734e57c80ebfcf3cfb1d3f9aa6d4425c097577b7f919547d9964736f6c63430008150033",
  "linkReferences": {},
  "deployedLinkReferences": {}
}